:020000040800F2
:10500000283B002081520008659A00089390000810
:10501000619A0008BD63000899B70008000000000D
:10502000000000000000000000000000A151000886
:105030003164000800000000FD510008BDAD00080B
:105040009B5200089B5200089B5200089B5200088C
:105050009B5200089B5200089B5200089B5200087C
:105060009B5200089B5200089B5200089B5200086C
:105070009B520008C16300089B520008D1630008DE
:10508000E16300089B5200089B5200089B520008F5
:105090009B5200089B5200089B5200089B5200083C
:1050A0009B5200089B5200089B5200089B5200082C
:1050B0009B52000800000000000000009B52000806
:1050C0009B5200089B5200089B5200089B5200080C
:1050D0009B52000895B60008E9B6000845B70008DD
:1050E0009B5200089B5200080000000000000000D6
:1050F00000000000000000000000000000000000B0
:10510000000000009B520008000000009B520008B5
:105110000000000000000000C9AE00089B5200081B
:105120009B5200089B5200089B5200089B520008AB
:105130009B5200080000000000000000000000007A
:105140009B5200089B5200089B5200080000000080
:105150009B520008F1630008959300089B520008D9
:105160009B5200089B5200089B5200080000000060
:105170009B5200089B520008000000000000000045
:105180009B5200089B5200089B520008DFF80CD08D
:1051900000F0DAFC0048004779DC0008283B0020DA
:1051A0002C4B1968086800F05AB880F30988BFF3DF
:1051B0006F8F4FF0000080F31188704700000000EF
:1051C00008480068006880F308884FF0000080F30A
:1051D000148862B661B6BFF34F8FBFF36F8F00DFE5
:1051E00000BF00BF08ED00E0DFF80C00016841F4EB
:1051F00070010160704700BF88ED00E0EFF30980A7
:10520000BFF36F8F134B1A681EF0100F08BF20ED0D
:10521000108A20E9F04F106009B44FF0500080F37D
:105220001188BFF34F8FBFF36F8F09F01BFE4FF054
:10523000000080F3118809BC1968086800F014B8F0
:105240001EF0100F08BF00F014B880F30988BFF3F8
:105250006F8F704778050020EFF30580704730C8E6
:10526000B0E8C04FFFF7A1BF30C8B0E8C04FFFF7AC
:10527000E7BFB0EC088AB0EC08CAFFF7E6BF000051
:105280000648804706480047FEE7FEE7FEE7FEE7E0
:10529000FEE7FEE7FEE7FEE7FEE7FEE779AE000881
:1052A0008D5100082DE9F05F0546002092469B468F
:1052B00088460646814640241BE02846414647462C
:1052C000224600F0A2F953465A46C01A914110D323
:1052D00011461846224600F089F92D1A67EB01089D
:1052E0004F4622460120002100F080F917EB00090B
:1052F0004E41201EA4F10104DFDC484631462A4617
:10530000434600F000B830BCBDE8C09F0649074ADC
:105310000868504343F2390210440860400870475F
:105320000149086070470000D80500206D4EC64155
:1053300040EA01039B0703D009E008C9121F08C017
:10534000042AFAD203E011F8013B00F8013B521E97
:10535000F9D27047D2B201E000F8012B491EFBD20E
:1053600070470022F6E710B513460A460446194670
:10537000FFF7F0FF204610BD10B5044604E00B789F
:1053800000F8013B03B1491C521EF8D2204610BD63
:10539000421C10F8011B0029FBD1801A704710B580
:1053A000002200E0521C835C8C5CA34201D1002BE4
:1053B000F8D1D8B2E1B2401A10BD30B50546002090
:1053C000034600E05B1C934205D2EC5CC85C201AEB
:1053D00001D1002CF6D130BD0FB400B58DB010A9AD
:1053E00009900B9000914FF0FF300A9000200C9034
:1053F00005480690054807906A4609A80F9900F0ED
:1054000029F90DB05DF814FB715600088F5600089D
:105410002DE9FF5F1D464FF0FF3BD5E90146914660
:105420005F464FF00008A9697F1C01988847296AE8
:10543000824688470028F6D1BAF1FF3F0CD024F409
:10544000C064002E19DD600614D5BAF12B0F09D007
:10545000BAF12D0F0ED103E0584604B000F07EB82B
:1054600044F48064A9697F1C01988847761E8246AF
:10547000002E02DDBAF1300F03D0B9F1000F26D0B3
:1054800032E0A969761E44F400747F1C01988847B5
:105490008246002E05DDBAF1780F06D0BAF1580F1A
:1054A00003D0B9F1000F10D01EE0B9F1000F02D007
:1054B000B9F1100F18D1A969761E24F400747F1C6D
:1054C000019888478246102002E0082000E00A2068
:1054D000814609E008FB0908A969761E44F40074B6
:1054E0007F1C019888478246002E05DD49465046BC
:1054F00000F09BF80028EDDAE96901988847A005DB
:1055000002D46FF00100A8E7E00725D1600613D5AB
:10551000600502D5C8F1000000E0404629680A1D78
:105520002A600968220501D5087015E0220701D517
:10553000088011E008600FE02868011D29600068FC
:10554000210502D580F8008006E0210702D5A0F8E9
:10555000008001E0C0F8008038467EE730BCBDE83E
:10556000C09F00F0004230F000400AD0C10D01F5AC
:105570006071C0F3160042EA0151C20840071143AE
:10558000704700200146704701F0004330B421F01D
:10559000004150EA010206D00A0DA2F56072C1F383
:1055A0001301002A02DC30BC00207047440F44EA9B
:1055B000C104C100E01830BC00EBC25000F078B864
:1055C00030B50B46014600202022012409E021FAD3
:1055D00002F59D4205D303FA02F5491B04FA02F5D0
:1055E0002844151EA2F10102F1DC30BD202A04DBA3
:1055F000203A00FA02F1002070479140C2F12003E6
:1056000020FA03F3194390407047202A04DB203A24
:1056100021FA02F00021704721FA02F3D040C2F1D2
:10562000200291400843194670473A2800D230388A
:1056300020F02002412A01D3A2F13700884201D391
:105640004FF0FF307047000002681144137801608A
:1056500018467047D1600449516104491162002124
:105660001161114600F09ABA49560008915B000892
:10567000426842B1016811F8013B23B1521EC0E9F2
:105680000012184670470121C160881E70474268A9
:105690005AB1C368016843B983688B4205D0491E7B
:1056A000521CC0E90012002070474FF0FF307047D5
:1056B0000029A8BF7047401C490008BF20F0010026
:1056C000704710B4B0FA80FC00FA0CF050EA010404
:1056D00004BF10BC704749B1CCF1200421FA04F496
:1056E00011FA0CF118BF012121430843A3EB0C016F
:1056F000CB1D4FEA00614FEA102042BF002010BCD2
:10570000704700EBC35010440029A4BF10BC704781
:10571000401C490008BF20F0010010BC70472DE973
:10572000FE4F804681EA0300C00F0C46009021F036
:10573000004123F00045B8EB0200A94105D24046E4
:10574000214690461C460B46024623F0004010437B
:1057500047D0270DC7F30A00C3F30A510290401A3D
:10576000019040286BDAC3F3130040F4801B0098CB
:10577000924620B10023D2EB030A63EB0B0B019896
:105780005946C0F140025046FFF730FF06460D462D
:1057900050465946019A00F0E9F910EB08006141C2
:1057A000002487EA115284EAE7731A4340D0009A32
:1057B00062B3019A012A4FEA075215DC001B61EB24
:1057C00002014FF0004202EA0752CDE90042001CFC
:1057D00041F5801132462B4600F088FB03B000F003
:1057E00045B840462146F9E7001B61EB0201001C69
:1057F00041F5801300185B412018A2F5001747EB14
:10580000030140EAD570B6196D4111E06D084FEA09
:10581000360645EAC0754FEA0752001B61EB0201EC
:10582000001C41F5801149084FEA30000019514130
:1058300032462B4603B000F01CB800F048BB00987D
:10584000012240000023D0EB020263EBE0730098DA
:1058500021464FEAE074B8EB000061EB0401E9E790
:1058600083F000435BE781F0004158E730BCBDE8BE
:10587000C08F30BCBDE8C04FFFF7DFBF2DE9FE4F42
:1058800081EA030404F0004421F0004100944FF049
:10589000000B23F0004350EA01045ED052EA0304F7
:1058A0005BD0C3F30A54C1F30A552C44A4F2F33479
:1058B0000194A0FB0254C1F3130141F48011C3F31E
:1058C000130343F4801301FB024400FB034E840ADC
:1058D000970A44EA815447EA8357A4FB0768029574
:1058E0008D0A05FB07854FEA932C04FB0C54270512
:1058F000029D4FEA065847EA1637B5EB08056EEBEE
:10590000070C870E920E47EA811742EA8312A7FB23
:105910000201B6EB0B0164EB00042B0D43EA0C33E0
:105920005E1844EB1C50DA465146E7FB0201C5F312
:1059300013044FEA0B3343EA14534FEA0432019C39
:1059400043EA0603A4F10C040294009CCDE900B4E0
:1059500000F0CCFA03B000F003B800200146F9E7EC
:1059600030BCBDE8C08F2DE9F04D81EA030404F09E
:10597000004B21F0004514464FF0000A23F000418F
:1059800050EA050220D054EA01021DD0C5F30A579F
:105990000246C5F31303C1F31300C1F30A5640F4E2
:1059A000801543F48013A7EB0608101BD64608F2B7
:1059B000FD3873EB050002D308F1010801E09218ED
:1059C0005B41B8F1000F03DA00200146BDE8F08D1D
:1059D00000204FF48011064684460EE0171B73EB3F
:1059E000050705D3121B63EB050306434CEA010CC4
:1059F00049084FEA300092185B4150EA0107EDD1A7
:105A000052EA030012D082EA040083EA0501084347
:105A100005D0101BAB4106D20122002306E0002274
:105A20004FF0004302E06FF0010253101AEB060042
:105A30004CEB085110EB0A0041EB0B01BDE8F04DB7
:105A400000F045BA2DE9F04D00231A461B1A8A4191
:105A500003DB00200146BDE8F08DC1F30A52C1F31B
:105A6000130141F480154FF0000BD10702D100184B
:105A70006D41521E0027044640F2FF11384601EBEB
:105A8000620A3E468046024600204FF48011FFF72E
:105A9000BCFDC2197141BB1846EB0100B4EB030C0D
:105AA00075EB000C04D3E41A65EB000517460E46AF
:105AB000241908F101006D4180463428E3DDF9190D
:105AC00046EB0600091BA84103D24FF0FF321346F4
:105AD00001E0002213461BEB070046EB0A51BDE82C
:105AE000F04D00F0F4B9C1F30A52C1F3130140F2D2
:105AF000FF3341F480119A4202DA002001467047D8
:105B000040F233439A42A2F2334202DC5242FFF7A0
:105B10007CBDFFF76BBD000030B5041E71F10004C1
:105B200004DB4FF00044404264EB0101141E73F1AA
:105B3000000405DB1C464FF00043524263EB0403B4
:105B4000994208BF904230BD064C074D06E0E06820
:105B500040F0010394E8070098471034AC42F6D3B4
:105B6000FFF718FBCC090108EC090108202A06DB25
:105B7000CB17203A41FA02F043EAE07306E041FA1B
:105B800002F3D040C2F12002914008431946704709
:105B9000C0B24FF4F05100F035BA00002DE9F34FD8
:105BA0008BB04FF0000801F10C000C464FF0010BD8
:105BB00046460DF1080A019062690121019890475B
:105BC000051E2DD0252D2CD0216A8847C0B16269D1
:105BD000012101989047216A88470028F7D1411E8A
:105BE00062690198904700E0761CA1690B9888478C
:105BF000216A88470028F7D1E1690B988847DBE7DD
:105C0000A1690B9888470746A84201D1761CD3E7C3
:105C1000E1690B9888477F1C02D1B8F1000F6FD063
:105C200046E1002762693D463946019890472A2897
:105C300004D162690121019890470125DFF884921F
:105C40006269012101989047A0F130010A290AD226
:105C50004F45E5DC07EB870100EB4107303FDFD420
:105C600045F01005ECE7E90601D46FF000476C2819
:105C70000AD04C2814D0682815D06A280DD0742872
:105C80001CD07A281AD01DE0626901210198904742
:105C90006C2802D045F0040514E045F002050DE043
:105CA00045F020050AE062690121019890476828C3
:105CB00002D045F0080505E045F400656269012160
:105CC00001989047C4E9015765283DD019DC582850
:105CD0007AD00CDC452837D004DC252826D0412892
:105CE00031D131E046282FD047282CD12CE05B2839
:105CF00077D0612828D063287CD0642823D15AE04B
:105D0000D0E06F2848D008DC66281DD067281BD05B
:105D1000692821D06E2816D127E0702845D0732835
:105D200068D0752847D078280DD14DE0A1690B982F
:105D30008847054625283FF469AFE1690B988847F5
:105D40006D1C3FF46AAFB3E023466A466FF0010072
:105D50000B99AFF300809EE045F040006060A8071B
:105D600023464FF0000236D43EE0E8077FF447AF09
:105D70002068011D21600068290501D506701BE718
:105D8000290701D5068017E7A90703D5F117C0E950
:105D9000006111E706600FE745F040006060A8076A
:105DA00023464FF0080216D41EE040F60E0125EA05
:105DB0000100606016E045F040006060A8072346DF
:105DC0004FF00A0207D40FE045F040006060A807DA
:105DD00008D5234610226FF001000B99AFF3008025
:105DE00059E007E0234610226FF001000B99FFF7FE
:105DF0000FFB50E04FF000094F464B46632802D09E
:105E00005B2806D040E0E80601D40120A06001270D
:105E10003AE062690121019890475E2805D14FF070
:105E200001096269494601989047216939B9002101
:105E30000A46534643F82120491C0829FADBB0B32F
:105E4000216969B9C11700EBD16253110AEB8301D3
:105E500022F01F02821A01200B68904003430B605E
:105E600062690121019890475D28E8D1B9F1000FDE
:105E700009D00020514651F82020D24341F820207B
:105E8000401C0828F7DB02AB224600976FF00100A8
:105E90000B99AFF3008000280CDA401C08D1BBF14D
:105EA000000F05D04FF0FF300DB000F00DB8FFE748
:105EB0004046F9E7E90701D108F1010806444FF02F
:105EC000000B79E6CCCCCC0C30BCBDE8C08F10B553
:105ED000141E73F1000408DA401C41F1000192180D
:105EE0005B411A4301D120F0010010BD2DE9F04DB6
:105EF00092469B4611B1B1FA81F202E0B0FA80F20B
:105F000020329046FFF772FB04460F4640EA0A0033
:105F100041EA0B0153465A46084313D0114653EA4F
:105F2000010019D0C8F140025046FFF76EFB05464C
:105F30000E46504659464246FFF758FB084305D0E7
:105F4000012004E020463946BDE8F08D00200543DD
:105F500046EAE0762C4337430A986305E40AA0EB4F
:105F600008000022FD0A44EA47540A3002D5002006
:105F70000146E9E7010510196941DDE90845001905
:105F80006941BDE8F04DA2E70EB5C10F80EAE070AF
:105F90000844CA07002140F233438DE80E000A4648
:105FA0000B46FFF7A3FF03B000BD0EB540F233412F
:105FB00002910021CDE900110A460B46FFF796FF3A
:105FC00003B000BD70B5C1F30A5201F000450024D2
:105FD000C1F3130140F2FF3341F480119A4201DA18
:105FE000002070BD40F233439A42A2F2334203DCF8
:105FF0005242FFF70AFB00E090402C43F1D04042B0
:1060000070BD00007F2801D9002208E0064A02EB9B
:106010005002C007127800D1120902F00F020120CD
:1060200090400840704700001809010888B0002619
:10603000002588480068006840F01000854909681C
:10604000086018228449834802F054FF834800689E
:10605000006840F0100081490968086018228049F2
:106060007E4802F047FFF4E04FF0FF3202A97D487E
:10607000006809F031FA012800D0EAE09DF8080034
:10608000702829D0712802D0722879D1A0E002228C
:1060900075A10DF10A00FFF790F938B99DF80910C4
:1060A0000DF10A0271A007F0A5F908E09DF80B3088
:1060B0009DF80A209DF8091070A007F09BF99DF843
:1060C00009204FF400730DF10A01624802F074FFD9
:1060D000322008F017FDBAE05E4802F09DFB5D48F3
:1060E000C06E00684068C0F1180068490880002050
:1060F0005949664A1288885464480088142806DA88
:106100000A466248018862A007F074F90DE052481F
:10611000C07851498978CDE900104F48437802781A
:106120005A4801885DA007F065F9012D06D00222CA
:106130004DA14948FFF741F9002843D05348008852
:1061400009280CD109225CA14348FFF736F930B980
:106150005CA007F04FF901205E49087032E04B481F
:1061600000880C2811D10C225BA13B48FFF725F9D0
:1061700058B95DA007F03EF900205649087000E0CC
:1061800061E05EA004F004FD1CE009F021FC04467F
:106190002DB1B44203D95CA007F02CF9002504F618
:1061A000B836012D05D13948008803F04BFF05466C
:1061B00007E0364802882849012003F0A1FD054682
:1061C00000BF00BF18222449224802F093FE3EE09F
:1061D000224802F021FB2148C06E00684068C0F1EF
:1061E00018004E49088000201D494C4A12888854E6
:1061F00002221DA11A48FFF7E0F848B9184A47489B
:10620000018847A007F0F6F8154804F0C1FC0DE03E
:106210001348C07812498978CDE9001010484378B6
:1062200002783E48018842A007F0E4F83B48028823
:106230000B49002003F064FD054618220849074871
:1062400002F058FE03E041A007F0D4F800BF00BF01
:1062500000BF09E7D41E002064060020D41F0020E0
:106260007C06002044050020415400003C2D3A20CB
:106270002564205B25735D0A000000003C2D3A2058
:106280002564205B256325635D0A00000C05002062
:106290002D3E3A2564205B25735D0A002D3E3A258C
:1062A00064205B253032582530325825303258254D
:1062B0003032585D0A000000636F6E6E656374656E
:1062C00064000000424C4520636F6E6E6563746528
:1062D000640A00000A050020646973636F6E6E65CE
:1062E0006374656400000000424C45206469736378
:1062F0006F6E6E65637465640A00000041542B4C38
:106300004F574C3A310000003D3E2054696D654FB7
:1063100075743A204E4F524D0A0000000E050020C1
:1063200055322D3E3A2564205B25735D0A0000003E
:1063300055322D3E3A2564205B25303258253032C7
:106340005825303258253032585D0A00496E766142
:106350006C696420424C455F444154412121210A2B
:106360000000000008A004F013FC00BF41F28830D8
:1063700007F07FFD03E043F6982007F07AFD05481B
:1063800000780028F2D0F6E741542B4C4F574C3A96
:10639000310000000A05002010B500220421064843
:1063A00000F0C8FD642007F064FD012204210248CA
:1063B00000F0C0FD10BD00000004004800BFFEE773
:1063C00010B5024800F06EFA10BD0000AC210020AC
:1063D00010B5024800F066FA10BD00001C21002034
:1063E00010B5024800F05EFA10BD000064210020E4
:1063F00010B5024800F056FA10BD0000D42000206D
:1064000030B590F8444004F01C050124AC40056C04
:106410006C60046863608468102C04D10468A26016
:106420000468E16003E00468A1600468E26030BDD4
:10643000704770471849087F012801D0032811D1FF
:1064400000BF1649096841F40061144A1160114601
:10645000096821F40061116000BF1146096841F428
:1064600000711160022801D0032811D100BF0B492F
:10647000096841F48051094A11601146096821F404
:106480008051116000BF1146096841F480611160BC
:106490000021014A11777047540500200020024076
:1064A00000F0010129B10649496941F00401044A9B
:1064B00051610349496941F48031014A5161704792
:1064C00000200240094A526922F47E72C3B242EAB5
:1064D000C302064B5A611A46526942F002025A61DF
:1064E0001A46526942F480325A61704700200240D5
:1064F00010B50849496941F00101064C616102602B
:1065000000BF00BF00BFBFF36F8F00BF00BF00BF61
:10651000436010BD00200240F0B5024640231446FF
:106520000D460C4E766946F480260A4F7E6100BF08
:10653000EFF31086304672B600BF2E682660241D29
:106540002D1D5E1EF3B2002BF7D100BF80F3108823
:1065500000BFF0BD0020024070B5054600F0F0FC21
:10656000064608E0681C30B100F0EAFC801BA84237
:1065700001D3032070BD1948006900F48030002861
:10658000F0D116480069164900EA0104CCB115485B
:10659000406820431349486000BF04F0404030B1D8
:1065A0000E48806904F0404108430C49886124F09A
:1065B000404018B124F040400849086100BF012064
:1065C000D8E70648006900F0010020B100BF0120B3
:1065D0000249086100BF0020CCE700000020024013
:1065E000FAC302005405002070B501462C48044649
:1065F0000246400C05460346002038E000EB40060A
:1066000001EB4606B6F90260964205DD00EB400656
:1066100001EB4606B6F9022000EB400601EB460608
:10662000B6F902609E4205DA00EB400601EB460631
:10663000B6F9023000EB400601EB4606B6F90460FD
:10664000A64205DD00EB400601EB4606B6F9044024
:1066500000EB400601EB4606B6F90460AE4205DAEF
:1066600000EB400601EB4606B6F90450401C042836
:10667000C4DBD01A00EE100AB8EEC00A0948D0ED0B
:10668000091AC0EE210A601B00EE100AB8EEC00A1B
:106690000448D0ED0A1A80EE211A30EE810A70BD4E
:1066A0000180FFFFE806002010B58AB0044611A063
:1066B00004F06EFA182104A804F03AF9062210A199
:1066C00004A8FEF77AFE18B100202060A0800EE03A
:1066D000601D211DE21CA31CCDE90032CDE9021092
:1066E000631C224608A10DF11600FEF775FE0AB0E4
:1066F00010BD000041542B414444523A3F00000079
:1067000041542B4F4B3A0000253258253258253240
:1067100058253258253258253258000030B587B0F8
:10672000054611A004F05AFA182101A804F018F93E
:1067300001AC00E0641C20780D28FBD020780A28EA
:10674000F8D010212846FEF70CFE062209A12046AB
:10675000FEF733FE08B107B030BD0F22A11D284659
:10676000FEF70AFE00BFF6E741542B4347534E3D68
:10677000310A00002B4347534E3A00001CB5044633
:1067800006226946112003F045F920B10FA006F05A
:1067900031FE01201CBD9DF800009DF8011040EA6B
:1067A000012000B220809DF802009DF8031040EA0D
:1067B000012000B260809DF804009DF8051040EAB9
:1067C000012000B2A0800020E4E700004572726F53
:1067D0007220696E204D61675F57726974655F72E0
:1067E00065670D0A000000000146002291F82500AF
:1067F000022808D00420C86300BF002081F82400CC
:1068000000BF012070470868006820F00E000B6888
:1068100018600868006820F001000B68186091F8A3
:10682000440000F01C03012098400B6C58600120CC
:1068300081F8250000BF002081F8240000BF104629
:10684000E0E770B50446002594F82500022803D03F
:106850000420E063012520E02068006820F00E009D
:10686000216808602068006820F001002168086045
:1068700094F8440000F01C0101208840216C48601D
:10688000012084F8250000BF002084F8240000BF08
:10689000A06B10B12046A16B8847284670BD014609
:1068A000C86B704770B50446206C056820680668A0
:1068B00094F8440000F01C01042088402840E0B116
:1068C00006F00400C8B12068006800F0200028B974
:1068D0002068006820F004002168086094F84400F3
:1068E00000F01C0104208840216C4860206B0028C7
:1068F00056D02046216B884752E094F8440000F0BF
:106900001C0102208840284018B306F0020000B3A2
:106910002068006800F0200040B92068006820F07E
:106920000A0021680860012084F8250094F84400DA
:1069300000F01C0102208840216C486000BF00204C
:1069400084F8240000BFE06A50B32046E16A88471B
:1069500026E094F8440000F01C01082088402840FC
:10696000F0B106F00800D8B12068006820F00E00F1
:106970002168086094F8440000F01C010120884060
:10698000216C48600120E06384F8250000BF0020EE
:1069900084F8240000BF606B10B12046616B88470B
:1069A00070BD000010B5014609B9012010BD3E4B75
:1069B000086898420BD23D4B0868C01A1423B0FBFC
:1069C000F3F0800048643948083808640AE0364B20
:1069D0000868C01A1423B0FBF3F080004864324802
:1069E00008380864022081F825000868026847F624
:1069F000F0708243D1E9020318430B6918434B69D5
:106A000018438B691843CB6918430B6A1843024338
:106A1000086802608868B0F5804F3AD0234B083B85
:106A2000086C98421BD1D0F8A80091F8443003F0CC
:106A30001C040F23A34098431C4BA033186091F80B
:106A4000443003F01C0348689840184B083BD3F8C7
:106A5000A8301843154B083BC3F8A80019E01248AA
:106A6000A030006891F8443003F01C040F23A340C9
:106A700098430D4BA033186091F8443003F01C0389
:106A800048689840084BA0331B681843064BA03356
:106A900018600020C863012081F82500002081F8DB
:106AA000240000BF82E70000080402400800024002
:106AB0002DE9F04104460D4616461F464FF00008EA
:106AC00000BF94F82400012802D10220BDE8F08123
:106AD000012084F8240000BF94F8250001282CD15F
:106AE000022084F825000020E0632068006820F080
:106AF0000100216808603B46324629462046FFF7E0
:106B00007FFC206B30B12068006840F00E002168E7
:106B100008600BE02068006820F00400216808602D
:106B20002068006840F00A0021680860206800685A
:106B300040F001002168086006E000BF002084F8F2
:106B4000240000BF4FF002084046BFE72DE9F041A6
:106B500004460F4600BF3E480078012802D10220BB
:106B6000BDE8F08101203A49087000BF4CF2503076
:106B7000FFF7F2FC0646002E63D1354948603548E0
:106B8000006800F40070B8B13248006820F400706A
:106B9000304908600846006800F4806040B108464B
:106BA000006820F48060086003202949087715E018
:106BB00001202749087711E02648006800F480602A
:106BC00048B12448006820F480602249086002200F
:106BD0001F49087702E000201D4908772068012836
:106BE0000ED16068FFF75CFC4CF25030FFF7B4FC4C
:106BF00006461848406920F00400164948611EE026
:106C00004FF0FF303860A56813E028466168FFF751
:106C100059FC4CF25030FFF79FFC06460D48406986
:106C200040F2FA3188430B4948610EB13D6005E0FE
:106C30006D1CD4E902010844A842E6D800BFFFF762
:106C4000F9FB00BF00200249087000BF304687E70B
:106C500054050020002002400348406940F00040F5
:106C60000149486100207047002002402DE9F047AB
:106C70000446884615461E464FF0000900BF2948C5
:106C80000078012802D10220BDE8F08701202549C3
:106C9000087000BF4CF25030FFF75EFC0746002F33
:106CA00038D1204948602048006800F4806048B12D
:106CB0001D48006820F480601B49086002201949C3
:106CC000087702E00020174908773CB92A46334686
:106CD0004046FFF70DFC4FF001090BE0012C01D0FD
:106CE000022C07D129464046FFF716FC022C01D1A1
:106CF0004FF480294CF25030FFF72EFC0746B9F1D3
:106D0000000F05D00848406920EA0900064948619B
:106D1000FFF790FB00BF00200249087000BF384613
:106D2000B2E700005405002000200240002008497E
:106D3000496901F0004151B10649054A916006498F
:106D400091601146496901F0004101B1012070478D
:106D50000020024023016745AB89EFCD78B503469B
:106D60000022CBE0012696400D6805EA0604002CBF
:106D700072D04D68012D08D04D68022D05D04D68A8
:106D8000112D02D04D68122D13D19868560003259D
:106D9000B540A8435600CD68B54028439860586870
:106DA00001259540A8430D79C5F30015954028436A
:106DB0005860D86856000325B540A84356008D6832
:106DC000B5402843D8604D68022D02D04D68122D81
:106DD00013D1D60803F1200555F826005507EE0E0D
:106DE0000F25B540A8435607F60E0D69B540284358
:106DF000D60803F1200545F826001868560003253B
:106E0000B540A8430D7905F003055600B540284369
:106E100018604D6805F08055B5F1805F6DD100BFF9
:106E2000394D2D6E45F00105374E356635462D6ED0
:106E300005F00105009500BF00BF4FEAB635960882
:106E400055F8260095072E0F0F25B540A843B3F13E
:106E5000904F02D1002515E04FE02C4DAB4201D1FF
:106E600001250FE02A4DAB4201D102250AE0294D50
:106E7000AB4201D1032505E0274DAB4201D10425EA
:106E800000E007259607360FB5402843234D9608A6
:106E900045F82600224D2868A0434D6805F480354A
:106EA000B5F5803F00D120431D4D28602D1D286879
:106EB000A0434D6805F40035B5F5003F00D12043EF
:106EC000174D2D1D28602D1D2868A0434D6805F421
:106ED0008015B5F5801F00D12043114D083528607D
:106EE0002D1D2868A0434D6805F40015B5F5001F59
:106EF00000D120430A4D0C352860521C0D68D54046
:106F0000002D7FF42FAF78BD001002400004004830
:106F100000080048000C004800100048080001402C
:106F200000040140024613690B400BB1012000E050
:106F3000002070470AB1816100E081627047000063
:106F4000014800687047000048050020024692F89A
:106F5000410020282DD100BF92F84000012801D126
:106F600002207047012082F8400000BF242082F8F0
:106F700041001068006820F0010013681860106874
:106F8000006820F480501368186010680068084397
:106F9000136818601068006840F0010013681860FA
:106FA000202082F8410000BF002082F8400000BF8E
:106FB000D7E70220D5E710B502460B4692F841000C
:106FC00020282AD100BF92F84000012801D10220D8
:106FD00010BD012082F8400000BF242082F841004B
:106FE0001068006820F001001468206010680168D3
:106FF00021F4706141EA03211068016010680068A3
:1070000040F0010014682060202082F8410000BF99
:10701000002082F8400000BFDAE70220D8E7000035
:1070200010B504460CB9012010BD94F8410028B9F0
:10703000002084F84000204600F0F8F9242084F86D
:1070400041002068006820F0010021680860606845
:1070500020F07060216808612068806820F400409A
:1070600021688860E068012805D1A06840F40040EC
:107070002168886004E0A06840F4044021688860CA
:10708000E068022802D180022168486020684068D8
:1070900013490843216848602068C06820F4004014
:1070A0002168C860D4E904010843A16940EA0120CD
:1070B0002168C860D4E90701084321680860206896
:1070C000006840F001002168086000206064202012
:1070D00084F841000020206384F8420000BFA3E749
:1070E000008000022DE9FC5F0446894692469B46DB
:1070F000DDE90C780E9E94F8410020287ED117B16E
:10710000B8F1000F05D14FF400706064012000F069
:10711000B9B800BF94F84000012801D10220F6E779
:10712000012084F8400000BFFFF70AFF054619233D
:107130000122D1032046009502F0A4F808B10120F5
:10714000E5E7222084F84100402084F84200002036
:1071500060646762A4F82A8060635B4652464946D1
:107160002046CDE9006501F0F7FF30B100BF0020F7
:1071700084F8400000BF0120C9E7608DFF280CD9CA
:10718000FF2020853D48009094F828204FF0807320
:107190004946204602F05CF80BE0608D20853748B8
:1071A000009094F828204FF000734946204602F0E2
:1071B0004FF800BF3346002204212046009502F01C
:1071C00061F808B10120A2E72068406A616A08708E
:1071D000606A401C6062208D401E2085608D401ECC
:1071E0006085608D48B3208D38BB334600228021F6
:1071F0002046009502F046F818B100E03CE001207E
:1072000085E7608DFF280CD9FF20208500200090A5
:1072100094F828204FF080734946204602F018F871
:107220000BE0608D20850020009094F828204FF01E
:1072300000734946204602F00BF8608D0028B9D152
:107240002A463146204602F04CF808B101205EE79C
:1072500020202168C86120684068094908402168E9
:107260004860202084F84100002084F8420000BFDC
:1072700084F8400000BF4AE7022048E7002400806D
:1072800000E800FE3CBCBDE8C09F00002DE9FC5FAB
:107290000446894692469B46DDE90C780E9E94F89A
:1072A000410020287DD117B1B8F1000F05D14FF46E
:1072B00000706064012000F0B5B800BF94F8400091
:1072C000012801D10220F6E7012084F8400000BF28
:1072D000FFF736FE054619230122D103204600950B
:1072E00001F0D0FF08B10120E5E7212084F841003A
:1072F000402084F84200002060646762A4F82A807D
:1073000060635B46524649462046CDE9006501F080
:1073100061FF30B100BF002084F8400000BF0120B1
:10732000C9E7608DFF280CD9FF2020850020009040
:1073300094F828204FF080734946204601F088FFDA
:107340000BE0608D20850020009094F828204FF0FD
:1073500000734946204601F07BFF00BF2A463146B4
:10736000204601F0E9FF08B10120A4E7606A007837
:1073700021688862606A401C6062608D401E608582
:10738000208D401E2085608D40B3208D30BB33465C
:10739000002280212046009501F074FF10B10120E9
:1073A00089E73AE0608DFF280CD9FF202085002076
:1073B000009094F828204FF080734946204601F051
:1073C00047FF0BE0608D20850020009094F8282076
:1073D0004FF000734946204601F03AFF608D0028C7
:1073E000BCD12A463146204601F07BFF08B101207E
:1073F00061E720202168C86120684068084908408A
:1074000021684860202084F84100002084F8420070
:1074100000BF84F8400000BF4DE702204BE70000AA
:1074200000E800FE3CBCBDE8C09F000010B586B07F
:107430000446142101A8FDF794FF184920688842EA
:1074400029D100BF1648C06C40F002001449C8643E
:107450000846C06C00F00200009000BF00BFC020D2
:107460000190122002900120039003200490042038
:10747000059001A90B48FFF771FC00BF0848806D1B
:1074800040F40010064988650846806D00F400103D
:10749000009000BF00BF06B010BD000000540040C7
:1074A00000100240000400480348006803490978BE
:1074B0000844014908607047480500205005002035
:1074C00010B50024032000F0C5F8002000F008F8F3
:1074D00008B1012401E000F047F8204610BD00008B
:1074E00070B588B0044600250026002221463620CB
:1074F00000F06EF8362000F057F800BF1648806D97
:1075000040F01000144988650846806D00F01000B6
:10751000019000BF00BF02A903A800F0A1FB00F08A
:10752000C7FB05460D48B5FBF0F0461E0C480D495B
:10753000086040F2E7310B48C160466000210161FC
:10754000816001F006F820B9064801F03BF808B068
:1075500070BD0120FBE700000010024040420F0018
:10756000001000404824002008B500BF0D48006E00
:1075700040F001000B4908660846006E00F001006B
:10758000009000BF00BF00BF0846806D40F08050F3
:1075900088650846806D00F08050009000BF00BFF5
:1075A00008BD0000001002400146084600280DDB1F
:1075B00000BF00BF00F01F0301229A4043099B0057
:1075C00003F1E023C3F8002100BF00BF00BF7047F4
:1075D0002DE9F05F80460D461646002704F034F989
:1075E000074639462A46334601F00700C0F1070A2C
:1075F000BAF1040F02D94FF0040A01E0C0F1070A02
:10760000D14600F1040ABAF1070F02D24FF0000A86
:1076100001E0A0F1030AD4464FF0010A0AFA09FA80
:10762000AAF1010A0AEA020A0AFA0CFA4FF0010B5F
:107630000BFA0CFBABF1010B0BEA030B4AEA0B0450
:107640002146404604F008F900F000B830BCBDE81F
:10765000C09F000000BF00F00702064B19684FF6FC
:10766000FF031940044B0B4343EA0221014B19600D
:1076700000BF70470CED00E00000FA0500BF00BF3E
:1076800000BF00BF00BFBFF34F8F00BF00BF00BFF0
:107690000948006800F4E06008490843001D0649F5
:1076A000086000BF00BF00BFBFF34F8F00BF00BF27
:1076B00000BF00BF00BFFDE70CED00E00000FA05D1
:1076C0000246B2F5007F2AD11D48006800F4C06070
:1076D000B0F5007F32D01A48006820F4C06040F452
:1076E0000070174B18601748006832235843164B38
:1076F000B0FBF3F0411C00E0491E1148406900F462
:107700008060B0F5806F01D10029F5D10C48406947
:1077100000F48060B0F5806F10D1032070470848F6
:10772000006800F4C060B0F5806F07D004480068BE
:1077300020F4C06040F48060014B18600020EDE749
:10774000007000407405002040420F0002480068AD
:1077500000F4C06070470000007000402DE9F8435D
:1077600004460025A846208800F40060B0F5006FAC
:1077700026D1606C68B1B0F5000F03D0B0F5400FB2
:107780000ED10CE0D548C06840F48030D349C860C1
:1077900008E00021201D02F061FE054602E001E044
:1077A000012500BF00BF55B9CC488830006820F4DF
:1077B0004000616C0843C949C1F8880000E0A84650
:1077C000206800F40030B0F5003F75D14FF000099B
:1077D000C248806D012121EA107078B100BFBF4816
:1077E000806D40F08050BD4988650846806D00F08E
:1077F0008050009000BF00BF4FF00109B8480068FA
:1078000040F48070B6490860FFF79AFB074606E02F
:10781000FFF796FBC01B022801D9032505E0B048FD
:10782000006800F480700028F2D000BF7DBBAB4838
:107830009030006800F44076CEB1A06DB04216D012
:10784000A6489030006820F44076A448D0F8900014
:1078500040F48030A149C1F890000846D0F890006B
:1078600020F48030C1F890000846C0F8906006F01F
:107870000100A8B1FFF764FB074609E0FFF760FBD2
:10788000C01B41F28831884202D9032507E016E087
:1078900092489030006800F002000028EED000BF4F
:1078A0005DB98E489030006820F44070A16D0843A7
:1078B0008A49C1F8900003E00CE0A84600E0A84621
:1078C000B9F1010F05D18548806D20F080508349C2
:1078D000886500BF207800F0010048B17F488830FB
:1078E000006820F00300216A08437C49C1F8880041
:1078F000207800F00200022809D17848883000681A
:1079000020F00C00616A08437449C1F888002078AF
:1079100000F00400042809D170488830006820F085
:107920003000A16A08436D49C1F88800207800F052
:107930002000202809D169488830006820F4406080
:10794000E16A08436549C1F88800208800F40070A6
:10795000B0F5007F09D161488830006820F44020EC
:10796000E16B08435D49C1F88800208800F480601D
:10797000B0F5806F09D159488830006820F4401074
:10798000216C08435549C1F88800207800F0400078
:10799000402809D151488830006820F44050216BBC
:1079A00008434E49C1F88800207800F08000802804
:1079B00009D14A488830006820F44040616B084390
:1079C0004649C1F88800208800F48070B0F5807FB7
:1079D00009D142488830006820F44030A16B084348
:1079E0003E49C1F88800206800F40020B0F5002F5F
:1079F0001FD13A488830006820F04060A16C0843ED
:107A0000364988310860A06CB0F1006F06D1334868
:107A1000C06840F480103149C8600AE0A06CB0F141
:107A2000806F06D10121201D02F018FD054605B129
:107A3000A846206800F48020B0F5802F1FD1274889
:107A40008830006820F04060E16C084323498831A9
:107A50000860E06CB0F1006F06D12048C06840F4C7
:107A600080101E49C8600AE0E06CB0F1806F06D15A
:107A70000121201D02F0F2FC054605B1A846208830
:107A800000F48040B0F5804F14D11448883000686D
:107A900020F04050216D0843104988310860206D66
:107AA000B0F1805F06D10221201D02F0D7FC05460F
:107AB00005B1A846208800F40040B0F5004F09D178
:107AC00006488830006820F08040616D0843034913
:107AD000C1F888004046BDE8F8830000001002406D
:107AE000007000402DE9F04104460D4614B9012014
:107AF000BDE8F0815548006800F00700A8420ED2AA
:107B00005248006820F007002843504908600846A2
:107B1000006800F00700A84201D00120E8E72078C3
:107B200000F00100002840D06068032806D14848D2
:107B3000006800F00070D8B90120D9E76068022819
:107B400006D14348006800F4003088B90120CFE72F
:107B5000606830B93E48006800F0020040B901207A
:107B6000C6E73B48006800F4806008B90120BFE721
:107B70003748806820F00300616808433449886012
:107B8000FFF7DEF9064608E0FFF7DAF9801B41F25D
:107B90008831884201D90320AAE72D48806800F087
:107BA0000C006168B0EB810FEED1207800F002008C
:107BB000022807D12648806820F0F000A168084319
:107BC000234988602148006800F00700A8420ED9C8
:107BD0001E48006820F0070028431C49086008463A
:107BE000006800F00700A84201D0012080E720785B
:107BF00000F00400042807D11548806820F4E060F4
:107C0000E168084312498860207800F008000828DD
:107C100008D10F48806820F46050216940EAC10013
:107C20000B49886000F068F809498968C1F30311BD
:107C3000084A515C01F01F01C84007490860074825
:107C40000068FFF74DFC0746384651E70020024028
:107C500000100240C8060108740500204C050020F1
:107C60000F2202600D4A926802F0030242600B4A42
:107C7000926802F0F0028260084A926802F4E062C0
:107C8000C260064A926802F46052D2080261044A55
:107C9000126802F007020A607047000000100240FC
:107CA0000020024001480068704700007405002071
:107CB00000B5FFF7F7FF05498968C1F30221044ABF
:107CC000515C01F01F01C84000BD000000100240DF
:107CD000D806010800B5FFF7E5FF05498968C1F33B
:107CE000C221044A515C01F01F01C84000BD0000E0
:107CF00000100240D8060108F0B500230020DFF88C
:107D0000D4C0DCF808C00CF00C01DFF8C8C0DCF807
:107D10000CC00CF0030719B10C291ED1012F1CD186
:107D2000DFF8B0C0DCF800C00CF0080CBCF1000FAC
:107D300006D1DFF8A0C0DCF894C0CCF3032305E043
:107D4000DFF890C0DCF800C0CCF30313DFF888C084
:107D50005CF8233041B9184606E0042901D11F48D8
:107D600002E0082900D11E480C2932D1DFF864C096
:107D7000DCF80CC00CF00304012C09D0022C02D05A
:107D8000032C04D101E0154A04E0154A02E000BFCB
:107D90001A4600BF00BFDFF83CC0DCF80CC0CCF3D3
:107DA000021C0CF10106DFF82CC0DCF80CC0CCF38F
:107DB000062C0CFB02FCBCFBF6F2DFF818C0DCF86A
:107DC0000CC0CCF3416C0CF1010C4FEA4C05B2FB3A
:107DD000F5F0F0BD00100240E00601080024F400B8
:107DE00000127A002DE9F843044614B90120BDE8D9
:107DF000F883F948806800F00C06F748C06800F086
:107E00000307207800F01000102877D11EB10C2E47
:107E100076D1012F74D1F048006800F0020018B14B
:107E2000A06908B90120E2E7EB48216A006800F088
:107E3000080020B1E848006800F0F00005E0E648DE
:107E40009430006800F47060000981421FD9206AF4
:107E500002F0C8FB08B10120C9E700BFDE48006896
:107E600040F00800DC4908600846006820F0F00097
:107E7000216A0843D849086000BF0846406820F4DA
:107E80007F40E16940EA0120D34948601FE000BF1C
:107E9000D148006840F00800CF49086008460068F3
:107EA00020F0F000216A0843CB49086000BF084673
:107EB000406820F47F40E16940EA0120C6494860FB
:107EC0002EB9206A02F08EFB08B101208FE7FFF780
:107ED00013FFC1498968C1F30311C04A515C01F025
:107EE0001F01C840BE490860BE480068FFF7F8FAA5
:107EF0008046B8F1000F4ED0404678E74BE0FFE7F0
:107F0000A06980B3B448006840F00100B24908603D
:107F1000FFF716F8054606E0FFF712F8401B0228A7
:107F200001D9032063E7AC48006800F00200002894
:107F3000F2D000BFA848006840F00800A6490860D9
:107F40000846006820F0F000216A0843A249086052
:107F500000BF0846406820F47F40E16940EA012004
:107F60009D49486017E0FFE79B48006820F001004A
:107F700099490860FEF7E4FF054606E0FEF7E0FFDA
:107F8000401B022801D9032031E79348006800F024
:107F900002000028F2D1207800F0010000285CD017
:107FA000082E03D00C2E0AD1032F08D18A4800686E
:107FB00000F4003088B3606878BB012017E700BF89
:107FC0006068B0F5803F06D18348006840F4803097
:107FD000814908601AE06068B0F5A02F0BD17E4897
:107FE000006840F480207C4908600846006840F43E
:107FF000803008600AE07848006820F480307649D4
:1080000008600846006820F48020086000BF6068AF
:1080100090B1FEF795FF054607E01EE0FEF790FFE2
:10802000401B642801D90320E1E66B48006800F496
:1080300000300028F2D010E0FEF782FF054606E08F
:10804000FEF77EFF401B642801D90320CFE662487B
:10805000006800F400300028F2D1207800F002001F
:10806000022852D1042E03D00C2E14D1022F12D18B
:108070005948006800F4806018B1E06808B9012030
:10808000B5E65548406820F0FE40217C40EA01609A
:108090005149486039E0E06800B34F48006840F457
:1080A00080704D490860FEF74BFF054606E0FEF77D
:1080B00047FF401B022801D9032098E64648006884
:1080C00000F480600028F2D04348406820F0FE4071
:1080D000217C40EA01604049486016E03E48006863
:1080E00020F480703C490860FEF72AFF054606E050
:1080F000FEF726FF401B022801D9032077E6364809
:10810000006800F480600028F2D1207800F00800B8
:10811000082836D16069D0B12F489430006840F00B
:1081200001002D49C1F89400FEF70AFF054606E05C
:10813000FEF706FF401B022801D9032057E6264818
:108140009430006800F002000028F1D019E02248C5
:108150009430006820F001001F49C1F89400FEF738
:10816000EFFE054606E0FEF7EBFE401B022801D9B4
:1081700003203CE618489430006800F00200002814
:10818000F1D1207800F00400042872D14FF00009EA
:108190001148806D00F0805078B900BF0E48806DA6
:1081A00040F080500C4988650846806D00F0805092
:1081B000009000BF00BF4FF001090B48006800F4B9
:1081C000807000BB0848006840F480700649086071
:1081D000FEF7B6FE054610E000100240C806010892
:1081E000740500204C05002000700040FEF7A8FE3A
:1081F000401B022801D90320F9E5D048006800F4AB
:1082000080700028F2D000BFA068012808D1CC48B7
:10821000006840F00100CA499039C1F8900021E09F
:10822000A06805280FD1C648006840F00400C44982
:108230009039C1F890000846D0F8900040F0010055
:10824000C1F890000EE0BE48006820F00100BC4973
:108250009039C1F890000846D0F8900020F0040052
:10826000C1F8900000BFA068A0B1FEF769FE054606
:1082700009E02EE0FEF764FE401B41F2883188429F
:1082800001D90320B3E5AE48006800F002000028E1
:10829000F0D012E0FEF754FE054608E0FEF750FE6F
:1082A000401B41F28831884201D903209FE5A44850
:1082B000006800F002000028F0D1B9F1010F07D1E9
:1082C0009F489038806D20F080509D499039886596
:1082D00000BF207800F02000202838D1606AD8B193
:1082E00097480830006840F0010095499039C1F87E
:1082F0009800FEF725FE054606E0FEF721FE401B2E
:10830000022801D9032072E58D480830006800F08A
:1083100002000028F1D01AE089480830006820F0F7
:10832000010087499039C1F89800FEF709FE05461B
:1083300006E0FEF705FE401B022801D9032056E5A2
:108340007F480830006800F002000028F1D1A06AE0
:1083500000287DD0A06A02287BD179489038C76870
:1083600007F00301E06A814225D107F07001206B1C
:10837000401EB1EB001F1ED107F4FE41606BB1EB54
:10838000002F18D107F078413820005DB1EBC06FA5
:1083900011D107F4C001A08F0122C2EB5000B1EB54
:1083A000405F08D107F0C0614020005DC2EB500083
:1083B000B1EB406F66D00C2E62D0614890380068F7
:1083C00000F0806008B1012011E55D489038006838
:1083D00020F080705A4990390860FEF7B1FD0546DB
:1083E00006E0FEF7ADFD401B022801D90320FEE4A4
:1083F00053489038006800F000700028F1D1D4E9AB
:108400000B10401E41EA0011606B41EA0021A08F71
:108410000122C2EB500041EA40514020005DC2EB16
:10842000500041EA40613820005D41EAC0604449A3
:108430009039C968434A1140084341499039C8609E
:108440000846006840F0807008600846C06801E097
:108450005BE03DE040F08070C860FEF771FD0546CE
:1084600006E0FEF76DFD401B022801D90320BEE4A3
:1084700033489038006800F000700028F1D05AE0CE
:108480000120B4E42E489038006800F00070E0BB92
:108490002B489038006840F0807029499039086076
:1084A0000846C06840F08070C860FEF749FD054688
:1084B00006E0FEF745FD401B022801D9032096E4A3
:1084C0001F489038006800F000700028F1D032E0BA
:1084D0000C2E2ED01A489038006820F08070184971
:1084E000903908600846006800F0006020B908462E
:1084F000C06820F00300C86011489038C068124975
:1085000008400F499039C86000E014E0FEF718FDFC
:10851000054606E0FEF714FD401B022801D90320A2
:1085200065E407489038006800F000700028F1D139
:1085300001E001205BE4002059E4000000700040ED
:10854000901002408C809D01FFFFEEFE7047704747
:10855000704710B504460CB9012010BD94F83D00D9
:1085600028B9002084F83C00204600F029F80220B9
:1085700084F83D00211D206802F0AEFC012084F843
:10858000480000BF84F83E0001213F2001554020F3
:10859000015541200155422001554320015500BF9E
:1085A00000BF012084F844004520015546200155B4
:1085B0004720015500BF012084F83D000020CCE792
:1085C00070470000014691F83D00012801D00120CC
:1085D0007047022081F83D000868C06840F0010043
:1085E0000B68D860124B0868984207D00868B0F151
:1085F000804F03D00F4B0868984210D108688068FC
:108600000D4B00EA0302062A0FD0B2F5803F0CD0D2
:108610000868006840F001000B68186005E0086811
:10862000006840F001000B6818600020D0E70000EF
:10863000002C01400040014007000100704710B5C8
:10864000044620680069C0F34000D8B12068C068C3
:10865000C0F34000B0B16FF0020021680861012052
:1086600020772068806900F0030018B12046FFF7EA
:10867000E5FF05E0204600F0BEF8204600F0BCF81B
:108680000020207720680069C0F38000D8B12068FE
:10869000C068C0F38000B0B16FF0040021680861C9
:1086A000022020772068806900F4407018B12046CD
:1086B000FFF7C4FF05E0204600F09DF8204600F0DB
:1086C0009BF80020207720680069C0F3C000D8B173
:1086D0002068C068C0F3C000B0B16FF00800216826
:1086E0000861042020772068C06900F0030018B1F9
:1086F0002046FFF7A3FF05E0204600F07CF8204667
:1087000000F07AF80020207720680069C0F300109C
:10871000D8B12068C068C0F30010B0B16FF010008D
:1087200021680861082020772068C06900F4407043
:1087300018B12046FFF782FF05E0204600F05BF805
:10874000204600F059F8002020772068006900F0EA
:10875000010058B12068C06800F0010030B16FF02E
:10876000010021680861204600F048F8206800698F
:10877000C0F3C01058B12068C068C0F3C01030B159
:108780006FF08000216808612046FFF7E0FE206856
:108790000069C0F3002058B12068C068C0F3C01061
:1087A00030B16FF48070216808612046FFF7CEFE7B
:1087B00020680069C0F3801058B12068C068C0F319
:1087C000801030B16FF0400021680861204600F051
:1087D00021F820680069C0F3401058B12068C068D3
:1087E000C0F3401030B16FF02000216808612046CE
:1087F000FFF7AEFE10BD70477047000010B504468D
:1088000003492068884201D1FEF74EFE10BD0000EA
:10881000001000407047704770B50446656FA66F42
:108820002068806800F08000802819D1212D17D1A0
:108830002068806820F0800021688860A06E60B1A8
:10884000A06EFDF7D1FF40B1A06EFEF728F82028FA
:1088500003D11020E067032070BD204602F033FDF5
:108860002068806800F04000402819D1222E17D1DE
:108870002068806820F0400021688860E06E60B168
:10888000E06EFDF7B1FF40B1E06EFEF708F820287A
:1088900003D11020E0670320DEE7204602F0F2FC5F
:1088A0000020D9E710B5044604492068884204D165
:1088B00040220349034800F01DFB10BD0048004062
:1088C000A4060020542000202DE9F047044620682B
:1088D000C569206806682068876840F60F0005EAC9
:1088E0000008B8F1000F0CD105F0200048B106F0E7
:1088F000200030B1206E10B12046216E8847BDE8BF
:10890000F087B8F1000F7DD007F0010018B95A4880
:1089100030400028F7D005F0010048B106F480701F
:1089200030B1012021680862E06F40F00100E0678B
:1089300005F0020048B107F0010030B102202168C3
:108940000862E06F40F00400E06705F0040048B101
:1089500007F0010030B1042021680862E06F40F0A8
:108960000200E06705F0080060B106F0200010B9D1
:1089700007F0010030B1082021680862E06F40F084
:108980000800E06705F4006050B106F0806038B17F
:108990004FF4006021680862E06F40F02000E0675B
:1089A000E06F80B305F0200038B106F0200020B160
:1089B000206E10B12046216E8847D4F87C90206844
:1089C000806800F04000402802D009F0280030B351
:1089D000204602F057FC2068806800F040004028E4
:1089E00019D12068806820F0400021688860E06E1E
:1089F00068B12248E16E8863E06EFDF722FF10B196
:108A0000E06E01E011E00FE0816B88470CE020464A
:108A1000FFF748FF08E02046FFF744FF04E0204648
:108A2000FFF740FF0020E06769E705F4801050B1D0
:108A300007F4800038B14FF48010216808622046A6
:108A4000FFF7E9FE5BE705F0800040B106F080002B
:108A500028B1606E10B12046616E88474FE705F07F
:108A6000400030B106F0400018B1204602F01BFC77
:108A700045E700BF43E7000020010004C3B1000840
:108A800010B504460CB9012010BDA06900B100E08A
:108A900000BF606F28B9002084F87000204600F005
:108AA00029F8242060672068006820F00100216810
:108AB0000860204602F010FC012800D1E4E7606A5B
:108AC00010B1204602F0CAFA2068406820F49040B5
:108AD000216848602068806820F02A00216888604A
:108AE0002068006840F0010021680860204602F01C
:108AF00031FBC9E710B586B00446142101A8FCF784
:108B000030FCA449206888424CD100BFA248C06D07
:108B100040F00100A049C8650846C06D00F00100A2
:108B2000009000BF00BF00BF0846C06C40F00200CC
:108B3000C8640846C06C00F00200009000BF00BF8F
:108B40004FF4406001900220029000200390012029
:108B500004900820059001A99048FEF7FFF890487E
:108B6000904908600420486000218E488160C160FF
:108B700080210161002141618161C1610162FDF7D4
:108B800011FF08B1FDF755FC00BF8648E06684621E
:108B900000BF002205214620FEF71AFD4620FEF701
:108BA00003FDF4E08049206888424DD100BF7A4837
:108BB000006E40F48040784908660846006E00F474
:108BC0008040009000BF00BF00BF0846C06C40F06E
:108BD0000100C8640846C06C00F00100009000BFAE
:108BE00000BF4FF4C060019002200290002003906B
:108BF000012004900720059001A94FF09040FEF756
:108C0000ADF86A486A490860022048600021684857
:108C10008160C16080210161002141618161C16188
:108C20000162FDF7BFFE08B1FDF703FC00BF60481D
:108C3000E066846200BF002205212520FEF7C8FC03
:108C40002520FEF7B1FCA2E05A49206888424DD1A8
:108C500000BF5148806D40F400304F498865084698
:108C6000806D00F40030009000BF00BF00BF0846D8
:108C7000C06C40F00100C8640846C06C00F0010000
:108C8000009000BF00BF0C20019002200290002045
:108C90000390032004900720059001A94FF0904015
:108CA000FEF75CF8414814304349086002204860F0
:108CB000002141488160C160802101610021416142
:108CC0008161C1610162FDF76DFE08B1FDF7B1FB85
:108CD00000BF3948E066846200BF002206212620DA
:108CE000FEF776FC2620FEF75FFC50E03349206853
:108CF00088424CD100BF2848806D40F4802026492E
:108D000088650846806D00F48020009000BF00BF99
:108D100000BF0846C06C40F00400C8640846C06C40
:108D200000F00400009000BF00BF4FF440600190CD
:108D30000220029000200390032004900720059059
:108D400001A91F48FEF70AF8184828381D4908608D
:108D50000220486000211B488160C16080210161C0
:108D6000002141618161C1610162FDF71BFE08B113
:108D7000FDF75FFB00BF1348E066846200BF00227E
:108D800006212720FEF724FC2720FEF70DFC06B065
:108D900010BD0000008000400010024000040048A8
:108DA00080040240D42000200038014058000240D6
:108DB0001C210020004400406421002000480040A5
:108DC00000080048AC2100202DE9F84F04460E466B
:108DD00017469A46A06F202871D106B117B9012015
:108DE00000F084B800BF94F87000012801D102207F
:108DF000F6E7012084F8700000BF0020E067222021
:108E0000A067FEF79DF88346A4F85870A4F85A703E
:108E100000BFA068B0F5805F0AD1206920B940F298
:108E2000FF10A4F85C0020E0FF20A4F85C001CE028
:108E3000A06848B9206918B9FF20A4F85C0014E0C4
:108E40007F20A4F85C0010E0A068B0F1805F09D139
:108E5000206918B97F20A4F85C0006E03F20A4F840
:108E60005C0002E00020A4F85C0000BFB4F85C9055
:108E7000A068B0F5805F04D1206910B90025B04624
:108E800002E035464FF0000800BF002084F8700073
:108E900000BF21E05B46002220212046CDF800A043
:108EA00002F09DFB08B103209AE74DB92068808C41
:108EB00000EA0900A8F8000008F1020807E013E042
:108EC0002068808C09F0FF01084028706D1CB4F800
:108ED0005A00401EA4F85A00B4F85A000028D9D10C
:108EE0002020A06700207BE7022079E718BCBDE8BE
:108EF000E08F000070B504460E461546A06F20288E
:108F000050D106B10DB9012070BD00BF94F87000BA
:108F1000012801D10220F7E7012084F8700000BF8A
:108F20006665A4F858500020E0672220A067E06E34
:108F3000F8B11D48E16EC8621C48E16E08631C4828
:108F4000E16E48630020E16E8863236803F1240129
:108F50002B46626DE06EFDF7ABFD50B11020E0676F
:108F600000BF002084F8700000BF2020606701204F
:108F7000CAE700BF002084F8700000BF20680068C6
:108F800040F48070216808602068806840F001002B
:108F9000216888602068806840F04000216888600F
:108FA0000020B1E70220AFE731B2000877B2000835
:108FB000DBB10008704770472DE9F84F04460E46B4
:108FC00017469946606F20285DD106B117B9012078
:108FD00000F05BB800BF94F87000012801D10220B6
:108FE000F6E7012084F8700000BF0020E067212030
:108FF0006067FDF7A5FF8246A4F85070A4F8527090
:10900000A068B0F5805F04D1206910B90025B04692
:1090100002E035464FF0000800BF002084F87000E1
:1090200000BF1DE05346002280212046CDF800906D
:1090300002F0D5FA08B10320CAE745B9B8F8000034
:10904000C0F308002168088508F1020803E02878C9
:10905000216808856D1CB4F85200401EA4F8520027
:10906000B4F852000028DDD15346002240212046AA
:10907000CDF8009002F0B3FA08B10320A8E7202051
:1090800060670020A4E70220A2E718BCBDE8E08FDB
:10909000704700BFFEE701688969C1F3400111B163
:1090A0000021026891620168896901F0010129B912
:1090B0000168896941F0010102689161704700000F
:1090C00070B504460D46164620688069C0F300104E
:1090D00000283DD017E0681CA8B1FDF731FF801BC8
:1090E000A84200D87DB9606C40F020006064202068
:1090F00084F84100002084F8420000BF84F840005A
:1091000000BF012070BD20688069C0F340100028B6
:10911000E1D010202168C86120202168C861204664
:10912000FFF7B9FF206840680A4908402168486095
:10913000606C40F004006064202084F8410000204E
:1091400084F8420000BF84F8400000BF0120D9E746
:109150000020D7E700E800FE2DE9F84304468946E1
:1091600015461E46DDE908781948F2B20023494643
:109170000090204600F06CF842463946204600F048
:10918000DBF810B10120BDE8F883012E03D1E8B26D
:10919000216888620EE0C5F3072021688862424694
:1091A0003946204600F0C8F808B10120EBE7E8B2E4
:1091B000216888623B46002240212046CDF800808D
:1091C00000F060F808B10120DDE70020DBE70000D7
:1091D000002000802DE9F8430446894615461E46C6
:1091E000DDE908781948F2B2C302494600902046EA
:1091F00000F02EF842463946204600F09DF810B1A6
:109200000120BDE8F883012E03D1E8B2216888620D
:109210000EE0C5F3072021688862424639462046A1
:1092200000F08AF808B10120EBE7E8B22168886213
:109230003B46002280212046CDF8008000F022F835
:1092400008B10120DDE70020DBE7000000200080FE
:10925000F0B5059C05686D684FF4806606EA5456C3
:1092600066F0FC2646F4C046B543C1F309064FF448
:109270007F0707EA02473E431E43264335430668FD
:109280007560F0BD2DE9F04104460E4617461D46B7
:10929000DDF8188019E0681CB8B1FDF751FEA0EBAD
:1092A0000800A84200D885B9606C40F020006064D6
:1092B000202084F84100002084F8420000BF84F898
:1092C000400000BF0120BDE8F08120688069304087
:1092D000B04201D1012000E00020B842DBD00020E4
:1092E000F1E770B504460D4616461DE032462946A4
:1092F0002046FFF7E5FE08B1012070BDFDF720FE16
:10930000801BA84200D87DB9606C40F020006064EA
:10931000202084F84100002084F8420000BF84F837
:10932000400000BF0120E8E720688069C0F34010DA
:109330000028DBD00020E0E770B504460D46164655
:109340001FE0324629462046FFF7BAFE08B1012049
:1093500070BD681CA8B1FDF7F3FD801BA84200D8C2
:109360007DB9606C40F020006064202084F84100EA
:10937000002084F8420000BF84F8400000BF0120B4
:10938000E6E720688069C0F340000028D9D00020BB
:10939000DEE7000000B587B01248FFF795FA1148E4
:1093A0000068C06900F01000102819D10D49096843
:1093B00008620020009070208DF8040000236A46A7
:1093C00001A90948006805F097FF009838B14FF0EF
:1093D000805006490860BFF34F8FBFF36F8F00BF07
:1093E00007B000BDD41E00204405002004ED00E0BD
:1093F00008B500BF1D48806C40F002001B4988641E
:109400000846806C00F00200009000BF00BF00BF63
:109410000846806C40F0010088640846806C00F0CB
:109420000100009000BF00BF002211460D20FEF792
:10943000CFF80D20FEF7B8F8002211460F20FEF7F6
:10944000C7F80F20FEF7B0F8002211461020FEF7F3
:10945000BFF81020FEF7A8F8002211464520FEF7BD
:10946000B7F84520FEF7A0F808BD00000010024044
:1094700000B587B0142102A8FBF773FF00BF3F4877
:10948000C06C40F001003D49C8640846C06C00F063
:109490000100019000BF00BF00BF0846C06C40F053
:1094A0000200C8640846C06C00F00200019000BFD2
:1094B00000BF00BF0846C06C40F00400C864084606
:1094C000C06C00F00400019000BF00BF00BF084660
:1094D000C06C40F00800C8640846C06C00F008008A
:1094E000019000BF00BF01224FF4C0714FF09040C7
:1094F000FDF720FD012204212148FDF71BFD00227C
:109500004FF400414FF09040FDF714FD012204217B
:109510001C48FDF70FFD002208211948FDF70AFD40
:1095200048F28010029001200390002004900590E2
:1095300002A94FF09040FDF711FC0C200290012091
:10954000039000200490059002A90D48FDF706FC49
:10955000042002900120039000200490059002A9AD
:109560000848FDF7FBFB20200290002003900490A8
:1095700002A90348FDF7F2FB07B000BD001002404E
:1095800000040048000C004810B512481249086059
:1095900040F61460486000210F4881600121C160DD
:1095A0000021016141618161C1610162FDF738FD06
:1095B00008B1FCF73EFF00210748FDF7C7FC08B1E2
:1095C000FCF737FF00210448FDF7F5FC08B1FCF774
:1095D00030FF10BD00540040881E002010B50D481B
:1095E0000D4908604FF41650486000210A48816018
:1095F000C16001610C214161002181610162002093
:10960000054948620846FFF73BFA08B1FCF711FF2D
:1096100010BD000000800040D41E002010B50D4891
:109620000D4908604FF41650486000210A488160D7
:10963000C16001610C21416100218161C161016250
:109640000020054948620846FFF71AFA08B1FCF7FE
:10965000F0FE10BD00380140541F002010B50D4829
:109660000D4908604FF4E130486000210A488160EC
:10967000C16001610C21416100218161C161016210
:109680000020054948620846FFF7FAF908B1FCF7DF
:10969000D0FE10BD00440040D41F002010B50D487E
:1096A0000D4908604FF41650486000210A48816057
:1096B000C16001610C21416100218161C1610162D0
:1096C0000020054948620846FFF7DAF908B1FCF7BF
:1096D000B0FE10BD00480040542000202DE9F04F9E
:1096E0002DED048B89B08146182101A8FBF739FEC6
:1096F00000250127A84601F017F94FF47A7005F00C
:1097000001FA8048807838B9002005F029FA09B0BC
:10971000BDEC048B00F060B900BF4FF4FA6005F0B7
:10972000F1F907A801F034F918B177A000F0CAF9EF
:10973000F3E77A480068002845DB7848016878A09C
:1097400003F058FE754801680068401C734A1060B9
:1097500001EB4100764901EB400007990160BDF83B
:109760002010818000217348006805F069FF0128FE
:1097700003D1092107A801F041FA684800683C219B
:1097800090FBF1F201FB120058B9644800686421B3
:1097900048434FF4167190FBF1FA514666A000F071
:1097A00091F95E480068B0F5167F0BDB5B480168F5
:1097B0005F4803F0C1FE64A000F084F94FF0FF3071
:1097C00056490860A9E707A94E48001D04F066FF46
:1097D00007A800F0F5F904469FB1B4420FD108F193
:1097E0000100804603280CDB002721465AA003F025
:1097F00001FE002221465C4801F030FA01E04FF002
:10980000000807A901A801F0A9F93E4890F82C002A
:10981000002826D0002D24DD294654A003F0EAFDBF
:1098200028466D1C062860DD56A003F0E3FD0025E8
:10983000002001F03DF800F0FF0ABAF1000F02D05D
:10984000BAF1010F06D101225146474801F006FA4C
:10985000002705E001274FF000084FA003F0CAFDE4
:1098600043E001A8FCF7C0FEB0EE408A18EE100AF3
:10987000FBF777FE41EC190B53EC192B3A480178B2
:109880004BA003F0B7FDB3EE040AB4EEC08AF1EECC
:1098900010FA28DD4FF0000B1A4890F82C00B8B1F0
:1098A00049A003F0A7FD002001F002F800F0FF0A34
:1098B000BAF1000F02D0BAF1010F07D101225146CF
:1098C000294801F0CBF900274FF0010B012500BF1B
:1098D000BBF1000F06D12FB901274FF000082EA0D1
:1098E00003F088FD00BF264600BF00211148006834
:1098F00005F0A6FE012804D11B48017807A801F055
:109900007DF90AE7E80600204D61672073656E73F4
:109910006F72206572726F720000000020050020D7
:10992000747261696E696E673A2025640A000000EE
:109930007810002038050020547261696E3A2025A5
:109940006425252E2E2E0000547261696E20636FEF
:109950006D706C6574652100707265646963743A3A
:109960002025640A000000001C050020776169744E
:10997000207261645F326E645F636B203D202564FA
:109980000A0000006669726520326E6420636865B3
:10999000636B210A0000000070726564696374697A
:1099A0006E672073746172742E2E2E0A0000000000
:1099B0006361723A2025642C2020466C75633A203E
:1099C000252E30660A0000006669726520726164A7
:1099D0006172210A0000000030BCBDE8C08F10B5E4
:1099E0000021202000F028F804460021302000F05B
:1099F00023F804460121342000F01EF80446122109
:109A0000412000F019F804460221202000F014F84B
:109A1000204610BDFEB504460D4616464FF0FF30F9
:109A2000012322461821CDE9005602900148FDF796
:109A300059FBFEBD881E002013B584B004464FF0CC
:109A4000FF30012105AA0B46CDE9002102902246F4
:109A500018210248FDF71AFC06B010BD881E002030
:109A600000BFFEE77047000010B504460122042144
:109A70000348FDF75FFA002005F072F810BD000002
:109A8000000C0048F0EE400A9FED0B0A20EE800A21
:109A9000BDEEC00A10EE100A002800DA4042B0F510
:109AA000FB7F02D39FED050A7047054901EB80015A
:109AB00091ED000AF8E700000000C8420000000035
:109AC00080FE00080FB410B590B013A8019002A852
:109AD000019A129901F08EFE0020019002A914A0B3
:109AE00003F088FC71208DF8280002A8FBF750FCD9
:109AF000C0B20446122800DD1224A01CC0B28DF8AA
:109B0000290002220CA10DF12A00FBF735FC2246A8
:109B100002A90BA8FBF730FC00231A460AA9074844
:109B2000006805F015FB10B010BC5DF814FB0000D8
:109B30002A3E25730A0000004D470000440500201E
:109B400010B50548007818B104A0FFF7BBFF02E08C
:109B500005A0FFF7B7FF10BD1C0500204E6F772052
:109B60005B6F2D2D2D6F5D004E6F77205B2D2D2DA2
:109B70002D2D5D0010B5084890F82C0030B1074835
:109B8000008808B106A002E006A000E008A0014697
:109B900008A0FFF797FF10BDE8060020120500207F
:109BA0006F6E00006E6F742063616C69620000006C
:109BB0006F666600526164617220257300000000C8
:109BC00000B588B00346186800909888ADF8040086
:109BD0004749684603F012FCDFED460AB4EEE00A9E
:109BE000F1EE10FA02D2002008B000BDBDF900006D
:109BF00000EE100AB8EEC00A3D481438D0ED050A50
:109C000030EE600AD0ED080A80EE201A8DED051ABC
:109C1000DDED050AB0EE600AFFF734FF3448143872
:109C2000D0ED080A9FED341A60EE810A80EE201A0A
:109C30008DED021ABDF9020000EE100AB8EEC00A5E
:109C40002B481438D0ED060A30EE600AD0ED090A30
:109C500080EE201A8DED061ADDED060AB0EE600AE0
:109C6000FFF710FF22481438D0ED090A9FED221AA1
:109C700060EE810A80EE201A8DED031ABDF9040012
:109C800000EE100AB8EEC00A19481438D0ED070AE1
:109C900030EE600AD0ED0A0A80EE201A8DED071A28
:109CA000DDED070AB0EE600AFFF7ECFE104814384D
:109CB000D0ED0A0A9FED101A60EE810A80EE201A9C
:109CC0008DED041A9DED020ADDED030A20EE200A57
:109CD000DDED040A20EE200A0848D0ED000AB4EEBB
:109CE000E00AF1EE10FA01DA01207DE700207BE7BF
:109CF000FC0600200000C8430AD7233C14050020BE
:109D000070B506460C461546022D01DA002070BDDE
:109D1000207823281ED1032D1CDB032254A12046CA
:109D2000FBF74BFB10B900F089FA9FE0032251A129
:109D30002046FBF742FB18B9E01C00F0B9FA95E0A9
:109D400003224DA12046FBF738FB0028EDD100F09F
:109D5000F5FA8BE0042DE8DB2EB3042247A1204660
:109D6000FBF72BFB30B947A003F044FB00F0E8F908
:109D70000120CCE7032246A12046FBF71EFB20B9B9
:109D8000E07800F0D1F80020C1E7042241A120468C
:109D9000FBF713FB38B900F03FFBFFF7EBFEFFF7D3
:109DA000CFFE0020B3E704223CA12046FBF705FBD1
:109DB00048B93CA003F01EFB4FF47A7004F059F848
:109DC000FDF75CFC52E004223AA12046FBF7F5FACD
:109DD00010B900F0F7F949E0042238A12046FBF75A
:109DE000ECFA10B900F088F840E0042235A12046D2
:109DF000FBF7E3FA10B900F0E7FA37E0042233A1E9
:109E00002046FBF7DAFA10B900F0F2FA2EE003224E
:109E100030A12046FBF7D1FA18B9601C00F0A2F877
:109E200024E004222CA12046FBF7C7FA10B900F069
:109E300091F81BE005222AA12046FBF7BEFA10B9D3
:109E400000F0A6FF12E0042227A12046FBF7B5FA96
:109E500018B9012000F05EFF08E0042224A120468A
:109E6000FBF7ABFA10B9002000F054FF00204EE7DA
:109E70002341230023423A00234323004F544153FC
:109E8000000000004F54412073746172740A000096
:109E9000444154005645525300000000524553546B
:109EA000000000005265626F6F74696E672E2E2E7F
:109EB0000A00000053454C46000000004D4143425B
:109EC00000000000544D414700000000545241443E
:109ED000000000004E415400494E464F0000000073
:109EE000545241494E00000052414F4E00000000C4
:109EF00052414F460000000070B5074D002404E0B9
:109F0000295D06A001F066FC641C062CF8DB05A0A8
:109F100001F060FC70BD000006F0030825303258E7
:109F2000000000000A00000010B50446322C01D1E8
:109F3000012000E000200549087000231A46194658
:109F40000348006805F004F910BD00002405002056
:109F50003805002010B504F0DBFBFFF70BFEFFF720
:109F6000EFFD10BD30B589B0044624216846FBF7EB
:109F7000F8F92046FBF70CFA85B24FF400732A4635
:109F800021460748FFF718F818B106A003F032FA87
:109F900003E0214607A003F02DFA09B030BD000010
:109FA000542000204E422D3E3A206572726F720A94
:109FB000000000004E422D3E3A25730A00000000CA
:109FC00010B505A001F006FC4FF0FF300549086010
:109FD00000200549087010BD43616E63656C6C65B7
:109FE000640D0A00040500200905002010B50AA030
:109FF00003F000FA0C49098888B200220B4900F0EE
:10A0000033FD4FF4A0310A4800F0ACFE09A003F084
:10A01000F1F9FDF733FB10BD5278204F5441452E26
:10A020002E2E0D0A0000000004050020640600200A
:10A03000009001085265626F6F74696E672E2E2E54
:10A040000D0A000010B586B00446042C1AD1042273
:10A0500026A12848FBF7B1F938B9FFF7C7FF26A0BA
:10A0600003F0C8F9002006B010BD042226A1214843
:10A07000FBF7A3F930B9FFF7A3FF25A003F0BAF966
:10A080000020F0E72648007820B126A003F0B2F9BE
:10A090000020E8E7142C01D0012000E00020204936
:10A0A00008702548006800281EDB2349098888B20B
:10A0B0002246104900F0D8FC1F48006820441E4981
:10A0C000086071208DF8000002208DF8010008461C
:10A0D0000068CDF8020000231A4669461748006858
:10A0E00005F036F80120BEE70120BCE74F5441459A
:10A0F00000000000640600204F5441453D3E4E4F95
:10A10000524D0D0A000000004F544158000000005D
:10A110004F5441583D3E4E4F524D0D0A0000000035
:10A1200008050020726F6775655F706B743D3E4E69
:10A130004F524D0D0A000000040500204405002088
:10A1400000B587B000201149087011490870114905
:10A15000086011A001F03EFB2821144803F059FCCF
:10A1600013A003F047F971208DF8040002208DF848
:10A1700005004BF6EF60ADF8060000231A4601A972
:10A180000F48006804F0E4FF07B000BD0805002098
:10A190000905002004050020457261736520666C86
:10A1A0006173682E2E2E0D0A000000000090010839
:10A1B00054783A203078424545460D0A00000000A8
:10A1C0004405002010B500F0DFFE18B108A0FFF72D
:10A1D00079FC02E00AA0FFF775FC00F0FDFE18B163
:10A1E0000CA0FFF76FFC02E00FA0FFF76BFC10BDA7
:10A1F0004D61672074657374206661696C656400E5
:10A200004D61672074657374207375636365737340
:10A2100000000000526164617220746573742066EE
:10A2200061696C656400000052616461722074654C
:10A230007374207375636365737300002DE9FC41CB
:10A2400000F0C8FE08B9012000E00020044600F03C
:10A250007DFE08B9012000E00020054600F094FED4
:10A2600008B9012000E00020064600F0B5FE08B95C
:10A27000012000E00020074624B11DB116B10FB146
:10A28000012000E0002080462B462246414603A0E4
:10A29000CDE9006701F09EFABDE8FC81232530641A
:10A2A000253064253064253064253064230A00009D
:10A2B00010B58EB004460DF11E00FCF7F5F909A8A3
:10A2C000FCF72CFA05A804A903AB02AACDE90010FB
:10A2D00011A12046FBF780F804281ADB01208DF835
:10A2E000180003208DF81900002005E002A911F8DC
:10A2F000202012310A54401C0428F7DB06A803F082
:10A30000ADFB18B108A001F065FA02E008A001F069
:10A3100061FA0EB010BD00002532582532582532A2
:10A3200058253258000000006661696C0A00000080
:10A33000737563636573730A0000000070B51B4D8D
:10A34000002404E0295D1AA001F044FA641C042CE6
:10A35000F8DB19A001F03EFA144D2D1D002404E095
:10A36000295D13A001F036FA641C062CF8DB12A05C
:10A3700001F030FA0D4D0A35002404E0295D0FA0EC
:10A3800001F028FA641C0F2CF8DB0BA001F022FA74
:10A39000112200210AA001F01DFA044DAD1E6A78B9
:10A3A000297807A001F016FA70BD000002F003083A
:10A3B00025303258000000000A000000256300002C
:10A3C00025642E25640A000010B500F0DDFD18B9E3
:10A3D00003A001F0FFF902E003A001F0FBF910BDBA
:10A3E000706173730A0000006661696C0A00000006
:10A3F00010B500F0F1FD18B903A001F0EBF902E08F
:10A4000003A001F0E7F910BD706173730A0000004A
:10A410006661696C0A00000000B587B071208DF894
:10A42000040004208DF8050002220AA10DF10600A7
:10A43000FAF7A2FF00208DF8080011208DF809001E
:10A4400000231A4601A90448006804F081FE07B001
:10A4500000BD000056520000440500202DE9F041E7
:10A4600004460F4600255B48C06800F0030090B129
:10A470005848C06800F003002168884209D120686C
:10A4800038B15448C068C0F30210401C616888426B
:10A4900033D0012531E02068012804D0022809D0FA
:10A4A00003281AD10DE04B48006800F0020000B903
:10A4B000012514E04748006800F4806000B90125D8
:10A4C0000DE04448006800F4003028B941480068B5
:10A4D00000F4802000B9012501E0012500BF00BF84
:10A4E0005DB9D4E90010401E41EA00103949C9683D
:10A4F00021F0730108433749C860002D67D1354802
:10A50000006820F0806033490860FCF719FD0646BA
:10A5100006E0FCF715FD801B022801D9032505E0A4
:10A520002C48006800F000600028F2D100BFC5BBD5
:10A5300067B9A0680002217B40EAC160254909692A
:10A54000254A114008432349086120E0012F0FD11B
:10A55000A0680002218A0122C2EB510140EA415069
:10A560001C4909691D4A114008431A4908610EE057
:10A57000A0680002217D0122C2EB510140EA416046
:10A5800014490969164A11400843124908611148E3
:10A59000006840F080600F490860FCF7D1FC064677
:10A5A00007E014E0FCF7CCFC801B022801D903254E
:10A5B00005E00848006800F000600028F2D000BF05
:10A5C0002DB904480069A169084302490861284679
:10A5D000BDE8F08100100240FF80FF07FF809FFF71
:10A5E000FF80FFF9F8B5044600262348806D00F08F
:10A5F000805018B1FDF7AAF8054616E000BF1E48C6
:10A60000806D40F080501C4988650846806D00F0E0
:10A610008050009000BF00BFFDF798F8054616482F
:10A62000806D20F0805014498865B5F5007F07D112
:10A63000802C10D9A02C01D902260CE001260AE0BA
:10A64000802C01D9032606E0802C01D1022602E0ED
:10A65000702C00D101260948006820F00700304323
:10A66000064908600846006800F00700B04201D0C3
:10A670000120F8BD0020FCE700100240002002404D
:10A680002DE9F0418EB007460D4614461E464FF0A8
:10A69000000800BF57480088012802D10EB0BDE86D
:10A6A000F08101205349088000BF00BF5248006E6E
:10A6B00040F48040504908660846006E00F480402F
:10A6C0000B9000BF00BF002289154FF09040FCF7AF
:10A6D00031FC4FF4967004F015FA002147480068E9
:10A6E00004F0AEFF46480068006840F0100044499E
:10A6F00009680860102243494148FEF7FBFB00212E
:10A700003E48006804F09CFF082D00DD08252A461D
:10A7100039460CA8FAF70CFEAAB24FF4A0630CA9B4
:10A720003748FEF749FC10213648FAF71AFE40F682
:10A73000B8313248006804F083FF01283CD130482A
:10A74000FEF76AF82E48C06E00684068C0F1100538
:10A75000082D2CDBA5F108002A4908440168216076
:10A760004068606008203060E079A17962792379DF
:10A77000CDE90732CDE90910E178A2786078237835
:10A78000CDE90330CDE905219DF833109DF8322045
:10A790003068CDE9002102909DF831309DF83020DD
:10A7A0002946194802F026FE4FF000080BE0002071
:10A7B00030604FF0010806E014A002F01BFE0020FC
:10A7C00030604FF00208642004F09CF90A48006EE3
:10A7D00020F4804008490866012289154FF0904016
:10A7E000FCF7A8FB00BF00200249088000BF4046DC
:10A7F00054E7000010050020001002403C05002036
:10A80000541F0020940600205809010872616461F9
:10A810007220636D642074696D65206F75740A0021
:10A8200030B587B014A103C9CDE905016B4601AA73
:10A8300008211348FFF724FF05462DB111A0FFF7AB
:10A8400041F9012007B030BD00240BE005A8005DF0
:10A8500001A9095D884204D00AA0FFF733F901205D
:10A86000F0E7641C052CF1D301200B4908800BA0F4
:10A87000FFF728F90020E5E7AAC1B30001000000B6
:10A8800050FE000872616461722063616C6962202D
:10A890006661696C65642100120500207261646163
:10A8A000722063616C69627261746564000000000B
:10A8B00030B585B004466B4601AA08211548FFF75C
:10A8C000DFFE054675B9009808280BDB9DF80400EB
:10A8D000AA2807D19DF80500072803D19DF80B0091
:10A8E000552803D04FF0FF3005B030BD9DF806006D
:10A8F00010B1012802D100E000BF03E006A0FFF77D
:10A90000E1F800BF00BF14B1DDF8060020609DF83B
:10A910000600E9E758FE00087261646172205B3F3F
:10A920003F3F3F3F5D00000010B5FFF779FF10BDCE
:10A9300070B504460D460748FDF76EFFAAB24FF406
:10A94000FA7321460348FEF73FFA214602A002F0BF
:10A9500051FD70BDD41E00202D3E3A25730A000023
:10A9600070B504460D460748FDF756FFAAB24FF4EE
:10A97000FA6321460348FEF727FA214602A002F0B7
:10A9800039FD70BD542000202D3E3A25730A000089
:10A9900010B5044600212020FFF74EF820B9012110
:10A9A0003120FFF749F840B121A002F023FD022138
:10A9B0002020FFF741F8012010BD02E0012003F044
:10A9C00058FA20212148FCF7ADFA0028F6D020469D
:10A9D000FBF7D4FE28B102212020FFF72DF801203B
:10A9E000EAE702212020FFF727F8B4F9000010F170
:10A9F000140F1ADBB4F90000142816DCB4F90200B5
:10AA000010F1140F11DBB4F9020014280DDCB4F9B5
:10AA1000040010F1140F08DBB4F90400142804DC5E
:10AA20000BA002F0E7FC0120C6E70020C4E700000D
:10AA30004572726F7220696E204D61675F5772694F
:10AA400074655F7265670D0A00000000000400482D
:10AA50004572726F7220696E2073656C6620746532
:10AA600073740D0A000000002DE9F04106460F4600
:10AA700015462B480078C0F18000C4B2CDB930191A
:10AA8000A0F180012648027826A000F0A3FE244809
:10AA900090F800804FEAE87108EB5171CA1028491C
:10AAA00031442144A1F18000264900F077FEBDE841
:10AAB000F081AC420DDD2349194A127888182A46E4
:10AAC0003946FAF735FC16480078284414490870CE
:10AAD000EDE71C49124A1278881822463946FAF7DF
