:020000040800F2
:10500000802300208152000829950008D38D0008D4
:10501000259500089561000845AF000800000000D4
:10502000000000000000000000000000A151000886
:105030000962000800000000FD510008CDA500082D
:105040009B5200089B5200089B5200089B5200088C
:105050009B5200089B5200089B5200089B5200087C
:105060009B5200089B5200089B5200089B5200086C
:105070009B520008996100089B520008A961000832
:10508000B96100089B5200089B5200089B5200081F
:105090009B5200089B5200089B5200089B5200083C
:1050A0009B5200089B5200089B5200089B5200082C
:1050B0009B52000800000000000000009B52000806
:1050C0009B5200089B5200089B5200089B5200080C
:1050D0009B52000839AE000895AE0008F1AE0008FA
:1050E0009B5200089B5200080000000000000000D6
:1050F00000000000000000000000000000000000B0
:10510000000000009B520008000000009B520008B5
:105110000000000000000000D9A600089B52000813
:105120009B5200089B5200089B5200089B520008AB
:105130009B5200080000000000000000000000007A
:105140009B5200089B5200089B5200080000000080
:105150009B520008C9610008D59000089B520008C6
:105160009B5200089B5200089B5200080000000060
:105170009B5200089B520008000000000000000045
:105180009B5200089B5200089B520008DFF80CD08D
:1051900000F01AFC004800470DBA000880230020E8
:1051A0002C4B1968086800F05AB880F30988BFF3DF
:1051B0006F8F4FF0000080F31188704700000000EF
:1051C00008480068006880F308884FF0000080F30A
:1051D000148862B661B6BFF34F8FBFF36F8F00DFE5
:1051E00000BF00BF08ED00E0DFF80C00016841F4EB
:1051F00070010160704700BF88ED00E0EFF30980A7
:10520000BFF36F8F134B1A681EF0100F08BF20ED0D
:10521000108A20E9F04F106009B44FF0500080F37D
:105220001188BFF34F8FBFF36F8F07F08BFB4FF0E9
:10523000000080F3118809BC1968086800F014B8F0
:105240001EF0100F08BF00F014B880F30988BFF3F8
:105250006F8F704780050020EFF30580704730C8DE
:10526000B0E8C04FFFF7A1BF30C8B0E8C04FFFF7AC
:10527000E7BFB0EC088AB0EC08CAFFF7E6BF000051
:105280000648804706480047FEE7FEE7FEE7FEE7E0
:10529000FEE7FEE7FEE7FEE7FEE7FEE789A6000879
:1052A0008D5100082DE9F05F0546002092469B468F
:1052B00088460646814640241BE02846414647462C
:1052C000224600F06BF953465A46C01A914110D35A
:1052D00011461846224600F052F92D1A67EB0108D4
:1052E0004F4622460120002100F049F917EB000942
:1052F0004E41201EA4F10104DFDC484631462A4617
:10530000434600F000B830BCBDE8C09F40EA01034E
:105310009B0703D009E008C9121F08C0042AFAD26B
:1053200003E011F8013B00F8013B521EF9D270472F
:10533000D2B201E000F8012B491EFBD270470022D7
:10534000F6E710B513460A4604461946FFF7F0FF84
:10535000204610BD10B5044604E00B7800F8013B70
:1053600003B1491C521EF8D2204610BD421C10F851
:10537000011B0029FBD1801A704710B5002200E004
:10538000521C835C8C5CA34201D1002BF8D1D8B2B3
:10539000E1B2401A10BD034611F8012B00F8012BB1
:1053A000002AF9D11846704730B50546002003465B
:1053B00000E05B1C934205D2EC5CC85C201A01D172
:1053C000002CF6D130BD00000FB400B58DB010A98F
:1053D00009900B9000914FF0FF300A9000200C9044
:1053E00005480690054807906A4609A80F9900F0FD
:1053F000F9F80DB05DF814FB015600081F560008BF
:105400002DE9FF5F1D464FF0FF3BD5E90146914670
:105410005F464FF00008A9697F1C01988847296AF8
:10542000824688470028F6D1BAF1FF3F0CD024F419
:10543000C064002E19DD600614D5BAF12B0F09D017
:10544000BAF12D0F0ED103E0584604B000F07EB83B
:1054500044F48064A9697F1C01988847761E8246BF
:10546000002E02DDBAF1300F03D0B9F1000F26D0C3
:1054700032E0A969761E44F400747F1C01988847C5
:105480008246002E05DDBAF1780F06D0BAF1580F2A
:1054900003D0B9F1000F10D01EE0B9F1000F02D017
:1054A000B9F1100F18D1A969761E24F400747F1C7D
:1054B000019888478246102002E0082000E00A2078
:1054C000814609E008FB0908A969761E44F40074C6
:1054D0007F1C019888478246002E05DD49465046CC
:1054E00000F06CF80028EDDAE96901988847A0051A
:1054F00002D46FF00100A8E7E00725D1600613D5BC
:10550000600502D5C8F1000000E0404629680A1D88
:105510002A600968220501D5087015E0220701D527
:10552000088011E008600FE02868011D296000680C
:10553000210502D580F8008006E0210702D5A0F8F9
:10554000008001E0C0F8008038467EE730BCBDE84E
:10555000C09F30B50B46014600202022012409E0FF
:1055600021FA02F59D4205D303FA02F5491B04FA1C
:1055700002F52844151EA2F10102F1DC30BD202AFB
:1055800004DB203A00FA02F1002070479140C2F19A
:10559000200320FA03F3194390407047202A04DBCC
:1055A000203A21FA02F00021704721FA02F3D0409C
:1055B000C2F1200291400843194670473A2800D2B0
:1055C000303820F02002412A01D3A2F1370088426E
:1055D00001D34FF0FF307047026811441378016027
:1055E00018467047D1600449516104491162002195
:1055F0001161114600F012BAD9550008115A00087D
:10560000426842B1016811F8013B23B1521EC0E962
:105610000012184670470121C160881E7047426819
:105620005AB1C368016843B983688B4205D0491EEB
:10563000521CC0E90012002070474FF0FF30704745
:105640002DE9FE4F804681EA0300C00F0C46009012
:1056500021F0004123F00045B8EB0200A94105D23A
:105660004046214690461C460B46024623F0004029
:10567000104347D0270DC7F30A00C3F30A51029025
:10568000401A019040286BDAC3F3130040F4801BEA
:105690000098924620B10023D2EB030A63EB0B0B78
:1056A00001985946C0F140025046FFF768FF064690
:1056B0000D4650465946019A00F098F910EB080043
:1056C0006141002487EA115284EAE7731A4340D00B
:1056D000009A62B3019A012A4FEA075215DC001BB7
:1056E00061EB02014FF0004202EA0752CDE90042AD
:1056F000001C41F5801132462B4600F037FB03B009
:1057000000F045B840462146F9E7001B61EB020175
:10571000001C41F5801300185B412018A2F500170A
:1057200047EB030140EAD570B6196D4111E06D08F1
:105730004FEA360645EAC0754FEA0752001B61EB97
:105740000201001C41F5801149084FEA30000019A0
:10575000514132462B4603B000F01CB800F0F7BAB6
:105760000098012240000023D0EB020263EBE073BB
:10577000009821464FEAE074B8EB000061EB0401A9
:10578000E9E783F000435BE781F0004158E730BC74
:10579000BDE8C08F30BCBDE8C04FFFF7DFBF2DE9CB
:1057A000FE4F81EA030404F0004421F0004100941C
:1057B0004FF0000B23F0004350EA01045ED052EAA0
:1057C00003045BD0C3F30A54C1F30A552C44A4F27A
:1057D000F3340194A0FB0254C1F3130141F480118E
:1057E000C3F3130343F4801301FB024400FB034E95
:1057F000840A970A44EA815447EA8357A4FB07685E
:1058000002958D0A05FB07854FEA932C04FB0C5487
:105810002705029D4FEA065847EA1637B5EB0805FB
:105820006EEB070C870E920E47EA811742EA83124D
:10583000A7FB0201B6EB0B0164EB00042B0D43EA5E
:105840000C335E1844EB1C50DA465146E7FB02016C
:10585000C5F313044FEA0B3343EA14534FEA0432FF
:10586000019C43EA0603A4F10C040294009CCDE9D8
:1058700000B400F07BFA03B000F003B8002001464A
:10588000F9E730BCBDE8C08F2DE9F04D81EA030493
:1058900004F0004B21F0004514464FF0000A23F0BD
:1058A000004150EA050220D054EA01021DD0C5F3A0
:1058B0000A570246C5F31303C1F31300C1F30A5696
:1058C00040F4801543F48013A7EB0608101BD6465E
:1058D00008F2FD3873EB050002D308F1010801E07E
:1058E00092185B41B8F1000F03DA00200146BDE8D1
:1058F000F08D00204FF48011064684460EE0171B01
:1059000073EB050705D3121B63EB050306434CEA53
:10591000010C49084FEA300092185B4150EA010738
:10592000EDD152EA030012D082EA040083EA0501B5
:10593000084305D0101BAB4106D20122002306E02C
:1059400000224FF0004302E06FF0010253101AEB07
:1059500006004CEB085110EB0A0041EB0B01BDE8CF
:10596000F04D00F0F4B9C1F30A52C1F3130140F253
:10597000FF3341F480119A4202DA00200146704759
:1059800040F233439A42A2F2334202DC5242FFF722
:1059900005BEFFF7F4BD000030B5041E71F1000430
:1059A00004DB4FF00044404264EB0101141E73F12C
:1059B000000405DB1C464FF00043524263EB040336
:1059C000994208BF904230BD064C074D06E0E068A2
:1059D00040F0010394E8070098471034AC42F6D336
:1059E000FFF7D8FB74DA000894DA0008202A06DBF7
:1059F000CB17203A41FA02F043EAE07306E041FA9D
:105A000002F3D040C2F1200291400843194670478A
:105A1000C0B24FF4F05100F0F7B900002DE9F34F98
:105A20008BB04FF0000801F10C000C464FF0010B59
:105A300046460DF1080A01906269012101989047DC
:105A4000051E2DD0252D2CD0216A8847C0B1626952
:105A5000012101989047216A88470028F7D1411E0B
:105A600062690198904700E0761CA1690B9888470D
:105A7000216A88470028F7D1E1690B988847DBE75E
:105A8000A1690B9888470746A84201D1761CD3E745
:105A9000E1690B9888477F1C02D1B8F1000F6FD0E5
:105AA00046E1002762693D463946019890472A2819
:105AB00004D162690121019890470125DFF88492A1
:105AC0006269012101989047A0F130010A290AD2A8
:105AD0004F45E5DC07EB870100EB4107303FDFD4A2
:105AE00045F01005ECE7E90601D46FF000476C289B
:105AF0000AD04C2814D0682815D06A280DD07428F4
:105B00001CD07A281AD01DE06269012101989047C3
:105B10006C2802D045F0040514E045F002050DE0C4
:105B200045F020050AE06269012101989047682844
:105B300002D045F0080505E045F4006562690121E1
:105B400001989047C4E9015765283DD019DC5828D1
:105B50007AD00CDC452837D004DC252826D0412813
:105B600031D131E046282FD047282CD12CE05B28BA
:105B700077D0612828D063287CD0642823D15AE0CC
:105B8000D0E06F2848D008DC66281DD067281BD0DD
:105B9000692821D06E2816D127E0702845D07328B7
:105BA00068D0752847D078280DD14DE0A1690B98B1
:105BB0008847054625283FF469AFE1690B98884777
:105BC0006D1C3FF46AAFB3E023466A466FF00100F4
:105BD0000B99AFF300809EE045F040006060A8079D
:105BE00023464FF0000236D43EE0E8077FF447AF8B
:105BF0002068011D21600068290501D506701BE79A
:105C0000290701D5068017E7A90703D5F117C0E9D1
:105C1000006111E706600FE745F040006060A807EB
:105C200023464FF0080216D41EE040F60E0125EA86
:105C30000100606016E045F040006060A807234660
:105C40004FF00A0207D40FE045F040006060A8075B
:105C500008D5234610226FF001000B99AFF30080A6
:105C600059E007E0234610226FF001000B99FFF77F
:105C7000C7FB50E04FF000094F464B46632802D067
:105C80005B2806D040E0E80601D40120A06001278F
:105C90003AE062690121019890475E2805D14FF0F2
:105CA00001096269494601989047216939B9002183
:105CB0000A46534643F82120491C0829FADBB0B3B1
:105CC000216969B9C11700EBD16253110AEB830155
:105CD00022F01F02821A01200B68904003430B60E0
:105CE00062690121019890475D28E8D1B9F1000F60
:105CF00009D00020514651F82020D24341F82020FD
:105D0000401C0828F7DB02AB224600976FF0010029
:105D10000B99AFF3008000280CDA401C08D1BBF1CE
:105D2000000F05D04FF0FF300DB000F00DB8FFE7C9
:105D30004046F9E7E90701D108F1010806444FF0B0
:105D4000000B79E6CCCCCC0C30BCBDE8C08F10B5D4
:105D5000141E73F1000408DA401C41F1000192188E
:105D60005B411A4301D120F0010010BD2DE9F04D37
:105D700092469B4611B1B1FA81F202E0B0FA80F28C
:105D800020329046FFF7FBFB04460F4640EA0A002C
:105D900041EA0B0153465A46084313D0114653EAD1
:105DA000010019D0C8F140025046FFF7F7FB054645
:105DB0000E46504659464246FFF7E1FB084305D0E0
:105DC000012004E020463946BDE8F08D002005435F
:105DD00046EAE0762C4337430A986305E40AA0EBD1
:105DE00008000022FD0A44EA47540A3002D5002088
:105DF0000146E9E7010510196941DDE90845001987
:105E00006941BDE8F04DA2E77F2801D9002208E0F2
:105E1000064A02EB5002C007127800D1120902F0C4
:105E20000F020120904008407047000004DA00088B
:105E300088B00026002582480068006840F0100005
:105E40007F490968086018227E497D4802F0F2FE09
:105E50007D480068006840F010007B4909680860D0
:105E600018227A49784802F0E5FEE8E04FF0FF3268
:105E700002A97748006807F09FF8012800D0DEE00B
:105E80009DF80800702826D0712802D0722874D19D
:105E900097E002226FA10DF10A00FFF785FA38B9E9
:105EA0009DF809100DF10A026BA005F01CFD08E039
:105EB0009DF80B309DF80A209DF809106AA005F0A6
:105EC00012FD9DF809204FF400730DF10A015C48A2
:105ED00002F012FFB1E05A4802F044FB5848C06E8D
:105EE00000684068C0F118006349088000205549E7
:105EF000614A1288885460480088142806DA0A46E5
:105F00005D4801885DA005F0EEFC0DE04D48C078CD
:105F10004C498978CDE900104A48437802785648C0
:105F200001885AA005F0DFFC02224AA14548FFF78C
:105F30003BFA00283FD05048008809280CD109229C
:105F400059A14048FFF730FA30B95AA005F0CBFC10
:105F500001205C4908702EE0474800880C280DD1CC
:105F60000C2259A13748FFF71FFA38B95AA005F09B
:105F7000BAFC0020534908701DE05AE007F098FA77
:105F800004462DB1B44203D958A005F0ACFC00255D
:105F900004F6B836012D05D13748008803F0DEFC41
:105FA000054607E0344802882649012003F076FBC5
:105FB000054600BF00BF18222249214802F03AFEE0
:105FC0003BE0214802F0CEFA1F48C06E00684068EE
:105FD000C0F118004A49088000201C49484A12882C
:105FE000885402221BA11948FFF7DEF930B9174A7D
:105FF0004348018843A005F076FC0DE01348C078C3
:1060000012498978CDE900101048437802783C485D
:10601000018840A005F067FC394802880B49002040
:1060200003F03CFB054618220849074802F002FE2F
:1060300003E040A005F057FC00BF00BF00BF15E71C
:106040003007002064060020300800207C06002075
:1060500048050020415400003C2D3A202564205B77
:1060600025735D0D0A0000003C2D3A202564205B5D
:10607000256325635D0D0A000C0500202D3E3A25A1
:1060800064205B25735D0D0A000000002D3E3A255B
:1060900064205B253032582530325825303258255F
:1060A0003032585D0D0A0000636F6E6E6563746573
:1060B00064000000424C4520636F6E6E656374653A
:1060C000640D0A000A050020646973636F6E6E65D3
:1060D0006374656400000000424C4520646973638A
:1060E0006F6E6E65637465640D0A00003D3E20545A
:1060F000696D654F75743A204E4F524D0D0A000080
:106100000E05002055322D3E3A2564205B25735D37
:106110000D0A000055322D3E3A2564205B253032B1
:10612000582530325825303258253032585D0D0A06
:1061300000000000496E76616C696420424C455F46
:10614000444154412121210D0A00000000BF41F2C9
:10615000883005F074FD03E043F6982005F06FFDEC
:10616000024800780028F2D0F6E700000A05002077
:1061700010B500220421064800F082FD642005F0DD
:106180005EFD01220421024800F07AFD10BD0000EE
:106190000004004800BFFEE710B5024800F028FAEE
:1061A00010BD0000080A002010B5024800F020FAD7
:1061B00010BD00007809002010B5024800F018FA60
:1061C00010BD0000C009002010B5024800F010FA10
:1061D00010BD00003009002030B590F8444004F0B4
:1061E0001C050124AC40056C6C6004686360846825
:1061F000102C04D10468A2600468E16003E0046824
:10620000A1600468E26030BD704770B586B0044696
:106210000D4600F031FC00200290A4F10060C00A9D
:10622000049005950020019001A902A800F034FB1C
:10623000064600F0B7FB304606B070BD7047000060
:106240001849087F012801D0032811D100BF164941
:10625000096841F40061144A11601146096821F48B
:106260000061116000BF1146096841F400711160BE
:10627000022801D0032811D100BF0B49096841F45D
:106280008051094A11601146096821F4805111605A
:1062900000BF1146096841F4806111600021014A84
:1062A000117770475C0500200020024000F00101DA
:1062B00029B10649496941F00401044A5161034981
:1062C000496941F48031014A516170470020024020
:1062D000094A526922F47E72C3B242EAC302064BF3
:1062E0005A611A46526942F002025A611A465269CC
:1062F00042F480325A6170470020024010B50849CC
:10630000496941F00101064C6161026000BF00BFB4
:1063100000BFBFF36F8F00BF00BF00BF436010BD61
:1063200000200240F0B50246402314460D460C4EB4
:10633000766946F480260A4F7E6100BFEFF310862F
:10634000304672B600BF2E682660241D2D1D5E1ECD
:10635000F3B2002BF7D100BF80F3108800BFF0BD6F
:106360000020024070B5054600F090FC064608E0AB
:10637000681C30B100F08AFC801BA84201D30320C6
:1063800070BD1948006900F480300028F0D116482B
:106390000069164900EA0104CCB115484068204361
:1063A0001349486000BF04F0404030B10E48806996
:1063B00004F0404108430C49886124F0404018B182
:1063C00024F040400849086100BF0120D8E7064892
:1063D000006900F0010020B100BF012002490861FE
:1063E00000BF0020CCE7000000200240FAC30200FA
:1063F0005C05002010B58AB0044611A004F09AF89C
:10640000182104A803F080FF062210A104A8FEF7BB
:10641000CBFF18B100202060A0800EE0601D211D80
:10642000E21CA31CCDE90032CDE90210631C224618
:1064300008A10DF11600FEF7C7FF0AB010BD00005D
:1064400041542B414444523A3F00000041542B4FE9
:106450004B3A0000253258253258253258253258FB
:10646000253258253258000030B587B0054611A0B6
:1064700004F086F8182101A803F05EFF01AC00E0EB
:10648000641C20780D28FBD020780A28F8D0102131
:106490002846FEF754FF062209A12046FEF784FF96
:1064A00008B107B030BD0F22A11D2846FEF752FFEC
:1064B00000BFF6E741542B4347534E3D310A0000DD
:1064C0002B4347534E3A00001CB50446062269464A
:1064D000112003F001F820B10FA005F004FA01200B
:1064E0001CBD9DF800009DF8011040EA012000B29B
:1064F00020809DF802009DF8031040EA012000B2C0
:1065000060809DF804009DF8051040EA012000B26B
:10651000A0800020E4E700004572726F7220696E6F
:10652000204D61675F57726974655F7265670D0A18
:10653000000000000146002291F82500022808D042
:106540000420C86300BF002081F8240000BF0120A0
:1065500070470868006820F00E000B681860086833
:10656000006820F001000B68186091F8440000F00A
:106570001C03012098400B6C5860012081F8250015
:1065800000BF002081F8240000BF1046E0E770B58E
:106590000446002594F82500022803D00420E06377
:1065A000012520E02068006820F00E0021680860C6
:1065B0002068006820F001002168086094F8440019
:1065C00000F01C0101208840216C4860012084F803
:1065D000250000BF002084F8240000BFA06B10B18C
:1065E0002046A16B8847284670BD0146C86B70479E
:1065F00070B50446206C05682068066894F844006D
:1066000000F01C01042088402840E0B106F004009E
:10661000C8B12068006800F0200028B92068006830
:1066200020F004002168086094F8440000F01C0188
:1066300004208840216C4860206B002856D02046FA
:10664000216B884752E094F8440000F01C010220BE
:106650008840284018B306F0020000B320680068A4
:1066600000F0200040B92068006820F00A0021688E
:106670000860012084F8250094F8440000F01C0113
:1066800002208840216C486000BF002084F824006C
:1066900000BFE06A50B32046E16A884726E094F8DC
:1066A000440000F01C01082088402840F0B106F0AA
:1066B0000800D8B12068006820F00E00216808604A
:1066C00094F8440000F01C0101208840216C4860CF
:1066D0000120E06384F8250000BF002084F8240036
:1066E00000BF606B10B12046616B884770BD000031
:1066F00010B5014609B9012010BD3E4B086898420B
:106700000BD23D4B0868C01A1423B0FBF3F0800095
:1067100048643948083808640AE0364B0868C01AEB
:106720001423B0FBF3F08000486432480838086452
:10673000022081F825000868026847F6F07082435D
:10674000D1E9020318430B6918434B6918438B695D
:106750001843CB6918430B6A184302430868026068
:106760008868B0F5804F3AD0234B083B086C9842BC
:106770001BD1D0F8A80091F8443003F01C040F237B
:10678000A34098431C4BA033186091F8443003F0A9
:106790001C0348689840184B083BD3F8A8301843AE
:1067A000154B083BC3F8A80019E01248A030006858
:1067B00091F8443003F01C040F23A34098430D4B81
:1067C000A033186091F8443003F01C0348689840E7
:1067D000084BA0331B681843064BA03318600020F9
:1067E000C863012081F82500002081F8240000BF43
:1067F00082E7000008040240080002402DE9F04151
:1068000004460D4616461F464FF0000800BF94F898
:106810002400012802D10220BDE8F081012084F883
:10682000240000BF94F8250001282CD1022084F810
:1068300025000020E0632068006820F00100216846
:1068400008603B46324629462046FFF7C5FC206BD0
:1068500030B12068006840F00E00216808600BE04D
:106860002068006820F00400216808602068006843
:1068700040F00A00216808602068006840F00100CC
:106880002168086006E000BF002084F8240000BFF3
:106890004FF002084046BFE72DE9F04104460F469D
:1068A00000BF3E480078012802D10220BDE8F081F7
:1068B00001203A49087000BF4CF25030FFF752FDFA
:1068C0000646002E63D1354948603548006800F41B
:1068D0000070B8B13248006820F400703049086098
:1068E0000846006800F4806040B10846006820F463
:1068F0008060086003202949087715E001202749B6
:10690000087711E02648006800F4806048B1244808
:10691000006820F480602249086002201F4908773F
:1069200002E000201D490877206801280ED1606828
:10693000FFF7BCFC4CF25030FFF714FD0646184838
:10694000406920F00400164948611EE04FF0FF3016
:106950003860A56813E028466168FFF7B9FC4CF27F
:106960005030FFF7FFFC06460D48406940F2FA310F
:1069700088430B4948610EB13D6005E06D1CD4E9C8
:1069800002010844A842E6D800BFFFF759FC00BF47
:1069900000200249087000BF304687E75C050020F0
:1069A000002002400348406940F00040014948612E
:1069B00000207047002002402DE9F0470446884639
:1069C00015461E464FF0000900BF294800780128EF
:1069D00002D10220BDE8F08701202549087000BFE0
:1069E0004CF25030FFF7BEFC0746002F38D120494B
:1069F00048602048006800F4806048B11D48006885
:106A000020F480601B49086002201949087702E0E1
:106A10000020174908773CB92A4633464046FFF71D
:106A20006DFC4FF001090BE0012C01D0022C07D1C5
:106A300029464046FFF776FC022C01D14FF480290D
:106A40004CF25030FFF78EFC0746B9F1000F05D02D
:106A50000848406920EA090006494861FFF7F0FB51
:106A600000BF00200249087000BF3846B2E70000AE
:106A70005C0500200020024000200849496901F01F
:106A8000004151B10649054A91600649916011469D
:106A9000496901F0004101B1012070470020024026
:106AA00023016745AB89EFCD78B503460022CBE0E3
:106AB000012696400D6805EA0604002C72D04D6848
:106AC000012D08D04D68022D05D04D68112D02D042
:106AD0004D68122D13D1986856000325B540A84380
:106AE0005600CD68B5402843986058680125954008
:106AF000A8430D79C5F30015954028435860D86820
:106B000056000325B540A84356008D68B54028437C
:106B1000D8604D68022D02D04D68122D13D1D608D1
:106B200003F1200555F826005507EE0E0F25B54058
:106B3000A8435607F60E0D69B5402843D60803F161
:106B4000200545F82600186856000325B540A843DF
:106B50000D7905F003055600B540284318604D68CF
:106B600005F08055B5F1805F6DD100BF394D2D6EB8
:106B700045F00105374E356635462D6E05F00105A9
:106B8000009500BF00BF4FEAB635960855F82600BD
:106B900095072E0F0F25B540A843B3F1904F02D1B2
:106BA000002515E04FE02C4DAB4201D101250FE04F
:106BB0002A4DAB4201D102250AE0294DAB4201D159
:106BC000032505E0274DAB4201D1042500E0072550
:106BD0009607360FB5402843234D960845F8260002
:106BE000224D2868A0434D6805F48035B5F5803FF7
:106BF00000D120431D4D28602D1D2868A0434D68FD
:106C000005F40035B5F5003F00D12043174D2D1D8B
:106C100028602D1D2868A0434D6805F48015B5F542
:106C2000801F00D12043114D083528602D1D286894
:106C3000A0434D6805F40015B5F5001F00D12043B1
:106C40000A4D0C352860521C0D68D540002D7FF48C
:106C50002FAF78BD00100240000400480008004833
:106C6000000C0048001000480800014000040140EA
:106C7000024613690B400BB1012000E00020704771
:106C80000AB1816100E0816270470000014800683C
:106C90007047000050050020024692F8410020286D
:106CA0002DD100BF92F84000012801D10220704789
:106CB000012082F8400000BF242082F841001068C3
:106CC000006820F00100136818601068006820F464
:106CD00080501368186010680068084313681860D3
:106CE0001068006840F0010013681860202082F8E6
:106CF000410000BF002082F8400000BFD7E702201B
:106D0000D5E710B502460B4692F8410020282AD15B
:106D100000BF92F84000012801D1022010BD0120DF
:106D200082F8400000BF242082F84100106800680B
:106D300020F00100146820601068016821F470617F
:106D400041EA0321106801601068006840F001000A
:106D500014682060202082F8410000BF002082F8E3
:106D6000400000BFDAE70220D8E7000010B5044673
:106D70000CB9012010BD94F8410028B9002084F816
:106D80004000204600F0F8F9242084F841002068F3
:106D9000006820F0010021680860606820F07060E1
:106DA000216808612068806820F4004021688860BC
:106DB000E068012805D1A06840F40040216888609F
:106DC00004E0A06840F4044021688860E06802287C
:106DD00002D1800221684860206840681349084356
:106DE000216848602068C06820F400402168C860BD
:106DF000D4E904010843A16940EA01202168C86080
:106E0000D4E907010843216808602068006840F061
:106E100001002168086000206064202084F841009F
:106E20000020206384F8420000BFA3E70080000236
:106E30002DE9FC5F0446894692469B46DDE90C78C5
:106E40000E9E94F8410020287ED117B1B8F1000FB2
:106E500005D14FF400706064012000F0B9B800BFA4
:106E600094F84000012801D10220F6E7012084F8BF
:106E7000400000BFFFF70AFF054619230122D10396
:106E80002046009502F09EF808B10120E5E7222097
:106E900084F84100402084F842000020606467626A
:106EA000A4F82A8060635B46524649462046CDE9F5
:106EB000006501F0F1FF30B100BF002084F8400010
:106EC00000BF0120C9E7608DFF280CD9FF20208575
:106ED0003D48009094F828204FF0807349462046A2
:106EE00002F056F80BE0608D20853748009094F84A
:106EF00028204FF000734946204602F049F800BFB1
:106F00003346002204212046009502F05BF808B1C8
:106F10000120A2E72068406A616A0870606A401C2C
:106F20006062208D401E2085608D401E6085608DD2
:106F300048B3208D38BB334600228021204600957F
:106F400002F040F818B100E03CE0012085E7608DD8
:106F5000FF280CD9FF2020850020009094F82820DD
:106F60004FF080734946204602F012F80BE0608D26
:106F700020850020009094F828204FF000734946A7
:106F8000204602F005F8608D0028B9D12A46314626
:106F9000204602F046F808B101205EE72020216873
:106FA000C86120684068094908402168486020207D
:106FB00084F84100002084F8420000BF84F84000BB
:106FC00000BF4AE7022048E70024008000E800FEF6
:106FD0003CBCBDE8C09F00002DE9FC5F044689462B
:106FE00092469B46DDE90C780E9E94F841002028DD
:106FF0007DD117B1B8F1000F05D14FF40070606476
:10700000012000F0B5B800BF94F84000012801D17C
:107010000220F6E7012084F8400000BFFFF736FEAB
:10702000054619230122D1032046009501F0CAFF2D
:1070300008B10120E5E7212084F84100402084F8D0
:107040004200002060646762A4F82A8060635B46A7
:10705000524649462046CDE9006501F05BFF30B15C
:1070600000BF002084F8400000BF0120C9E7608D08
:10707000FF280CD9FF2020850020009094F82820BC
:107080004FF080734946204601F082FF0BE0608D8F
:1070900020850020009094F828204FF00073494686
:1070A000204601F075FF00BF2A463146204601F018
:1070B000E3FF08B10120A4E7606A007821688862D4
:1070C000606A401C6062608D401E6085208D401E9D
:1070D0002085608D40B3208D30BB33460022802157
:1070E0002046009501F06EFF10B1012089E73AE0DB
:1070F000608DFF280CD9FF2020850020009094F897
:1071000028204FF080734946204601F041FF0BE0F4
:10711000608D20850020009094F828204FF00073A7
:107120004946204601F034FF608D0028BCD12A4634
:107130003146204601F075FF08B1012061E72020AB
:107140002168C86120684068084908402168486093
:10715000202084F84100002084F8420000BF84F819
:10716000400000BF4DE702204BE7000000E800FEB2
:107170003CBCBDE8C09F000010B586B00446142199
:1071800001A8FEF7DCF818492068884229D100BF21
:107190001648C06C40F002001449C8640846C06C30
:1071A00000F00200009000BF00BFC020019012203C
:1071B000029001200390032004900420059001A96F
:1071C0000B48FFF771FC00BF0848806D40F40010C9
:1071D000064988650846806D00F40010009000BFE5
:1071E00000BF06B010BD0000005400400010024077
:1071F000000400480348006803490978084401492D
:1072000008607047500500205805002010B5002484
:10721000032000F0C5F8002000F008F808B10124B0
:1072200001E000F047F8204610BD000070B588B0BE
:1072300004460025002600222146362000F06EF884
:10724000362000F057F800BF1648806D40F010005F
:10725000144988650846806D00F01000019000BF59
:1072600000BF02A903A800F0A1FB00F0C7FB054680
:107270000D48B5FBF0F0461E0C480D49086040F281
:10728000E7310B48C160466000210161816001F077
:1072900006F820B9064801F03BF808B070BD01209F
:1072A000FBE700000010024040420F0000100040C9
:1072B000A40C002008B500BF0D48006E40F001008E
:1072C0000B4908660846006E00F00100009000BF00
:1072D00000BF00BF0846806D40F0805088650846BA
:1072E000806D00F08050009000BF00BF08BD00001E
:1072F000001002400146084600280DDB00BF00BF19
:1073000000F01F0301229A4043099B0003F1E02390
:10731000C3F8002100BF00BF00BF70472DE9F05F38
:1073200080460D461646002703F04CFE07463946B8
:107330002A46334601F00700C0F1070ABAF1040FEC
:1073400002D94FF0040A01E0C0F1070AD14600F16A
:10735000040ABAF1070F02D24FF0000A01E0A0F1CF
:10736000030AD4464FF0010A0AFA09FAAAF1010AFF
:107370000AEA020A0AFA0CFA4FF0010B0BFA0CFBAC
:10738000ABF1010B0BEA030B4AEA0B042146404622
:1073900003F020FE00F000B830BCBDE8C09F000044
:1073A00000BF00F00702064B19684FF6FF031940B3
:1073B000044B0B4343EA0221014B196000BF7047A5
:1073C0000CED00E00000FA0500BF00BF00BF00BFE9
:1073D00000BFBFF34F8F00BF00BF00BF0948006868
:1073E00000F4E06008490843001D0649086000BF3A
:1073F00000BF00BFBFF34F8F00BF00BF00BF00BF83
:1074000000BFFDE70CED00E00000FA050246B2F512
:10741000007F2AD11D48006800F4C060B0F5007FED
:1074200032D01A48006820F4C06040F40070174B56
:1074300018601748006832235843164BB0FBF3F02E
:10744000411C00E0491E1148406900F48060B0F51D
:10745000806F01D10029F5D10C48406900F48060AB
:10746000B0F5806F10D1032070470848006800F421
:10747000C060B0F5806F07D00448006820F4C06099
:1074800040F48060014B18600020EDE70070004080
:107490007C05002040420F000248006800F4C060F4
:1074A00070470000007000402DE9F84304460025B5
:1074B000A846208800F40060B0F5006F26D1606C0B
:1074C00068B1B0F5000F03D0B0F5400F0ED10CE05D
:1074D000D548C06840F48030D349C86008E0002136
:1074E000201D02F047FC054602E001E0012500BF37
:1074F00000BF55B9CC488830006820F44000616C6A
:107500000843C949C1F8880000E0A846206800F493
:107510000030B0F5003F75D14FF00009C248806DD2
:10752000012121EA107078B100BFBF48806D40F0A2
:107530008050BD4988650846806D00F080500090FD
:1075400000BF00BF4FF00109B848006840F48070E8
:10755000B6490860FFF79AFB074606E0FFF796FB7F
:10756000C01B022801D9032505E0B048006800F4DB
:1075700080700028F2D000BF7DBBAB48903000681F
:1075800000F44076CEB1A06DB04216D0A64890303F
:10759000006820F44076A448D0F8900040F4803091
:1075A000A149C1F890000846D0F8900020F480303E
:1075B000C1F890000846C0F8906006F00100A8B13C
:1075C000FFF764FB074609E0FFF760FBC01B41F2D1
:1075D0008831884202D9032507E016E092489030AE
:1075E000006800F002000028EED000BF5DB98E48B0
:1075F0009030006820F44070A16D08438A49C1F8BA
:10760000900003E00CE0A84600E0A846B9F1010FA5
:1076100005D18548806D20F080508349886500BF82
:10762000207800F0010048B17F488830006820F0E1
:107630000300216A08437C49C1F88800207800F0E3
:107640000200022809D178488830006820F00C0038
:10765000616A08437449C1F88800207800F004008A
:10766000042809D170488830006820F03000A16AF1
:1076700008436D49C1F88800207800F020002028D8
:1076800009D169488830006820F44060E16A084305
:107690006549C1F88800208800F40070B0F5007FCB
:1076A00009D161488830006820F44020E16B08432C
:1076B0005D49C1F88800208800F48060B0F5806FD3
:1076C00009D159488830006820F44010216C0843E3
:1076D0005549C1F88800207800F04000402809D1C1
:1076E00051488830006820F44050216B08434E49CF
:1076F000C1F88800207800F08000802809D14A482D
:107700008830006820F44040616B08434649C1F866
:107710008800208800F48070B0F5807F09D142484D
:107720008830006820F44030A16B08433E49C1F81E
:107730008800206800F40020B0F5002F1FD13A48DF
:107740008830006820F04060A16C084336498831D9
:107750000860A06CB0F1006F06D13348C06840F4F7
:1077600080103149C8600AE0A06CB0F1806F06D18A
:107770000121201D02F0FEFA054605B1A846206849
:1077800000F48020B0F5802F1FD127488830006892
:1077900020F04060E16C0843234988310860E06CC8
:1077A000B0F1006F06D12048C06840F480101E4937
:1077B000C8600AE0E06CB0F1806F06D10121201DA5
:1077C00002F0D8FA054605B1A846208800F48040AA
:1077D000B0F5804F14D114488830006820F0405034
:1077E000216D0843104988310860206DB0F1805F39
:1077F00006D10221201D02F0BDFA054605B1A846BA
:10780000208800F40040B0F5004F09D106488830C8
:10781000006820F08040616D08430349C1F888008A
:107820004046BDE8F88300000010024000700040B0
:107830002DE9F04104460D4614B90120BDE8F08160
:107840005548006800F00700A8420ED25248006870
:1078500020F007002843504908600846006800F0FF
:107860000700A84201D00120E8E7207800F00100DD
:10787000002840D06068032806D14848006800F01E
:107880000070D8B90120D9E76068022806D14348C2
:10789000006800F4003088B90120CFE7606830B993
:1078A0003E48006800F0020040B90120C6E73B48AE
:1078B000006800F4806008B90120BFE7374880689D
:1078C00020F003006168084334498860FFF7DEF95F
:1078D000064608E0FFF7DAF9801B41F2883188425A
:1078E00001D90320AAE72D48806800F00C006168E8
:1078F000B0EB810FEED1207800F00200022807D112
:107900002648806820F0F000A16808432349886079
:107910002148006800F00700A8420ED91E48006800
:1079200020F0070028431C4908600846006800F062
:107930000700A84201D0012080E7207800F0040071
:10794000042807D11548806820F4E060E168084306
:1079500012498860207800F00800082808D10F48F4
:10796000806820F46050216940EAC1000B498860BA
:1079700000F068F809498968C1F30311084A515CAD
:1079800001F01F01C8400749086007480068FFF779
:107990004DFC0746384651E70020024000100240E7
:1079A000BCD900087C050020540500200F2202608D
:1079B0000D4A926802F0030242600B4A926802F09C
:1079C000F0028260084A926802F4E062C260064AED
:1079D000926802F46052D2080261044A126802F00E
:1079E00007020A60704700000010024000200240B9
:1079F00001480068704700007C05002000B5FFF7D3
:107A0000F7FF05498968C1F30221044A515C01F07E
:107A10001F01C84000BD000000100240CCD9000882
:107A200000B5FFF7E5FF05498968C1F3C221044AA3
:107A3000515C01F01F01C84000BD00000010024071
:107A4000CCD90008F0B500230020DFF8D4C0DCF862
:107A500008C00CF00C01DFF8C8C0DCF80CC00CF05A
:107A6000030719B10C291ED1012F1CD1DFF8B0C0BA
:107A7000DCF800C00CF0080CBCF1000F06D1DFF8F8
:107A8000A0C0DCF894C0CCF3032305E0DFF890C07D
:107A9000DCF800C0CCF30313DFF888C05CF82330B7
:107AA00041B9184606E0042901D11F4802E008291F
:107AB00000D11E480C2932D1DFF864C0DCF80CC0BC
:107AC0000CF00304012C09D0022C02D0032C04D1A9
:107AD00001E0154A04E0154A02E000BF1A4600BF63
:107AE00000BFDFF83CC0DCF80CC0CCF3021C0CF18A
:107AF0000106DFF82CC0DCF80CC0CCF3062C0CFB24
:107B000002FCBCFBF6F2DFF818C0DCF80CC0CCF3CA
:107B1000416C0CF1010C4FEA4C05B2FBF5F0F0BDE5
:107B200000100240D4D900080024F40000127A00AA
:107B30002DE9F843044614B90120BDE8F883F9485B
:107B4000806800F00C06F748C06800F00307207852
:107B500000F01000102877D11EB10C2E76D1012F25
:107B600074D1F048006800F0020018B1A06908B9AB
:107B70000120E2E7EB48216A006800F0080020B12C
:107B8000E848006800F0F00005E0E648943000683E
:107B900000F47060000981421FD9206A02F0AEF93A
:107BA00008B10120C9E700BFDE48006840F00800C6
:107BB000DC4908600846006820F0F000216A0843AC
:107BC000D849086000BF0846406820F47F40E1695A
:107BD00040EA0120D34948601FE000BFD148006857
:107BE00040F00800CF4908600846006820F0F00027
:107BF000216A0843CB49086000BF0846406820F46A
:107C00007F40E16940EA0120C64948602EB9206AF8
:107C100002F074F908B101208FE7FFF713FFC149A3
:107C20008968C1F30311C04A515C01F01F01C840CB
:107C3000BE490860BE480068FFF7F8FA8046B8F110
:107C4000000F4ED0404678E74BE0FFE7A06980B3D5
:107C5000B448006840F00100B2490860FFF716F828
:107C6000054606E0FFF712F8401B022801D9032061
:107C700063E7AC48006800F002000028F2D000BFC3
:107C8000A848006840F00800A64908600846006857
:107C900020F0F000216A0843A249086000BF0846AE
:107CA000406820F47F40E16940EA01209D49486036
:107CB00017E0FFE79B48006820F001009949086041
:107CC000FEF7E4FF054606E0FEF7E0FF401B022852
:107CD00001D9032031E79348006800F00200002832
:107CE000F2D1207800F0010000285CD0082E03D0EB
:107CF0000C2E0AD1032F08D18A48006800F4003006
:107D000088B3606878BB012017E700BF6068B0F5F2
:107D1000803F06D18348006840F480308149086084
:107D20001AE06068B0F5A02F0BD17E48006840F4DF
:107D300080207C4908600846006840F48030086074
:107D40000AE07848006820F48030764908600846E8
:107D5000006820F48020086000BF606890B1FEF7E2
:107D600095FF054607E01EE0FEF790FF401B6428E4
:107D700001D90320E1E66B48006800F400300028D8
:107D8000F2D010E0FEF782FF054606E0FEF77EFF28
:107D9000401B642801D90320CFE66248006800F444
:107DA00000300028F2D1207800F00200022852D1E1
:107DB000042E03D00C2E14D1022F12D15948006882
:107DC00000F4806018B1E06808B90120B5E65548B4
:107DD000406820F0FE40217C40EA01605149486043
:107DE00039E0E06800B34F48006840F480704D49C6
:107DF0000860FEF74BFF054606E0FEF747FF401B15
:107E0000022801D9032098E64648006800F4806003
:107E10000028F2D04348406820F0FE40217C40EA30
:107E200001604049486016E03E48006820F48070D8
:107E30003C490860FEF72AFF054606E0FEF726FFEC
:107E4000401B022801D9032077E63648006800F479
:107E500080600028F2D1207800F00800082836D190
:107E60006069D0B12F489430006840F001002D497E
:107E7000C1F89400FEF70AFF054606E0FEF706FF8C
:107E8000401B022801D9032057E626489430006899
:107E900000F002000028F1D019E022489430006878
:107EA00020F001001F49C1F89400FEF7EFFE0546DF
:107EB00006E0FEF7EBFE401B022801D903203CE65A
:107EC00018489430006800F002000028F1D12078B2
:107ED00000F00400042872D14FF000091148806DB1
:107EE00000F0805078B900BF0E48806D40F080509F
:107EF0000C4988650846806D00F08050009000BFF6
:107F000000BF4FF001090B48006800F4807000BB0F
:107F10000848006840F4807006490860FEF7B6FE25
:107F2000054610E000100240BCD900087C05002086
:107F30005405002000700040FEF7A8FE401B0228F8
:107F400001D90320F9E5D048006800F480700028CA
:107F5000F2D000BFA068012808D1CC48006840F0EA
:107F60000100CA499039C1F8900021E0A0680528B5
:107F70000FD1C648006840F00400C4499039C1F8E8
:107F800090000846D0F8900040F00100C1F8900041
:107F90000EE0BE48006820F00100BC499039C1F8ED
:107FA00090000846D0F8900020F00400C1F890003E
:107FB00000BFA068A0B1FEF769FE054609E02EE00B
:107FC000FEF764FE401B41F28831884201D903204C
:107FD000B3E5AE48006800F002000028F0D012E0DF
:107FE000FEF754FE054608E0FEF750FE401B41F246
:107FF0008831884201D903209FE5A448006800F039
:1080000002000028F0D1B9F1010F07D19F48903844
:10801000806D20F080509D499039886500BF2078A0
:1080200000F02000202838D1606AD8B19748083085
:10803000006840F0010095499039C1F89800FEF7BA
:1080400025FE054606E0FEF721FE401B022801D969
:10805000032072E58D480830006800F00200002817
:10806000F1D01AE089480830006820F00100874903
:108070009039C1F89800FEF709FE054606E0FEF7C4
:1080800005FE401B022801D9032056E57F48083031
:10809000006800F002000028F1D1A06A00287DD01D
:1080A000A06A02287BD179489038C76807F003019D
:1080B000E06A814225D107F07001206B401EB1EBD0
:1080C000001F1ED107F4FE41606BB1EB002F18D1E9
:1080D00007F078413820005DB1EBC06F11D107F493
:1080E000C001A08F0122C2EB5000B1EB405F08D16C
:1080F00007F0C0614020005DC2EB5000B1EB406F63
:1081000066D00C2E62D061489038006800F0806024
:1081100008B1012011E55D489038006820F08070BA
:108120005A4990390860FEF7B1FD054606E0FEF7B2
:10813000ADFD401B022801D90320FEE453489038CE
:10814000006800F000700028F1D1D4E90B10401E47
:1081500041EA0011606B41EA0021A08F0122C2EBCD
:10816000500041EA40514020005DC2EB500041EA1E
:1081700040613820005D41EAC06044499039C968D7
:10818000434A1140084341499039C8600846006895
:1081900040F0807008600846C06801E05BE03DE0A8
:1081A00040F08070C860FEF771FD054606E0FEF7FE
:1081B0006DFD401B022801D90320BEE433489038EE
:1081C000006800F000700028F1D05AE00120B4E40B
:1081D0002E489038006800F00070E0BB2B489038C3
:1081E000006840F080702949903908600846C068EE
:1081F00040F08070C860FEF749FD054606E0FEF7D6
:1082000045FD401B022801D9032096E41F48903801
:10821000006800F000700028F1D032E00C2E2ED063
:108220001A489038006820F080701849903908602A
:108230000846006800F0006020B90846C06820F0D9
:108240000300C86011489038C068124908400F49BF
:108250009039C86000E014E0FEF718FD054606E01E
:10826000FEF714FD401B022801D9032065E40748EE
:108270009038006800F000700028F1D101E0012082
:108280005BE4002059E400000070004090100240C0
:108290008C809D01FFFFEEFE70477047704710B560
:1082A00004460CB9012010BD94F83D0028B9002007
:1082B00084F83C00204600F029F8022084F83D00B4
:1082C000211D206802F010FA012084F8480000BF48
:1082D00084F83E0001213F200155402001554120F6
:1082E0000155422001554320015500BF00BF012028
:1082F00084F844004520015546200155472001558A
:1083000000BF012084F83D000020CCE7704700004A
:10831000014691F83D00012801D00120704702205C
:1083200081F83D000868C06840F001000B68D86023
:10833000124B0868984207D00868B0F1804F03D00C
:108340000F4B0868984210D1086880680D4B00EA0E
:108350000302062A0FD0B2F5803F0CD008680068EF
:1083600040F001000B68186005E00868006840F004
:1083700001000B6818600020D0E70000002C0140CD
:108380000040014007000100704710B50446206816
:108390000069C0F34000D8B12068C068C0F3400055
:1083A000B0B16FF0020021680861012020772068D9
:1083B000806900F0030018B12046FFF7E5FF05E0F3
:1083C000204600F0BEF8204600F0BCF800202077E0
:1083D00020680069C0F38000D8B12068C068C0F38D
:1083E0008000B0B16FF0040021680861022020779E
:1083F0002068806900F4407018B12046FFF7C4FF80
:1084000005E0204600F09DF8204600F09BF8002093
:10841000207720680069C0F3C000D8B12068C06828
:10842000C0F3C000B0B16FF00800216808610420FB
:1084300020772068C06900F0030018B12046FFF7DC
:10844000A3FF05E0204600F07CF8204600F07AF813
:108450000020207720680069C0F30010D8B12068A0
:10846000C068C0F30010B0B16FF01000216808615F
:10847000082020772068C06900F4407018B12046B9
:10848000FFF782FF05E0204600F05BF8204600F091
:1084900059F8002020772068006900F0010058B1E9
:1084A0002068C06800F0010030B16FF00100216861
:1084B0000861204600F048F820680069C0F3C01049
:1084C00058B12068C068C0F3C01030B16FF08000B0
:1084D000216808612046FFF7E0FE20680069C0F3CC
:1084E000002058B12068C068C0F3C01030B16FF4EC
:1084F0008070216808612046FFF7CEFE2068006981
:10850000C0F3801058B12068C068C0F3801030B14B
:108510006FF0400021680861204600F021F82068D3
:108520000069C0F3401058B12068C068C0F3401023
:1085300030B16FF02000216808612046FFF7AEFEE1
:1085400010BD70477047000010B50446034920680D
:10855000884201D1FEF74EFE10BD00000010004021
:108560007047704770B50446656FA66F20688068D5
:1085700000F08000802819D1212D17D12068806853
:1085800020F0800021688860A06E60B1A06EFDF7C9
:10859000D1FF40B1A06EFEF728F8202803D11020AB
:1085A000E067032070BD204602F05FFA2068806813
:1085B00000F04000402819D1222E17D12068806891
:1085C00020F0400021688860E06E60B1E06EFDF749
:1085D000B1FF40B1E06EFEF708F8202803D110206B
:1085E000E0670320DEE7204602F01EFA0020D9E70C
:1085F00010B5044640220249024800F01BFB10BDA2
:10860000A4060020B00800202DE9F04704462068A9
:10861000C569206806682068876840F60F0005EA8B
:108620000008B8F1000F0CD105F0200048B106F0A9
:10863000200030B1206E10B12046216E8847BDE881
:10864000F087B8F1000F7DD007F0010018B95A4843
:1086500030400028F7D005F0010048B106F48070E2
:1086600030B1012021680862E06F40F00100E0674E
:1086700005F0020048B107F0010030B10220216886
:108680000862E06F40F00400E06705F0040048B1C4
:1086900007F0010030B1042021680862E06F40F06B
:1086A0000200E06705F0080060B106F0200010B994
:1086B00007F0010030B1082021680862E06F40F047
:1086C0000800E06705F4006050B106F0806038B142
:1086D0004FF4006021680862E06F40F02000E0671E
:1086E000E06F80B305F0200038B106F0200020B123
:1086F000206E10B12046216E8847D4F87C90206807
:10870000806800F04000402802D009F0280030B313
:10871000204602F089F92068806800F04000402877
:1087200019D12068806820F0400021688860E06EE0
:1087300068B12248E16E8863E06EFDF728FF10B152
:10874000E06E01E011E00FE0816B88470CE020460D
:10875000FFF74EFF08E02046FFF74AFF04E02046FF
:10876000FFF746FF0020E06769E705F4801050B18D
:1087700007F4800038B14FF4801021680862204669
:10878000FFF7EFFE5BE705F0800040B106F08000E8
:1087900028B1606E10B12046616E88474FE705F042
:1087A000400030B106F0400018B1204602F04DF90B
:1087B00045E700BF43E700002001000467A9000867
:1087C00010B504460CB9012010BDA06900B100E04D
:1087D00000BF606F28B9002084F87000204600F0C8
:1087E00029F8242060672068006820F001002168D3
:1087F0000860204602F042F9012800D1E4E7606AEF
:1088000010B1204601F0FCFF2068406820F4904041
:10881000216848602068806820F02A00216888600C
:108820002068006840F0010021680860204602F0DE
:1088300063F8C9E710B586B00446142101A8FCF717
:108840007EFDA449206888424CD100BFA248C06D7B
:1088500040F00100A049C8650846C06D00F0010065
:10886000009000BF00BF00BF0846C06C40F002008F
:10887000C8640846C06C00F00200009000BF00BF52
:108880004FF44060019002200290002003900120EC
:1088900004900820059001A99048FEF705F990483A
:1088A000904908600420486000218E488160C160C2
:1088B00080210161002141618161C1610162FDF797
:1088C00017FF08B1FDF7BAFC00BF8648E066846276
:1088D00000BF002205214620FEF720FD4620FEF7BE
:1088E00009FDF4E08049206888424DD100BF7A48F4
:1088F000006E40F48040784908660846006E00F437
:108900008040009000BF00BF00BF0846C06C40F030
:108910000100C8640846C06C00F00100009000BF70
:1089200000BF4FF4C060019002200290002003902D
:10893000032004900720059001A94FF09040FEF716
:10894000B3F86A486A490860022048600021684814
:108950008160C16080210161002141618161C1614B
:108960000162FDF7C5FE08B1FDF768FC00BF604875
:10897000E066846200BF002205212520FEF7CEFCC0
:108980002520FEF7B7FCA2E05A49206888424DD165
:1089900000BF5148806D40F400304F49886508465B
:1089A000806D00F40030009000BF00BF00BF08469B
:1089B000C06C40F00100C8640846C06C00F00100C3
:1089C000009000BF00BF0C20019002200290002008
:1089D0000390032004900720059001A94FF09040D8
:1089E000FEF762F8414814304349086002204860AD
:1089F000002141488160C160802101610021416105
:108A00008161C1610162FDF773FE08B1FDF716FCDB
:108A100000BF3948E066846200BF0022062126209C
:108A2000FEF77CFC2620FEF765FC50E03349206809
:108A300088424CD100BF2848806D40F480202649F0
:108A400088650846806D00F48020009000BF00BF5C
:108A500000BF0846C06C40F00400C8640846C06C03
:108A600000F00400009000BF00BF4FF44060019090
:108A7000022002900020039003200490072005901C
:108A800001A91F48FEF710F8184828381D4908604A
:108A90000220486000211B488160C1608021016183
:108AA000002141618161C1610162FDF721FE08B1D0
:108AB000FDF7C4FB00BF1348E066846200BF0022DC
:108AC00006212720FEF72AFC2720FEF713FC06B01C
:108AD00010BD00000080004000100240000400486B
:108AE0008004024030090020003801405800024054
:108AF0007809002000440040C009002000480040E0
:108B000000080048080A00202DE9F84F04460E46E8
:108B100017469A46A06F202871D106B117B90120D7
:108B200000F084B800BF94F87000012801D1022041
:108B3000F6E7012084F8700000BF0020E0672220E3
:108B4000A067FEF7A3F88346A4F85870A4F85A70FB
:108B500000BFA068B0F5805F0AD1206920B940F25B
:108B6000FF10A4F85C0020E0FF20A4F85C001CE0EB
:108B7000A06848B9206918B9FF20A4F85C0014E087
:108B80007F20A4F85C0010E0A068B0F1805F09D1FC
:108B9000206918B97F20A4F85C0006E03F20A4F803
:108BA0005C0002E00020A4F85C0000BFB4F85C9018
:108BB000A068B0F5805F04D1206910B90025B046E7
:108BC00002E035464FF0000800BF002084F8700036
:108BD00000BF21E05B46002220212046CDF800A006
:108BE00002F0CFF808B103209AE74DB92068808CD5
:108BF00000EA0900A8F8000008F1020807E013E005
:108C00002068808C09F0FF01084028706D1CB4F8C2
:108C10005A00401EA4F85A00B4F85A000028D9D1CE
:108C20002020A06700207BE7022079E718BCBDE880
:108C3000E08F000070B504460E461546A06F202850
:108C400050D106B10DB9012070BD00BF94F870007D
:108C5000012801D10220F7E7012084F8700000BF4D
:108C60006665A4F858500020E0672220A067E06EF7
:108C7000F8B11D48E16EC8621C48E16E08631C48EB
:108C8000E16E48630020E16E8863236803F12401EC
:108C90002B46626DE06EFDF7B1FD50B11020E0672C
:108CA00000BF002084F8700000BF20206067012012
:108CB000CAE700BF002084F8700000BF2068006889
:108CC00040F48070216808602068806840F00100EE
:108CD000216888602068806840F0400021688860D2
:108CE0000020B1E70220AFE7D5A900081BAA0008C1
:108CF0007FA90008704770472DE9F84F04460E46DB
:108D000017469946606F20285DD106B117B901203A
:108D100000F05BB800BF94F87000012801D1022078
:108D2000F6E7012084F8700000BF0020E0672120F2
:108D30006067FDF7ABFF8246A4F85070A4F852704C
:108D4000A068B0F5805F04D1206910B90025B04655
:108D500002E035464FF0000800BF002084F87000A4
:108D600000BF1DE05346002280212046CDF8009030
:108D700002F007F808B10320CAE745B9B8F80000C7
:108D8000C0F308002168088508F1020803E028788C
:108D9000216808856D1CB4F85200401EA4F85200EA
:108DA000B4F852000028DDD153460022402120466D
:108DB000CDF8009001F0E5FF08B10320A8E72020DE
:108DC00060670020A4E70220A2E718BCBDE8E08F9E
:108DD000704700BFFEE701688969C1F3400111B126
:108DE0000021026891620168896901F0010129B9D5
:108DF0000168896941F001010268916170470000D2
:108E000070B504460D46164620688069C0F3001010
:108E100000283DD017E0681CA8B1FDF737FF801B84
:108E2000A84200D87DB9606C40F02000606420202A
:108E300084F84100002084F8420000BF84F840001C
:108E400000BF012070BD20688069C0F34010002879
:108E5000E1D010202168C86120202168C861204627
:108E6000FFF7B9FF206840680A4908402168486058
:108E7000606C40F004006064202084F84100002011
:108E800084F8420000BF84F8400000BF0120D9E709
:108E90000020D7E700E800FE2DE9F84304468946A4
:108EA00015461E46DDE908781948F2B20023494606
:108EB0000090204600F06CF842463946204600F00B
:108EC000DBF810B10120BDE8F883012E03D1E8B230
:108ED000216888620EE0C5F3072021688862424657
:108EE0003946204600F0C8F808B10120EBE7E8B2A7
:108EF000216888623B46002240212046CDF8008050
:108F000000F060F808B10120DDE70020DBE7000099
:108F1000002000802DE9F8430446894615461E4688
:108F2000DDE908781948F2B2C302494600902046AC
:108F300000F02EF842463946204600F09DF810B168
:108F40000120BDE8F883012E03D1E8B221688862D0
:108F50000EE0C5F307202168886242463946204664
:108F600000F08AF808B10120EBE7E8B221688862D6
:108F70003B46002280212046CDF8008000F022F8F8
:108F800008B10120DDE70020DBE7000000200080C1
:108F9000F0B5059C05686D684FF4806606EA545686
:108FA00066F0FC2646F4C046B543C1F309064FF40B
:108FB0007F0707EA02473E431E43264335430668C0
:108FC0007560F0BD2DE9F04104460E4617461D467A
:108FD000DDF8188019E0681CB8B1FDF757FEA0EB6A
:108FE0000800A84200D885B9606C40F02000606499
:108FF000202084F84100002084F8420000BF84F85B
:10900000400000BF0120BDE8F08120688069304049
:10901000B04201D1012000E00020B842DBD00020A6
:10902000F1E770B504460D4616461DE03246294666
:109030002046FFF7E5FE08B1012070BDFDF726FED2
:10904000801BA84200D87DB9606C40F020006064AD
:10905000202084F84100002084F8420000BF84F8FA
:10906000400000BF0120E8E720688069C0F340109D
:109070000028DBD00020E0E770B504460D46164618
:109080001FE0324629462046FFF7BAFE08B101200C
:1090900070BD681CA8B1FDF7F9FD801BA84200D87F
:1090A0007DB9606C40F020006064202084F84100AD
:1090B000002084F8420000BF84F8400000BF012077
:1090C000E6E720688069C0F340000028D9D000207E
:1090D000DEE7000000B587B01248FFF795FA1148A7
:1090E0000068C06900F01000102819D10D49096806
:1090F00008620020009070208DF8040000236A466A
:1091000001A90948006803F067FE009838B14FF0E4
:10911000805006490860BFF34F8FBFF36F8F00BFC9
:1091200007B000BD300700204805002004ED00E036
:1091300008B500BF1D48806C40F002001B498864E0
:109140000846806C00F00200009000BF00BF00BF26
:109150000846806C40F0010088640846806C00F08E
:109160000100009000BF00BF002211460D20FEF755
:10917000D5F80D20FEF7BEF8002211460F20FEF7AD
:10918000CDF80F20FEF7B6F8002211461020FEF7AA
:10919000C5F81020FEF7AEF8002211464520FEF774
:1091A000BDF84520FEF7A6F808BD000000100240FB
:1091B00000B587B0142102A8FCF7C1F800BF3F48F2
:1091C000C06C40F001003D49C8640846C06C00F026
:1091D0000100019000BF00BF00BF0846C06C40F016
:1091E0000200C8640846C06C00F00200019000BF95
:1091F00000BF00BF0846C06C40F00400C8640846C9
:10920000C06C00F00400019000BF00BF00BF084622
:10921000C06C40F00800C8640846C06C00F008004C
:10922000019000BF00BF012204212548FDF728FD61
:10923000012211024FF09040FDF722FD00224FF471
:1092400000414FF09040FDF71BFD002204211D4816
:10925000FDF716FD002208211948FDF711FD0C202D
:1092600002900120039000200490059002A9144868
:10927000FDF71AFC4FF401400290012003900020FA
:109280000490059002A94FF09040FDF70DFC0420DA
:1092900002900120039000200490059002A9094843
:1092A000FDF702FC2020029000200390049002A908
:1092B0000348FDF7F9FB07B000BD000000100240B5
:1092C00000040048000C004810B51248124908601C
:1092D00040F61460486000210F4881600121C160A0
:1092E0000021016141618161C1610162FDF73EFDC3
:1092F00008B1FCF7A3FF00210748FDF7CDFC08B13A
:10930000FCF79CFF00210448FDF7FBFC08B1FCF7CB
:1093100095FF10BD00540040E406002010B50D4834
:109320000D4908604FF41650486000210A488160DA
:10933000C16001610C214161002181610162002055
:10934000054948620846FFF73BFA08B1FCF776FF8B
:1093500010BD0000008000403007002010B50D480F
:109360000D4908604FF4E130486000210A488160EF
:10937000C16001610C21416100218161C161016213
:109380000020054948620846FFF71AFA08B1FCF7C1
:1093900055FF10BD00380140B007002010B50D4842
:1093A0000D4908604FF4E130486000210A488160AF
:1093B000C16001610C21416100218161C1610162D3
:1093C0000020054948620846FFF7FAF908B1FCF7A2
:1093D00035FF10BD004400403008002010B50D4896
:1093E0000D4908604FF41650486000210A4881601A
:1093F000C16001610C21416100218161C161016293
:109400000020054948620846FFF7DAF908B1FCF781
:1094100015FF10BD00480040B008002086B000BF16
:109420004FF0FF311648006803F07AFE012800D0A3
:10943000F6E70DF1020000F097FFC8B971208DF832
:10944000000006208DF801000E48007840B102A807
:1094500000F04EFE9DF80100001DC0B28DF8010025
:1094600000231A4669460848006803F0E1FB02E061
:1094700006A000F09FF840F6B83002F0E0FBCFE71E
:109480003C05002022050020480500204D61672092
:1094900073656E736F72206572726F7200000000E8
:1094A00010B50021202000F029F8044600213020CA
:1094B00000F024F804460121342000F01FF804468F
:1094C0001221412000F01AF804460221202000F069
:1094D00015F8204610BD0000FEB504460D461646A0
:1094E0004FF0FF30012322461821CDE900560290AB
:1094F0000148FDF79DFCFEBDE406002013B584B0D5
:1095000004464FF0FF30012105AA0B46CDE90021AA
:109510000290224618210248FDF75EFD06B010BDFC
:10952000E406002000BFFEE770470000194800680D
:10953000006840F010001749096808604022164989
:109540001448FFF777FB24E04FF0FF311348006821
:1095500003F0E6FD012800D01BE00E48FFF702F8FB
:109560000C48C06E00684068C0F140000C4908809B
:10957000002009490A4A128888540A460848018886
:1095800008A002F0B0F9402203490248FFF752FB5D
:1095900000BFD9E7B0080020A40600204405002041
:1095A000240500204E422D3E3A2564205B25735D44
:1095B0000D0A00000FB410B590B013A8019002A8D6
:1095C000019A129901F0ECFC0020019002A914A06C
:1095D00002F089F971208DF8280002A8FBF7C6FE79
:1095E000C0B20446122800DD1224A01CC0B28DF8BF
:1095F000290002220CA10DF12A00FBF7ABFE224646
:1096000002A90BA8FBF7A6FE00231A460AA90748E1
:10961000006803F00DFB10B010BC5DF814FB0000F7
:109620002A3E25730D0A00004D4700004805002022
:109630000FB430B589B00DF1060513A101A8FBF7F1
:10964000AAFE0DA800902846009A0C9901F0A8FCEB
:10965000002000902846FBF789FE0446122C02DD0C
:10966000122400202855A21C294608A002F03BF92C
:10967000A01C82B24FF4007301A90748FFF73CFB1E
:1096800009B030BC5DF814FB4D4700002A3E25733D
:109690005B25645D0D0A00003007002070B50646AA
:1096A0000C461546022D01DA002070BD20782328D3
:1096B0001ED1032D1CDB03223FA12046FBF774FEC5
:1096C00010B900F047FA75E003223CA12046FBF7F1
:1096D0006BFE18B9E01C00F077FA6BE0032238A1AA
:1096E0002046FBF761FE002864D100F0B3FA61E088
:1096F000042D5FDB0EB3042232A12046FBF754FE9B
:1097000030B932A002F0EFF800F0A6F90120CCE762
:10971000032231A12046FBF747FE20B9E07800F094
:1097200097F80020C1E704222CA12046FBF73CFE5D
:1097300018B900F0FDFA0020B7E7042229A120465D
:10974000FBF732FE48B929A002F0CDF84FF47A7049
:1097500002F075FAFDF738FE2CE0042227A120461E
:10976000FBF722FE10B900F0B9F923E0042225A18D
:109770002046FBF719FE10B900F052F81AE0042257
:1097800022A12046FBF710FE10B900F0A9FA11E063
:10979000042220A12046FBF707FE10B900F0B4FA1E
:1097A00008E003221DA12046FBF7FEFD10B9601C56
:1097B00000F064F8002078E72341230023423A00B8
:1097C000234323004F544153000000004F544120D5
:1097D00073746172740D0A0044415400564552532B
:1097E0000000000052455354000000005265626FB3
:1097F0006F74696E672E2E2E0D0A000053454C467D
:10980000000000004D41434200000000544D41471C
:109810000000000054524144000000004E4154003A
:1098200070B5074D002404E0295D06A001F0A8FBF7
:10983000641C062CF8DB05A001F0A2FB70BD000043
:1098400006F0030825303258000000000D0A000021
:1098500010B50446322C01D1012000E0002005495A
:10986000087000231A4619460348006803F0E0F91F
:1098700010BD0000220500203C05002030B589B055
:10988000044624216846FBF75AFD2046FBF76EFD8F
:1098900085B24FF400732A4621460748FFF72CFA99
:1098A00018B106A002F01FF803E0214607A002F05D
:1098B0001AF809B030BD0000B00800204E422D3E1D
:1098C0003A206572726F720D0A0000004E422D3E02
:1098D0003A25730D0A00000010B505A001F050FBF9
:1098E0004FF0FF300549086000200549087010BDA1
:1098F00043616E63656C6C65640D0A0004050020AD
:109900000905002010B50AA001F0EDFF0C490988F7
:1099100088B200220B4900F093FD4FF4A0310A48B1
:1099200000F03EFE09A001F0DEFFFDF74DFD10BD89
:109930005278204F5441452E2E2E0D0A0000000073
:109940000405002064060020009001085265626F43
:109950006F74696E672E2E2E0D0A000010B586B04A
:109960000446042C1AD1042226A12848FBF71CFD2A
:1099700038B9FFF7C7FF26A001F0B5FF002006B0F9
:1099800010BD042226A12148FBF70EFD30B9FFF7D8
:10999000A3FF25A001F0A7FF0020F0E726480078EC
:1099A00020B126A001F09FFF0020E8E7142C01D091
:1099B000012000E0002020490870254800680028A8
:1099C0001EDB2349098888B22246104900F038FD81
:1099D0001F48006820441E49086071208DF800006F
:1099E00002208DF8010008460068CDF8020000232F
:1099F0001A4669461748006803F01AF90120BEE7C5
:109A00000120BCE74F5441450000000064060020DF
:109A10004F5441453D3E4E4F524D0D0A000000004F
:109A20004F544158000000004F5441583D3E4E4FA6
:109A3000524D0D0A0000000008050020726F677586
:109A4000655F706B743D3E4E4F524D0D0A00000035
:109A5000040500204805002000B587B0002011490A
:109A60000870114908701149086011A001F088FAC6
:109A700028211448FCF7C9FB13A001F034FF712022
:109A80008DF8040002208DF805004BF6EF60ADF86C
:109A9000060000231A4601A90F48006803F0C8F821
:109AA00007B000BD080500200905002004050020BE
:109AB000457261736520666C6173682E2E2E0D0AE7
:109AC000000000000090010854783A2030784245A8
:109AD00045460D0A000000004805002010B500F0C2
:109AE0005BFE18B108A0FFF7A3FD02E00AA0FFF794
:109AF0009FFD00F079FE18B10CA0FFF799FD02E080
:109B00000FA0FFF795FD10BD4D616720746573745C
:109B1000206661696C6564004D61672074657374CB
:109B200020737563636573730000000052616461A4
:109B3000722074657374206661696C65640000004E
:109B40005261646172207465737420737563636518
:109B5000737300002DE9FC4100F044FE08B90120B8
:109B600000E00020044600F0F9FD08B9012000E003
:109B70000020054600F010FE08B9012000E000209A
:109B8000064600F031FE08B9012000E0002007463B
:109B900024B11DB116B10FB1012000E000208046B4
:109BA0002B462246414603A0CDE9006701F0E8F9C3
:109BB000BDE8FC81232530642530642530642530E0
:109BC00064253064230D0A0010B58EB004460DF1F3
:109BD0001E00FCF70FFC09A8FCF746FC05A804A929
:109BE00003AB02AACDE9001011A12046FBF7ECFB64
:109BF00004281ADB01208DF8180003208DF81900C5
:109C0000002005E002A911F8202012310A54401C5E
:109C10000428F7DB06A801F06BFE18B108A001F0DC
:109C2000AFF902E008A001F0ABF90EB010BD0000E2
:109C30002532582532582532582532580000000068
:109C40006661696C0D0A0000737563636573730D5B
:109C50000A00000070B51B4D002404E0295D1AA025
:109C600001F08EF9641C042CF8DB19A001F088F9CE
:109C7000144D2D1D002404E0295D13A001F080F98E
:109C8000641C062CF8DB12A001F07AF90D4D0A35A0
:109C9000002404E0295D0FA001F072F9641C0F2C70
:109CA000F8DB0BA001F06CF90A2200210AA001F0F8
:109CB00067F9044DAD1E6A78297807A001F060F9B4
:109CC00070BD000002F0030825303258000000008B
:109CD0000D0A00002563000025642E25640D0A008E
:109CE00010B500F059FD18B903A001F049F902E0E0
:109CF00003A001F045F910BD706173730D0A0000F7
:109D00006661696C0D0A000010B500F06DFD18B9B0
:109D100003A001F035F902E003A001F031F910BD14
:109D2000706173730D0A00006661696C0D0A0000B2
:109D300000B587B071208DF8040004208DF805006F
:109D400002220AA10DF10600FBF704FB00208DF8AA
:109D500008000A208DF8090000231A4601A90448CA
:109D6000006802F065FF07B000BD00005652000019
:109D7000480500202DE9F04104460F4600255B48C8
:109D8000C06800F0030090B15848C06800F00300BC
:109D90002168884209D1206838B15448C068C0F3AE
:109DA0000210401C6168884233D0012531E02068F0
:109DB000012804D0022809D003281AD10DE04B480D
:109DC000006800F0020000B9012514E0474800686F
:109DD00000F4806000B901250DE04448006800F4FB
:109DE000003028B94148006800F4802000B90125FE
:109DF00001E0012500BF00BF5DB9D4E90010401E9D
:109E000041EA00103949C96821F073010843374914
:109E1000C860002D67D13548006820F08060334964
:109E20000860FCF733FF064606E0FCF72FFF801BB7
:109E3000022801D9032505E02C48006800F00060E5
:109E40000028F2D100BFC5BB67B9A0680002217B22
:109E500040EAC16025490969254A11400843234960
:109E6000086120E0012F0FD1A0680002218A0122A1
:109E7000C2EB510140EA41501C4909691D4A114099
:109E800008431A4908610EE0A0680002217D012202
:109E9000C2EB510140EA416014490969164A114078
:109EA0000843124908611148006840F080600F497A
:109EB0000860FCF7EBFE064607E014E0FCF7E6FE60
:109EC000801B022801D9032505E00848006800F03E
:109ED00000600028F2D000BF2DB904480069A169D4
:109EE0000843024908612846BDE8F081001002409D
:109EF000FF80FF07FF809FFFFF80FFF9F8B5044652
:109F000000262348806D00F0805018B1FDF7C4FA98
:109F1000054616E000BF1E48806D40F080501C4989
:109F200088650846806D00F08050009000BF00BF3B
:109F3000FDF7B2FA05461648806D20F080501449AE
:109F40008865B5F5007F07D1802C10D9A02C01D9E8
:109F500002260CE001260AE0802C01D9032606E047
:109F6000802C01D1022602E0702C00D10126094884
:109F7000006820F007003043064908600846006882
:109F800000F00700B04201D00120F8BD0020FCE73E
:109F90000010024000200240F0B585B005460C4696
:109FA00016461F4600BF2A48006E40F480402849EC
:109FB00008660846006E00F48040009000BF00BFB5
:109FC000002289154FF09040FCF75AFE642001F002
:109FD00036FE71208DF80400E0B28DF805002246AF
:109FE00029460DF10600FBF791F900211948006898
:109FF00003F096F800231A4601A91748006802F0FA
:10A0000017FE41F288311348006803F089F80128EF
:10A0100009D11248028812493046FBF777F90F48F8
:10A020000088386002E00FA001F05DFC642001F0C0
:10A0300006FE0748006E20F48040054908660122AC
:10A0400089154FF09040FCF71BFE002005B0F0BDD5
:10A0500000100240400500204C0500202005002093
:10A060009406002074696D65206F75740D0A0000F8
:10A0700010B588B00FA103C9CDE9060101AB02AA52
:10A0800008210E48FFF788FF00240CE006A8005DB9
:10A0900002A9095D884205D009A0FFF78BFA0120CB
:10A0A00008B010BD641C052CF0D30BA0FFF782FA9A
:10A0B0000020F5E7AAC1B300010000001005002050
:10A0C00072616461722063616C6962206661696CAF
:10A0D0006564210D0A000000726164617220636191
:10A0E0006C696220737563636573730D0A00000009
:10A0F00010B586B0044601AB02AA08211748FFF745
:10A100004BFF019808280BDB9DF80800AA2807D10F
:10A110009DF80900072803D19DF80F00552804D0A9
:10A1200000202060401E06B010BD9DF80A0010B14E
:10A13000012808D103E00AA001F0D5FB07E00CA03C
:10A1400001F0D1FB03E00EA001F0CDFB00BF00BF8A
:10A15000DDF80A0020609DF80A00E4E718050020F9
:10A160007261646172202D2D2D2D2D2D0D0A0000A0
:10A170007261646172206F5E2D5E6F0D0A000000D7
:10A180007261646172203F3F3F3F3F3F0D0A000014
:10A190008AB03D480068006840F010003A490968FC
:10A1A0000860102239493848FEF744FD6BE04FF053
:10A1B000FF3206A93648006802F0FEFE012800D0F2
:10A1C00061E09DF81800702814D0712855D19DF8D1
:10A1D0001B309DF81A209DF819102EA001F083FB6A
:10A1E0009DF819204FF400730DF11A012648FEF76F
:10A1F00083FD46E02448FEF7B5F92348C06E0068A9
:10A200004068C0F1100028490880022227A11F4899
:10A21000FBF7CAF830B91D4A2348018824A001F091
:10A2200062FB19E01948C07918498979174A5279AF
:10A23000164B1B79CDE90232CDE904101348C078E2
:10A2400012498978CDE90010104843780278164801
:10A2500001881BA001F047FB13480088002806DD99
:10A2600000231A4619462148006802F0E1FC10223A
:10A2700006490548FEF7DEFC03E01DA001F033FBB4
:10A2800000BF00BF00BF92E7B00700209406002087
:10A290004C0500203C7E3A202564205B2530325856
:10A2A000253032585D0D0A00200500204154000081
:10A2B0007E3E3A2564205B25735D0D0A0000000098
:10A2C0007E3E3A2564205B253032582530325825B1
:10A2D0003032582530325825303258253032582502
:10A2E000303258253032585D0D0A000040050020FC
:10A2F000496E76616C696420424C455F444154412B
:10A300002121210D0A00000070B504460D460748C2
:10A31000FEF728F9AAB24FF4FA7321460348FEF774
:10A32000F3FB214602A001F0DEFA70BD30070020E9
:10A330002D3E3A25730D0A0070B504460D460748B8
:10A34000FEF710F9AAB24FF4FA6321460348FEF76C
:10A35000DBFB214602A001F0C6FA70BDB008002068
:10A360002D3E3A25730D0A0010B504460021202029
:10A37000FFF7C4F820B901213120FFF7BFF840B141
:10A3800021A001F0B0FA02212020FFF7B7F8012048
:10A3900010BD02E0012001F052FC20212148FCF711
:10A3A00067FC0028F6D02046FCF78EF828B1022181
:10A3B0002020FFF7A3F80120EAE702212020FFF781
:10A3C0009DF8B4F9000010F1140F1ADBB4F9000085
:10A3D000142816DCB4F9020010F1140F11DBB4F9E3
:10A3E000020014280DDCB4F9040010F1140F08DB8E
:10A3F000B4F90400142804DC0BA001F074FA012065
:10A40000C6E70020C4E700004572726F7220696ED3
:10A41000204D61675F57726974655F7265670D0AE9
:10A4200000000000000400484572726F7220696EDF
:10A430002073656C6620746573740D0A000000005B
:10A440002DE9F04106460F4615462B480078C0F12D
:10A450008000C4B2CDB93019A0F18001264802783D
:10A4600026A000F08DFD244890F800804FEAE871A6
:10A4700008EB5171CA10284931442144A1F18000F0
:10A48000264900F061FDBDE8F081AC420DDD2349B5
:10A49000194A127888182A463946FAF737FF1648BB
:10A4A0000078284414490870EDE71C49124A1278D4
:10A4B000881822463946FAF729FF3019A0F18001A1
:10A4C00017A000F05DFD144931442144A1F1800042
:10A4D0001022124900F038FD0020074908702A1B9D
:10A4E00039190E48FAF712FF281B03490978084466
:10A4F0000149087000BFC6E709050020777269743A
:10A500006520666C6173683A202564206C61737401
:10A51000205B25645D0D0A0000900108E405002021
:10A52000777269746520666C6173683A2025640DE2
:10A530000A00000070B5044621460CA001F0D3F9D2
:10A540000CA12046FAF719FF18B9FBF711FE0020FD
:10A5500070BD2046FAF70AFF85B24FF400732A4611
:10A5600021460648FEF7C8FB0020F1E73C2D3A25BE
:10A57000730D0A00415457414B450000300700203D
:10A5800070B504462046FAF7F1FE85B24FF4007329
:10A590002A4621460148FEF7AFFB70BDB0080020F7
:10A5A0007CB504460D464FF0AA3100910191611926
:10A5B000A1F108000122694600F0C6FC7CBD10B57F
:10A5C0000446FFF755FDFBF733FC10BD10B500BF87
:10A5D000502080F31188BFF34F8FBFF36F8F00BF00
:10A5E00002F06CFF18B14FF080500449086000BFC2
:10A5F000002080F3118800BF10BD000004ED00E0D2
:10A6000000B5ADB044211CA8FAF799FE142117A893
:10A61000FAF795FE5C216846FAF791FE10201C902F
:10A62000012022900020239060202490002026907A
:10A630001CA8FDF77DFA08B1FBF700FE0F2017906C
:10A640000020189019901A901B90002117A8FDF770
:10A65000EFF808B1FBF7F2FD6720009000200890AA
:10A6600009900A900B900C906846FCF71DFF08B10A
:10A67000FBF7E4FD4FF40070FCF7C8FE08B1FBF7F0
:10A68000DDFD2DB000BD00001048006840F47000F2
:10A690000E4908600E48006840F001000C4908604F
:10A6A00000208860084600680A4908400849086098
:10A6B0008814C8600846006820F4802008600020E4
:10A6C0008861C803014980390860704788ED00E05F
:10A6D00000100240FFFFF6EA10B50248FDF755FEF4
:10A6E00010BD0000A40C002010B50268184B984261
:10A6F00002D0B0F1804F03D122F070024B681A43B0
:10A70000134B984208D0B0F1804F05D0114B9842BE
:10A7100002D0114B984203D122F44072CB681A4305
:10A7200022F080034C6943EA040202608B68C36232
:10A730000B688362064B984205D0064B984202D0C4
:10A74000054B984201D10B6903630123436110BD9E
:10A75000002C0140004001400044014000B587B09A
:10A7600008A0FFF7E7FE182101A8FFF7CDFD06229C
:10A7700007A101A8FAF718FE10B9002007B000BD24
:10A780000120FBE741542B434F4E533A3F0000005A
:10A7900041542B4F4B3A00001CB56846FFF7E4FDCF
:10A7A0000446BDF90430BDF90220BDF9001009A02E
:10A7B00001F099F8BDF90000BDF90210884207D1F7
:10A7C000BDF90000BDF90410884201D101201CBD73
:10A7D0002046FCE74D61673A25642C25642C2564EE
:10A7E000000000000020704738B56846FFF780FC85
:10A7F0000446002C01DB002038BD4FF0FF30FBE7A2
:10A8000090F8241001F0010139B10168496821F480
:10A810000031826A11430268516090F8241001F0FF
:10A820000201022907D10168496821F48031C26A16
:10A8300011430268516090F8241001F004010429CA
:10A8400007D10168496821F48021026B1143026835
:10A85000516090F8241001F00801082907D101681F
:10A86000496821F40041426B11430268516090F83D
:10A87000241001F01001102907D10168896821F422
:10A880008051826B11430268916090F8241001F0AE
:10A890002001202907D10168896821F40051C26B89
:10A8A00011430268916090F8241001F040014029A2
:10A8B00013D10168496821F48011026C11430268C8
:10A8C0005160016CB1F5801F07D10168496821F41E
:10A8D000C001426C11430268516090F8241001F0ED
:10A8E0008001802907D10168496821F40021826C28
:10A8F000114302685160704738B504460020E06794
:10A90000FCF7C4F905462068006800F00800082834
:10A910000CD16FF07E402B4600224FF400110090C6
:10A92000204600F02EFA08B1032038BD20680068E8
:10A9300000F0040004280CD16FF07E402B4600226A
:10A940004FF480010090204600F01BFA08B103206C
:10A95000EBE720206067A06700BF002084F870004C
:10A9600000BF00BFE1E770B50546AC6A0020A4F85F
:10A970005A00A4F852002046FDF73AFE70BD2DE9BA
:10A98000F0410546AC6A666FA76F2068806800F0EA
:10A990008000802807D1212E05D10020A4F8520084
:10A9A000204600F062F82068806800F040004028EF
:10A9B00007D1222F05D10020A4F85A00204600F02C
:10A9C00033F8E06F40F01000E0672046FDF710FE1E
:10A9D000BDE8F08170B50546AC6A2868006800F0F3
:10A9E0002000B0B90020A4F85A002068006820F4C4
:10A9F0008070216808602068806820F0010021686C
:10AA000088602068806820F04000216888602020ED
:10AA1000A0672046FEF76EF970BD70B50446A56AC2
:10AA20002846FEF768F970BD0168096821F4907145
:10AA3000026811600168896821F001010268916073
:10AA40002021816700210166704710B50446206807
:10AA5000006820F040002168086020206067002026
:10AA600060662046FEF7B4F910BD0168096821F060
:10AA7000C001026811602021416770472DE9F84F3D
:10AA8000044600200090B6492068884200D100E0CA
:10AA900000BF2169A068084361690843E16940EA91
:10AAA000010A20680068AF49084040EA0A002168AE
:10AAB00008602068406820F44050E168084321683D
:10AAC0004860D4F818A0A6492068884202D0206ABD
:10AAD00040EA0A0A2068806820F4306040EA0A00F0
