:020000040800F2
:105000002045002081520008599D00088F93000818
:10501000559D0008E9630008B5C7000800000000BE
:10502000000000000000000000000000A151000886
:105030005D64000800000000FD510008B9BD0008D3
:105040009B5200089B5200089B5200089B5200088C
:105050009B5200089B5200089B5200089B5200087C
:105060009B5200089B5200089B5200089B5200086C
:105070009B520008ED6300089B520008FD63000886
:105080000D6400089B5200089B5200089B520008C8
:105090009B5200089B5200089B5200089B5200083C
:1050A0009B5200089B5200089B5200089B5200082C
:1050B0009B52000800000000000000009B52000806
:1050C0009B5200089B5200089B5200089B5200080C
:1050D0009B520008B1C6000805C7000861C7000858
:1050E0009B5200089B5200080000000000000000D6
:1050F00000000000000000000000000000000000B0
:10510000000000009B520008000000009B520008B5
:105110000000000000000000C5BE00089B5200080F
:105120009B5200089B5200089B5200089B520008AB
:105130009B5200080000000000000000000000007A
:105140009B5200089B5200089B5200080000000080
:105150009B5200081D640008919600089B520008AD
:105160009B5200089B5200089B5200080000000060
:105170009B5200089B520008000000000000000045
:105180009B5200089B5200089B520008DFF80CD08D
:1051900000F0CCFC0048004769E9000820450020E9
:1051A0002C4B1968086800F05AB880F30988BFF3DF
:1051B0006F8F4FF0000080F31188704700000000EF
:1051C00008480068006880F308884FF0000080F30A
:1051D000148862B661B6BFF34F8FBFF36F8F00DFE5
:1051E00000BF00BF08ED00E0DFF80C00016841F4EB
:1051F00070010160704700BF88ED00E0EFF30980A7
:10520000BFF36F8F134B1A681EF0100F08BF20ED0D
:10521000108A20E9F04F106009B44FF0500080F37D
:105220001188BFF34F8FBFF36F8F0AF0C7FC4FF0A9
:10523000000080F3118809BC1968086800F014B8F0
:105240001EF0100F08BF00F014B880F30988BFF3F8
:105250006F8F7047B0050020EFF30580704730C8AE
:10526000B0E8C04FFFF7A1BF30C8B0E8C04FFFF7AC
:10527000E7BFB0EC088AB0EC08CAFFF7E6BF000051
:105280000648804706480047FEE7FEE7FEE7FEE7E0
:10529000FEE7FEE7FEE7FEE7FEE7FEE775BE000875
:1052A0008D5100082DE9F05F0546002092469B468F
:1052B00088460646814640241BE02846414647462C
:1052C000224600F094F953465A46C01A914110D331
:1052D00011461846224600F07BF92D1A67EB0108AB
:1052E0004F4622460120002100F072F917EB000919
:1052F0004E41201EA4F10104DFDC484631462A4617
:10530000434600F000B830BCBDE8C09F0649074ADC
:105310000868504343F2390210440860400870475F
:105320000149086070470000100600206D4EC6411C
:1053300040EA01039B0703D009E008C9121F08C017
:10534000042AFAD203E011F8013B00F8013B521E97
:10535000F9D27047D2B201E000F8012B491EFBD20E
:1053600070470022F6E710B513460A460446194670
:10537000FFF7F0FF204610BD10B5044604E00B789F
:1053800000F8013B03B1491C521EF8D2204610BD63
:10539000421C10F8011B0029FBD1801A704730B560
:1053A00005460020034600E05B1C934205D2EC5CFE
:1053B000C85C201A01D1002CF6D130BD0FB400B565
:1053C0008DB010A909900B9000914FF0FF300A901A
:1053D00000200C9005480690054807906A4609A8E9
:1053E0000F9900F029F90DB05DF814FB555600082F
:1053F000735600082DE9FF5F1D464FF0FF3BD5E9CE
:10540000014691465F464FF00008A9697F1C01984C
:105410008847296A824688470028F6D1BAF1FF3FBB
:105420000CD024F4C064002E19DD600614D5BAF146
:105430002B0F09D0BAF12D0F0ED103E0584604B05E
:1054400000F07EB844F48064A9697F1C0198884705
:10545000761E8246002E02DDBAF1300F03D0B9F17C
:10546000000F26D032E0A969761E44F400747F1C38
:10547000019888478246002E05DDBAF1780F06D0E4
:10548000BAF1580F03D0B9F1000F10D01EE0B9F1F6
:10549000000F02D0B9F1100F18D1A969761E24F4BB
:1054A00000747F1C019888478246102002E0082083
:1054B00000E00A20814609E008FB0908A969761E78
:1054C00044F400747F1C019888478246002E05DD55
:1054D0004946504600F09BF80028EDDAE96901984A
:1054E0008847A00502D46FF00100A8E7E00725D1A6
:1054F000600613D5600502D5C8F1000000E0404603
:1055000029680A1D2A600968220501D5087015E07E
:10551000220701D5088011E008600FE02868011D0E
:1055200029600068210502D580F8008006E0210787
:1055300002D5A0F8008001E0C0F8008038467EE780
:1055400030BCBDE8C09F00F0004230F000400AD0FF
:10555000C10D01F56071C0F3160042EA0151C208A5
:1055600040071143704700200146704701F0004397
:1055700030B421F0004150EA010206D00A0DA2F534
:105580006072C1F31301002A02DC30BC00207047B6
:10559000440F44EAC104C100E01830BC00EBC25023
:1055A00000F078B830B50B460146002020220124D7
:1055B00009E021FA02F59D4205D303FA02F5491BE1
:1055C00004FA02F52844151EA2F10102F1DC30BDF7
:1055D000202A04DB203A00FA02F1002070479140B3
:1055E000C2F1200320FA03F3194390407047202AA8
:1055F00004DB203A21FA02F00021704721FA02F37D
:10560000D040C2F1200291400843194670473A2821
:1056100000D2303820F02002412A01D3A2F1370015
:10562000884201D34FF0FF307047000002681144F8
:105630001378016018467047D160044951610449EC
:10564000116200211161114600F09ABA2D5600082E
:10565000755B0008426842B1016811F8013B23B153
:10566000521EC0E90012184670470121C160881E11
:10567000704742685AB1C368016843B983688B4276
:1056800005D0491E521CC0E90012002070474FF09F
:10569000FF3070470029A8BF7047401C490008BF71
:1056A00020F00100704710B4B0FA80FC00FA0CF052
:1056B00050EA010404BF10BC704749B1CCF120048A
:1056C00021FA04F411FA0CF118BF01212143084317
:1056D000A3EB0C01CB1D4FEA00614FEA102042BF43
:1056E000002010BC704700EBC35010440029A4BF39
:1056F00010BC7047401C490008BF20F0010010BCDE
:1057000070472DE9FE4F804681EA0300C00F0C462A
:10571000009021F0004123F00045B8EB0200A941C0
:1057200005D24046214690461C460B46024623F0D1
:105730000040104347D0270DC7F30A00C3F30A51B6
:105740000290401A019040286BDAC3F3130040F432
:10575000801B0098924620B10023D2EB030A63EB32
:105760000B0B01985946C0F140025046FFF730FF3D
:1057700006460D4650465946019A00F0E9F910EBED
:1057800008006141002487EA115284EAE7731A4352
:1057900040D0009A62B3019A012A4FEA075215DC01
:1057A000001B61EB02014FF0004202EA0752CDE913
:1057B0000042001C41F5801132462B4600F088FB68
:1057C00003B000F045B840462146F9E7001B61EB05
:1057D0000201001C41F5801300185B412018A2F55E
:1057E000001747EB030140EAD570B6196D4111E08F
:1057F0006D084FEA360645EAC0754FEA0752001BAE
:1058000061EB0201001C41F5801149084FEA3000AC
:105810000019514132462B4603B000F01CB800F08D
:1058200048BB0098012240000023D0EB020263EB4A
:10583000E073009821464FEAE074B8EB000061EB9A
:105840000401E9E783F000435BE781F0004158E79A
:1058500030BCBDE8C08F30BCBDE8C04FFFF7DFBF34
:105860002DE9FE4F81EA030404F0004421F00041D9
:1058700000944FF0000B23F0004350EA01045ED087
:1058800052EA03045BD0C3F30A54C1F30A552C4413
:10589000A4F2F3340194A0FB0254C1F3130141F4C8
:1058A0008011C3F3130343F4801301FB024400FB94
:1058B000034E840A970A44EA815447EA8357A4FBBB
:1058C000076802958D0A05FB07854FEA932C04FBB8
:1058D0000C542705029D4FEA065847EA1637B5EBE8
:1058E00008056EEB070C870E920E47EA811742EA15
:1058F0008312A7FB0201B6EB0B0164EB00042B0D36
:1059000043EA0C335E1844EB1C50DA465146E7FB81
:105910000201C5F313044FEA0B3343EA14534FEA71
:105920000432019C43EA0603A4F10C040294009C97
:10593000CDE900B400F0CCFA03B000F003B80020C9
:105940000146F9E730BCBDE8C08F2DE9F04D81EA92
:10595000030404F0004B21F0004514464FF0000A08
:1059600023F0004150EA050220D054EA01021DD084
:10597000C5F30A570246C5F31303C1F31300C1F37D
:105980000A5640F4801543F48013A7EB0608101B59
:10599000D64608F2FD3873EB050002D308F1010882
:1059A00001E092185B41B8F1000F03DA00200146D4
:1059B000BDE8F08D00204FF48011064684460EE0CD
:1059C000171B73EB050705D3121B63EB0503064397
:1059D0004CEA010C49084FEA300092185B4150EA4A
:1059E0000107EDD152EA030012D082EA040083EAF3
:1059F0000501084305D0101BAB4106D2012200234C
:105A000006E000224FF0004302E06FF00102531065
:105A10001AEB06004CEB085110EB0A0041EB0B01AE
:105A2000BDE8F04D00F045BA2DE9F04D00231A46CF
:105A30001B1A8A4103DB00200146BDE8F08DC1F34B
:105A40000A52C1F3130141F480154FF0000BD10746
:105A500002D100186D41521E0027044640F2FF118A
:105A6000384601EB620A3E468046024600204FF46B
:105A70008011FFF7BCFDC2197141BB1846EB010054
:105A8000B4EB030C75EB000C04D3E41A65EB0005D2
:105A900017460E46241908F101006D41804634284E
:105AA000E3DDF91946EB0600091BA84103D24FF0CC
:105AB000FF32134601E0002213461BEB070046EBC2
:105AC0000A51BDE8F04D00F0F4B9C1F30A52C1F338
:105AD000130140F2FF3341F480119A4202DA0020B0
:105AE0000146704740F233439A42A2F2334202DC4D
:105AF0005242FFF77CBDFFF76BBD000030B5041EBE
:105B000071F1000404DB4FF00044404264EB0101FA
:105B1000141E73F1000405DB1C464FF00043524293
:105B200063EB0403994208BF904230BD064C074D19
:105B300006E0E06840F0010394E80700984710345D
:105B4000AC42F6D3FFF726FBF81601081817010838
:105B5000202A06DBCB17203A41FA02F043EAE07331
:105B600006E041FA02F3D040C2F12002914008431E
:105B700019467047C0B24FF4F05100F035BA00003A
:105B80002DE9F34F8BB04FF0000801F10C000C46EB
:105B90004FF0010B46460DF1080A019062690121A0
:105BA00001989047051E2DD0252D2CD0216A8847BD
:105BB000C0B16269012101989047216A8847002895
:105BC000F7D1411E62690198904700E0761CA169F7
:105BD0000B988847216A88470028F7D1E1690B981C
:105BE0008847DBE7A1690B9888470746A84201D19F
:105BF000761CD3E7E1690B9888477F1C02D1B8F186
:105C0000000F6FD046E1002762693D463946019892
:105C100090472A2804D16269012101989047012503
:105C2000DFF884926269012101989047A0F1300168
:105C30000A290AD24F45E5DC07EB870100EB410753
:105C4000303FDFD445F01005ECE7E90601D46FF0F2
:105C500000476C280AD04C2814D0682815D06A2830
:105C60000DD074281CD07A281AD01DE06269012159
:105C7000019890476C2802D045F0040514E045F0E7
:105C800002050DE045F020050AE062690121019856
:105C90009047682802D045F0080505E045F4006506
:105CA0006269012101989047C4E9015765283DD0F8
:105CB00019DC58287AD00CDC452837D004DC25289C
:105CC00026D0412831D131E046282FD047282CD189
:105CD0002CE05B2877D0612828D063287CD064280A
:105CE00023D15AE0D0E06F2848D008DC66281DD0C8
:105CF00067281BD0692821D06E2816D127E070288C
:105D000045D0732868D0752847D078280DD14DE04C
:105D1000A1690B988847054625283FF469AFE169DA
:105D20000B9888476D1C3FF46AAFB3E023466A4680
:105D30006FF001000B99AFF300809EE045F040004A
:105D40006060A80723464FF0000236D43EE0E80723
:105D50007FF447AF2068011D21600068290501D547
:105D600006701BE7290701D5068017E7A90703D5A9
:105D7000F117C0E9006111E706600FE745F0400048
:105D80006060A80723464FF0080216D41EE040F6D4
:105D90000E0125EA0100606016E045F040006060F9
:105DA000A80723464FF00A0207D40FE045F0400051
:105DB0006060A80708D5234610226FF001000B99F8
:105DC000AFF3008059E007E0234610226FF0010096
:105DD0000B99FFF70FFB50E04FF000094F464B4681
:105DE000632802D05B2806D040E0E80601D40120F9
:105DF000A06001273AE062690121019890475E287E
:105E000005D14FF00109626949460198904721691F
:105E100039B900210A46534643F82120491C082974
:105E2000FADBB0B3216969B9C11700EBD162531134
:105E30000AEB830122F01F02821A01200B689040B6
:105E400003430B6062690121019890475D28E8D106
:105E5000B9F1000F09D00020514651F82020D2435B
:105E600041F82020401C0828F7DB02AB22460097AF
:105E70006FF001000B99AFF3008000280CDA401C92
:105E800008D1BBF1000F05D04FF0FF300DB000F08E
:105E90000DB8FFE74046F9E7E90701D108F101082D
:105EA00006444FF0000B79E6CCCCCC0C30BCBDE8FE
:105EB000C08F10B5141E73F1000408DA401C41F1C4
:105EC000000192185B411A4301D120F0010010BD7E
:105ED0002DE9F04D92469B4611B1B1FA81F202E0F4
:105EE000B0FA80F220329046FFF772FB04460F466C
:105EF00040EA0A0041EA0B0153465A46084313D0D0
:105F0000114653EA010019D0C8F140025046FFF78C
:105F10006EFB05460E46504659464246FFF758FB73
:105F2000084305D0012004E020463946BDE8F08D45
:105F30000020054346EAE0762C4337430A98630580
:105F4000E40AA0EB08000022FD0A44EA47540A30A4
:105F500002D500200146E9E7010510196941DDE994
:105F6000084500196941BDE8F04DA2E70EB5C10F23
:105F700080EAE0700844CA07002140F233438DE80C
:105F80000E000A460B46FFF7A3FF03B000BD0EB597
:105F900040F2334102910021CDE900110A460B463F
:105FA000FFF796FF03B000BD70B5C1F30A5201F0D0
:105FB00000450024C1F3130140F2FF3341F4801186
:105FC0009A4201DA002070BD40F233439A42A2F2B5
:105FD000334203DC5242FFF70AFB00E090402C43BF
:105FE000F1D0404270BD00007F2801D9002208E0B6
:105FF000064A02EB5002C007127800D1120902F0E3
:106000000F02012090400840704700004016010830
:1060100088B0002600258B480068006840F010001A
:1060200088490968086018228749864803F0E0F823
:1060300086480068006840F01000844909680860DC
:1060400080228349814803F0D3F8FAE04FF0FF3211
:1060500002A9804800680AF0EBF8012800D0F0E0BF
:106060009DF80800702829D0712802D0722879D1B3
:10607000A0E0022278A10DF10A00FFF790F938B9EB
:106080009DF809100DF10A0274A008F03BF808E031
:106090009DF80B309DF80A209DF8091073A008F0B8
:1060A00031F89DF809204FF400730DF10A0165489D
:1060B00003F000F9322009F0D1FBC0E0614802F0A2
:1060C00029FD6048C06E00684068C0F118006B4947
:1060D000088000205C49694A128888546748008813
:1060E000142806DA0A466548018865A008F00AF80F
:1060F0000DE05548C07854498978CDE900105248E0
:10610000437802785D48018860A007F0FBFF012D0D
:1061100006D0022250A14C48FFF741F9002843D095
:106120005648008809280CD109225FA14648FFF78C
:1061300036F930B95FA007F0E5FF0120614908702A
:1061400032E04E4800880C2811D10C225EA13E4856
:10615000FFF725F958B960A007F0D4FF002059498E
:10616000087000E067E061A005F01CFA1CE00AF08E
:10617000DBFA04462DB1B44203D95FA007F0C2FF99
:10618000002504F6B836012D05D13C48008804F0FE
:1061900027FC054607E0394802882B49012004F016
:1061A000C5F9054600BF00BF18222749254803F05E
:1061B0001FF844E0254802F0ADFC2448C06E00689A
:1061C0004068C0F1800051490880002020494F4AB2
:1061D00012888854022220A11D48FFF7E0F848B930
:1061E0001B4A4A4801884AA007F08CFF184805F06E
:1061F000D9F90DE01648C07815498978CDE9001025
:106200001348437802784148018845A007F07AFF97
:1062100001204A4908703D4802880D49002004F0D9
:1062200085F905460020454908708022084907483D
:1062300002F0DEFF03E042A007F064FF00BF00BFF2
:1062400000BF03E7FC2000209C060020FC2100206A
:10625000B40600207C050020415400003C2D3A206B
:106260002564205B25735D0A000000003C2D3A2068
:106270002564205B256325635D0A00000C05002072
:106280002D3E3A2564205B25735D0A002D3E3A259C
:1062900064205B253032582530325825303258255D
:1062A0003032585D0A000000636F6E6E656374657E
:1062B00064000000424C4520636F6E6E6563746538
:1062C000640A00000B050020646973636F6E6E65DD
:1062D0006374656400000000424C45206469736388
:1062E0006F6E6E65637465640A00000041542B4C48
:1062F0004F574C3A310000003D3E2054696D654FC8
:1063000075743A204E4F524D0A0000000E050020D1
:1063100055322D3E3A2564205B25735D0A0000004E
:1063200055322D3E3A2564205B25303258253032D7
:106330005825303258253032585D0A000A050020B1
:10634000496E76616C696420424C455F444154411A
:106350002121210A00000000002414A005F022F9E8
:1063600000BF41F2883008F086FC641D1248808826
:10637000C0EB0010B4EB800F02D9002405F0BAF98D
:106380000EE043F6982008F076FC0F340A48808827
:10639000C0EB0010B4EB800F02D9002405F0AAF97D
:1063A000064800780028DCD0EBE7000041542B4C75
:1063B0004F574C3A31000000F00800200B05002038
:1063C00010B500220221074800F032FF642008F0D7
:1063D00052FC01220221034800F02AFF0A2008F0A3
:1063E0004AFC10BD0004004800BFFEE710B502489B
:1063F00000F0D6FB10BD0000D423002010B50248E9
:1064000000F0CEFB10BD00004423002010B5024870
:1064100000F0C6FB10BD00008C23002010B5024820
:1064200000F0BEFB10BD0000FC22002030B590F84B
:10643000444004F01C050124AC40056C6C60046809
:1064400063608468102C04D10468A2600468E16071
:1064500003E00468A1600468E26030BD70477047E3
:106460001849087F012801D0032811D100BF16491F
:10647000096841F40061144A11601146096821F469
:106480000061116000BF1146096841F4007111609C
:10649000022801D0032811D100BF0B49096841F43B
:1064A0008051094A11601146096821F48051116038
:1064B00000BF1146096841F4806111600021014A62
:1064C000117770478C0500200020024000F0010188
:1064D00029B10649496941F00401044A516103495F
:1064E000496941F48031014A5161704700200240FE
:1064F000094A526922F47E72C3B242EAC302064BD1
:106500005A611A46526942F002025A611A465269A9
:1065100042F480325A6170470020024010B50849A9
:10652000496941F00101064C6161026000BF00BF92
:1065300000BFBFF36F8F00BF00BF00BF436010BD3F
:1065400000200240F0B50246402314460D460C4E92
:10655000766946F480260A4F7E6100BFEFF310860D
:10656000304672B600BF2E682660241D2D1D5E1EAB
:10657000F3B2002BF7D100BF80F3108800BFF0BD4D
:106580000020024070B5054600F058FE064608E0BF
:10659000681C30B100F052FE801BA84201D30320DA
:1065A00070BD1948006900F480300028F0D1164809
:1065B0000069164900EA0104CCB11548406820433F
:1065C0001349486000BF04F0404030B10E48806974
:1065D00004F0404108430C49886124F0404018B160
:1065E00024F040400849086100BF0120D8E7064870
:1065F000006900F0010020B100BF012002490861DC
:1066000000BF0020CCE7000000200240FAC30200D7
:106610008C05002070B501462C4804460246400C0B
:1066200005460346002038E000EB400601EB460635
:10663000B6F90260964205DD00EB400601EB460626
:10664000B6F9022000EB400601EB4606B6F90260FF
:106650009E4205DA00EB400601EB4606B6F9023031
:1066600000EB400601EB4606B6F90460A64205DDE4
:1066700000EB400601EB4606B6F9044000EB40068D
:1066800001EB4606B6F90460AE4205DA00EB4006BF
:1066900001EB4606B6F90450401C0428C4DBD01AAE
:1066A00000EE100AB8EEC00A0948D0ED0A1AC0EE92
:1066B000210A601B00EE100AB8EEC00A0448D0EDB3
:1066C0000B1A80EE211A30EE810A70BD0180FFFFA7
:1066D000F008002010B58AB00446FFF771FE13A041
:1066E00004F060FF182104A804F044FE12A004F096
:1066F00059FF062213A104A8FEF751FE28B100207D
:106700002060A08001200AB010BD601D211DE21C88
:10671000A31CCDE90032CDE90210631C22460BA177
:106720000DF11600FEF74AFE0020ECE741542B4124
:106730004444523A3F00000041542B4C4F574C3ACE
:106740003100000041542B4F4B3A000025325825B0
:1067500032582532582532582532582532580000F3
:1067600010B58AB004461AA004F044FF4FF4FA6052
:1067700003F04AFD20B119A007F0C4FC0AB010BD17
:1067800006221CA11D48FEF70AFE18B11CA007F046
:10679000B9FCF3E704A805A906AA07ABCDE90032C6
:1067A000CDE9021008AB09AA1AA11448FEF706FEAB
:1067B00006280BD109982070089860700798A0707F
:1067C0000698E070059820710498607100BFD5E7C5
:1067D00041542B43434C4B3F0A0000004E6257612B
:1067E0006974466F724F4B2074696D65206F7574C4
:1067F000000000002B43434C4B3A0000840700206C
:10680000556E657870656374656420726573706F2A
:106810006E7365002B43434C4B3A25642F25642F40
:1068200025642C25643A25643A25640070B5044635
:106830000FA004F0DFFE4FF4FA6003F0E5FC051E44
:1068400001D0284670BD10212046FEF78AFD0622A1
:106850000AA10C48FEF7A3FD10B14FF0FF30F1E79D
:106860000F220849891D2046FEF786FD0020E9E732
:1068700041542B4347534E3D310A00002B434753AD
:106880004E3A00008407002070B504460AA004F0C8
:10689000B1FE4FF4FA6003F0B7FC051E01D02846A4
:1068A00070BD10212046FEF75CFD0F2205492046F1
:1068B000FEF762FD0020F3E741542B43494D490A9E
:1068C000000000008407002070B504460FA004F00B
:1068D00091FE4FF4FA6003F097FC051E01D02846A4
:1068E00070BD15212046FEF73CFD07220AA10C4889
:1068F000FEF755FD10B14FF0FF30F1E714220849C3
:10690000C91D2046FEF738FD0020E9E741542B4E13
:10691000434349440A0000002B4E434349443A0094
:10692000840700201CB50FA004F064FE4FF4FA6049
:1069300003F06AFC20B10DA007F0E4FB00201CBDB1
:1069400001AB6A460FA11248FEF738FD022806D1B6
:1069500010A0009907F0D6FB0098C0B2EFE7002026
:10696000EDE7000041542B4353510A004E6257613A
:106970006974466F724F4B2074696D65206F757432
:10698000000000002B4353513A25642C256400007D
:106990008407002072737369203D2025640A00007B
:1069A00000B587B016A004F025FE4FF4FA6003F09E
:1069B0002BFC28B117A007F0A5FB002007B000BDF5
:1069C0000D221AA11D48FEF7EAFC20B11CA007F019
:1069D00099FB0020F2E705A806A906AA06ABCDE9B7
:1069E0000132CDE9031006A81AA100901348FEF762
:1069F000E5FC072802D10598C0B2DFE70020DDE7FB
:106A000041542B4E554553544154533D43454C4CF2
:106A10000A0000004E6257616974466F724F4B2046
:106A200074696D65206F7574000000004E55455304
:106A3000544154533A43454C4C0000008407002015
:106A4000556E657870656374656420726573706FE8
:106A50006E7365004E554553544154533A43454C6B
:106A60004C2C25642C25642C25642C25642C256451
:106A70002C25642C256400001CB5044606226946BA
:106A8000112003F041F920B10FA007F03BFB0120DA
:106A90001CBD9DF800009DF8011040EA012000B2E5
:106AA00020809DF802009DF8031040EA012000B20A
:106AB00060809DF804009DF8051040EA012000B2B6
:106AC000A0800020E4E700004572726F7220696EBA
:106AD000204D61675F57726974655F7265670D0A63
:106AE000000000000146002291F82500022808D08D
:106AF0000420C86300BF002081F8240000BF0120EB
:106B000070470868006820F00E000B68186008687D
:106B1000006820F001000B68186091F8440000F054
:106B20001C03012098400B6C5860012081F825005F
:106B300000BF002081F8240000BF1046E0E770B5D8
:106B40000446002594F82500022803D00420E063C1
:106B5000012520E02068006820F00E002168086010
:106B60002068006820F001002168086094F8440063
:106B700000F01C0101208840216C4860012084F84D
:106B8000250000BF002084F8240000BFA06B10B1D6
:106B90002046A16B8847284670BD0146C86B7047E8
:106BA00070B50446206C05682068066894F84400B7
:106BB00000F01C01042088402840E0B106F00400E9
:106BC000C8B12068006800F0200028B9206800687B
:106BD00020F004002168086094F8440000F01C01D3
:106BE00004208840216C4860206B002856D0204645
:106BF000216B884752E094F8440000F01C01022009
:106C00008840284018B306F0020000B320680068EE
:106C100000F0200040B92068006820F00A002168D8
:106C20000860012084F8250094F8440000F01C015D
:106C300002208840216C486000BF002084F82400B6
:106C400000BFE06A50B32046E16A884726E094F826
:106C5000440000F01C01082088402840F0B106F0F4
:106C60000800D8B12068006820F00E002168086094
:106C700094F8440000F01C0101208840216C486019
:106C80000120E06384F8250000BF002084F8240080
:106C900000BF606B10B12046616B884770BD00007B
:106CA00010B5014609B9012010BD3E4B0868984255
:106CB0000BD23D4B0868C01A1423B0FBF3F08000E0
:106CC00048643948083808640AE0364B0868C01A36
:106CD0001423B0FBF3F0800048643248083808649D
:106CE000022081F825000868026847F6F0708243A8
:106CF000D1E9020318430B6918434B6918438B69A8
:106D00001843CB6918430B6A1843024308680260B2
:106D10008868B0F5804F3AD0234B083B086C984206
:106D20001BD1D0F8A80091F8443003F01C040F23C5
:106D3000A34098431C4BA033186091F8443003F0F3
:106D40001C0348689840184B083BD3F8A8301843F8
:106D5000154B083BC3F8A80019E01248A0300068A2
:106D600091F8443003F01C040F23A34098430D4BCB
:106D7000A033186091F8443003F01C034868984031
:106D8000084BA0331B681843064BA0331860002043
:106D9000C863012081F82500002081F8240000BF8D
:106DA00082E7000008040240080002402DE9F0419B
:106DB00004460D4616461F464FF0000800BF94F8E3
:106DC0002400012802D10220BDE8F081012084F8CE
:106DD000240000BF94F8250001282CD1022084F85B
:106DE00025000020E0632068006820F00100216891
:106DF00008603B46324629462046FFF717FB206BCA
:106E000030B12068006840F00E00216808600BE097
:106E10002068006820F0040021680860206800688D
:106E200040F00A00216808602068006840F0010016
:106E30002168086006E000BF002084F8240000BF3D
:106E40004FF002084046BFE72DE9F04104460F46E7
:106E500000BF3E480078012802D10220BDE8F08141
:106E600001203A49087000BF4CF25030FFF78AFB0E
:106E70000646002E63D1354948603548006800F465
:106E80000070B8B13248006820F4007030490860E2
:106E90000846006800F4806040B10846006820F4AD
:106EA0008060086003202949087715E00120274900
:106EB000087711E02648006800F4806048B1244853
:106EC000006820F480602249086002201F4908778A
:106ED00002E000201D490877206801280ED1606873
:106EE000FFF7F4FA4CF25030FFF74CFB0646184817
:106EF000406920F00400164948611EE04FF0FF3061
:106F00003860A56813E028466168FFF7F1FA4CF293
:106F10005030FFF737FB06460D48406940F2FA3122
:106F200088430B4948610EB13D6005E06D1CD4E912
:106F300002010844A842E6D800BFFFF791FA00BF5B
:106F400000200249087000BF304687E78C0500200A
:106F5000002002400348406940F000400149486178
:106F600000207047002002402DE9F0470446884683
:106F700015461E464FF0000900BF29480078012839
:106F800002D10220BDE8F08701202549087000BF2A
:106F90004CF25030FFF7F6FA0746002F38D120495F
:106FA00048602048006800F4806048B11D480068CF
:106FB00020F480601B49086002201949087702E02C
:106FC0000020174908773CB92A4633464046FFF768
:106FD000A5FA4FF001090BE0012C01D0022C07D1DA
:106FE00029464046FFF7AEFA022C01D14FF4802922
:106FF0004CF25030FFF7C6FA0746B9F1000F05D042
:107000000848406920EA090006494861FFF728FA64
:1070100000BF00200249087000BF3846B2E70000F8
:107020008C0500200020024000200849496901F039
:10703000004151B10649054A9160064991601146E7
:10704000496901F0004101B1012070470020024070
:1070500023016745AB89EFCD78B503460022CBE02D
:10706000012696400D6805EA0604002C72D04D6892
:10707000012D08D04D68022D05D04D68112D02D08C
:107080004D68122D13D1986856000325B540A843CA
:107090005600CD68B5402843986058680125954052
:1070A000A8430D79C5F30015954028435860D8686A
:1070B00056000325B540A84356008D68B5402843C7
:1070C000D8604D68022D02D04D68122D13D1D6081C
:1070D00003F1200555F826005507EE0E0F25B540A3
:1070E000A8435607F60E0D69B5402843D60803F1AC
:1070F000200545F82600186856000325B540A8432A
:107100000D7905F003055600B540284318604D6819
:1071100005F08055B5F1805F6DD100BF394D2D6E02
:1071200045F00105374E356635462D6E05F00105F3
:10713000009500BF00BF4FEAB635960855F8260007
:1071400095072E0F0F25B540A843B3F1904F02D1FC
:10715000002515E04FE02C4DAB4201D101250FE099
:107160002A4DAB4201D102250AE0294DAB4201D1A3
:10717000032505E0274DAB4201D1042500E007259A
:107180009607360FB5402843234D960845F826004C
:10719000224D2868A0434D6805F48035B5F5803F41
:1071A00000D120431D4D28602D1D2868A0434D6847
:1071B00005F40035B5F5003F00D12043174D2D1DD6
:1071C00028602D1D2868A0434D6805F48015B5F58D
:1071D000801F00D12043114D083528602D1D2868DF
:1071E000A0434D6805F40015B5F5001F00D12043FC
:1071F0000A4D0C352860521C0D68D540002D7FF4D7
:107200002FAF78BD0010024000040048000800487D
:10721000000C004800100048080001400004014034
:10722000024613690B400BB1012000E000207047BB
:107230000AB1816100E08162704700000148006886
:107240007047000080050020024692F84100202887
:107250002DD100BF92F84000012801D102207047D3
:10726000012082F8400000BF242082F8410010680D
:10727000006820F00100136818601068006820F4AE
:10728000805013681860106800680843136818601D
:107290001068006840F0010013681860202082F830
:1072A000410000BF002082F8400000BFD7E7022065
:1072B000D5E710B502460B4692F8410020282AD1A6
:1072C00000BF92F84000012801D1022010BD01202A
:1072D00082F8400000BF242082F841001068006856
:1072E00020F00100146820601068016821F47061CA
:1072F00041EA0321106801601068006840F0010055
:1073000014682060202082F8410000BF002082F82D
:10731000400000BFDAE70220D8E7000010B50446BD
:107320000CB9012010BD94F8410028B9002084F860
:107330004000204600F0F8F9242084F8410020683D
:10734000006820F0010021680860606820F070602B
:10735000216808612068806820F400402168886006
:10736000E068012805D1A06840F4004021688860E9
:1073700004E0A06840F4044021688860E0680228C6
:1073800002D18002216848602068406813490843A0
:10739000216848602068C06820F400402168C86007
:1073A000D4E904010843A16940EA01202168C860CA
:1073B000D4E907010843216808602068006840F0AC
:1073C00001002168086000206064202084F84100EA
:1073D0000020206384F8420000BFA3E70080000281
:1073E0002DE9FC5F0446894692469B46DDE90C7810
:1073F0000E9E94F8410020287ED117B1B8F1000FFD
:1074000005D14FF400706064012000F0B9B800BFEE
:1074100094F84000012801D10220F6E7012084F809
:10742000400000BFFFF70AFF054619230122D103E0
:107430002046009502F0A4F808B10120E5E72220DB
:1074400084F84100402084F84200002060646762B4
:10745000A4F82A8060635B46524649462046CDE93F
:10746000006501F0F7FF30B100BF002084F8400054
:1074700000BF0120C9E7608DFF280CD9FF202085BF
:107480003D48009094F828204FF0807349462046EC
:1074900002F05CF80BE0608D20853748009094F88E
:1074A00028204FF000734946204602F04FF800BFF5
:1074B0003346002204212046009502F061F808B10D
:1074C0000120A2E72068406A616A0870606A401C77
:1074D0006062208D401E2085608D401E6085608D1D
:1074E00048B3208D38BB33460022802120460095CA
:1074F00002F046F818B100E03CE0012085E7608D1D
:10750000FF280CD9FF2020850020009094F8282027
:107510004FF080734946204602F018F80BE0608D6A
:1075200020850020009094F828204FF000734946F1
:10753000204602F00BF8608D0028B9D12A4631466A
:10754000204602F04CF808B101205EE720202168B7
:10755000C8612068406809490840216848602020C7
:1075600084F84100002084F8420000BF84F8400005
:1075700000BF4AE7022048E70024008000E800FE40
:107580003CBCBDE8C09F00002DE9FC5F0446894675
:1075900092469B46DDE90C780E9E94F84100202827
:1075A0007DD117B1B8F1000F05D14FF400706064C0
:1075B000012000F0B5B800BF94F84000012801D1C7
:1075C0000220F6E7012084F8400000BFFFF736FEF6
:1075D000054619230122D1032046009501F0D0FF72
:1075E00008B10120E5E7212084F84100402084F81B
:1075F0004200002060646762A4F82A8060635B46F2
:10760000524649462046CDE9006501F061FF30B1A0
:1076100000BF002084F8400000BF0120C9E7608D52
:10762000FF280CD9FF2020850020009094F8282006
:107630004FF080734946204601F088FF0BE0608DD3
:1076400020850020009094F828204FF000734946D0
:10765000204601F07BFF00BF2A463146204601F05C
:10766000E9FF08B10120A4E7606A00782168886218
:10767000606A401C6062608D401E6085208D401EE7
:107680002085608D40B3208D30BB334600228021A1
:107690002046009501F074FF10B1012089E73AE01F
:1076A000608DFF280CD9FF2020850020009094F8E1
:1076B00028204FF080734946204601F047FF0BE039
:1076C000608D20850020009094F828204FF00073F2
:1076D0004946204601F03AFF608D0028BCD12A4679
:1076E0003146204601F07BFF08B1012061E72020F0
:1076F0002168C861206840680849084021684860DE
:10770000202084F84100002084F8420000BF84F863
:10771000400000BF4DE702204BE7000000E800FEFC
:107720003CBCBDE8C09F000010B586B004461421E3
:1077300001A8FDF716FE18492068884229D100BF2C
:107740001648C06C40F002001449C8640846C06C7A
:1077500000F00200009000BF00BFC0200190122086
:10776000029001200390032004900420059001A9B9
:107770000B48FFF771FC00BF0848806D40F4001013
:10778000064988650846806D00F40010009000BF2F
:1077900000BF06B010BD00000054004000100240C1
:1077A0000004004803480068034909780844014977
:1077B00008607047800500208805002010B500246F
:1077C000032000F0C5F8002000F008F808B10124FB
:1077D00001E000F047F8204610BD000070B588B009
:1077E00004460025002600222146362000F06EF8CF
:1077F000362000F057F800BF1648806D40F01000AA
:10780000144988650846806D00F01000019000BFA3
:1078100000BF02A903A800F0A1FB00F0C7FB0546CA
:107820000D48B5FBF0F0461E0C480D49086040F2CB
:10783000E7310B48C160466000210161816001F0C1
:1078400006F820B9064801F03BF808B070BD0120E9
:10785000FBE700000010024040420F000010004013
:107860007026002008B500BF0D48006E40F00100F2
:107870000B4908660846006E00F00100009000BF4A
:1078800000BF00BF0846806D40F080508865084604
:10789000806D00F08050009000BF00BF08BD000068
:1078A000001002400146084600280DDB00BF00BF63
:1078B00000F01F0301229A4043099B0003F1E023DB
:1078C000C3F8002100BF00BF00BF70472DE9F05F83
:1078D00080460D461646002704F0F4FF0746394659
:1078E0002A46334601F00700C0F1070ABAF1040F37
:1078F00002D94FF0040A01E0C0F1070AD14600F1B5
:10790000040ABAF1070F02D24FF0000A01E0A0F119
:10791000030AD4464FF0010A0AFA09FAAAF1010A49
:107920000AEA020A0AFA0CFA4FF0010B0BFA0CFBF6
:10793000ABF1010B0BEA030B4AEA0B04214640466C
:1079400004F0C8FF00F000B830BCBDE8C09F0000E4
:1079500000BF00F00702064B19684FF6FF031940FD
:10796000044B0B4343EA0221014B196000BF7047EF
:107970000CED00E00000FA0500BF00BF00BF00BF33
:1079800000BFBFF34F8F00BF00BF00BF09480068B2
:1079900000F4E06008490843001D0649086000BF84
:1079A00000BF00BFBFF34F8F00BF00BF00BF00BFCD
:1079B00000BFFDE70CED00E00000FA050246B2F55D
:1079C000007F2AD11D48006800F4C060B0F5007F38
:1079D00032D01A48006820F4C06040F40070174BA1
:1079E00018601748006832235843164BB0FBF3F079
:1079F000411C00E0491E1148406900F48060B0F568
:107A0000806F01D10029F5D10C48406900F48060F5
:107A1000B0F5806F10D1032070470848006800F46B
:107A2000C060B0F5806F07D00448006820F4C060E3
:107A300040F48060014B18600020EDE700700040CA
:107A4000AC05002040420F000248006800F4C0600E
:107A500070470000007000402DE9F84304460025FF
:107A6000A846208800F40060B0F5006F26D1606C55
:107A700068B1B0F5000F03D0B0F5400F0ED10CE0A7
:107A8000D548C06840F48030D349C86008E0002180
:107A9000201D03F013FA054602E001E0012500BFB6
:107AA00000BF55B9CC488830006820F44000616CB4
:107AB0000843C949C1F8880000E0A846206800F4DE
:107AC0000030B0F5003F75D14FF00009C248806D1D
:107AD000012121EA107078B100BFBF48806D40F0ED
:107AE0008050BD4988650846806D00F08050009048
:107AF00000BF00BF4FF00109B848006840F4807033
:107B0000B6490860FFF79AFB074606E0FFF796FBC9
:107B1000C01B022801D9032505E0B048006800F425
:107B200080700028F2D000BF7DBBAB489030006869
:107B300000F44076CEB1A06DB04216D0A648903089
:107B4000006820F44076A448D0F8900040F48030DB
:107B5000A149C1F890000846D0F8900020F4803088
:107B6000C1F890000846C0F8906006F00100A8B186
:107B7000FFF764FB074609E0FFF760FBC01B41F21B
:107B80008831884202D9032507E016E092489030F8
:107B9000006800F002000028EED000BF5DB98E48FA
:107BA0009030006820F44070A16D08438A49C1F804
:107BB000900003E00CE0A84600E0A846B9F1010FF0
:107BC00005D18548806D20F080508349886500BFCD
:107BD000207800F0010048B17F488830006820F02C
:107BE0000300216A08437C49C1F88800207800F02E
:107BF0000200022809D178488830006820F00C0083
:107C0000616A08437449C1F88800207800F00400D4
:107C1000042809D170488830006820F03000A16A3B
:107C200008436D49C1F88800207800F02000202822
:107C300009D169488830006820F44060E16A08434F
:107C40006549C1F88800208800F40070B0F5007F15
:107C500009D161488830006820F44020E16B084376
:107C60005D49C1F88800208800F48060B0F5806F1D
:107C700009D159488830006820F44010216C08432D
:107C80005549C1F88800207800F04000402809D10B
:107C900051488830006820F44050216B08434E4919
:107CA000C1F88800207800F08000802809D14A4877
:107CB0008830006820F44040616B08434649C1F8B1
:107CC0008800208800F48070B0F5807F09D1424898
:107CD0008830006820F44030A16B08433E49C1F869
:107CE0008800206800F40020B0F5002F1FD13A482A
:107CF0008830006820F04060A16C08433649883124
:107D00000860A06CB0F1006F06D13348C06840F441
:107D100080103149C8600AE0A06CB0F1806F06D1D4
:107D20000121201D03F0CAF8054605B1A8462068C8
:107D300000F48020B0F5802F1FD1274888300068DC
:107D400020F04060E16C0843234988310860E06C12
:107D5000B0F1006F06D12048C06840F480101E4981
:107D6000C8600AE0E06CB0F1806F06D10121201DEF
:107D700003F0A4F8054605B1A846208800F4804029
:107D8000B0F5804F14D114488830006820F040507E
:107D9000216D0843104988310860206DB0F1805F83
:107DA00006D10221201D03F089F8054605B1A84639
:107DB000208800F40040B0F5004F09D10648883013
:107DC000006820F08040616D08430349C1F88800D5
:107DD0004046BDE8F88300000010024000700040FB
:107DE0002DE9F04104460D4614B90120BDE8F081AB
:107DF0005548006800F00700A8420ED252480068BB
:107E000020F007002843504908600846006800F049
:107E10000700A84201D00120E8E7207800F0010027
:107E2000002840D06068032806D14848006800F068
:107E30000070D8B90120D9E76068022806D143480C
:107E4000006800F4003088B90120CFE7606830B9DD
:107E50003E48006800F0020040B90120C6E73B48F8
:107E6000006800F4806008B90120BFE737488068E7
:107E700020F003006168084334498860FFF7DEF9A9
:107E8000064608E0FFF7DAF9801B41F288318842A4
:107E900001D90320AAE72D48806800F00C00616832
:107EA000B0EB810FEED1207800F00200022807D15C
:107EB0002648806820F0F000A168084323498860C4
:107EC0002148006800F00700A8420ED91E4800684B
:107ED00020F0070028431C4908600846006800F0AD
:107EE0000700A84201D0012080E7207800F00400BC
:107EF000042807D11548806820F4E060E168084351
:107F000012498860207800F00800082808D10F483E
:107F1000806820F46050216940EAC1000B49886004
:107F200000F068F809498968C1F30311084A515CF7
:107F300001F01F01C8400749086007480068FFF7C3
:107F40004DFC0746384651E7002002400010024031
:107F50003C140108AC050020840500200F220260BB
:107F60000D4A926802F0030242600B4A926802F0E6
:107F7000F0028260084A926802F4E062C260064A37
:107F8000926802F46052D2080261044A126802F058
:107F900007020A6070470000001002400020024003
:107FA0000148006870470000AC05002000B5FFF7ED
:107FB000F7FF05498968C1F30221044A515C01F0C9
:107FC0001F01C84000BD0000001002404C14010811
:107FD00000B5FFF7E5FF05498968C1F3C221044AEE
:107FE000515C01F01F01C84000BD000000100240BC
:107FF0004C140108F0B500230020DFF8D4C0DCF8F1
:1080000008C00CF00C01DFF8C8C0DCF80CC00CF0A4
:10801000030719B10C291ED1012F1CD1DFF8B0C004
:10802000DCF800C00CF0080CBCF1000F06D1DFF842
:10803000A0C0DCF894C0CCF3032305E0DFF890C0C7
:10804000DCF800C0CCF30313DFF888C05CF8233001
:1080500041B9184606E0042901D11F4802E0082969
:1080600000D11E480C2932D1DFF864C0DCF80CC006
:108070000CF00304012C09D0022C02D0032C04D1F3
:1080800001E0154A04E0154A02E000BF1A4600BFAD
:1080900000BFDFF83CC0DCF80CC0CCF3021C0CF1D4
:1080A0000106DFF82CC0DCF80CC0CCF3062C0CFB6E
:1080B00002FCBCFBF6F2DFF818C0DCF80CC0CCF315
:1080C000416C0CF1010C4FEA4C05B2FBF5F0F0BD30
:1080D00000100240541401080024F40000127A0039
:1080E0002DE9F843044614B90120BDE8F883F948A6
:1080F000806800F00C06F748C06800F0030720789D
:1081000000F01000102877D11EB10C2E76D1012F6F
:1081100074D1F048006800F0020018B1A06908B9F5
:108120000120E2E7EB48216A006800F0080020B176
:10813000E848006800F0F00005E0E6489430006888
:1081400000F47060000981421FD9206A02F07AFFB2
:1081500008B10120C9E700BFDE48006840F0080010
:10816000DC4908600846006820F0F000216A0843F6
:10817000D849086000BF0846406820F47F40E169A4
:1081800040EA0120D34948601FE000BFD1480068A1
:1081900040F00800CF4908600846006820F0F00071
:1081A000216A0843CB49086000BF0846406820F4B4
:1081B0007F40E16940EA0120C64948602EB9206A43
:1081C00002F040FF08B101208FE7FFF713FFC1491C
:1081D0008968C1F30311C04A515C01F01F01C84016
:1081E000BE490860BE480068FFF7F8FA8046B8F15B
:1081F000000F4ED0404678E74BE0FFE7A06980B320
:10820000B448006840F00100B2490860FFF716F872
:10821000054606E0FFF712F8401B022801D90320AB
:1082200063E7AC48006800F002000028F2D000BF0D
:10823000A848006840F00800A649086008460068A1
:1082400020F0F000216A0843A249086000BF0846F8
:10825000406820F47F40E16940EA01209D49486080
:1082600017E0FFE79B48006820F00100994908608B
:10827000FEF7E4FF054606E0FEF7E0FF401B02289C
:1082800001D9032031E79348006800F0020000287C
:10829000F2D1207800F0010000285CD0082E03D035
:1082A0000C2E0AD1032F08D18A48006800F4003050
:1082B00088B3606878BB012017E700BF6068B0F53D
:1082C000803F06D18348006840F4803081490860CF
:1082D0001AE06068B0F5A02F0BD17E48006840F42A
:1082E00080207C4908600846006840F480300860BF
:1082F0000AE07848006820F4803076490860084633
:10830000006820F48020086000BF606890B1FEF72C
:1083100095FF054607E01EE0FEF790FF401B64282E
:1083200001D90320E1E66B48006800F40030002822
:10833000F2D010E0FEF782FF054606E0FEF77EFF72
:10834000401B642801D90320CFE66248006800F48E
:1083500000300028F2D1207800F00200022852D12B
:10836000042E03D00C2E14D1022F12D159480068CC
:1083700000F4806018B1E06808B90120B5E65548FE
:10838000406820F0FE40217C40EA0160514948608D
:1083900039E0E06800B34F48006840F480704D4910
:1083A0000860FEF74BFF054606E0FEF747FF401B5F
:1083B000022801D9032098E64648006800F480604E
:1083C0000028F2D04348406820F0FE40217C40EA7B
:1083D00001604049486016E03E48006820F4807023
:1083E0003C490860FEF72AFF054606E0FEF726FF37
:1083F000401B022801D9032077E63648006800F4C4
:1084000080600028F2D1207800F00800082836D1DA
:108410006069D0B12F489430006840F001002D49C8
:10842000C1F89400FEF70AFF054606E0FEF706FFD6
:10843000401B022801D9032057E6264894300068E3
:1084400000F002000028F1D019E0224894300068C2
:1084500020F001001F49C1F89400FEF7EFFE054629
:1084600006E0FEF7EBFE401B022801D903203CE6A4
:1084700018489430006800F002000028F1D12078FC
:1084800000F00400042872D14FF000091148806DFB
:1084900000F0805078B900BF0E48806D40F08050E9
:1084A0000C4988650846806D00F08050009000BF40
:1084B00000BF4FF001090B48006800F4807000BB5A
:1084C0000848006840F4807006490860FEF7B6FE70
:1084D000054610E0001002403C140108AC050020E5
:1084E0008405002000700040FEF7A8FE401B022813
:1084F00001D90320F9E5D048006800F48070002815
:10850000F2D000BFA068012808D1CC48006840F034
:108510000100CA499039C1F8900021E0A0680528FF
:108520000FD1C648006840F00400C4499039C1F832
:1085300090000846D0F8900040F00100C1F890008B
:108540000EE0BE48006820F00100BC499039C1F837
:1085500090000846D0F8900020F00400C1F8900088
:1085600000BFA068A0B1FEF769FE054609E02EE055
:10857000FEF764FE401B41F28831884201D9032096
:10858000B3E5AE48006800F002000028F0D012E029
:10859000FEF754FE054608E0FEF750FE401B41F290
:1085A0008831884201D903209FE5A448006800F083
:1085B00002000028F0D1B9F1010F07D19F4890388F
:1085C000806D20F080509D499039886500BF2078EB
:1085D00000F02000202838D1606AD8B197480830D0
:1085E000006840F0010095499039C1F89800FEF705
:1085F00025FE054606E0FEF721FE401B022801D9B4
:10860000032072E58D480830006800F00200002861
:10861000F1D01AE089480830006820F0010087494D
:108620009039C1F89800FEF709FE054606E0FEF70E
:1086300005FE401B022801D9032056E57F4808307B
:10864000006800F002000028F1D1A06A00287DD067
:10865000A06A02287BD179489038C76807F00301E7
:10866000E06A814225D107F07001206B401EB1EB1A
:10867000001F1ED107F4FE41606BB1EB002F18D133
:1086800007F078413820005DB1EBC06F11D107F4DD
:10869000C001A08F0122C2EB5000B1EB405F08D1B6
:1086A00007F0C0614020005DC2EB5000B1EB406FAD
:1086B00066D00C2E62D061489038006800F080606F
:1086C00008B1012011E55D489038006820F0807005
:1086D0005A4990390860FEF7B1FD054606E0FEF7FD
:1086E000ADFD401B022801D90320FEE45348903819
:1086F000006800F000700028F1D1D4E90B10401E92
:1087000041EA0011606B41EA0021A08F0122C2EB17
:10871000500041EA40514020005DC2EB500041EA68
:1087200040613820005D41EAC06044499039C96821
:10873000434A1140084341499039C86008460068DF
:1087400040F0807008600846C06801E05BE03DE0F2
:1087500040F08070C860FEF771FD054606E0FEF748
:108760006DFD401B022801D90320BEE43348903838
:10877000006800F000700028F1D05AE00120B4E455
:108780002E489038006800F00070E0BB2B4890380D
:10879000006840F080702949903908600846C06838
:1087A00040F08070C860FEF749FD054606E0FEF720
:1087B00045FD401B022801D9032096E41F4890384C
:1087C000006800F000700028F1D032E00C2E2ED0AE
:1087D0001A489038006820F0807018499039086075
:1087E0000846006800F0006020B90846C06820F024
:1087F0000300C86011489038C068124908400F490A
:108800009039C86000E014E0FEF718FD054606E068
:10881000FEF714FD401B022801D9032065E4074838
:108820009038006800F000700028F1D101E00120CC
:108830005BE4002059E4000000700040901002400A
:108840008C809D01FFFFEEFE70477047704710B5AA
:1088500004460CB9012010BD94F83D0028B9002051
:1088600084F83C00204600F029F8022084F83D00FE
:10887000211D206803F02EFB012084F8480000BF72
:1088800084F83E0001213F20015540200155412040
:108890000155422001554320015500BF00BF012072
:1088A00084F84400452001554620015547200155D4
:1088B00000BF012084F83D000020CCE77047000095
:1088C000014691F83D00012801D0012070470220A7
:1088D00081F83D000868C06840F001000B68D8606E
:1088E000124B0868984207D00868B0F1804F03D057
:1088F0000F4B0868984210D1086880680D4B00EA59
:108900000302062A0FD0B2F5803F0CD00868006839
:1089100040F001000B68186005E00868006840F04E
:1089200001000B6818600020D0E70000002C014017
:108930000040014007000100704710B50446206860
:108940000069C0F34000D8B12068C068C0F340009F
:10895000B0B16FF002002168086101202077206823
:10896000806900F0030018B12046FFF7E5FF05E03D
:10897000204600F0BEF8204600F0BCF8002020772A
:1089800020680069C0F38000D8B12068C068C0F3D7
:108990008000B0B16FF004002168086102202077E8
:1089A0002068806900F4407018B12046FFF7C4FFCA
:1089B00005E0204600F09DF8204600F09BF80020DE
:1089C000207720680069C0F3C000D8B12068C06873
:1089D000C0F3C000B0B16FF0080021680861042046
:1089E00020772068C06900F0030018B12046FFF727
:1089F000A3FF05E0204600F07CF8204600F07AF85E
:108A00000020207720680069C0F30010D8B12068EA
:108A1000C068C0F30010B0B16FF0100021680861A9
:108A2000082020772068C06900F4407018B1204603
:108A3000FFF782FF05E0204600F05BF8204600F0DB
:108A400059F8002020772068006900F0010058B133
:108A50002068C06800F0010030B16FF001002168AB
:108A60000861204600F048F820680069C0F3C01093
:108A700058B12068C068C0F3C01030B16FF08000FA
:108A8000216808612046FFF7E0FE20680069C0F316
:108A9000002058B12068C068C0F3C01030B16FF436
:108AA0008070216808612046FFF7CEFE20680069CB
:108AB000C0F3801058B12068C068C0F3801030B196
:108AC0006FF0400021680861204600F021F820681E
:108AD0000069C0F3401058B12068C068C0F340106E
:108AE00030B16FF02000216808612046FFF7AEFE2C
:108AF00010BD70477047000010B504460349206858
:108B0000884201D1FEF74EFE10BD0000001000406B
:108B10007047704770B50446656FA66F206880681F
:108B200000F08000802819D1212D17D1206880689D
:108B300020F0800021688860A06E60B1A06EFDF713
:108B4000D1FF40B1A06EFEF728F8202803D11020F5
:108B5000E067032070BD204603F0C3FB20688068F7
:108B600000F04000402819D1222E17D120688068DB
:108B700020F0400021688860E06E60B1E06EFDF793
:108B8000B1FF40B1E06EFEF708F8202803D11020B5
:108B9000E0670320DEE7204603F082FB0020D9E7F0
:108BA00010B5044604492068884204D14022034994
:108BB000034800F01DFB10BD0048004044070020A2
:108BC0007C2200202DE9F04704462068C569206812
:108BD00006682068876840F60F0005EA0008B8F1CB
:108BE000000F0CD105F0200048B106F0200030B194
:108BF000206E10B12046216E8847BDE8F087B8F19D
:108C0000000F7DD007F0010018B95A483040002805
:108C1000F7D005F0010048B106F4807030B10120B2
:108C200021680862E06F40F00100E06705F0020093
:108C300048B107F0010030B1022021680862E06FFE
:108C400040F00400E06705F0040048B107F00100BF
:108C500030B1042021680862E06F40F00200E06754
:108C600005F0080060B106F0200010B907F001001F
:108C700030B1082021680862E06F40F00800E0672A
:108C800005F4006050B106F0806038B14FF4006028
:108C900021680862E06F40F02000E067E06F80B379
:108CA00005F0200038B106F0200020B1206E10B190
:108CB0002046216E8847D4F87C902068806800F0B8
:108CC0004000402802D009F0280030B3204603F0CD
:108CD000E7FA2068806800F04000402819D1206839
:108CE000806820F0400021688860E06E68B122480A
:108CF000E16E8863E06EFDF722FF10B1E06E01E0E7
:108D000011E00FE0816B88470CE02046FFF748FF39
:108D100008E02046FFF744FF04E02046FFF740FF4D
:108D20000020E06769E705F4801050B107F4800087
:108D300038B14FF48010216808622046FFF7E9FE41
:108D40005BE705F0800040B106F0800028B1606E5E
:108D500010B12046616E88474FE705F0400030B102
:108D600006F0400018B1204603F0ABFA45E700BF1B
:108D700043E7000020010004DFC1000810B50446ED
:108D80000CB9012010BDA06900B100E000BF606F08
:108D900028B9002084F87000204600F029F824202B
:108DA00060672068006820F00100216808602046A4
:108DB00003F0A0FA012800D1E4E7606A10B1204670
:108DC00003F05AF92068406820F490402168486018
:108DD0002068806820F02A00216888602068006888
:108DE00040F0010021680860204603F0C1F9C9E79E
:108DF00010B586B00446142101A8FCF7B2FAA449C4
:108E0000206888424CD100BFA248C06D40F00100EC
:108E1000A049C8650846C06D00F00100009000BF81
:108E200000BF00BF0846C06C40F00200C86408469E
:108E3000C06C00F00200009000BF00BF4FF4406023
:108E4000019002200290002003900120049008204D
:108E5000059001A99048FEF7FFF8904890490860F6
:108E60000420486000218E488160C160802101613A
:108E7000002141618161C1610162FDF711FF08B10B
:108E8000FDF7EDFA00BF8648E066846200BF00226D
:108E900005214620FEF71AFD4620FEF703FDF4E00B
:108EA0008049206888424DD100BF7A48006E40F466
:108EB0008040784908660846006E00F480400090C3
:108EC00000BF00BF00BF0846C06C40F00100C8648E
:108ED0000846C06C00F00100009000BF00BF4FF4D6
:108EE000C0600190022002900020039001200490B5
:108EF0000720059001A94FF09040FEF7ADF86A48B1
:108F00006A49086002204860002168488160C160A9
:108F100080210161002141618161C1610162FDF730
:108F2000BFFE08B1FDF79BFA00BF6048E0668462AF
:108F300000BF002205212520FEF7C8FC2520FEF7F2
:108F4000B1FCA2E05A49206888424DD100BF514887
:108F5000806D40F400304F4988650846806D00F40C
:108F60000030009000BF00BF00BF0846C06C40F05A
:108F70000100C8640846C06C00F00100009000BF0A
:108F800000BF0C20019002200290002003900320DB
:108F900004900720059001A94FF09040FEF75CF87F
:108FA000414814304349086002204860002141488C
:108FB0008160C16080210161002141618161C161E5
:108FC0000162FDF76DFE08B1FDF749FA00BF3948AF
:108FD000E066846200BF002206212620FEF776FCB0
:108FE0002620FEF75FFC50E03349206888424CD1D0
:108FF00000BF2848806D40F48020264988650846D7
:10900000806D00F48020009000BF00BF00BF0846C4
:10901000C06C40F00400C8640846C06C00F0040056
:10902000009000BF00BF4FF440600190022002900A
:1090300000200390032004900720059001A91F48F9
:10904000FEF70AF8184828381D49086002204860D1
:1090500000211B488160C1608021016100214161C4
:109060008161C1610162FDF71BFE08B1FDF7F7F9EF
:1090700000BF1348E066846200BF0022062127205B
:10908000FEF724FC2720FEF70DFC06B010BD000003
:1090900000800040001002400004004880040240AC
:1090A000FC220020003801405800024044230020E8
:1090B000004400408C230020004800400008004885
:1090C000D42300202DE9F84F04460E4617469A4651
:1090D000A06F202871D106B117B9012000F084B823
:1090E00000BF94F87000012801D10220F6E70120AA
:1090F00084F8700000BF0020E0672220A067FEF720
:109100009DF88346A4F85870A4F85A7000BFA06870
:10911000B0F5805F0AD1206920B940F2FF10A4F8B1
:109120005C0020E0FF20A4F85C001CE0A06848B9C7
:10913000206918B9FF20A4F85C0014E07F20A4F88F
:109140005C0010E0A068B0F1805F09D1206918B917
:109150007F20A4F85C0006E03F20A4F85C0002E059
:109160000020A4F85C0000BFB4F85C90A068B0F5E3
:10917000805F04D1206910B90025B04602E0354671
:109180004FF0000800BF002084F8700000BF21E00D
:109190005B46002220212046CDF800A003F02DFAE6
:1091A00008B103209AE74DB92068808C00EA0900D5
:1091B000A8F8000008F1020807E013E02068808C9E
:1091C00009F0FF01084028706D1CB4F85A00401ED9
:1091D000A4F85A00B4F85A000028D9D12020A0677A
:1091E00000207BE7022079E718BCBDE8E08F000093
:1091F00070B504460E461546A06F202850D106B122
:109200000DB9012070BD00BF94F87000012801D194
:109210000220F7E7012084F8700000BF6665A4F81B
:1092200058500020E0672220A067E06EF8B11D488A
:10923000E16EC8621C48E16E08631C48E16E486339
:109240000020E16E8863236803F124012B46626DE0
:10925000E06EFDF7ABFD50B11020E06700BF0020CD
:1092600084F8700000BF202060670120CAE700BFBB
:10927000002084F8700000BF2068006840F480700F
:10928000216808602068806840F0010021688860DB
:109290002068806840F04000216888600020B1E7C5
:1092A0000220AFE74DC2000893C20008F7C10008D2
:1092B000704770472DE9F84F04460E461746994609
:1092C000606F20285DD106B117B9012000F05BB8AE
:1092D00000BF94F87000012801D10220F6E70120B8
:1092E00084F8700000BF0020E06721206067FDF770
:1092F000A5FF8246A4F85070A4F85270A068B0F59B
:10930000805F04D1206910B90025B04602E03546DF
:109310004FF0000800BF002084F8700000BF1DE07F
:109320005346002280212046CDF8009003F065F9D5
:1093300008B10320CAE745B9B8F80000C0F3080037
:109340002168088508F1020803E02878216808856B
:109350006D1CB4F85200401EA4F85200B4F852003C
:109360000028DDD15346002240212046CDF8009050
:1093700003F043F908B10320A8E72020606700202C
:10938000A4E70220A2E718BCBDE8E08F704700BF49
:10939000FEE701688969C1F3400111B1002102684B
:1093A00091620168896901F0010129B9016889693F
:1093B00041F00101026891617047000070B50446F8
:1093C0000D46164620688069C0F3001000283DD085
:1093D00017E0681CA8B1FDF731FF801BA84200D838
:1093E0007DB9606C40F020006064202084F841006A
:1093F000002084F8420000BF84F8400000BF012034
:1094000070BD20688069C0F340100028E1D01020B2
:109410002168C86120202168C8612046FFF7B9FF94
:10942000206840680A49084021684860606C40F044
:1094300004006064202084F84100002084F8420089
:1094400000BF84F8400000BF0120D9E70020D7E723
:1094500000E800FE2DE9F8430446894615461E46FD
:10946000DDE908781948F2B2002349460090204609
:1094700000F06CF842463946204600F0DBF810B1A7
:109480000120BDE8F883012E03D1E8B2216888628B
:109490000EE0C5F30720216888624246394620461F
:1094A00000F0C8F808B10120EBE7E8B22168886253
:1094B0003B46002240212046CDF8008000F060F8B5
:1094C00008B10120DDE70020DBE70000002000807C
:1094D0002DE9F8430446894615461E46DDE908781D
:1094E0001948F2B2C30249460090204600F02EF817
:1094F00042463946204600F09DF810B10120BDE8F3
:10950000F883012E03D1E8B2216888620EE0C5F32A
:1095100007202168886242463946204600F08AF8D2
:1095200008B10120EBE7E8B2216888623B460022DF
:1095300080212046CDF8008000F022F808B10120FB
:10954000DDE70020DBE7000000200080F0B5059C8F
:1095500005686D684FF4806606EA545666F0FC268E
:1095600046F4C046B543C1F309064FF47F0707EA46
:1095700002473E431E432643354306687560F0BDEF
:109580002DE9F04104460E4617461D46DDF81880C9
:1095900019E0681CB8B1FDF751FEA0EB0800A84225
:1095A00000D885B9606C40F020006064202084F809
:1095B0004100002084F8420000BF84F8400000BF52
:1095C0000120BDE8F081206880693040B04201D1BF
:1095D000012000E00020B842DBD00020F1E770B5A8
:1095E00004460D4616461DE0324629462046FFF742
:1095F000E5FE08B1012070BDFDF720FE801BA842EA
:1096000000D87DB9606C40F020006064202084F8B0
:109610004100002084F8420000BF84F8400000BFF1
:109620000120E8E720688069C0F340100028DBD003
:109630000020E0E770B504460D4616461FE03246AE
:1096400029462046FFF7BAFE08B1012070BD681C0C
:10965000A8B1FDF7F3FD801BA84200D87DB9606C6E
:1096600040F020006064202084F84100002084F84D
:10967000420000BF84F8400000BF0120E6E72068F8
:109680008069C0F340000028D9D00020DEE7000048
:1096900000B587B01248FFF795FA11480068C06915
:1096A00000F01000102819D10D4909680862002047
:1096B000009070208DF8040000236A4601A9094833
:1096C000006806F0C5FC009838B14FF0805006499C
:1096D0000860BFF34F8FBFF36F8F00BF07B000BDAF
:1096E000FC2000207C05002004ED00E008B500BF50
:1096F0001D48806C40F002001B4988640846806C5D
:1097000000F00200009000BF00BF00BF0846806C60
:1097100040F0010088640846806C00F00100009071
:1097200000BF00BF002211460D20FEF7CFF80D202C
:10973000FEF7B8F8002211460F20FEF7C7F80F20F9
:10974000FEF7B0F8002211461020FEF7BFF81020F7
:10975000FEF7A8F8002211464520FEF7B7F845208D
:10976000FEF7A0F808BD00000010024000B587B069
:10977000142102A8FBF7F5FD00BF3F48C06C40F084
:1097800001003D49C8640846C06C00F0010001902A
:1097900000BF00BF00BF0846C06C40F00200C864B4
:1097A0000846C06C00F00200019000BF00BF00BF7F
:1097B0000846C06C40F00400C8640846C06C00F065
:1097C0000400019000BF00BF00BF0846C06C40F01D
:1097D0000800C8640846C06C00F00800019000BF93
:1097E00000BF01224FF4C0714FF09040FDF720FD03
:1097F000012202212148FDF71BFD00224FF4004108
:109800004FF09040FDF714FD012204211C48FDF7A4
:109810000FFD002208211948FDF70AFD48F28010CB
:1098200002900120039000200490059002A94FF0BF
:109830009040FDF711FC0A200290012003900020C7
:109840000490059002A90D48FDF706FC0420029043
:109850000120039000200490059002A90848FDF71C
:10986000FBFB2020029000200390049002A90348F3
:10987000FDF7F2FB07B000BD0010024000040048F5
:10988000000C004810B512481249086040F61460F8
:10989000486000210F4881600121C1600021016101
:1098A00041618161C1610162FDF738FD08B1FCF7DA
:1098B000D6FD00210748FDF7C7FC08B1FCF7CFFD36
:1098C00000210448FDF7F5FC08B1FCF7C8FD10BD08
:1098D00000540040B020002010B50D480D4908602C
:1098E0004FF41650486000210A488160C160016150
:1098F0000C2141610021816101620020054948621B
:109900000846FFF73BFA08B1FCF7A9FD10BD0000BF
:1099100000800040FC20002010B50D480D49086073
:109920004FF41650486000210A488160C16001610F
:109930000C21416100218161C16101620020054962
:1099400048620846FFF71AFA08B1FCF788FD10BD17
:10995000003801407C21002010B50D480D490860F9
:109960004FF4E130486000210A488160C160016124
:109970000C21416100218161C16101620020054922
:1099800048620846FFF7FAF908B1FCF768FD10BD18
:1099900000440040FC21002010B50D480D4908602E
:1099A0004FF41650486000210A488160C16001618F
:1099B0000C21416100218161C161016200200549E2
:1099C00048620846FFF7DAF908B1FCF748FD10BD18
:1099D000004800407C2200202DE9F04F2DED028B45
:1099E00083B082460027894890F8300008B90120EA
:1099F00000E0002080464FF000098448807838B9A4
:109A0000002005F059FF03B0BDEC028B00F05EB9F9
:109A100001F0A8FC40F6B83005F020FF00BF4FF47D
:109A2000FA6005F01BFF01A801F0BCFC18B178A09A
:109A300000F03AFCF3E77B480068002845DB7948F2
:109A4000016879A004F05EFB764801680068401C5C
:109A5000744A106001EB4100774901EB4000019925
:109A60000160BDF80810818000217448006806F08C
:109A700093FC012803D1092101A801F0D5FD694813
:109A800000683C2190FBF1F201FB120058B96548D7
:109A90000068642148434FF4167190FBF1F52946A4
:109AA00067A000F001FC5F480068B0F5167F0BDB93
:109AB0005C480168604804F0C7FB65A000F0F4FB57
:109AC0004FF0FF3057490860A9E7654801990160E8
:109AD000BDF80810818001A94C48083005F0E0FC71
:109AE00001A800F083FC0446B8F1000F14D0B44282
:109AF00010D109F10100814603280DDB4FF0000869
:109B0000214658A004F0FEFA00222146594801F0EF
:109B100011FF01E04FF0000901A9574801F028FDAD
:109B20003A4890F8300000B3002F1EDD38467F1C05
:109B300006285EDD51A004F0E5FA0027002001F0C0
:109B4000D5FBC5B20DB1012D07D1012229464948E7
:109B500001F0F0FE4FF0000806E04FF001084FF072
:109B600000094BA004F0CEFA43E04348FCF752FD55
:109B7000B0EE408AB3EE040AB4EEC08AF1EE10FAF9
:109B800035DD4FF0000B214890F8300008B346A0B7
:109B900004F0B8FA002001F0A9FBC5B2294646A09E
:109BA00004F0B0FA3348007828B9012D03D14FF002
:109BB0000008AB460BE00DB1012D08D1012229466A
:109BC0002C4801F0B7FE4FF000084FF0010B0127C1
:109BD00000BFBBF1000F09D1B8F1000F06D14FF063
:109BE00001084FF000092AA004F08CFA00BF2646B5
:109BF00000BF00211148006806F0CEFB012804D107
:109C00001C48017801A801F00FFD08E7F0080020CA
:109C10004D61672073656E736F72206572726F722B
:109C2000000000004C050020747261696E696E6767
:109C30003A2025640A000000A012002068050020D8
:109C4000547261696E3A20256425252E2E2E00005F
:109C5000547261696E20636F6D706C65746521006C
:109C600046050020707265646963743A2025640AB1
:109C7000000000004405002088120020666972651B
:109C800020326E6420636865636B210A0000000067
:109C900070726564696374696E672073746172744D
:109CA0002E2E2E0A00000000666972652072616423
:109CB0006172210A000000007261646172207265A5
:109CC0007475726E3A2025640A00000030BCBDE84D
:109CD000C08F10B50021202000F028F80446002194
:109CE000302000F023F804460121342000F01EF853
:109CF00004461221412000F019F8044602212020D8
:109D000000F014F8204610BDFEB504460D46164678
:109D10004FF0FF30012322461821CDE90056029072
:109D20000148FDF75DFBFEBDB020002013B584B0F7
:109D300004464FF0FF30012105AA0B46CDE9002172
:109D40000290224618210248FDF71EFC06B010BD05
:109D5000B020002000BFFEE77047000010B590B0B3
:109D60003FA000F0A1FA43A001F044FC4FF4FA60D8
:109D700000F04AFA041E05D046A000F095FA2046ED
:109D800010B010BD4748C08E464991F83510454A7D
:109D900092F83420434B93F83330CDE90032CDE9CB
:109DA0000210404890F832303FA2302104A802F05F
:109DB0002FFD04A801F01EFC4FF4FA6000F024FA15
:109DC000041E04D03EA000F06FFA2046D8E740A061
:109DD00001F010FC42F2107000F016FA041E04D0DC
:109DE0003DA000F061FA2046CAE73EA001F002FC67
:109DF0004FF4FA6000F008FA041E04D03CA000F012
:109E000053FA2046BCE73EA001F0F4FB41F2883053
:109E100000F0FAF9041E04D03CA000F045FA2046F8
:109E2000AEE73EA001F0E6FB4FF4FA6000F0ECF97B
:109E3000041E04D03DA000F037FA2046A0E73FA062
:109E400001F0D8FB4FF4FA6000F0DEF9041E04D0F4
:109E50003DA000F029FA204692E7002090E700009C
:109E60004E42205265676973746572207374617223
:109E70007400000041542B4E434F4E4649473D412C
:109E800055544F434F4E4E4543542C46414C534539
:109E90000A0000004E42204E434F4E46494720667E
:109EA00061696C00F008002041542B4E4344503D42
:109EB00025642E25642E25642E25642C25640A0035
:109EC0004E42204E434450206661696C0000000001
:109ED00041542B4E52420A004E42204E52422066BE
:109EE00061696C0041542B4E42414E443D350A009D
:109EF0004E42204E42414E44206661696C00000093
:109F000041542B4346554E3D310A00004E422043FA
:109F100046554E206661696C0000000041542B4399
:109F200045445258533D302C350A00004E422043E0
:109F30004544525853206661696C000041542B43DC
:109F4000474154543D310A004E4220434741545446
:109F5000206661696C00000008B578E04FF0FF31C1
:109F60003B48006806F018FA012800D06FE0394835
:109F7000FEF7D0FD3748C06E00684068C0F1400071
:109F80003549088000203549334A128888540A46EA
:109F90003148018832A004F0B5F830482E490988CC
:109FA000451804464BE020780D2802D020780A2876
:109FB00000D143E002222EA12046FBF7F0F950B970
:109FC0000020009000231A4669462A48006805F0E0
:109FD0006BFF641C31E0052227A12046FBF7DFF967
:109FE00048B90120009000231A46694621480068BC
:109FF00005F05AFF21E00E2221A12046FBF7CFF900
:10A0000048B90220009000231A46694619480068A2
:10A0100005F04AFF10E01E4803E014F8011B00F8A9
:10A02000011B21780D2904D021780A2901D0AC42E6
:10A03000F3D30021017001E000BF00BF641CAC42FB
:10A04000B1D3402205490348FFF7D2F800BF85E7A6
:10A05000700500207C220020140500204407002009
:10A060004E422D3E3A2564205B25735D0D0A0000AB
:10A070004F4B0000740500204552524F5200000023
:10A0800052454749535445524E4F54494659000092
:10A0900084070020F8B507460C4615461E468DF885
:10A0A00000708DF801402DB19DF8010040F00800CE
:10A0B0008DF801002EB19DF8010040F010008DF8E0
:10A0C000010000231A4669460248006805F0ECFECC
:10A0D000F8BD00007805002008B5002204213348AF
:10A0E000FDF7A6F832480068006840F010003049DB
:10A0F0000968086040222F492D48FFF779F842F29D
:10A10000107005F0ABFB00212B48006805F080FEC5
:10A11000FFF724FE30B929A003F0F4FF02202F49F5
:10A12000087002E001202D4908700CE04EF6602115
:10A13000022000F071F830B929A003F0E3FF0320FA
:10A140002649087000E0F1E700BFFCF729FC2B4925
:10A150000870FCF7E7FB2A49087042F2107005F01E
:10A160007DFB22E04FF0FF3269462648006806F08A
:10A170005FF8012800D018E0002412E09DF80110DB
:10A180009DF8000001F0D6FA18B9052013490870AF
:10A1900009E004201149087042F2107005F05EFBDE
:10A1A000641C022CEADB00BF00BFDBE7000C0048A8
:10A1B0007C22002044070020740500206E6220727B
:10A1C000656769737465722070726F63657373205D
:10A1D000636F6D706C657465210A000034050020A2
:10A1E0006E622072656365697665642072656720BA
:10A1F0006E6F74696679210A000000001605002060
:10A20000170500207805002010B5044621460020DF
:10A2100000F002F810BD000038B504460D462A468D
:10A2200069460948006806F003F8012804D007A031
:10A2300003F068FF022038BDBDF80000A04201D144
:10A240000020F8E70120F6E7740500206E62207711
:10A2500061697420666F7220726573702074696D15
:10A2600065206F75740A0000F0EE400A9FED0B0A3E
:10A2700020EE800ABDEEC00A10EE100A002800DAB7
:10A280004042B0F5FB7F02D39FED050A70470549B8
:10A2900001EB800191ED000AF8E700000000C842E0
:10A2A00000000000D80B01080FB410B590B013A83F
:10A2B0000190202102A8019B129A02F0D5FA0020F9
:10A2C00001908DF827001548007818B102A914A054
:10A2D00002F08EFA71208DF8280002A8FBF758F8DA
:10A2E000C4B2122C00DD1224A01CC0B28DF82900CB
:10A2F00002220CA10DF12A00FBF73EF8224602A92A
:10A300000BA8FBF739F800231A460AA9064800688B
:10A3100005F0CAFD10B010BC5DF814FB0A05002062
:10A3200025730A004D4700007C05002010B5054844
:10A33000007818B104A0FFF7B7FF02E005A0FFF70F
:10A34000B3FF10BD440500204E6F77205B6F2D2DAD
:10A350002D6F5D004E6F77205B2D2D2D2D2D5D0017
:10A3600010B5084890F8310018B907A0FFF79CFF16
:10A3700007E00748074A127850F8221006A0FFF7B6
:10A3800093FF10BDF00800204E42206F666600006B
:10A390001C050020340500204E423A2025730000A1
:10A3A00010B5084890F8300030B10748008808B16F
:10A3B00006A002E006A000E008A0014608A0FFF702
:10A3C00073FF10BDF0080020120500206F6E000022
:10A3D0006E6F742063616C69620000006F666600D6
:10A3E00052616461722025730000000000B588B0DE
:10A3F0000346186800909888ADF8040047496846FD
:10A4000003F084FEDFED460AB4EEE00AF1EE10FA46
:10A4100002D2002008B000BDBDF9000000EE100A15
:10A42000B8EEC00A3D481838D0ED060A30EE600A92
:10A43000D0ED090A80EE201A8DED051ADDED050A32
:10A44000B0EE600AFFF710FF34481838D0ED090A63
:10A450009FED341A60EE810A80EE201A8DED021A0B
:10A46000BDF9020000EE100AB8EEC00A2B481838F9
:10A47000D0ED070A30EE600AD0ED0A0A80EE201A0D
:10A480008DED061ADDED060AB0EE600AFFF7ECFE70
:10A4900022481838D0ED0A0A9FED221A60EE810A90
:10A4A00080EE201A8DED031ABDF9040000EE100AAB
:10A4B000B8EEC00A19481838D0ED080A30EE600A24
:10A4C000D0ED0B0A80EE201A8DED071ADDED070A9C
:10A4D000B0EE600AFFF7C8FE10481838D0ED0B0A3E
:10A4E0009FED101A60EE810A80EE201A8DED041A9D
:10A4F0009DED020ADDED030A20EE200ADDED040ADF
:10A5000020EE200A0848D0ED000AB4EEE00AF1EE91
:10A5100010FA01DA01207DE700207BE7080900201E
:10A520000000C8430AD7233C3C05002070B506460E
:10A530000C461546022D01DA002070BD2078232834
:10A540003ED1032D3CDB03229BA12046FAF727FFD7
:10A5500028B900209949087000F03EFB2AE1032247
:10A5600097A12046FAF71BFF30B9002093490870E5
:10A57000E01C00F09DFB1DE1032292A12046FAF7AA
:10A580000EFF28B900208D49087000F03FFC11E152
:10A5900003228DA12046FAF702FF28B9002087493F
:10A5A000087000F0D3FB05E1032288A12046FAF7EA
:10A5B000F6FE0028D2D181490870FDF7DDF9F9E0F7
:10A5C000042DCBDB3EB3042281A12046FAF7E7FE3F
:10A5D00030B981A003F096FD00F080FA0120ACE7CD
:10A5E000032280A12046FAF7DAFE20B9E07800F0D5
:10A5F00071F90020A1E704227BA12046FAF7CFFEE3
:10A6000048B900F039FCFFF7ABFEFFF7C9FEFFF7D2
:10A610008DFE002091E7042275A12046FAF7BFFEC7
:10A6200048B975A003F06EFD4FF47A7004F023FB77
:10A63000FDF7A2F9BEE0042273A12046FAF7AFFEAF
:10A6400018B9012004F0BAF8B4E0042270A1204641
:10A65000FAF7A5FE10B900F083FAABE004226EA170
:10A660002046FAF79CFE10B900F01CF9A2E0042283
:10A670006BA12046FAF793FE10B900F0D5FB99E0E4
:10A68000042269A12046FAF78AFE10B900F0E0FB27
:10A6900090E0032266A12046FAF781FE18B9601CFB
:10A6A00000F02EF986E0042262A12046FAF777FE38
:10A6B00010B901F00DFB7DE0052260A12046FAF7FC
:10A6C0006EFE10B901F062FB74E004225DA1204629
:10A6D000FAF765FE18B9012001F080FA6AE0042259
:10A6E0005AA12046FAF75BFE18B9002001F076FA6D
:10A6F00060E0042257A12046FAF751FE18B9012064
:10A7000001F044FA56E0042254A12046FAF747FE2D
:10A7100018B9002001F03AFA4CE0052251A1204678
:10A72000FAF73DFE18B9601D01F0DCF942E00522A0
:10A730004EA12046FAF733FE18B9601D01F072F9F8
:10A7400038E004224BA12046FAF729FE18B901206F
:10A7500000F09AFF2EE0042248A12046FAF71FFEDF
:10A7600018B9002000F090FF24E0042245A1204603
:10A77000FAF715FE10B900F0BDFF1BE0042243A15B
:10A780002046FAF70CFE10B900F096FF12E0042202
:10A7900040A12046FAF703FE18B9201D01F070F918
:10A7A00008E004223DA12046FAF7F9FD10B9201D6A
:10A7B00001F03CFA0020C0E6234123000A050020F6
:10A7C00023423A002345230023432300234423004C
:10A7D0004F544153000000004F5441207374617284
:10A7E000740A0000444154005645525300000000D2
:10A7F00052455354000000005265626F6F74696ED9
:10A80000672E2E2E0A00000043464743000000003A
:10A8100053454C46000000004D41434200000000FB
:10A82000544D4147000000005452414400000000D4
:10A830004E415400494E464F0000000054524149D9
:10A840004E00000052414F4E0000000052414F4662
:10A85000000000004E424F4E000000004E424F46A6
:10A8600000000000534144443A0000005343445068
:10A870003A0000004E424341000000004E42434473
:10A88000000000004E424842000000004E42444298
:10A89000000000005348423A0000000053574D3A70
:10A8A0000000000070B5074D002404E0295D06A0FB
:10A8B00001F09EFF641C062CF8DB05A001F098FF58
:10A8C00070BD000006F0030825303258000000007B
:10A8D0000A00000010B50446322C01D1012000E02E
:10A8E00000200549087000231A46194603480068ED
:10A8F00005F0DAFA10BD00005005002068050020C0
:10A9000030B589B0044624216846FAF72AFD20466E
:10A91000FAF73EFD85B24FF400732A4621460748F8
:10A92000FEF7C8FC18B106A003F0ECFB03E02146DB
:10A9300007A003F0E7FB09B030BD00007C22002037
:10A940004E423C2D3A206572726F720A0000000080
:10A950004E423C2D3A25730A0000000010B505A0B8
:10A9600003F0D0FB4FF0FF30054908600020054997
:10A97000087010BD43616E63656C6C65640D0A0000
:10A98000040500200905002010B50AA003F0BAFB59
:10A990000C49098888B200220B4900F06FFD4FF482
:10A9A000A0310A4801F084F909A003F0ABFBFCF7E1
:10A9B000E3FF10BD5278204F5441452E2E2E0D0A34
:10A9C00000000000040500209C0600200090010803
:10A9D0005265626F6F74696E672E2E2E0D0A00002D
:10A9E00010B586B00446042C1AD1042226A12848AA
:10A9F000FAF7D5FC38B9FFF7C7FF26A003F082FBB2
:10AA0000002006B010BD042226A12148FAF7C7FC99
:10AA100030B9FFF7A3FF25A003F074FB0020F0E797
:10AA20002648007820B126A003F06CFB0020E8E760
:10AA3000142C01D0012000E0002020490870254896
:10AA4000006800281EDB2349098888B22246104985
:10AA500000F014FD1F48006820441E490860712062
:10AA60008DF8000002208DF8010008460068CDF83E
:10AA7000020000231A4669461748006805F014FAD8
:10AA80000120BEE70120BCE74F5441450000000013
:10AA90009C0600204F5441453D3E4E4F524D0D0AFD
:10AAA000000000004F544158000000004F5441582E
:10AAB0003D3E4E4F524D0D0A00000000080500209B
:10AAC000726F6775655F706B743D3E4E4F524D0DF2
:10AAD0000A000000040500207C05002000B587B0B6
