:020000040800F2
:10500000101F0020815200083D8C000823860008F4
:10501000398C0008315C0008B5A1000800000000D0
:10502000000000000000000000000000A151000886
:10503000195D000800000000FD5100080D990008EE
:105040009B5200089B5200089B5200089B5200088C
:105050009B5200089B5200089B5200089B5200087C
:105060009B5200089B5200089B5200089B5200086C
:105070009B5200089B5200089B520008355C0008B8
:10508000455C00089B5200089B5200089B52000898
:105090009B5200089B5200089B5200089B5200083C
:1050A0009B5200089B5200089B5200089B5200082C
:1050B0009B52000800000000000000009B52000806
:1050C0009B5200089B5200089B5200089B5200080C
:1050D0009B520008F5A0000851A100089B5200084F
:1050E0009B5200089B5200080000000000000000D6
:1050F00000000000000000000000000000000000B0
:10510000000000009B520008000000009B520008B5
:105110000000000000000000159A00089B520008E3
:105120009B5200089B5200089B5200089B520008AB
:105130009B5200080000000000000000000000007A
:105140009B5200089B5200089B5200080000000080
:105150009B520008555C0008258900089B520008F6
:105160009B5200089B5200089B5200080000000060
:105170009B5200089B520008000000000000000045
:105180009B5200089B5200089B520008DFF80CD08D
:1051900000F020FB00480047A1AB0008101F0020D2
:1051A0002C4B1968086800F05AB880F30988BFF3DF
:1051B0006F8F4FF0000080F31188704700000000EF
:1051C00008480068006880F308884FF0000080F30A
:1051D000148862B661B6BFF34F8FBFF36F8F00DFE5
:1051E00000BF00BF08ED00E0DFF80C00016841F4EB
:1051F00070010160704700BF88ED00E0EFF30980A7
:10520000BFF36F8F134B1A681EF0100F08BF20ED0D
:10521000108A20E9F04F106009B44FF0500080F37D
:105220001188BFF34F8FBFF36F8F06F045FC4FF02F
:10523000000080F3118809BC1968086800F014B8F0
:105240001EF0100F08BF00F014B880F30988BFF3F8
:105250006F8F70477C050020EFF30580704730C8E2
:10526000B0E8C04FFFF7A1BF30C8B0E8C04FFFF7AC
:10527000E7BFB0EC088AB0EC08CAFFF7E6BF000051
:105280000648804706480047FEE7FEE7FEE7FEE7E0
:10529000FEE7FEE7FEE7FEE7FEE7FEE7C59900084A
:1052A0008D5100082DE9F05F0546002092469B468F
:1052B00088460646814640241BE02846414647462C
:1052C000224600F0B3F853465A46C01A914110D313
:1052D00011461846224600F09AF82D1A67EB01088D
:1052E0004F4622460120002100F091F817EB0009FB
:1052F0004E41201EA4F10104DFDC484631462A4617
:10530000434600F000B830BCBDE8C09F10B5431A5A
:10531000934209D28318881803E010F8011D03F89E
:10532000011D521EF9D210BD40EA01039B0703D0B4
:1053300009E008C9121F08C0042AFAD203E011F8D4
:10534000013B00F8013B521EF9D210BDD2B201E080
:1053500000F8012B491EFBD270470022F6E710B57A
:1053600013460A4604461946FFF7F0FF204610BDD3
:1053700010B5044604E00B7800F8013B03B1491C6A
:10538000521EF8D2204610BD421C10F8011B002905
:10539000FBD1801A704710B5002200E0521C835CDC
:1053A0008C5CA34201D1002BF8D1D8B2E1B2401AF3
:1053B00010BD034611F8012B00F8012B002AF9D18A
:1053C0001846704730B505460020034600E05B1CD8
:1053D000934205D2EC5CC85C201A01D1002CF6D1B6
:1053E00030BD30B50B46014600202022012409E0E3
:1053F00021FA02F59D4205D303FA02F5491B04FA8E
:1054000002F52844151EA2F10102F1DC30BD202A6C
:1054100004DB203A00FA02F1002070479140C2F10B
:10542000200320FA03F3194390407047202A04DB3D
:10543000203A21FA02F00021704721FA02F3D0400D
:10544000C2F1200291400843194670472DE9FE4FF2
:10545000804681EA0300C00F0C46009021F0004115
:1054600023F00045B8EB0200A94105D24046214691
:1054700090461C460B46024623F00040104347D09E
:10548000270DC7F30A00C3F30A510290401A019096
:1054900040286BDAC3F3130040F4801B0098924657
:1054A00020B10023D2EB030A63EB0B0B01985946A2
:1054B000C0F140025046FFF7AAFF06460D4650468F
:1054C0005946019A00F098F910EB08006141002458
:1054D00087EA115284EAE7731A4340D0009A62B314
:1054E000019A012A4FEA075215DC001B61EB020109
:1054F0004FF0004202EA0752CDE90042001C41F59C
:10550000801132462B4600F098F903B000F045B800
:1055100040462146F9E7001B61EB0201001C41F502
:10552000801300185B412018A2F5001747EB030118
:1055300040EAD570B6196D4111E06D084FEA3606A4
:1055400045EAC0754FEA0752001B61EB0201001CDF
:1055500041F5801149084FEA3000001951413246A7
:105560002B4603B000F01CB800F058B90098012297
:1055700040000023D0EB020263EBE0730098214669
:105580004FEAE074B8EB000061EB0401E9E783F057
:1055900000435BE781F0004158E730BCBDE8C08FB5
:1055A00030BCBDE8C04FFFF7DFBF2DE9FE4F81EAF9
:1055B000030404F0004421F0004100944FF0000B7C
:1055C00023F0004350EA01045ED052EA03045BD0AA
:1055D000C3F30A54C1F30A552C44A4F2F3340194E2
:1055E000A0FB0254C1F3130141F48011C3F3130370
:1055F00043F4801301FB024400FB034E840A970A24
:1056000044EA815447EA8357A4FB076802958D0A50
:1056100005FB07854FEA932C04FB0C542705029DDC
:105620004FEA065847EA1637B5EB08056EEB070C4C
:10563000870E920E47EA811742EA8312A7FB020106
:10564000B6EB0B0164EB00042B0D43EA0C335E1840
:1056500044EB1C50DA465146E7FB0201C5F3130444
:105660004FEA0B3343EA14534FEA0432019C43EAF6
:105670000603A4F10C040294009CCDE900B400F0F0
:10568000DCF803B000F003B800200146F9E730BCB5
:10569000BDE8C08F2DE9F04D81EA030404F0004B12
:1056A00021F0004514464FF0000A23F0004150EA73
:1056B000050220D054EA01021DD0C5F30A57024664
:1056C000C5F31303C1F31300C1F30A5640F4801568
:1056D00043F48013A7EB0608101BD64608F2FD38EA
:1056E00073EB050002D308F1010801E092185B4159
:1056F000B8F1000F03DA00200146BDE8F08D00206C
:105700004FF48011064684460EE0171B73EB050725
:1057100005D3121B63EB050306434CEA010C490851
:105720004FEA300092185B4150EA0107EDD152EA8E
:10573000030012D082EA040083EA0501084305D081
:10574000101BAB4106D20122002306E000224FF0DD
:10575000004302E06FF0010253101AEB06004CEB1D
:10576000085110EB0A0041EB0B01BDE8F04D00F0D1
:1057700055B8C1F30A52C1F3130140F2FF3341F4AB
:1057800080119A4202DA00200146704740F233430A
:105790009A42A2F2334202DC5242FFF747BEFFF7C1
:1057A00036BE000030B5041E71F1000404DB4FF07A
:1057B0000044404264EB0101141E73F1000405DB58
:1057C0001C464FF00043524263EB0403994208BF6A
:1057D000904230BD064C074D06E0E06840F0010302
:1057E00094E8070098471034AC42F6D3FFF7D2FC98
:1057F000A4CA0008C4CA0008202A06DBCB17203A36
:1058000041FA02F043EAE07306E041FA02F3D040C5
:10581000C2F12002914008431946704710B5141E8A
:1058200073F1000408DA401C41F1000192185B4159
:105830001A4301D120F0010010BD2DE9F04D924630
:105840009B4611B1B1FA81F202E0B0FA80F2203247
:105850009046FFF7DCFD04460F4640EA0A0041EAA5
:105860000B0153465A46084313D0114653EA010030
:1058700019D0C8F140025046FFF7D8FD05460E4644
:10588000504659464246FFF7C2FD084305D0012065
:1058900004E020463946BDE8F08D0020054346EA85
:1058A000E0762C4337430A986305E40AA0EB08002E
:1058B0000022FD0A44EA47540A3002D5002001467E
:1058C000E9E7010510196941DDE908450019694159
:1058D000BDE8F04DA2E7000088B0002600257F4813
:1058E0000068006840F010007C49096808601822D0
:1058F0007B497A4802F0C6FD7A480068006840F0AB
:10590000100078490968086018227749754802F044
:10591000B9FDE2E04FF0FF3202A97448006806F0DA
:1059200095FB012800D0D8E09DF80800702826D00B
:10593000712802D0722879D195E002226CA10DF174
:105940000A00FFF73FFD38B99DF809100DF10A0272
:1059500068A005F00AF908E09DF80B309DF80A20D0
:105960009DF8091067A005F000F99DF809204FF493
:1059700000730DF10A01594802F0E6FDABE057480B
:1059800002F010FB5548C06E00684068C0F1180076
:1059900060490880002052495E4A128888545D4858
:1059A0000088142806DA0A465A4801885AA005F0E9
:1059B000DCF80DE04A48C07849498978CDE9001003
:1059C0004748437802785348018857A005F0CDF83E
:1059D000022247A14248FFF7F5FC00B34D4800887A
:1059E00009280CD1092257A13D48FFF7EBFC30B93B
:1059F00057A005F0BAF80120594908700FE0454852
:105A000000880C280BD10C2256A13548FFF7DAFC90
:105A100028B958A005F0A9F800205149087006F0EF
:105A200091FD04463DB1B44205D900E04FE056A0D7
:105A300005F09BF8002504F6B836012D05D1354850
:105A4000008803F01FFA054606E032480188244822
:105A500003F04AF9054600BF00BF182220491F483D
:105A600002F010FD37E01F4802F09CFA1D48C06E9E
:105A700000684068C0F118004849088000201A49B1
:105A8000464A12888854022219A11748FFF79AFC47
:105A900030B9154A4148018841A005F066F80DE08B
:105AA0001148C07810498978CDE900100E48437834
:105AB00002783A4801883EA005F057F80A4803F0FA
:105AC000E5FE18220849074802F0DCFC03E040A08C
:105AD00005F04BF800BF00BF00BF1BE7EC0600203D
:105AE00060060020EC070020780600204405002016
:105AF000415400003C2D3A202564205B25735D0D48
:105B00000A0000003C2D3A202564205B25632563B4
:105B10005D0D0A000C0500202D3E3A2564205B2512
:105B2000735D0D0A000000002D3E3A2564205B25C0
:105B30003032582530325825303258253032585DB1
:105B40000D0A0000636F6E6E65637465640000008B
:105B5000424C4520636F6E6E65637465640D0A0088
:105B60000A050020646973636F6E6E656374656413
:105B700000000000424C4520646973636F6E6E65DF
:105B8000637465640D0A00003D3E2054696D654FE5
:105B900075743A204E4F524D0D0A00000E0500203C
:105BA00055322D3E3A2564205B25735D0D0A0000B9
:105BB00055322D3E3A2564205B253032582530324F
:105BC0005825303258253032585D0D0A000000004B
:105BD000496E76616C696420424C455F4441544192
:105BE0002121210D0A00000000BF41F2883005F09C
:105BF000E0F803E043F6982005F0DBF8024800786F
:105C00000028F2D0F6E700000A05002010B50022B7
:105C10000421064800F054FD642005F0CAF8012272
:105C20000421024800F04CFD10BD000000040048B3
:105C300000BFFEE710B5024800F0FAF910BD000001
:105C4000B408002010B5024800F0F2F910BD0000C1
:105C5000FC08002010B5024800F0EAF910BD000071
:105C60006C08002030B590F8444004F01C05012475
:105C7000AC40056C6C60046863608468102C04D1CF
:105C80000468A2600468E16003E00468A16004683D
:105C9000E26030BD86B000BF4FF0FF3116480068AB
:105CA00006F088FA012800D0F6E70DF1020003F0B3
:105CB00007FDC8B971208DF8000006208DF801009D
:105CC0000E48007840B102A803F0E8FB9DF80100FF
:105CD000001DC0B28DF8010000231A46694608482D
:105CE000006806F05FF802E006A002F0A9FF40F6A7
:105CF000B83005F05EF8CFE73C0500202205002013
:105D0000440500204D61672073656E736F722065D6
:105D100072726F7200000000704730B585B00546A2
:105D20000C4600F0C9FB00200190A5F10060C00AFC
:105D30000390049400200090694601A800F0CCFA7A
:105D400000F050FB05B030BD704700001849087FD7
:105D5000012801D0032811D100BF1649096841F478
:105D60000061144A11601146096821F40061116054
:105D700000BF1146096841F400711160022801D08A
:105D8000032811D100BF0B49096841F48051094A29
:105D900011601146096821F48051116000BF11465D
:105DA000096841F4806111600021014A1177704750
:105DB000580500200020024000F0010129B10649E9
:105DC000496941F00401044A51610349496941F4B8
:105DD0008031014A5161704700200240094A5269EE
:105DE00022F47E72C3B242EAC302064B5A611A46DB
:105DF000526942F002025A611A46526942F48032F4
:105E00005A6170470020024010B50849496941F0C5
:105E10000101064C6161026000BF00BF00BFBFF31B
:105E20006F8F00BF00BF00BF436010BD0020024065
:105E3000F0B50246402314460D460C4E766946F4F2
:105E400080260A4F7E6100BFEFF31086304672B69F
:105E500000BF2E682660241D2D1D5E1EF3B2002B90
:105E6000F7D100BF80F3108800BFF0BD00200240D2
:105E700070B5054600F02AFC064608E0681C30B103
:105E800000F024FC801BA84201D3032070BD1948F8
:105E9000006900F480300028F0D1164800691649E6
:105EA00000EA0104CCB1154840682043134948601A
:105EB00000BF04F0404030B10E48806904F040411A
:105EC00008430C49886124F0404018B124F0404058
:105ED0000849086100BF0120D8E70648006900F0C2
:105EE000010020B100BF01200249086100BF00206D
:105EF000CCE7000000200240FAC302005805002051
:105F00001CB5044606226946112002F06FFE40B11E
:105F100011A004F02AFE0221202002F079FE0120C7
:105F20001CBD9DF800009DF8011040EA012000B260
:105F300020809DF802009DF8031040EA012000B285
:105F400060809DF804009DF8051040EA012000B231
:105F5000A0800020E4E700004572726F7220696E35
:105F6000204D61675F57726974655F7265670D0ADE
:105F7000000000000146002291F82500022808D008
:105F80000420C86300BF002081F8240000BF012066
:105F900070470868006820F00E000B6818600868F9
:105FA000006820F001000B68186091F8440000F0D0
:105FB0001C03012098400B6C5860012081F82500DB
:105FC00000BF002081F8240000BF1046E0E770B554
:105FD0000446002594F82500022803D00420E0633D
:105FE000012520E02068006820F00E00216808608C
:105FF0002068006820F001002168086094F84400DF
:1060000000F01C0101208840216C4860012084F8C8
:10601000250000BF002084F8240000BFA06B10B151
:106020002046A16B8847284670BD0146C86B704763
:1060300070B50446206C05682068066894F8440032
:1060400000F01C01042088402840E0B106F0040064
:10605000C8B12068006800F0200028B920680068F6
:1060600020F004002168086094F8440000F01C014E
:1060700004208840216C4860206B002856D02046C0
:10608000216B884752E094F8440000F01C01022084
:106090008840284018B306F0020000B3206800686A
:1060A00000F0200040B92068006820F00A00216854
:1060B0000860012084F8250094F8440000F01C01D9
:1060C00002208840216C486000BF002084F8240032
:1060D00000BFE06A50B32046E16A884726E094F8A2
:1060E000440000F01C01082088402840F0B106F070
:1060F0000800D8B12068006820F00E002168086010
:1061000094F8440000F01C0101208840216C486094
:106110000120E06384F8250000BF002084F82400FB
:1061200000BF606B10B12046616B884770BD0000F6
:1061300010B5014609B9012010BD3E4B08689842D0
:106140000BD23D4B0868C01A1423B0FBF3F080005B
:1061500048643948083808640AE0364B0868C01AB1
:106160001423B0FBF3F08000486432480838086418
:10617000022081F825000868026847F6F070824323
:10618000D1E9020318430B6918434B6918438B6923
:106190001843CB6918430B6A18430243086802602E
:1061A0008868B0F5804F3AD0234B083B086C984282
:1061B0001BD1D0F8A80091F8443003F01C040F2341
:1061C000A34098431C4BA033186091F8443003F06F
:1061D0001C0348689840184B083BD3F8A830184374
:1061E000154B083BC3F8A80019E01248A03000681E
:1061F00091F8443003F01C040F23A34098430D4B47
:10620000A033186091F8443003F01C0348689840AC
:10621000084BA0331B681843064BA03318600020BE
:10622000C863012081F82500002081F8240000BF08
:1062300082E7000008040240080002402DE9F04116
:1062400004460D4616461F464FF0000800BF94F85E
:106250002400012802D10220BDE8F081012084F849
:10626000240000BF94F8250001282CD1022084F8D6
:1062700025000020E0632068006820F0010021680C
:1062800008603B46324629462046FFF7EBFC206B70
:1062900030B12068006840F00E00216808600BE013
:1062A0002068006820F00400216808602068006809
:1062B00040F00A00216808602068006840F0010092
:1062C0002168086006E000BF002084F8240000BFB9
:1062D0004FF002084046BFE72DE9F04104460F4663
:1062E00000BF3E480078012802D10220BDE8F081BD
:1062F00001203A49087000BF4CF25030FFF7B8FD5A
:106300000646002E63D1354948603548006800F4E0
:106310000070B8B13248006820F40070304908605D
:106320000846006800F4806040B10846006820F428
:106330008060086003202949087715E0012027497B
:10634000087711E02648006800F4806048B12448CE
:10635000006820F480602249086002201F49087705
:1063600002E000201D490877206801280ED16068EE
:10637000FFF722FD4CF25030FFF77AFD0646184831
:10638000406920F00400164948611EE04FF0FF30DC
:106390003860A56813E028466168FFF71FFD4CF2DE
:1063A0005030FFF765FD06460D48406940F2FA316E
:1063B00088430B4948610EB13D6005E06D1CD4E98E
:1063C00002010844A842E6D800BFFFF7BFFC00BFA7
:1063D00000200249087000BF304687E758050020BA
:1063E000002002400348406940F0004001494861F4
:1063F00000207047002002402DE9F04704468846FF
:1064000015461E464FF0000900BF294800780128B4
:1064100002D10220BDE8F08701202549087000BFA5
:106420004CF25030FFF724FD0746002F38D12049A9
:1064300048602048006800F4806048B11D4800684A
:1064400020F480601B49086002201949087702E0A7
:106450000020174908773CB92A4633464046FFF7E3
:10646000D3FC4FF001090BE0012C01D0022C07D125
:1064700029464046FFF7DCFC022C01D14FF480296D
:106480004CF25030FFF7F4FC0746B9F1000F05D08D
:106490000848406920EA090006494861FFF756FCB0
:1064A00000BF00200249087000BF3846B2E7000074
:1064B000580500200020024000200849496901F0E9
:1064C000004151B10649054A916006499160114663
:1064D000496901F0004101B10120704700200240EC
:1064E00023016745AB89EFCD78B503460022CBE0A9
:1064F000012696400D6805EA0604002C72D04D680E
:10650000012D08D04D68022D05D04D68112D02D007
:106510004D68122D13D1986856000325B540A84345
:106520005600CD68B54028439860586801259540CD
:10653000A8430D79C5F30015954028435860D868E5
:1065400056000325B540A84356008D68B540284342
:10655000D8604D68022D02D04D68122D13D1D60897
:1065600003F1200555F826005507EE0E0F25B5401E
:10657000A8435607F60E0D69B5402843D60803F127
:10658000200545F82600186856000325B540A843A5
:106590000D7905F003055600B540284318604D6895
:1065A00005F08055B5F1805F6DD100BF394D2D6E7E
:1065B00045F00105374E356635462D6E05F001056F
:1065C000009500BF00BF4FEAB635960855F8260083
:1065D00095072E0F0F25B540A843B3F1904F02D178
:1065E000002515E04FE02C4DAB4201D101250FE015
:1065F0002A4DAB4201D102250AE0294DAB4201D11F
:10660000032505E0274DAB4201D1042500E0072515
:106610009607360FB5402843234D960845F82600C7
:10662000224D2868A0434D6805F48035B5F5803FBC
:1066300000D120431D4D28602D1D2868A0434D68C2
:1066400005F40035B5F5003F00D12043174D2D1D51
:1066500028602D1D2868A0434D6805F48015B5F508
:10666000801F00D12043114D083528602D1D28685A
:10667000A0434D6805F40015B5F5001F00D1204377
:106680000A4D0C352860521C0D68D540002D7FF452
:106690002FAF78BD001002400004004800080048F9
:1066A000000C0048001000480800014000040140B0
:1066B000024613690B400BB1012000E00020704737
:1066C0000AB1816100E08162704700000148006802
:1066D000704700004C050020024692F84100202837
:1066E0002DD100BF92F84000012801D1022070474F
:1066F000012082F8400000BF242082F84100106889
:10670000006820F00100136818601068006820F429
:106710008050136818601068006808431368186098
:106720001068006840F0010013681860202082F8AB
:10673000410000BF002082F8400000BFD7E70220E0
:10674000D5E710B502460B4692F8410020282AD121
:1067500000BF92F84000012801D1022010BD0120A5
:1067600082F8400000BF242082F8410010680068D1
:1067700020F00100146820601068016821F4706145
:1067800041EA0321106801601068006840F00100D0
:1067900014682060202082F8410000BF002082F8A9
:1067A000400000BFDAE70220D8E7000010B5044639
:1067B0000CB9012010BD94F8410028B9002084F8DC
:1067C0004000204600F0F8F9242084F841002068B9
:1067D000006820F0010021680860606820F07060A7
:1067E000216808612068806820F400402168886082
:1067F000E068012805D1A06840F400402168886065
:1068000004E0A06840F4044021688860E068022841
:1068100002D180022168486020684068134908431B
:10682000216848602068C06820F400402168C86082
:10683000D4E904010843A16940EA01202168C86045
:10684000D4E907010843216808602068006840F027
:1068500001002168086000206064202084F8410065
:106860000020206384F8420000BFA3E700800002FC
:106870002DE9FC5F0446894692469B46DDE90C788B
:106880000E9E94F8410020287ED117B1B8F1000F78
:1068900005D14FF400706064012000F0B9B800BF6A
:1068A00094F84000012801D10220F6E7012084F885
:1068B000400000BFFFF70AFF054619230122D1035C
:1068C0002046009501F0A6FF08B10120E5E722204F
:1068D00084F84100402084F8420000206064676230
:1068E000A4F82A8060635B46524649462046CDE9BB
:1068F000006501F0F9FE30B100BF002084F84000CF
:1069000000BF0120C9E7608DFF280CD9FF2020853A
:106910003D48009094F828204FF080734946204667
:1069200001F05EFF0BE0608D20853748009094F801
:1069300028204FF000734946204601F051FF00BF68
:106940003346002204212046009501F063FF08B180
:106950000120A2E72068406A616A0870606A401CF2
:106960006062208D401E2085608D401E6085608D98
:1069700048B3208D38BB3346002280212046009545
:1069800001F048FF18B100E03CE0012085E7608D90
:10699000FF280CD9FF2020850020009094F82820A3
:1069A0004FF080734946204601F01AFF0BE0608DDE
:1069B00020850020009094F828204FF0007349466D
:1069C000204601F00DFF608D0028B9D12A463146DE
:1069D000204601F04EFF08B101205EE7202021682B
:1069E000C861206840680949084021684860202043
:1069F00084F84100002084F8420000BF84F8400081
:106A000000BF4AE7022048E70024008000E800FEBB
:106A10003CBCBDE8C09F00002DE9FC5F04468946F0
:106A200092469B46DDE90C780E9E94F841002028A2
:106A30007DD117B1B8F1000F05D14FF4007060643B
:106A4000012000F0B5B800BF94F84000012801D142
:106A50000220F6E7012084F8400000BFFFF736FE71
:106A6000054619230122D1032046009501F0D2FEEC
:106A700008B10120E5E7212084F84100402084F896
:106A80004200002060646762A4F82A8060635B466D
:106A9000524649462046CDE9006501F063FE30B11B
:106AA00000BF002084F8400000BF0120C9E7608DCE
:106AB000FF280CD9FF2020850020009094F8282082
:106AC0004FF080734946204601F08AFE0BE0608D4E
:106AD00020850020009094F828204FF0007349464C
:106AE000204601F07DFE00BF2A463146204601F0D7
:106AF000EBFE08B10120A4E7606A00782168886293
:106B0000606A401C6062608D401E6085208D401E62
:106B10002085608D40B3208D30BB3346002280211C
:106B20002046009501F076FE10B1012089E73AE099
:106B3000608DFF280CD9FF2020850020009094F85C
:106B400028204FF080734946204601F049FE0BE0B3
:106B5000608D20850020009094F828204FF000736D
:106B60004946204601F03CFE608D0028BCD12A46F3
:106B70003146204601F07DFE08B1012061E720206A
:106B80002168C86120684068084908402168486059
:106B9000202084F84100002084F8420000BF84F8DF
:106BA000400000BF4DE702204BE7000000E800FE78
:106BB0003CBCBDE8C09F000010B586B0044614215F
:106BC00001A8FEF7CAFB18492068884229D100BFF6
:106BD0001648C06C40F002001449C8640846C06CF6
:106BE00000F00200009000BF00BFC0200190122002
:106BF000029001200390032004900420059001A935
:106C00000B48FFF771FC00BF0848806D40F400108E
:106C1000064988650846806D00F40010009000BFAA
:106C200000BF06B010BD000000540040001002403C
:106C300000040048034800680349097808440149F2
:106C4000086070474C0500205405002010B5002452
:106C5000032000F0C5F8002000F008F808B1012476
:106C600001E000F047F8204610BD000070B588B084
:106C700004460025002600222146362000F06EF84A
:106C8000362000F057F800BF1648806D40F0100025
:106C9000144988650846806D00F01000019000BF1F
:106CA00000BF02A903A800F0A1FB00F0C7FB054646
:106CB0000D48B5FBF0F0461E0C480D49086040F247
:106CC000E7310B48C160466000210161816001F03D
:106CD00006F820B9064801F03BF808B070BD012065
:106CE000FBE700000010024040420F00001000408F
:106CF000180E002008B500BF0D48006E40F00100DE
:106D00000B4908660846006E00F00100009000BFC5
:106D100000BF00BF0846806D40F08050886508467F
:106D2000806D00F08050009000BF00BF08BD0000E3
:106D3000001002400146084600280DDB00BF00BFDE
:106D400000F01F0301229A4043099B0003F1E02356
:106D5000C3F8002100BF00BF00BF70472DE9F05FFE
:106D600080460D461646002703F06EFA0746394660
:106D70002A46334601F00700C0F1070ABAF1040FB2
:106D800002D94FF0040A01E0C0F1070AD14600F130
:106D9000040ABAF1070F02D24FF0000A01E0A0F195
:106DA000030AD4464FF0010A0AFA09FAAAF1010AC5
:106DB0000AEA020A0AFA0CFA4FF0010B0BFA0CFB72
:106DC000ABF1010B0BEA030B4AEA0B0421464046E8
:106DD00003F042FA00F000B830BCBDE8C09F0000EC
:106DE00000BF00F00702064B19684FF6FF03194079
:106DF000044B0B4343EA0221014B196000BF70476B
:106E00000CED00E00000FA0500BF00BF00BF00BFAE
:106E100000BFBFF34F8F00BF00BF00BF094800682D
:106E200000F4E06008490843001D0649086000BFFF
:106E300000BF00BFBFF34F8F00BF00BF00BF00BF48
:106E400000BFFDE70CED00E00000FA050246B2F5D8
:106E5000007F2AD11D48006800F4C060B0F5007FB3
:106E600032D01A48006820F4C06040F40070174B1C
:106E700018601748006832235843164BB0FBF3F0F4
:106E8000411C00E0491E1148406900F48060B0F5E3
:106E9000806F01D10029F5D10C48406900F4806071
:106EA000B0F5806F10D1032070470848006800F4E7
:106EB000C060B0F5806F07D00448006820F4C0605F
:106EC00040F48060014B18600020EDE70070004046
:106ED0007805002040420F000248006800F4C060BE
:106EE00070470000007000402DE9F843044600257B
:106EF000A846208800F40060B0F5006F26D1606CD1
:106F000068B1B0F5000F03D0B0F5400F0ED10CE022
:106F1000D548C06840F48030D349C86008E00021FB
:106F2000201D02F0CDF8054602E001E0012500BF7A
:106F300000BF55B9CC488830006820F44000616C2F
:106F40000843C949C1F8880000E0A846206800F459
:106F50000030B0F5003F75D14FF00009C248806D98
:106F6000012121EA107078B100BFBF48806D40F068
:106F70008050BD4988650846806D00F080500090C3
:106F800000BF00BF4FF00109B848006840F48070AE
:106F9000B6490860FFF79AFB074606E0FFF796FB45
:106FA000C01B022801D9032505E0B048006800F4A1
:106FB00080700028F2D000BF7DBBAB4890300068E5
:106FC00000F44076CEB1A06DB04216D0A648903005
:106FD000006820F44076A448D0F8900040F4803057
:106FE000A149C1F890000846D0F8900020F4803004
:106FF000C1F890000846C0F8906006F00100A8B102
:10700000FFF764FB074609E0FFF760FBC01B41F296
:107010008831884202D9032507E016E09248903073
:10702000006800F002000028EED000BF5DB98E4875
:107030009030006820F44070A16D08438A49C1F87F
:10704000900003E00CE0A84600E0A846B9F1010F6B
:1070500005D18548806D20F080508349886500BF48
:10706000207800F0010048B17F488830006820F0A7
:107070000300216A08437C49C1F88800207800F0A9
:107080000200022809D178488830006820F00C00FE
:10709000616A08437449C1F88800207800F0040050
:1070A000042809D170488830006820F03000A16AB7
:1070B00008436D49C1F88800207800F0200020289E
:1070C00009D169488830006820F44060E16A0843CB
:1070D0006549C1F88800208800F40070B0F5007F91
:1070E00009D161488830006820F44020E16B0843F2
:1070F0005D49C1F88800208800F48060B0F5806F99
:1071000009D159488830006820F44010216C0843A8
:107110005549C1F88800207800F04000402809D186
:1071200051488830006820F44050216B08434E4994
:10713000C1F88800207800F08000802809D14A48F2
:107140008830006820F44040616B08434649C1F82C
:107150008800208800F48070B0F5807F09D1424813
:107160008830006820F44030A16B08433E49C1F8E4
:107170008800206800F40020B0F5002F1FD13A48A5
:107180008830006820F04060A16C0843364988319F
:107190000860A06CB0F1006F06D13348C06840F4BD
:1071A00080103149C8600AE0A06CB0F1806F06D150
:1071B0000121201D01F084FF054605B1A846206885
:1071C00000F48020B0F5802F1FD127488830006858
:1071D00020F04060E16C0843234988310860E06C8E
:1071E000B0F1006F06D12048C06840F480101E49FD
:1071F000C8600AE0E06CB0F1806F06D10121201D6B
:1072000001F05EFF054605B1A846208800F48040E5
:10721000B0F5804F14D114488830006820F04050F9
:10722000216D0843104988310860206DB0F1805FFE
:1072300006D10221201D01F043FF054605B1A846F5
:10724000208800F40040B0F5004F09D1064888308E
:10725000006820F08040616D08430349C1F8880050
:107260004046BDE8F8830000001002400070004076
:107270002DE9F04104460D4614B90120BDE8F08126
:107280005548006800F00700A8420ED25248006836
:1072900020F007002843504908600846006800F0C5
:1072A0000700A84201D00120E8E7207800F00100A3
:1072B000002840D06068032806D14848006800F0E4
:1072C0000070D8B90120D9E76068022806D1434888
:1072D000006800F4003088B90120CFE7606830B959
:1072E0003E48006800F0020040B90120C6E73B4874
:1072F000006800F4806008B90120BFE73748806863
:1073000020F003006168084334498860FFF7DEF924
:10731000064608E0FFF7DAF9801B41F2883188421F
:1073200001D90320AAE72D48806800F00C006168AD
:10733000B0EB810FEED1207800F00200022807D1D7
:107340002648806820F0F000A1680843234988603F
:107350002148006800F00700A8420ED91E480068C6
:1073600020F0070028431C4908600846006800F028
:107370000700A84201D0012080E7207800F0040037
:10738000042807D11548806820F4E060E1680843CC
:1073900012498860207800F00800082808D10F48BA
:1073A000806820F46050216940EAC1000B49886080
:1073B00000F068F809498968C1F30311084A515C73
:1073C00001F01F01C8400749086007480068FFF73F
:1073D0004DFC0746384651E70020024000100240AD
:1073E00034CA000878050020500500200F220260F2
:1073F0000D4A926802F0030242600B4A926802F062
:10740000F0028260084A926802F4E062C260064AB2
:10741000926802F46052D2080261044A126802F0D3
:1074200007020A607047000000100240002002407E
:1074300001480068704700007805002000B5FFF79C
:10744000F7FF05498968C1F30221044A515C01F044
:107450001F01C84000BD00000010024044CA0008DF
:1074600000B5FFF7E5FF05498968C1F3C221044A69
:10747000515C01F01F01C84000BD00000010024037
:1074800044CA0008F0B500230020DFF8D4C0DCF8BF
:1074900008C00CF00C01DFF8C8C0DCF80CC00CF020
:1074A000030719B10C291ED1012F1CD1DFF8B0C080
:1074B000DCF800C00CF0080CBCF1000F06D1DFF8BE
:1074C000A0C0DCF894C0CCF3032305E0DFF890C043
:1074D000DCF800C0CCF30313DFF888C05CF823307D
:1074E00041B9184606E0042901D11F4802E00829E5
:1074F00000D11E480C2932D1DFF864C0DCF80CC082
:107500000CF00304012C09D0022C02D0032C04D16E
:1075100001E0154A04E0154A02E000BF1A4600BF28
:1075200000BFDFF83CC0DCF80CC0CCF3021C0CF14F
:107530000106DFF82CC0DCF80CC0CCF3062C0CFBE9
:1075400002FCBCFBF6F2DFF818C0DCF80CC0CCF390
:10755000416C0CF1010C4FEA4C05B2FBF5F0F0BDAB
:10756000001002404CCA00080024F40000127A0007
:107570002DE9F843044614B90120BDE8F883F94821
:10758000806800F00C06F748C06800F00307207818
:1075900000F01000102877D11EB10C2E76D1012FEB
:1075A00074D1F048006800F0020018B1A06908B971
:1075B0000120E2E7EB48216A006800F0080020B1F2
:1075C000E848006800F0F00005E0E6489430006804
:1075D00000F47060000981421FD9206A01F034FE76
:1075E00008B10120C9E700BFDE48006840F008008C
:1075F000DC4908600846006820F0F000216A084372
:10760000D849086000BF0846406820F47F40E1691F
:1076100040EA0120D34948601FE000BFD14800681C
:1076200040F00800CF4908600846006820F0F000EC
:10763000216A0843CB49086000BF0846406820F42F
:107640007F40E16940EA0120C64948602EB9206ABE
:1076500001F0FAFD08B101208FE7FFF713FFC149E0
:107660008968C1F30311C04A515C01F01F01C84091
:10767000BE490860BE480068FFF7F8FA8046B8F1D6
:10768000000F4ED0404678E74BE0FFE7A06980B39B
:10769000B448006840F00100B2490860FFF716F8EE
:1076A000054606E0FFF712F8401B022801D9032027
:1076B00063E7AC48006800F002000028F2D000BF89
:1076C000A848006840F00800A6490860084600681D
:1076D00020F0F000216A0843A249086000BF084674
:1076E000406820F47F40E16940EA01209D494860FC
:1076F00017E0FFE79B48006820F001009949086007
:10770000FEF7E4FF054606E0FEF7E0FF401B022817
:1077100001D9032031E79348006800F002000028F7
:10772000F2D1207800F0010000285CD0082E03D0B0
:107730000C2E0AD1032F08D18A48006800F40030CB
:1077400088B3606878BB012017E700BF6068B0F5B8
:10775000803F06D18348006840F48030814908604A
:107760001AE06068B0F5A02F0BD17E48006840F4A5
:1077700080207C4908600846006840F4803008603A
:107780000AE07848006820F48030764908600846AE
:10779000006820F48020086000BF606890B1FEF7A8
:1077A00095FF054607E01EE0FEF790FF401B6428AA
:1077B00001D90320E1E66B48006800F4003000289E
:1077C000F2D010E0FEF782FF054606E0FEF77EFFEE
:1077D000401B642801D90320CFE66248006800F40A
:1077E00000300028F2D1207800F00200022852D1A7
:1077F000042E03D00C2E14D1022F12D15948006848
:1078000000F4806018B1E06808B90120B5E6554879
:10781000406820F0FE40217C40EA01605149486008
:1078200039E0E06800B34F48006840F480704D498B
:107830000860FEF74BFF054606E0FEF747FF401BDA
:10784000022801D9032098E64648006800F48060C9
:107850000028F2D04348406820F0FE40217C40EAF6
:1078600001604049486016E03E48006820F480709E
:107870003C490860FEF72AFF054606E0FEF726FFB2
:10788000401B022801D9032077E63648006800F43F
:1078900080600028F2D1207800F00800082836D156
:1078A0006069D0B12F489430006840F001002D4944
:1078B000C1F89400FEF70AFF054606E0FEF706FF52
:1078C000401B022801D9032057E62648943000685F
:1078D00000F002000028F1D019E02248943000683E
:1078E00020F001001F49C1F89400FEF7EFFE0546A5
:1078F00006E0FEF7EBFE401B022801D903203CE620
:1079000018489430006800F002000028F1D1207877
:1079100000F00400042872D14FF000091148806D76
:1079200000F0805078B900BF0E48806D40F0805064
:107930000C4988650846806D00F08050009000BFBB
:1079400000BF4FF001090B48006800F4807000BBD5
:107950000848006840F4807006490860FEF7B6FEEB
:10796000054610E00010024034CA000878050020E7
:107970005005002000700040FEF7A8FE401B0228C2
:1079800001D90320F9E5D048006800F48070002890
:10799000F2D000BFA068012808D1CC48006840F0B0
:1079A0000100CA499039C1F8900021E0A06805287B
:1079B0000FD1C648006840F00400C4499039C1F8AE
:1079C00090000846D0F8900040F00100C1F8900007
:1079D0000EE0BE48006820F00100BC499039C1F8B3
:1079E00090000846D0F8900020F00400C1F8900004
:1079F00000BFA068A0B1FEF769FE054609E02EE0D1
:107A0000FEF764FE401B41F28831884201D9032011
:107A1000B3E5AE48006800F002000028F0D012E0A4
:107A2000FEF754FE054608E0FEF750FE401B41F20B
:107A30008831884201D903209FE5A448006800F0FE
:107A400002000028F0D1B9F1010F07D19F4890380A
:107A5000806D20F080509D499039886500BF207866
:107A600000F02000202838D1606AD8B1974808304B
:107A7000006840F0010095499039C1F89800FEF780
:107A800025FE054606E0FEF721FE401B022801D92F
:107A9000032072E58D480830006800F002000028DD
:107AA000F1D01AE089480830006820F001008749C9
:107AB0009039C1F89800FEF709FE054606E0FEF78A
:107AC00005FE401B022801D9032056E57F480830F7
:107AD000006800F002000028F1D1A06A00287DD0E3
:107AE000A06A02287BD179489038C76807F0030163
:107AF000E06A814225D107F07001206B401EB1EB96
:107B0000001F1ED107F4FE41606BB1EB002F18D1AE
:107B100007F078413820005DB1EBC06F11D107F458
:107B2000C001A08F0122C2EB5000B1EB405F08D131
:107B300007F0C0614020005DC2EB5000B1EB406F28
:107B400066D00C2E62D061489038006800F08060EA
:107B500008B1012011E55D489038006820F0807080
:107B60005A4990390860FEF7B1FD054606E0FEF778
:107B7000ADFD401B022801D90320FEE45348903894
:107B8000006800F000700028F1D1D4E90B10401E0D
:107B900041EA0011606B41EA0021A08F0122C2EB93
:107BA000500041EA40514020005DC2EB500041EAE4
:107BB00040613820005D41EAC06044499039C9689D
:107BC000434A1140084341499039C860084600685B
:107BD00040F0807008600846C06801E05BE03DE06E
:107BE00040F08070C860FEF771FD054606E0FEF7C4
:107BF0006DFD401B022801D90320BEE433489038B4
:107C0000006800F000700028F1D05AE00120B4E4D0
:107C10002E489038006800F00070E0BB2B48903888
:107C2000006840F080702949903908600846C068B3
:107C300040F08070C860FEF749FD054606E0FEF79B
:107C400045FD401B022801D9032096E41F489038C7
:107C5000006800F000700028F1D032E00C2E2ED029
:107C60001A489038006820F08070184990390860F0
:107C70000846006800F0006020B90846C06820F09F
:107C80000300C86011489038C068124908400F4985
:107C90009039C86000E014E0FEF718FD054606E0E4
:107CA000FEF714FD401B022801D9032065E40748B4
:107CB0009038006800F000700028F1D101E0012048
:107CC0005BE4002059E40000007000409010024086
:107CD0008C809D01FFFFEEFE70477047704710B526
:107CE00004460CB9012010BD94F83D0028B90020CD
:107CF00084F83C00204600F029F8022084F83D007A
:107D0000211D206801F08EFE012084F8480000BF8C
:107D100084F83E0001213F200155402001554120BB
:107D20000155422001554320015500BF00BF0120ED
:107D300084F844004520015546200155472001554F
:107D400000BF012084F83D000020CCE77047000010
:107D5000014691F83D00012801D001207047022022
:107D600081F83D000868C06840F001000B68D860E9
:107D7000124B0868984207D00868B0F1804F03D0D2
:107D80000F4B0868984210D1086880680D4B00EAD4
:107D90000302062A0FD0B2F5803F0CD008680068B5
:107DA00040F001000B68186005E00868006840F0CA
:107DB00001000B6818600020D0E70000002C014093
:107DC0000040014007000100704710B504462068DC
:107DD0000069C0F34000D8B12068C068C0F340001B
:107DE000B0B16FF00200216808610120207720689F
:107DF000806900F0030018B12046FFF7E5FF05E0B9
:107E0000204600F0BEF8204600F0BCF800202077A5
:107E100020680069C0F38000D8B12068C068C0F352
:107E20008000B0B16FF00400216808610220207763
:107E30002068806900F4407018B12046FFF7C4FF45
:107E400005E0204600F09DF8204600F09BF8002059
:107E5000207720680069C0F3C000D8B12068C068EE
:107E6000C0F3C000B0B16FF00800216808610420C1
:107E700020772068C06900F0030018B12046FFF7A2
:107E8000A3FF05E0204600F07CF8204600F07AF8D9
:107E90000020207720680069C0F30010D8B1206866
:107EA000C068C0F30010B0B16FF010002168086125
:107EB000082020772068C06900F4407018B120467F
:107EC000FFF782FF05E0204600F05BF8204600F057
:107ED00059F8002020772068006900F0010058B1AF
:107EE0002068C06800F0010030B16FF00100216827
:107EF0000861204600F048F820680069C0F3C0100F
:107F000058B12068C068C0F3C01030B16FF0800075
:107F1000216808612046FFF7E0FE20680069C0F391
:107F2000002058B12068C068C0F3C01030B16FF4B1
:107F30008070216808612046FFF7CEFE2068006946
:107F4000C0F3801058B12068C068C0F3801030B111
:107F50006FF0400021680861204600F021F8206899
:107F60000069C0F3401058B12068C068C0F34010E9
:107F700030B16FF02000216808612046FFF7AEFEA7
:107F800010BD70477047000010B5044603492068D3
:107F9000884201D1FEF74EFE10BD000000100040E7
:107FA0007047704770B50446656FA66F206880689B
:107FB00000F08000802819D1212D17D12068806819
:107FC00020F0800021688860A06E60B1A06EFDF78F
:107FD000D1FF40B1A06EFEF728F8202803D1102071
:107FE000E067032070BD204601F09CFE2068806899
:107FF00000F04000402819D1222E17D12068806857
:1080000020F0400021688860E06E60B1E06EFDF70E
:10801000B1FF40B1E06EFEF708F8202803D1102030
:10802000E0670320DEE7204601F05BFE0020D9E791
:10803000704700002DE9F04704462068C5692068B4
:1080400006682068876840F60F0005EA0008B8F166
:10805000000F0CD105F0200048B106F0200030B12F
:10806000206E10B12046216E8847BDE8F087B8F138
:10807000000F7DD007F0010018B95A4830400028A1
:10808000F7D005F0010048B106F4807030B101204E
:1080900021680862E06F40F00100E06705F002002F
:1080A00048B107F0010030B1022021680862E06F9A
:1080B00040F00400E06705F0040048B107F001005B
:1080C00030B1042021680862E06F40F00200E067F0
:1080D00005F0080060B106F0200010B907F00100BB
:1080E00030B1082021680862E06F40F00800E067C6
:1080F00005F4006050B106F0806038B14FF40060C4
:1081000021680862E06F40F02000E067E06F80B314
:1081100005F0200038B106F0200020B1206E10B12B
:108120002046216E8847D4F87C902068806800F053
:108130004000402802D009F0280030B3204601F06A
:10814000D0FD2068806800F04000402819D12068E8
:10815000806820F0400021688860E06E68B12248A5
:10816000E16E8863E06EFDF732FF10B1E06E01E072
:1081700011E00FE0816B88470CE02046FFF758FFC5
:1081800008E02046FFF754FF04E02046FFF750FFC9
:108190000020E06769E705F4801050B107F4800023
:1081A00038B14FF48010216808622046FFF7F9FECD
:1081B0005BE705F0800040B106F0800028B1606EFA
:1081C00010B12046616E88474FE705F0400030B19E
:1081D00006F0400018B1204601F094FD45E700BFCD
:1081E00043E7000020010004219C000810B504466C
:1081F0000CB9012010BDA06900B100E000BF606FA4
:1082000028B9002084F87000204600F029F82420C6
:1082100060672068006820F001002168086020463F
:1082200001F08AFD012800D1E4E7606A10B1204620
:1082300001F043FC2068406820F4904021684860C9
:108240002068806820F02A00216888602068006823
:1082500040F0010021680860204601F0AAFCC9E74F
:1082600010B586B00446142101A8FDF776F87B49C5
:10827000206888424CD100BF7948C06D40F00100B1
:108280007749C8650846C06D00F00100009000BF46
:1082900000BF00BF0846C06C40F00200C86408463A
:1082A000C06C00F00200009000BF00BF4FF44060BF
:1082B00001900220029000200390012004900820E9
:1082C000059001A96748FEF70FF9674867490860FC
:1082D00004204860002165488160C16080210161FF
:1082E000002141618161C1610162FDF721FF08B197
:1082F000FDF72AFD00BF5D48E066846200BF0022F2
:1083000005214620FEF72AFD4620FEF713FDA2E0D8
:108310005749206888424DD100BF5148006E40F453
:1083200080404F4908660846006E00F48040009087
:1083300000BF00BF00BF0846C06C40F00100C86429
:108340000846C06C00F00100009000BF00BF4FF471
:10835000C06001900220029000200390032004904E
:108360000720059001A94FF09040FEF7BDF8414865
:10837000414908600220486000213F488160C16097
:1083800080210161002141618161C1610162FDF7CC
:10839000CFFE08B1FDF7D8FC00BF3748E066846225
:1083A00000BF002205212520FEF7D8FC2520FEF77E
:1083B000C1FC50E03149206888424CD100BF2848B8
:1083C000806D40F40030264988650846806D00F4D1
:1083D0000030009000BF00BF00BF0846C06C40F0F6
:1083E0000100C8640846C06C00F00100009000BFA6
:1083F00000BF0C2001900220029000200390032077
:1084000004900720059001A94FF09040FEF76CF80A
:10841000184814301A4908600220486000211848A2
:108420008160C16080210161002141618161C16180
:108430000162FDF77DFE08B1FDF786FC00BF104824
:10844000E066846200BF002206212620FEF786FC3B
:108450002620FEF76FFC06B010BD00000080004033
:108460000010024000040048800402406C08002014
:108470000038014058000240B40800200044004089
:10848000FC08002070B504460E461546A06F202853
:1084900050D106B10DB9012070BD00BF94F8700035
:1084A000012801D10220F7E7012084F8700000BF05
:1084B0006665A4F858500020E0672220A067E06EAF
:1084C000F8B11D48E16EC8621C48E16E08631C48A3
:1084D000E16E48630020E16E8863236803F12401A4
:1084E0002B46626DE06EFDF7A9FE50B11020E067EB
:1084F00000BF002084F8700000BF202060670120CA
:10850000CAE700BF002084F8700000BF2068006840
:1085100040F48070216808602068806840F00100A5
:10852000216888602068806840F040002168886089
:108530000020B1E70220AFE78F9C0008D59C00081F
:10854000399C0008704770472DE9F84F04460E46E5
:1085500017469946606F20285DD106B117B90120F2
:1085600000F05BB800BF94F87000012801D1022030
:10857000F6E7012084F8700000BF0020E0672120AA
:108580006067FEF7A3F88246A4F85070A4F8527012
:10859000A068B0F5805F04D1206910B90025B0460D
:1085A00002E035464FF0000800BF002084F870005C
:1085B00000BF1DE05346002280212046CDF80090E8
:1085C00001F03DFD08B10320CAE745B9B8F8000045
:1085D000C0F308002168088508F1020803E0287844
:1085E000216808856D1CB4F85200401EA4F85200A2
:1085F000B4F852000028DDD1534600224021204625
:10860000CDF8009001F01BFD08B10320A8E7202061
:1086100060670020A4E70220A2E718BCBDE8E08F55
:10862000704700BFFEE701688969C1F3400111B1DD
:108630000021026891620168896901F0010129B98C
:108640000168896941F00101026891617047000089
:1086500070B504460D46164620688069C0F30010C8
:1086600000283DD017E0681CA8B1FEF72FF8801B4A
:10867000A84200D87DB9606C40F0200060642020E2
:1086800084F84100002084F8420000BF84F84000D4
:1086900000BF012070BD20688069C0F34010002831
:1086A000E1D010202168C86120202168C8612046DF
:1086B000FFF7B9FF206840680A4908402168486010
:1086C000606C40F004006064202084F841000020C9
:1086D00084F8420000BF84F8400000BF0120D9E7C1
:1086E0000020D7E700E800FE2DE9F843044689465C
:1086F00015461E46DDE908781948F2B200234946BE
:108700000090204600F06CF842463946204600F0C2
:10871000DBF810B10120BDE8F883012E03D1E8B2E7
:10872000216888620EE0C5F307202168886242460E
:108730003946204600F0C8F808B10120EBE7E8B25E
:10874000216888623B46002240212046CDF8008007
:1087500000F060F808B10120DDE70020DBE7000051
:10876000002000802DE9F8430446894615461E4640
:10877000DDE908781948F2B2C30249460090204664
:1087800000F02EF842463946204600F09DF810B120
:108790000120BDE8F883012E03D1E8B22168886288
:1087A0000EE0C5F30720216888624246394620461C
:1087B00000F08AF808B10120EBE7E8B2216888628E
:1087C0003B46002280212046CDF8008000F022F8B0
:1087D00008B10120DDE70020DBE700000020008079
:1087E000F0B5059C05686D684FF4806606EA54563E
:1087F00066F0FC2646F4C046B543C1F309064FF4C3
:108800007F0707EA02473E431E4326433543066877
:108810007560F0BD2DE9F04104460E4617461D4631
:10882000DDF8188019E0681CB8B1FDF74FFFA0EB28
:108830000800A84200D885B9606C40F02000606450
:10884000202084F84100002084F8420000BF84F812
:10885000400000BF0120BDE8F08120688069304001
:10886000B04201D1012000E00020B842DBD000205E
:10887000F1E770B504460D4616461DE0324629461E
:108880002046FFF7E5FE08B1012070BDFDF71EFF91
:10889000801BA84200D87DB9606C40F02000606465
:1088A000202084F84100002084F8420000BF84F8B2
:1088B000400000BF0120E8E720688069C0F3401055
:1088C0000028DBD00020E0E770B504460D461646D0
:1088D0001FE0324629462046FFF7BAFE08B10120C4
:1088E00070BD681CA8B1FDF7F1FE801BA84200D83E
:1088F0007DB9606C40F020006064202084F8410065
:10890000002084F8420000BF84F8400000BF01202E
:10891000E6E720688069C0F340000028D9D0002035
:10892000DEE7000000B587B01248FFF783FB11486F
:108930000068C06900F01000102819D10D490968BD
:1089400008620020009070208DF8040000236A4621
:1089500001A90948006803F0F9FA009838B14FF00E
:10896000805006490860BFF34F8FBFF36F8F00BF81
:1089700007B000BDEC0600204405002004ED00E037
:1089800008B500BF1948806C40F0020017498864A0
:108990000846806C00F00200009000BF00BF00BFDE
:1089A0000846806C40F0010088640846806C00F046
:1089B0000100009000BF00BF002211460F20FEF70B
:1089C000CDF90F20FEF7B6F9002211461020FEF770
:1089D000C5F91020FEF7AEF9002211464520FEF73A
:1089E000BDF94520FEF7A6F908BD000000100240C1
:1089F00000B587B0142102A8FCF7AFFC00BF2448E3
:108A0000C06C40F001002249C8640846C06C00F008
:108A10000100019000BF00BF00BF0846C06C40F0DD
:108A20000200C8640846C06C00F00200019000BF5C
:108A300000BF012204211748FDF742FE0122110266
:108A40004FF09040FDF73CFE04200290012003907F
:108A500000200490059002A90E48FDF745FD4FF453
:108A6000807002900120039000200490059002A9DC
:108A70004FF09040FDF738FD202002900020039039
:108A8000049002A90348FDF72FFD07B000BD0000C8
:108A9000001002400004004810B512481249086056
:108AA00040F61460486000210F4881600121C160D8
:108AB0000021016141618161C1610162FDF776FEC2
:108AC00008B1FDF741F900210748FDF705FE08B19F
:108AD000FDF73AF900210448FDF733FE08B1FDF730
:108AE00033F910BD00540040A006002010B50D4819
:108AF0000D4908604FF41650486000210A48816013
:108B0000C16001610C21416100218161016200208D
:108B1000054948620846FFF769FB08B1FDF714F9FB
:108B200010BD000000800040EC06002010B50D488C
:108B30000D4908604FF4E130486000210A48816027
:108B4000C16001610C21416100218161C16101624B
:108B50000020054948620846FFF748FB08B1FDF7C9
:108B6000F3F810BD003801406C07002010B50D4827
:108B70000D4908604FF4E130486000210A488160E7
:108B8000C16001610C21416100218161C16101620B
:108B90000020054948620846FFF728FB08B1FDF7A9
:108BA000D3F810BD00440040EC07002010B5044687
:108BB000FDF770F810BD10B50021202000F028F856
:108BC00004460021302000F023F80446012134201F
:108BD00000F01EF804461221412000F019F8044666
:108BE0000221202000F014F8204610BDFEB50446F6
:108BF0000D4616464FF0FF30012322461821CDE9DD
:108C0000005602900148FDF733FEFEBDA00600208D
:108C100013B584B004464FF0FF30012105AA0B467E
:108C2000CDE900210290224618210248FDF7F4FE0A
:108C300006B010BDA006002000BFFEE77047000090
:108C400030B587B00446214612A001F08EFF712096
:108C50008DF804002046FCF797FBC0B205461228A9
:108C600000DD1225A81CC0B28DF8050002220BA160
:108C70000DF10600FCF77CFB2A46214602A8FCF712
:108C800077FB00231A4601A90548006803F08AF81B
:108C900007B030BD2A3E25730A0000004D47000092
:108CA0004405002030B585B004462046FCF76CFB37
:108CB0000546122D02DD122500206055224607A12F
:108CC000684601F0A5FAA81C82B24FF40073694609
:108CD0000448FFF739FC05B030BD00004D4725734F
:108CE00000000000EC06002070B505460C46022C82
:108CF00001DA002070BD022224A12846FCF762FBA5
:108D000030B900231A4619462148006803F04AF892
:108D1000042C39DB04221FA12846FCF753FB30B991
:108D20001EA001F022FF00F02BF90120E2E7032250
:108D30001DA12846FCF746FB20B9E87800F04AF868
:108D40000020D7E7042219A12846FCF73BFB18B9FD
:108D500000F094F90020CDE7042216A12846FCF784
:108D600031FB48B915A001F000FF4FF47A7002F012
:108D700020F8FEF749F807E0042214A12846FCF782
:108D800021FB08B900F03EF90020B3E74154000090
:108D9000380500204F544153000000004F5441203B
:108DA00073746172740D0A00444154005645525365
:108DB0000000000052455354000000005265626FED
:108DC0006F74696E672E2E2E0D0A000053454C46B7
:108DD0000000000010B50446322C01D1012000E053
:108DE00000200549087000231A4619460348006808
:108DF00002F0D8FF10BD0000220500203C05002035
:108E000010B505A001F0F4F94FF0FF3005490860F6
:108E100000200549087010BD43616E63656C6C6588
:108E2000640D0A00040500200905002010B50AA001
:108E300001F09BFE0C49098888B200220B4900F022
:108E4000ABFC4FF4A0310A4800F04AFD09A001F044
:108E50008CFEFDF7D9FF10BD5278204F5441452EAE
:108E60002E2E0D0A000000000405002060060020E0
:108E7000009001085265626F6F74696E672E2E2E26
:108E80000D0A000010B586B00446042C1AD1042245
:108E900026A12848FCF796FA38B9FFF7C7FF26A0A5
:108EA00001F063FE002006B010BD042226A1214877
:108EB000FCF788FA30B9FFF7A3FF25A001F055FEB3
:108EC0000020F0E72648007820B126A001F04DFEF2
:108ED0000020E8E7142C01D0012000E00020204908
:108EE00008702548006800281EDB2349098888B2DD
:108EF0002246104900F050FC1F48006820441E49DB
:108F0000086071208DF8000002208DF801000846ED
:108F10000068CDF8020000231A4669461748006829
:108F200002F040FF0120BEE70120BCE74F5441455D
:108F300000000000600600204F5441453D3E4E4F6A
:108F4000524D0D0A000000004F544158000000002F
:108F50004F5441583D3E4E4F524D0D0A0000000007
:108F600008050020726F6775655F706B743D3E4E3B
:108F70004F524D0D0A00000004050020440500205A
:108F800000B587B0002011490870114908701149D7
:108F9000086011A001F02CF928211448FCF7BDFE4F
:108FA00013A001F0E2FD71208DF8040002208DF87D
:108FB00005004BF6EF60ADF8060000231A4601A944
:108FC0000F48006802F0EEFE07B000BD0805002063
:108FD0000905002004050020457261736520666C58
:108FE0006173682E2E2E0D0A00000000009001080B
:108FF00054783A203078424545460D0A000000007A
:109000004405002010B500F047FD18B108A0FFF797
:1090100049FE02E00AA0FFF745FE00F042FD18B14C
:109020000CA0FFF73FFE02E00FA0FFF73BFE10BDD4
:109030004D61672074657374206661696C656400B6
:109040004D61672074657374207375636365737312
:1090500000000000526164617220746573742066C0
:1090600061696C656400000052616461722074651E
:1090700073742073756363657373000000B587B004
:1090800071208DF8040004208DF8050002220AA149
:109090000DF10600FCF76CF900208DF8080008209F
:1090A0008DF8090000231A4601A90448006802F05F
:1090B00079FE07B000BD00005652000044050020B4
:1090C0002DE9F04104460F4600255B48C06800F0DA
:1090D000030090B15848C06800F00300216888423E
:1090E00009D1206838B15448C068C0F30210401C50
:1090F0006168884233D0012531E02068012804D01E
:10910000022809D003281AD10DE04B48006800F06E
:10911000020000B9012514E04748006800F48060AF
:1091200000B901250DE04448006800F4003028B97A
:109130004148006800F4802000B9012501E00125C4
:1091400000BF00BF5DB9D4E90010401E41EA001025
:109150003949C96821F0730108433749C860002DB7
:1091600067D13548006820F0806033490860FDF71A
:10917000ADFA064606E0FDF7A9FA801B022801D9E0
:10918000032505E02C48006800F000600028F2D1BB
:1091900000BFC5BB67B9A0680002217B40EAC1607F
:1091A00025490969254A114008432349086120E0FF
:1091B000012F0FD1A0680002218A0122C2EB5101C8
:1091C00040EA41501C4909691D4A114008431A49A7
:1091D00008610EE0A0680002217D0122C2EB51016E
:1091E00040EA416014490969164A1140084312498E
:1091F00008611148006840F080600F490860FDF781
:1092000065FA064607E014E0FDF760FA801B0228C5
:1092100001D9032505E00848006800F00060002837
:10922000F2D000BF2DB904480069A1690843024982
:1092300008612846BDE8F08100100240FF80FF076A
:10924000FF809FFFFF80FFF9F8B504460026234802
:10925000806D00F0805018B1FDF73EFE054616E027
:1092600000BF1E48806D40F080501C49886508464C
:10927000806D00F08050009000BF00BFFDF72CFE15
:1092800005461648806D20F0805014498865B5F574
:10929000007F07D1802C10D9A02C01D902260CE028
:1092A00001260AE0802C01D9032606E0802C01D19A
:1092B000022602E0702C00D101260948006820F047
:1092C00007003043064908600846006800F00700C0
:1092D000B04201D00120F8BD0020FCE700100240A0
:1092E00000200240F0B58BB004460E4615461F46DE
:1092F00000BF3448006E40F480403249086608469A
:10930000006E00F48040069000BF00BF0022891567
:109310004FF09040FDF7D4F9642001F04AFD712030
:109320008DF81C00F0B28DF81D00324621460DF17B
:109330001E00FBF7EBFF00212348006802F03AFF14
:1093400000231A4607A92148006802F02BFD41F2CC
:1093500088311D48006802F02DFF01281DD11C48EE
:1093600002881C492846FBF7D1FF1948008838605D
:10937000E878A9786A782B78CDE90332CDE9051031
:10938000E078A2783968CDE90020029163782278EC
:10939000314611A001F0E9FB02E01DA001F0E5FB60
:1093A000642001F006FD0748006E20F48040054966
:1093B0000866012289154FF09040FDF781F90020E1
:1093C0000BB0F0BD00100240400500204805002011
:1093D0002005002090060020636D643A2025645B20
:1093E0002530325825303258253032582530325801
:1093F0005D20202D3E2025645B25303258253032FB
:109400005825303258253032585D0D0A00000000D2
:1094100074696D65206F75740D0A000010B588B011
:109420000FA103C9CDE9060101AB02AA08210E482C
:10943000FFF758FF00240CE006A8005D02A9095DB3
:10944000884205D009A0FFF7FBFB012008B010BD42
:10945000641C052CF0D30BA0FFF7F2FB0020F5E70E
:10946000AAC1B30001000000100500207261646110
:10947000722063616C6962206661696C6564210DAC
:109480000A00000072616461722063616C6962208D
:10949000737563636573730D0A00000010B586B0C1
:1094A000044601AB02AA08211748FFF71BFF0198E9
:1094B00008280BDB9DF80800AA2807D19DF80900B1
:1094C000072803D19DF80F00552804D00020206004
:1094D000401E06B010BD9DF80A0010B1012808D149
:1094E00003E00AA001F041FB07E00CA001F03DFB06
:1094F00003E00EA001F039FB00BF00BFDDF80A0059
:1095000020609DF80A00E4E718050020726164619C
:1095100072202D2D2D2D2D2D0D0A000072616461FC
:1095200072206F5E2D5E6F0D0A0000007261646133
:1095300072203F3F3F3F3F3F0D0A000010B50446F9
:1095400000F002F810BD00008AB03D4800680068D5
:1095500040F010003A49096808601022394938483B
:10956000FEF790FF6BE04FF0FF3206A93648006827
:1095700002F06CFD012800D061E09DF81800702811
:1095800014D0712855D19DF81B309DF81A209DF8F4
:1095900019102EA001F0E9FA9DF819204FF400737C
:1095A0000DF11A012648FEF7CFFF46E02448FEF7EA
:1095B000F9FC2348C06E00684068C0F110002849DB
:1095C0000880022227A11F48FBF7FCFE30B91D4A84
:1095D0002348018824A001F0C8FA19E01948C0798D
:1095E00018498979174A5279164B1B79CDE902320D
:1095F000CDE904101348C07812498978CDE90010EC
:10960000104843780278164801881BA001F0ADFA93
:1096100013480088002806DD00231A461946214811
:10962000006802F0BFFB102206490548FEF72AFF3A
:1096300003E01DA001F099FA00BF00BF00BF92E750
:109640006C07002090060020480500203C7E3A2050
:109650002564205B25303258253032585D0D0A00D4
:1096600020050020415400007E3E3A2564205B2501
:10967000735D0D0A000000007E3E3A2564205B25E4
:10968000303258253032582530325825303258255E
:109690003032582530325825303258253032585D16
:1096A0000D0A000040050020496E76616C69642057
:1096B000424C455F444154412121210D0A000000E4
:1096C00010B5044600212020FFF7A2FA20B901219D
:1096D0003120FFF79DFA40B121A001F046FA0221A6
:1096E0002020FFF795FA012010BD02E0012001F0D3
:1096F00060FB20212148FCF7DBFF0028F6D0204644
:10970000FCF7FEFB28B102212020FFF781FA01209F
:10971000EAE702212020FFF77BFAB4F9000010F1FC
:10972000140F1ADBB4F90000142816DCB4F9020097
:1097300010F1140F11DBB4F9020014280DDCB4F998
:10974000040010F1140F08DBB4F90400142804DC41
:109750000BA001F00AFA0120C6E70020C4E70000D0
:109760004572726F7220696E204D61675F57726932
:1097700074655F7265670D0A000000000004004810
:109780004572726F7220696E2073656C6620746515
:1097900073740D0A000000002DE9F04106460F46E3
:1097A00015462B480078C0F18000C4B2CDB93019FD
:1097B000A0F180012648027826A000F019FD244877
:1097C00090F800804FEAE87108EB5171CA102849FF
:1097D00031442144A1F18000264900F0EDFCBDE8B0
:1097E000F081AC420DDD2349194A127888182A46C7
:1097F0003946FBF78BFD1648007828441449087059
:10980000EDE71C49124A1278881822463946FBF7C0
:109810007DFD3019A0F1800117A000F0E9FC14498A
:1098200031442144A1F180001022124900F0C4FC0F
:109830000020074908702A1B39190E48FBF766FDFE
:10984000281B0349097808440149087000BFC6E78E
:1098500009050020777269746520666C6173683A47
:10986000202564206C617374205B25645D0D0A0003
:1098700000900108E0050020777269746520666C2D
:109880006173683A2025640D0A00000010B586B0A7
:10989000044610A12046FBF77EFD20B9FCF7B6F97F
:1098A000002006B010BD71208DF800002046FBF7A7
:1098B0006BFDC0B28DF8010021460DF10200FBF7EF
:1098C00078FD00231A4669460448006802F06AFAE7
:1098D0000020E6E7415457414B4500004405002075
:1098E0007CB504460D464FF0AA31009101916119F3
:1098F000A1F108000122694600F05EFC7CBD10B5B4
:109900000446FFF78BFDFBF7E7FF10BD10B500BF66
:10991000502080F31188BFF34F8FBFF36F8F00BFCC
:1099200002F016FE18B14FF080500449086000BFE5
:10993000002080F3118800BF10BD000004ED00E09E
:1099400000B5ADB044211CA8FBF707FD142117A8F2
:10995000FBF703FD5C216846FBF7FFFC10201C9021
:109960000120229000202390602024900020269047
:109970001CA8FDF7FDFD08B1FCF7E6F90F201790D4
:109980000020189019901A901B90002117A8FDF73D
:109990006FFC08B1FCF7D8F9632000900020089014
:1099A00009900B900C906846FDF79EFA08B1FCF701
:1099B000CBF94FF40070FDF749FA08B1FCF7C4F990
:1099C0002DB000BD1048006840F470000E490860DA
:1099D0000E48006840F001000C49086000208860D3
:1099E000084600680A490840084908608814C860A9
:1099F0000846006820F48020086000208861C803C1
:109A0000014980390860704788ED00E0001002408D
:109A1000FFFFF6EA10B50248FEF7D7F910BD0000C7
:109A2000180E002010B50268184B984202D0B0F111
:109A3000804F03D122F070024B681A43134B9842B7
:109A400008D0B0F1804F05D0114B984202D0114B95
:109A5000984203D122F44072CB681A4322F080036B
:109A60004C6943EA040202608B68C3620B6883623C
:109A7000064B984205D0064B984202D0054B9842BF
:109A800001D10B6903630123436110BD002C014028
:109A900000400140004401401CB56846FFF710FE3D
:109AA0001CBD38B56846FFF7F9FC0446002C01DB05
:109AB000002038BD4FF0FF30FBE790F8241001F094
:109AC000010139B10168496821F40031826A11430A
:109AD0000268516090F8241001F00201022907D1B8
:109AE0000168496821F48031C26A114302685160FB
:109AF00090F8241001F00401042907D10168496895
:109B000021F48021026B11430268516090F8241007
:109B100001F00801082907D10168496821F40041D2
:109B2000426B11430268516090F8241001F010015B
:109B3000102907D10168896821F48051826B114393
:109B40000268916090F8241001F02001202907D1CB
:109B50000168896821F40051C26B11430268916069
:109B600090F8241001F04001402913D101684968A0
:109B700021F48011026C114302685160016CB1F54F
:109B8000801F07D10168496821F4C001426C11436C
:109B90000268516090F8241001F08001802907D1FB
:109BA0000168496821F40021826C11430268516008
:109BB000704738B504460020E067FCF787FD05468E
:109BC0002068006800F0080008280CD16FF07E4083
:109BD0002B4600224FF400110090204600F02FFA8F
:109BE00008B1032038BD2068006800F00400042894
:109BF0000CD16FF07E402B4600224FF48001009084
:109C0000204600F01CFA08B10320EBE72020606733
:109C1000A06700BF002084F8700000BF00BFE1E72C
:109C200070B50546AC6A0020A4F85A00A4F85200AA
:109C30002046FEF7FDF970BD2DE9F0410546AC6AFE
:109C4000666FA76F2068806800F08000802807D1C9
:109C5000212E05D10020A4F85200204600F062F821
:109C60002068806800F04000402807D1222F05D1ED
:109C70000020A4F85A00204600F033F8E06F40F0CE
:109C80001000E0672046FEF7D3F9BDE8F08170B51B
:109C90000546AC6A2868006800F02000B0B90020D2
:109CA000A4F85A002068006820F4807021680860D9
:109CB0002068806820F00100216888602068806842
:109CC00020F04000216888602020A0672046FEF731
:109CD00039FC70BD70B50446A56A2846FEF733FC12
:109CE00070BD0168096821F4907102681160016813
:109CF000896821F0010102689160202181670021BB
:109D00000166704710B504462068006820F04000E6
:109D10002168086020206067002060662046FEF70A
:109D20007FFC10BD0168096821F0C0010268116064
:109D300020214167704700002DE9F84F04460020BC
:109D40000090B6492068884200D100E000BF216938
:109D5000A068084361690843E16940EA010A206894
:109D60000068AF49084040EA0A002168086020689E
:109D7000406820F44050E168084321684860D4F806
:109D800018A0A6492068884202D0206A40EA0A0A40
:109D90002068806820F4306040EA0A00216888600A
:109DA00000BFA0492068884216D19F48006800F093
:109DB000030030B1012808D0022804D0032808D1BC
:109DC00005E0012507E0022505E0042503E008255C
:109DD00001E0102500BF54E094492068884216D164
:109DE0009148006800F00C0030B1042808D0082821
:109DF00004D00C2808D105E0002507E0022505E085
:109E0000042503E0082501E0102500BF39E088495A
:109E10002068884216D18448006800F0300030B1D4
:109E2000102808D0202804D0302808D105E00025CB
:109E300007E0022505E0042503E0082501E01025E0
:109E400000BF1EE075492068884219D17648006835
:109E500000F4406048B1B0F5806F0AD0B0F5006FF3
:109E600005D0B0F5406F08D105E0002507E00225D8
:109E700005E0042503E0082501E0102500BF00E00F
:109E8000102500BF6549206888424AD135B1022DAE
:109E900008D0042D08D0082D0DD109E0FDF7CEFA29
:109EA00006460CE0634E0AE0FDF7ECFA064606E0D3
:109EB0004FF4004603E000260120009000BF00BFE1
:109EC000002E0AD0606800EB4000B04203D8606802
:109ED0000003B04202D20120009098E00222002349
:109EE000D4F804C060461946FBF7DCF94FF48072E1
:109EF000A6FB022387185941D4F804C06246002308
:109F00003846FBF7CFF98146B9F5407F06D3B9F55E
:109F1000801F03D22068C0F80C9078E001200090E8
:109F200075E0E069B0F5004F3CD1092D17D2DFE8AC
:109F300005F005090D160F1616161300FDF77EFA2B
:109F4000064610E0FDF78CFA06460CE0394E0AE0B2
:109F5000FDF798FA064606E04FF4004603E00026B7
:109F60000120009000BF00BF7EB37000616800EB6D
:109F70005100B0FBF1F01FFA80F9B9F1100F0ED3C8
:109F8000B9F5803F0BD24FF6F07009EA000BC9F328
:109F900042004BEA000B2068C0F80CB037E001200B
:109FA000009034E0092D18D2DFE805F005090D17FF
:109FB000101717171400FDF741FA064611E0FDF7D8
:109FC0004FFA06460DE01B4E0BE020E0FDF75AFA73
:109FD000064606E04FF4004603E00026012000900C
:109FE00000BF00BF9EB1606806EB50006168B0FB27
:109FF000F1F01FFA80F9B9F1100F06D3B9F5803FDF
:10A0000003D22068C0F80C9001E0012000900020ED
:10A0100020666066009800F00FB8000000800040E5
:10A02000F369FFEF0038014088100240004400400F
:10A03000004800400024F40018BCBDE8E08F2DE982
:10A04000F04104460D4617469846069E45E0701CB2
:10A05000002842D0FCF73AFBA0EB0800B04200D841
:10A06000B6B92068006820F4D070216808602068C4
:10A07000806820F001002168886020206067A06768
:10A0800000BF002084F8700000BF0320BDE8F0810D
:10A090002068006800F00400F8B12068C069C0F3CF
:10A0A000C020D0B14FF400602168086220680068C9
:10A0B00020F4D070216808602068806820F00100DA
:10A0C0002168886020206067A067E06700BF0020EB
:10A0D00084F8700000BF0320D8E72068C0692840DA
:10A0E000A84201D1012000E00020B842AFD00020FA
:10A0F000CCE7000000B585B01248FDF79BFF114882
:10A100000068C06900F01000102819D10D490968D5
:10A1100008620020009070208DF8040000236A4639
:10A1200001A90948006801F011FF009838B14FF00B
:10A13000805006490860BFF34F8FBFF36F8F00BF99
:10A1400005B000BD6C0700204805002004ED00E0CC
:10A1500000B587B01448FDF76DFF1348FDF76AFF9F
:10A1600011480068C06900F01000102819D10E498C
:10A17000096808620020009072208DF80400002316
:10A180006A4601A90948006801F0E0FE009838B16C
:10A190004FF0805006490860BFF34F8FBFF36F8FB9
:10A1A00000BF07B000BD0000EC0700204405002000
:10A1B00004ED00E000BFFEE72DE9F04705460E463E
:10A1C0009146FCF779F900240BE006EBC400D0E9D6
:10A1D0000073082000FB04513A460020FCF70CF9FC
:10A1E000641C4C45F1DBFCF7FDF8BDE8F08700008E
:10A1F0000FB4054B10B503A9044A029800F016F9F4
:10A2000010BC5DF814FB000085AB0008DC050020E5
:10A210000FB4084B10B504A902AA039800F006F980
:10A22000044602A9002000F09BFC204610BC5DF80B
:10A2300014FB000061AB0008014B024A00F0F6B8C5
:10A2400085AB0008DC05002002480068C0F302204E
:10A25000704700000CED00E010B5002804DB0A0791
:10A26000130E054A135406E00A07140E034A00F0C1
:10A270000F031B1FD45410BD00E400E018ED00E0F4
:10A2800002E008C8121F08C1002AFAD170477047BF
:10A29000002001E001C1121F002AFBD1704700001D
:10A2A0002DE9FF5F82B00021DDE90430020DDDF809
:10A2B00040B0034318D044F61050A2F2FF3242439C
:10A2C0001514119801281FD0A5EB0B00401C5FEA64
:10A2D000000A4FF000064E4FDFF83891B046504666
:10A2E00015D5CAF1000413E0119801244AA30128EE
:10A2F00001D16FEA0B010298119AC0E90031C0E95F
:10A30000024206B000F08EB8CBF10000DFE7044651
:10A310000021404A491842EB0450CDE9001012E0F8
:10A32000E00707D032463B4640464946FBF73DF939
:10A330008046894632463B4610461946FBF735F9BA
:10A3400006460F466410002CEAD1DDE90401DDE980
:10A350000023BAF1000F06DAFBF727F942464B4615
:10A36000FBF723F905E0FBF795F942464B46FBF76F
:10A3700091F904460E460022284BFBF713FA03D846
:10A380004FF0FF30014607E00022254B20463146C2
:10A39000FBF75CF8FBF7EDF9102409E0002C0ADB71
:10A3A0000A220023FAF77EFF039B30321A55641EFF
:10A3B00050EA0102F2D1641C039AC4F1110314445F
:10A3C000119A012A03D0012208430DD10AE0084363
:10A3D00004D000204FF0110B119072E7A3EB0B0596
:10A3E0006D1E0DE05B4504DD4FF0000205F1010537
:10A3F00004E003DA4FF00002A5F10105002AECD0D9
:10A4000002981199C0E90231C0E9004579E70000DE
:10A41000000014400000F03F300000000000F04356
:10A420000000E03F30BCBDE8C09F00002DE9FF4FB9
:10A4300095B09B468946064600250FE2252877D130
:10A4400000242746F84A0121059400E0044316F849
:10A45000013F203B01FA03F01042F7D130782A285F
:10A4600011D06FF02F033078A0F13002092A16D8EE
:10A47000059A44F0020402EB820203EB420210440C
:10A48000761C0590EFE759F8042B0592002A03DAB1
:10A49000504244F40054059044F00204761C307895
:10A4A0002E2816D116F8010F44F004042A280DD0E6
:10A4B0006FF02F023078A0F13003092B09D807EB99
:10A4C000870302EB4303C718761CF3E759F8047BB4
:10A4D000761C30786C280FD006DC4C2817D0682802
:10A4E0000DD06A2814D104E0742810D07A280FD136
:10A4F0000DE044F400140AE044F4801401E044F454
:10A5000040147278824202D104F58014761C761CC5
:10A51000307866280BD013DC582877D009DC002867
:10A5200075D04528F6D04628F4D047281AD19DE1A9
:10A5300018E0632835D0642879D0652812D195E1D8
:10A54000702873D008DC6728F1D069286FD06E2896
:10A550000DD06F2806D1B5E073282CD0752875D0A2
:10A56000782874D05A46179990476D1C75E1C4F34A
:10A570000250022809D003280DD0D9F80010042871
:10A580000DD00D6009F1040967E1D9F80010EA1750
:10A59000C1E90052F6E7D9F800100D80F2E70D701E
:10A5A000F0E719F8041B8DF8001000208DF8010069
:10A5B000EA46012003E059F804AB4FF0FF30610791
:10A5C0004FF0000102D40DE008F101018846B942C4
:10A5D0000FDA8045F8DB1AF808100029F4D108E0FA
:10A5E00008F1010188468142FADB1AF808100029B7
:10A5F000F6D105985B46A0EB080721463846179A26
:10A6000000F097FA284400EB080507E04DE029E147
:10A610000DE01AF8010B5A4617999047B8F1010856
:10A62000F7D25B4621463846179A13E142E00A22E8
:10A630000092C4F302524FF0000A022A08D059F8DF
:10A6400004CB032A4FEAEC710AD00DE029E02AE09E
:10A6500009F1070121F00702F2E802C1914609E081
:10A660000FFA8CFC4FEAEC71042A03D14FFA8CFCF0
:10A670004FEAEC71002907DA0A460021DCF1000CF0
:10A6800061EB02012D2202E0220504D52B228DF878
:10A690000420012203E0E20701D02022F7E79046E0
:10A6A00059E00A2102E010220DE010214FF0000ACB
:10A6B00000910BE010224FF0000A44F00404082738
:10A6C000009203E008224FF0000A0092C4F3025205
:10A6D000022A05D059F804CB0021032A08D009E04A
:10A6E00009F1070121F00702F2E802C1914605E0F5
:10A6F0001FFA8CFC042A01D10CF0FF0C4FF000086B
:10A70000220728D5702806D0009B83F0100353EA57
:10A710000A0305D00EE040228DF80420012208E053
:10A720005CEA010206D030228DF804208DF8050085
:10A7300002229046009B83F0080353EA0A030AD1E1
:10A740005CEA010201D1620705D530228DF80420B0
:10A750004FF001087F1E582804D034A003900EA8A3
:10A7600002900DE036A0F9E753466046009AFAF7EA
:10A7700099FD84460398825C0298401E0290027004
:10A780005CEA0100F0D1029806A9081A00F1200A3B
:10A79000600702D524F4803400E00127574502DD2C
:10A7A000A7EB0A0000E0002000EB0A0100900598EA
:10A7B0004144401A0590E00306D45B462146179AAF
:10A7C000059800F0B6F90544002706E001A85A46AE
:10A7D000C05D179990476D1C7F1C4745F6DBE00371
:10A7E0000CD55B462146179A059800F0A2F905445E
:10A7F00004E030205A46179990476D1C0099481E76
:10A8000000900029F5DC08E0029802995A46007889
:10A81000491C0291179990476D1CBAF10001AAF1E9
:10A82000010AF1DC65E10000092801003031323312
:10A83000343536373839616263646566000000007C
:10A840003031323334353637383941424344454666
:10A850000000000000F05BF90544761C3078002809
:10A860007FF4ECAD19B0284600F04EB9620700D471
:10A87000062709F1070222F0070CFCE80223E14653
:10A8800003F000485FEA080C02D00FF2702C0DE0D4
:10A890005FEA045C02D50FF2682C07E05FEAC47C33
:10A8A00002D00FF2602C01E0AFF2700C4FF0FF38D5
:10A8B00023F00043CDF850C065280CD006DC4528B5
:10A8C00009D046281DD047283DD13DE0662818D044
:10A8D00067287ED138E00021112F01DB112000E034
:10A8E000781CCDE9000106A90EA8FFF7D9FCDDE927
:10A8F0000F010E9A03910021009207F1010A0491C1
:10A900004DE04FF000400097CDE9011006A90EA8D8
:10A91000FFF7C6FCDDE90F0203920E9B119900229E
:10A92000DDF80CA00093049211B9791C00EB010A28
:10A93000B7EB0A0004D4C0F1FF3007F1010A04901C
:10A94000AAEB0700019044E0012F00DA0127002163
:10A95000112F01DD112000E03846CDE9000106A9E4
:10A960000EA8FFF79DFCDDE90F010E9A039100216F
:10A9700004910092BA4621070CD40399514500DA9C
:10A980008A46BAF1010F05DD009AAAF10101515C76
:10A99000302908D0B84202DA10F1040F06DA01219A
:10A9A000CDE9011015E0AAF10101E9E7002805DC75
:10A9B000049901440491AAEB000102E0411C5145B5
:10A9C00000DD8A460499401A401C01904FF0004077
:10A9D0000290200704D40198504501DBCDF8048093
:10A9E00000208DF84F0002980DF14F07B0F1004F95
:10A9F00025D02B200E9002984FF0020800280CDA88
:10AA0000404202902D200E9007E00A210298FAF7AA
:10AA1000E8FC3031029007F8011DB8F10001A8F1FF
:10AA20000108F2DC02980028EFD1791E0E98087018
:10AA3000307800F0200040F0450007F8020D12A821
:10AA4000C01B00F107081498007800B1012000EB4A
:10AA50000A01019801EBE07105984144401A401E3B
:10AA60000590E00306D45B462146179A059800F04E
:10AA700060F805441498007818B15A461799904721
:10AA80006D1CE00324D55B462146179A059800F01B
:10AA900050F805441CE00498002807DBDDE90301B9
:10AAA000884203DD0098405C179901E01799302037
:10AAB0005A469047049805F10105401C04900198FE
:10AAC000401E019004D12E205A46179990476D1CC4
:10AAD000BAF10001AAF1010ADDDC05E017F8010B6B
