S0220000687474703A2F2F737265636F72642E736F75726365666F7267652E6E65742F1D
S3250800000040090020A9010008FF1C0008C91B0008451C00084B0700084D260008000000006A
S32508000020000000000000000000000000DB1E00084D07000800000000011D000859210008AD
S32508000040C3010008C3010008C3010008C3010008C3010008C3010008C3010008C301000832
S32508000060C3010008C3010008C3010008C3010008C3010008C3010008C3010008C301000812
S32508000080C3010008C3010008C3010008C3010008C3010008C3010008C3010008C3010008F2
S325080000A0C3010008C3010008C3010008C3010008C30100080000000000000000C30100086A
S325080000C0C3010008C3010008C3010008C3010008C3010008C301000841260008C30100080F
S325080000E0C3010008C30100080000000000000000000000000000000000000000000000005A
S3250800010000000000C301000800000000C30100080000000000000000C3010008C3010008A1
S32508000120C3010008C3010008C3010008C3010008C3010008000000000000000000000000B5
S32508000140C3010008C3010008C301000800000000C3010008C3010008C3010008C3010008FD
S32508000160C3010008C3010008C301000800000000C3010008C3010008000000000000000075
S32508000180C3010008C3010008C3010008DFF80CD000F05AFA00480047892F0008400900203E
S325080001A080F30888704700000648804706480047FEE7FEE7FEE7FEE7FEE7FEE7FEE7FEE7A5
S325080001C0FEE7FEE7BD2100088D0100082DE9F05F0546002092469B468846064681464024FD
S325080001E01BE0284641464746224600F05AF853465A46C01A914110D311461846224600F0F5
S3250800020041F82D1A67EB01084F4622460120002100F038F817EB00094E41201EA4F1010424
S32508000220DFDC484631462A46434600F000B830BCBDE8C09FD2B201E000F8012B491EFBD2A2
S3250800024070470022F6E710B513460A4604461946FFF7F0FF204610BD30B50B46014600200E
S325080002602022012409E021FA02F59D4205D303FA02F5491B04FA02F52844151EA2F10102D5
S32508000280F1DC30BD202A04DB203A00FA02F1002070479140C2F1200320FA03F3194390406C
S325080002A07047202A04DB203A21FA02F00021704721FA02F3D040C2F12002914008431946A1
S325080002C070472DE9FE4F804681EA0300C00F0C46009021F0004123F00045B8EB0200A941D8
S325080002E005D24046214690461C460B46024623F00040104347D0270DC7F30A00C3F30A5195
S325080003000290401A019040286BDAC3F3130040F4801B0098924620B10023D2EB030A63EB91
S325080003200B0B01985946C0F140025046FFF7AAFF06460D4650465946019A00F097F910EB4F
S3250800034008006141002487EA115284EAE7731A4340D0009A62B3019A012A4FEA075215DCC0
S32508000360001B61EB02014FF0004202EA0752CDE90042001C41F5801132462B4600F097F9FB
S3250800038003B000F045B840462146F9E7001B61EB0201001C41F5801300185B412018A2F510
S325080003A0001747EB030140EAD570B6196D4111E06D084FEA360645EAC0754FEA0752001B0A
S325080003C061EB0201001C41F5801149084FEA30000019514132462B4603B000F01CB800F028
S325080003E057B90098012240000023D0EB020263EBE073009821464FEAE074B8EB000061EBE6
S325080004000401E9E783F000435BE781F0004158E730BCBDE8C08F30BCBDE8C04FFFF7DFBFFC
S325080004202DE9FE4F81EA030404F0004421F0004100944FF0000B23F0004350EA01045ED0AE
S3250800044052EA03045BD0C3F30A54C1F30A552C44A4F2F3340194A0FB0254C1F3130141F449
S325080004608011C3F3130343F4801301FB024400FB034E840A970A44EA815447EA8357A4FBDD
S32508000480076802958D0A05FB07854FEA932C04FB0C542705029D4FEA065847EA1637B5EB4E
S325080004A008056EEB070C870E920E47EA811742EA8312A7FB0201B6EB0B0164EB00042B0D19
S325080004C043EA0C335E1844EB1C50DA465146E7FB0201C5F313044FEA0B3343EA14534FEAE2
S325080004E00432019C43EA0603A4F10C040294009CCDE900B400F0DBF803B000F003B8002063
S325080005000146F9E730BCBDE8C08F2DE9F04D81EA030404F0004B21F0004514464FF0000AC9
S3250800052023F0004150EA050220D054EA01021DD0C5F30A570246C5F31303C1F31300C1F350
S325080005400A5640F4801543F48013A7EB0608101BD64608F2FD3873EB050002D308F101084A
S3250800056001E092185B41B8F1000F03DA00200146BDE8F08D00204FF48011064684460EE030
S32508000580171B73EB050705D3121B63EB050306434CEA010C49084FEA300092185B4150EA90
S325080005A00107EDD152EA030012D082EA040083EA0501084305D0101BAB4106D2012200230E
S325080005C006E000224FF0004302E06FF0010253101AEB06004CEB085110EB0A0041EB0B0104
S325080005E0BDE8F04D00F054B8C1F30A52C1F3130140F2FF3341F480119A4202DA00200146EE
S32508000600704740F233439A42A2F2334202DC5242FFF747BEFFF736BE30B5041E71F10004C4
S3250800062004DB4FF00044404264EB0101141E73F1000405DB1C464FF00043524263EB040330
S32508000640994208BF904230BD064C074D06E0E06840F0010394E8070098471034AC42F6D3C6
S32508000660FFF798FDFC2F00081C300008202A06DBCB17203A41FA02F043EAE07306E041FA25
S3250800068002F3D040C2F12002914008431946704710B5141E73F1000408DA401C41F1000170
S325080006A092185B411A4301D120F0010010BD2DE9F04D92469B4611B1B1FA81F202E0B0FA61
S325080006C080F220329046FFF7DDFD04460F4640EA0A0041EA0B0153465A46084313D01146DA
S325080006E053EA010019D0C8F140025046FFF7D9FD05460E46504659464246FFF7C3FD08430B
S3250800070005D0012004E020463946BDE8F08D0020054346EAE0762C4337430A986305E40A1B
S32508000720A0EB08000022FD0A44EA47540A3002D500200146E9E7010510196941DDE90845F2
S3250800074000196941BDE8F04DA2E7FEE77047000030B50446024685B00D460CA001F078FFAE
S3250800076000F0C2F900200121CDE90001A4F10064E10ACDE90215049004A9684600F0E0F85F
S3250800078000F052F905B0012030BD00003E2045726173652025642070616765733A2025584F
S325080007A02E2E2E2E2E2E0D0A00000000124A117F1248012901D003290BD1036843F40063B2
S325080007C00360036823F400630360036843F400730360022901D003290BD1016841F4805175
S325080007E00160016821F480510160016841F480610160002010777047140000200020024006
S32508000800C107054803D0416941F004014161416941F48031416170470020024008494A6911
S32508000820C0B222F47E7242EAC0004861486940F002004861486940F480304861704700001C
S3250800084000200240054910B54C6944F001044C610260BFF36F8F436010BD00000020024096
S32508000860094A10B55469402344F480245461EFF3108272B610C910C05B1E13F0FF03F9D114
S3250800088082F3108810BD00000020024070B5054600F01EFA0646134C08E0681C06D000F0B9
S325080008A017FA801BA84201D3032070BD2069C003F3D420690C4908400CD00C494A6802430F
S325080008C04A60810F01D0A169A161810000D02061012070BD2069C00701D0012020610020F0
S325080008E070BD000000200240FAC302001400002010B590F825100024022903D00421C1637B
S3250800090001241AE001680A6822F00E020A6001680A6822F001020A6090F84410036C01F0AD
S325080009201C02012101FA02F25A6080F82510002180F82410816B01B18847204610BD0000A6
S325080009402DE9F05F054634488946017801290CD00127804607704CF2503B5846FFF796FFB8
S3250800096006004FF0000A03D052E0022000F058B851464046C8F804A0284C226892050ED5FA
S32508000980216821F4007121602168490505D5216821F480612160032109E0077708E022680B
S325080009A0520504D5216821F480612160022101772868012807D04FF0FF31C9F8001040F25C
S325080009C0FA3BAF681DE06868FFF71AFF5846FFF75DFF0646606920F00400606116E0384693
S325080009E06968FFF71BFF4CF25030FFF74FFF0600606920EA0B00606102D0C9F8007005E079
S32508000A007F1CD5E902010844B842E8D8FFF7CEFE88F800A03046A9E71400002000200240E8
S32508000A2030BCBDE8C09F00000348416941F000414161002070470000002002402DE9FF5F02
S32508000A40254C0646904620789A4601280BD0012020704CF2503B5846FFF718FF07004FF00E
S32508000A60000904D02AE0022004B000F039B84846C4F80490194D2968490504D5286820F42A
S32508000A80806028600220207726B1012E09D0022E07D00CE0424653460198FFF7D3FE0126AD
S32508000AA012E041460198FFF7DBFE022E0AD05846FFF7ECFE4FEA0007FFF778FE84F8009007
S32508000AC03846D1E74FF480265846FFF7DFFE07466869B0436861EFE7140000200020024032
S32508000AE030BCBDE8C09F0000064900204A69002A07DA054A8A60054A8A604969002900DAA4
S32508000B00012070470020024023016745AB89EFCD2DE9FC4FDFF894A1002301250AF1040B0D
S32508000B2003244FF00F0C0BF1040EB8E005FA03F632406FD04F68012F05D0022F03D0112FD7
S32508000B4001D0122F17D1D0F808905F0004FA07F829EA08090097D1F80C8008FA07F848EA8E
S32508000B600908C0F808804768B7430E79C6F300169E403E434660C6684FEA430804FA08F763
S32508000B80BE4301978F6807FA08F73743C7604E68022E01D0122E13D1DE0800EB8606009648
S32508000BA0366A5F07FF0E0CFA07F926EA0906D1F8109009FA07F949EA0609009EC6F8209035
S32508000BC00668019FBE430F7907F0030707FA08F7374307604E68F60060D5354E376E47F04E
S32508000BE001073766366E23F0030706F001060096304E3E44B146B6689F074FEA17780CFA65
S32508000C0008F7BE43B0F1904F05D02B4FB84204D1012712E042E000270FE0284FB84201D193
S32508000C2002270AE0264FB84201D1032705E0254FB84201D1042700E0072707FA08F7374350
S32508000C40C9F80870DAF800605746D1F8048096435FEAC83800D516433E60DBF800605F466B
S32508000C60D1F8048096435FEA883800D516433E60DEF800607746D1F8048096435FEAC82819
S32508000C8000D516433E60094F0C373E68D1F8048096435FEA882800D516433E605B1C0A6865
S32508000CA032FA03F67FF442AF00F00EB8000401400010024000000140000400480008004873
S32508000CC0000C0048001000481CBCBDE8E08F0000014880687047000008000020024881682B
S32508000CE042681144816070470800002010B50024032000F071F8002000F008F808B10124D4
S32508000D0001E000F025F8204610BD000070B50E4E05460024706898B14FF47A71B1FBF0F0D9
S32508000D200A490968B1FBF0F000F0BEFD40B9102D06D200222946501E00F02EF8356000E012
S32508000D400124204670BD00000800002034000020094808B5016E41F001010166016E01F0DA
S32508000D6001010091816D41F080518165806D00F08050009008BD000000100240002809DB9C
S32508000D8000F01F02012191404009800000F1E020C0F8001170470000F0B40E4B1B680C4635
S32508000DA0C3F30223C3F10705042D00D90425191D072901D2002300E0DB1E012606FA05F105
S32508000DC0491E214099409E40761E16403143F0BC01F04EBC0CED00E0064900F007020868F0
S32508000DE04FF6FF03184040EA0220034A10430860704700000CED00E00000FA051649B0F55F
S32508000E00007F0868C0F3412009D0022805D0086820F4C06040F480600860002070470128C9
S32508000E20FBD0086820F4C06040F4007008600B483222006850430A4AB0FBF2F0401C00E06A
S32508000E40401E4A69520501D50028F9D148694005E3D50320704700000070004034000020C8
S32508000E6040420F000248006800F4C06070470000007000402DE9F84F044600270088A84D5B
S32508000E803E46000515D5606C60B1B0F5000F04D0B0F5400F2BD001270AE0E86840F4803037
S32508000EA0E86024E00021201D00F02CFF07001ED03E46206880033AD5A86D4FF00008C000B0
S32508000EC009D4A86D40F08050A865A86D4FF0010800F080500090DFF84CA2DAF8001041F47C
S32508000EE08071CAF80010FFF7F3FE814610E0D5F88800616C20F440000843C5F88800D8E7BE
S32508000F00FFF7E6FEA0EB0900022801D9032705E0DAF80000C005F3D5002F7DD04FEA070621
S32508000F20B8F1000F03D0A86D20F08050A8652078C00707D0D5F88800216A20F003000843A2
S32508000F40C5F888002078800707D5D5F88800616A20F00C000843C5F888002078400707D5BC
S32508000F60D5F88800A16A20F030000843C5F888002078800607D5D5F88800E16A20F44060E5
S32508000F800843C5F888002088800507D5D5F88800E16B20F440200843C5F888002088400518
S32508000FA007D5D5F88800216C20F440100843C5F888002078400607D5D5F88800216B20F4C2
S32508000FC040500843C5F888002078000607D5D5F88800616B20F440400843C5F8880020887C
S32508000FE0C00507D5D5F88800A16B20F440300843C5F8880020684FF0006700034FF0806875
S3250800100050D5D5F88800A16C20F040600843C5F88800A06CB84200E005E03BD1E86840F4A0
S325080010208010E8603EE0D5F8900010F4407014D0A16D814211D0D5F89000D5F8901020F427
S32508001040407041F48031C5F89010D5F8901021F48031C5F89010C5F89000C00711D0FFF714
S3250800106037FE074641F2883907E000BFFFF730FEC11B494501D9032652E7D5F89000800798
S32508001080F4D5D5F89000A16D20F440700843C5F8900045E7404505D10121201D00F032FEAC
S325080010A000B106462068400317D5D5F88800E16C20F040600843C5F88800E06CB84204D171
S325080010C0E86840F48010E86007E0404505D10121201D00F017FE00B106462088400411D531
S325080010E0D5F88800216D20F040500843C5F88800206DB0F1805F05D10221201D00F002FE9C
S3250800110000B106462088000406D555F8880F616D20F0804008432860304600F005B80000C5
S32508001120001002400070004018BCBDE8E08F00002DE9F0470F46050058D0404E306800F0D2
S325080011400700B84209D2306820F0070038433060306800F00700B84248D12878384CC0075E
S325080011602CD06868032811D0022812D0216898B1490500293ADAA16821F003010143A160BD
S32508001180FFF7A6FD804641F2883910E021688901EFE721688903ECE78907EAE7FFF798FD41
S325080011A0A0EB0801494502D90320BDE8F087A068696800F00C00B0EB810FEFD128788007FE
S325080011C005D5A068A96820F0F0000843A060306800F00700B8420BD9306820F0070038432C
S325080011E03060306800F00700B84201D00120DCE72878400705D5A068E96820F4E06008435A
S32508001200A0602878000706D5A068296920F4605040EAC100A06000F03FF8A168094AC1F3BE
S325080012200311515C01F01F01C8400749086007480068BDE8F047FFF769BD000000200240FD
S3250800124000100240B42F000834000020080000200548064900688968054AC1F30221515CFF
S3250800126001F01F01C84070473400002000100240F42F00080548064900688968054AC1F3C7
S32508001280C221515C01F01F01C84070473400002000100240F42F000870B5254900231846FB
S325080012A08A68CC6812F00C0204F00306214C4FEA640509D00C2A05D0042A32D0082A00D1C7
S325080012C0284670BD012E10D10B681B0704D4D1F89430C3F3032302E00B68C3F30313164EFA
S325080012E056F82330DAB10C2AEBD1C86800F00300022818D0032818D01846CA68CB68C2F302
S325080013000212C3F306234343521CB3FBF2F2C868C0F34160401C4000B2FBF0F070BD18460E
S3250800132070BD204670BD2046E7E72846E5E70000001002400024F400C42F00082DE9F843BB
S3250800134004006FD0FE4DA86800F00C06E86800F003072078C00664D576B10C2E01D1012F9B
S325080013600AD0A069002828687AD040F001002860FFF7AEFC80465DE02868800702D5A06927
S325080013800028DED0216A2868000703D5286800F0F00004E0D5F89400F02202EA10108142D9
S325080013A016D9084600F044FD00283BD1286840F0080028602868216A20F0F000084328603F
S325080013C06868E16920F47F4040EA0120686016E0286840F0080028602868216A20F0F0009E
S325080013E0084328606868E16920F47F4040EA0120686026B9206A00F01BFD0028D5D1FFF7D7
S325080014004BFFA968CF4AC1F30311515C01F01F01C840CD490860CD480068FFF777FC002830
S325080014207ED12EE0CAE000BFFFF752FCA0EB0800022876D828688007F6D5286840F00800DF
S3250800144028602868216A20F0F000084328606868E16920F47F4040EA0120686011E0FFE731
S3250800146020F001002860FFF733FC804606E000BFFFF72EFCA0EB08000228DAD8286880078F
S32508001480F6D42078C00740D0082E18D00C2E01D1032F14D06068B0F5803F17D0B0F5A02F3E
S325080014A0286817D020F480302860286820F4802028606068E0B1FFF70BFC804614E02868EF
S325080014C0800322D56068002878D01EE0286840F48030EDE740F480202860F7E7FFF7F8FBE3
S325080014E0A0EB08006428A4D828688003F6D50CE0FFF7EEFB804605E0FFF7EAFBA0EB080081
S32508001500642896D828688003F6D4207880073BD5042E11D00C2E01D1022F0DD0E06801E061
S32508001520B6E1FFE0002828681ED040F480702860FFF7CEFB07460CE0286840050CD5E068DF
S325080015400028C1D008E000BFFFF7C2FBC01B022893D828684005F7D56868217C20F0F85094
S3250800156040EA016068600FE020F480702860FFF7AFFB074605E000BFFFF7AAFBC01B02285E
S32508001580B1D828684005F7D42078000729D560690028D5F8940012D040F00100C5F89400C1
S325080015A0FFF796FB074604E0FFF792FBC01B022899D8D5F894008007F6D512E02BE120F0AB
S325080015C00100C5F89400FFF783FB074605E000BFFFF77EFBC01B022885D8D5F8940080078D
S325080015E0F6D42078400766D5A86D0027C00008D4A86D40F08050A865A86D012700F0805002
S32508001600009053480168C90512D40168814641F480710160FFF75CFB804605E0FFF758FB7C
S32508001620A0EB080002287DD8D9F80000C005F5D5A068012816D00528D5F8900017D020F092
S325080016400100C5F89000D5F8900020F0040000BFC5F89000A06841F28839C0B1FFF738FB1B
S3250800166080460FE0D5F8900040F00100F0E740F00400C5F89000F5E7FFF72AFBA0EB080136
S3250800168049454FD8D5F890008007F5D50EE0FFF71FFB804606E000BFFFF71AFBA0EB0801D1
S325080016A049453FD8D5F890008007F5D41FB1A86D20F08050A8652078800628D5606A0028EB
S325080016C0D5F8980012D040F00100C5F89800FFF7FFFA074605E000BFFFF7FAFAC01B022860
S325080016E020D8D5F898008007F6D510E020F00100C5F89800FFF7ECFA074604E0FFF7E8FAF2
S32508001700C01B02280ED8D5F898008007F6D4A06AA8B1022824D00C2E7DD0286820F0807082
S32508001720286000E0B3E02868000103D4E86820F00300E860E86807490840E8600CE09FE0F2
S3250800174000100240B42F0008340000200800002000700040FFFFEEFEFFF7BAFA044699E0BB
S32508001760E868E26A00F00301914226D1216B00F070020901103991421FD1626B00F4FE41FD
S32508001780B1EB022F19D194F8382000F07841B1EBC26F12D1A18F00F4C00249084905A1F52C
S325080017A00011914209D194F8401000F0C06049084906A1F1007181424BD00C2E6FD02868E7
S325080017C040016CD4286820F080702860FFF780FA064604E0FFF77CFA801B022857D82868D2
S325080017E08001F7D4F4E90B016FF00F0202EB01110843218A5204490802EB4151A26841EAE6
S3250800180002210843217D4FF07E42490802EB41610843217B00E042E040EAC160E968214ADF
S3250800182011400843E860286840F080702860E86840F08070E860FFF74BFA044605E000BF9D
S32508001840FFF746FA001B022821D828688001F7D523E02868800120D4286840F080702860E9
S32508001860E86840F08070E860FFF732FA044604E0FFF72EFA001B022809D828688001F7D531
S325080018800BE000BFFFF724FA001B022802D90320BDE8F88328688001F4D40020F8E7012020
S325080018A0F6E700008C809D0110B5401EB0F1807F01D3012010BD4FF0E02460610F21601763
S325080018C000F0D6FE0020A06107202061002010BD704770472DE9F04102680446D069116865
S325080018E0936840F60F0528424FF0000505D186067BD58E0679D5216E88E003F0010601F46D
S325080019009077374371D0C70707D0CF0505D501271762E26F42F00102E267820708D5DA07ED
S3250800192006D0276802223A62E26F42F00402E267420708D5DA0706D0236804221A62E26F47
S3250800194042F00202E26702070AD501F02002324306D0236808221A62E26F42F00802E267AD
S32508001960020509D54A0107D523684FF400621A62E26F42F02002E267E26F002A2ED08006B4
S3250800198005D5880603D5216E09B120468847E06F21688968490602D410F0280F20D0204600
S325080019A000F0C8FC20688168490614D5816821F040018160E06E70B11D498163E06EFEF7A4
S325080019C097FF00280AD0E06E816B00E02046BDE8F041084709E02046FFF77BFFBDE8F081E7
S325080019E02046FFF776FFE567F8E7C60209D55B0207D54FF4801010622046BDE8F041FFF787
S32508001A0067BF030605D50B0603D5616E0029DDD1E4E74006E2D54806E0D51168204621F065
S32508001A204001116020216167656600F0CCF8D5E72123000810B5040002D0606F10B107E044
S32508001A40012010BD002084F87000204600F026F8242060672068016821F001010160204634
S32508001A6000F078FC0128ECD0606A10B1204600F0C7FB2068416821F4904141602068816843
S32508001A8021F02A0181602068016841F0010101602046BDE8104000F017BC000010B586B07D
S32508001AA0044614216846FEF7CCFB17492068884227D11648816D41F400318165816D01F40A
S32508001AC000310591C16C41F00101C164C06C694600F0010005900C200090022001900020BC
S32508001AE0029003200390072004904FF09040FFF70FF8002211462620FFF74EF92620FFF791
S32508001B003DF906B010BD000000440040001002402DE9F8430446406F1F4616460D46202882
S32508001B204FD1CDB1C6B194F87000012849D0012084F870004FF00008C4F87C802120606730
S32508001B40FFF7C6F8A4F850608146A4F85260A068B0F5805F03D004E00120BDE8F883206955
S32508001B6028B12E465FF0000584F8708010E00026FAE78021204600F011FDB8B9C6B116F858
S32508001B80010B21680885B4F85200401EA4F85200B4F852004B464FF0000200970028E8D183
S32508001BA04FF04001204600F0F9FC30B10320D4E735F8020BC0F30800E3E7202060670020A7
S32508001BC0CBE70220C9E77047FEE7000010B50168094A1140B1F1005F05D00168BDE81040D1
S32508001BE006A000F035BD72B644680068FEF7D8FAA446BDE8104060470000FE2F496E76610B
S32508001C006C696420737461636B20616464726573733A2025580D0A000948084901604FF40D
S32508001C20E1314160002181600C22C160C0E904128161C16101624162FFF7FCBE0044004095
S32508001C403C000020FEE700002DE9F04F8A468346ADF2044D914628215046FEF779FD1BA07B
S32508001C6000F0F6FC00242AE021461EA000F0F0FC80210BEB84236A465FF0000003EBC00654
S32508001C803568766802EBC007401CC7E900568842F4DB0AEB842817468026FEF725FF00252A
S32508001CA007EBC50008EBC501D0E900230020FEF7C5FE6D1CB542F3DBFEF7B6FE641CB4EBDC
S32508001CC0992FD1D30DF2044D00F016B83E20537461727420636F70792E2E2E2E2E2E0D0A0A
S32508001CE000000000636F707920626C6F636B3A202325640D0A00000030BCBDE8C08F70473C
S32508001D00704700002DE9F041444C05468846E0680026810728680DD0E16801F003018142AA
S32508001D2016D1A8B1E0686968C0F30210401C88420ED120E0012804D0022805D0032807D173
S32508001D4008E02168890701E021684905002907DB01265FE02168890302D421684903F5E7AF
S32508001D60E1686A686FF00F0321F0730103EB021211430143E160206820F080602060FEF77C
S32508001D80A7FF074605E000BFFEF7A2FFC01B022837D820680001F7D4B8F1000F18D0B8F157
S32508001DA0010F1DD0287D4FF07E41400801EB4060A96840EA01202169194A1140084320613B
S32508001DC0206840F080602060FEF782FF07461AE0A868297B000240EAC1602169114AECE767
S32508001DE0288A1149400801EB4050A96840EA012021690E4AE1E700BFFEF76AFFC01B0228DD
S32508001E0001D9032606E020680001F5D52069A969084320613046BDE8F08100000010024033
S32508001E20FF80FFF9FF80FF070000E0FFFF809FFFF8B51C4D06460024A86DC00002D5FFF774
S32508001E4011F80DE0A86D40F08050A865A86D00F080500090FFF706F8A96D21F08051A965FD
S32508001E60B0F5007F04D0802E07D94FF003040AE0802E08D9A02E01D804E001D1022402E0AA
S32508001E80702E00D101240848016821F0070121430160006800F00700A04201D00120F8BD21
S32508001EA00020F8BD001002400020024010B5002305E000BF50F8334041F823405B1C93425C
S32508001EC0F8DB10BD08B500220844009201226946001FFFF7EBFF009808BD70472DE9F84F55
S32508001EE039A000F0B5FB39A000F0B2FB41A000F0AFFB4AA000F0ACFB3EA000F0A9FB33A0A4
S32508001F0000F0A6FB4F4C45F67A3600252088B04204D04DA000F09CFB268065806088401CC6
S32508001F2081B2618050A000F093FB6088534FDFF850B1DFF850A14FF0FF3805280CD901223C
S32508001F40694658460095FFF7B1FF0098401C12D14DA000F07DFB1FE0524E4FF4A039494675
S32508001F603046FFF7AFFF0146B0F1AA3F1FD0414512D0F9420BD165804BA000F069FB4FF493
S32508001F80704251465846FFF75FFE51A005E000F0D9B854A000F05CBB58A000F059FB5DA06E
S32508001FA000F056FB504600F0D2B8FFF70FBE5FA000F04EFB4A4651463046FFF745FE2821A8
S32508001FC03046FEF7C5FBE0E70D0A00002A2A2A2A2A2A2A2A2A2A2A2A2A2A2A2A2A2A2A2AA2
S32508001FE02A2A2A2A2A2A2A2A2A2A2A2A2A2A2A0D0A0000002A2020202020202020202020BC
S32508002000202020202020202020202020202020202020202020202A0D0A0000002A20202027
S32508002020204C617A79646F6720426F6F744C6F6164657220623120202020202020202A0DA3
S325080020400A00000004000020426F6F74696E672066726F6D20706F7765726F66662E2E2E8C
S325080020602E2E0D0A000000007265747279436F756E74203D2025640D0A0000005655AAAA84
S3250800208000D0020800500008496E76616C696420666163746F727920696D616765210D0AC6
S325080020A000000000009001083E20526573746F726520746F20666163746F72792070726FAB
S325080020C06772616D2E2E2E2E2E2E0D0A000000003E2055706461746520636F6D706C65744B
S325080020E0650D0A003E204572726F723A25582121212E2E2E2E2E2E0D0A0000003E204E6F8E
S32508002100726D616C2073746172742E2E2E2E2E2E0D0A00003E205374617274696E6720754D
S32508002120702E2E2E2E2E2E0D0A0D0A003E20557067726164652073746172742E2E2E2E2E85
S325080021402E0D0A0018BCBDE8E04FFFF722BF18BCBDE8E04FFFF729BFFEF7C0BD10B5AEB092
S32508002160442117A8FEF76DF8142128A8FEF769F85C216846FEF765F81020179001200024DF
S32508002180CDE91D0460201F90219417A8FFF7D6F80F20CDE928042A942B94002128A82C94B4
S325080021A0FEF7C6FF0220009009946846FEF762FE4FF40070FEF722FE2EB010BD0D480168D4
S325080021C041F4700101600C48016841F001010160002181600268094B1A4002608214C26065
S325080021E0026822F48022026081610249C00380390860704788ED00E000100240FFFFF6EA00
S3250800220090F82410C90706D001684A68836A22F400321A434A6090F82410890706D5016867
S325080022204A68C36A22F480321A434A6090F82410490706D501684A68036B22F480221A435D
S325080022404A6090F82410090706D501684A68436B22F400421A434A6090F82410C90606D591
S3250800226001688A68836B22F480521A438A6090F82410890606D501688A68C36B22F40052C1
S325080022801A438A6090F82410490611D501684A68036C22F480121A434A60016CB1F5801F0D
S325080022A006D101684A68436C22F4C0021A434A6090F82410090606D501684A68806C22F4CD
S325080022C0002202434A607047F8B500260446C667FEF7FEFC0546206800686FF07E47000789
S325080022E008D52B4600224FF400112046009700F055F960B92068006840070AD52B4600220F
S325080023004FF480012046009700F048F908B10320F8BD20206067A06784F870600020F8BDFD
S3250800232010B5806A0021A0F85A10A0F85210FFF7D0FA10BD01680A6822F490720A60016870
S325080023408A6822F001028A602021816700210166704700002DE9F0410446016880682369A8
S32508002360E5691843636900272B431843814A0B68814D2B4003430B6020684168E36821F431
S325080023804051194341602168A069914201D0236A18438B6823F4306303438B60774B21686A
S325080023A0774899420DD1D0F8880010F0030006D0012847D0022843D0032830D144E001257B
S325080023C02EE0704B99420BD1D0F8880010F00C0034D0042836D0082832D00C281FD133E074
S325080023E0694B99420BD1D0F8880010F0300025D0102827D0202823D0302810D124E0914275
S325080024000DD1D0F8880010F4406017D0B0F5806F18D0B0F5006F13D0B0F5406F14D0102515
S325080024205A4B00264FF40040914245D175B1022D0FD0042D0FD0082D18D10FE00025EFE70B
S325080024400225EDE70425EBE70825E9E7FEF700FF03E0184602E0FEF71FFFA8B3626802EB3F
S325080024604201814202D8B0EB023F01D901276EE0DFF81C815DB1022D0CD0042D13D0082D6C
S32508002480F4D150082905401846F1000105E0FEF7DFFE0AE050083F49F5E70023FDF796FE4B
S325080024A0A0F540714FE0FEF7F7FE6268010E0302500818187141F0E7E1694FF6EF78814207
S325080024C02ED1092DD2D200E041E0DFE805F006091F05220505052500C8E7FEF7B9FE01E093
S325080024E0FEF7C8FE4100606801EB5001B1FBF0F080B2A0F110014145B8D84FF6F071014070
S32508002500C0F3420001432068C16020E022496068EAE7FEF7C1FEE5E74FF480316068E3E7C1
S32508002520092DA3D2DFE805F0060918051E05050520009BE7FEF78CFE16E0FEF79BFE13E035
S3250800254080B2A0F11001414590D82168C860266638466666BDE8F081606803EB5001B1FB5B
S32508002560F0F0EDE7FEF798FE616800EB5100B0FBF1F0E5E700800040F369FFEF003801402E
S325080025800010024000440040004800400024F400FFFC0F00000024F40048E8012DE9F04717
S325080025A09A4617460E4604464FF000094FF02008089D39E0681C37D0FEF78AFBA0EB0A002B
S325080025C0A84222D80DB32068016849072CD5C069C043000528D421684FF4006008622068BC
S325080025E0016821F4D07101602068816821F001018160C4F87480C4F87880C4F87C8000BF6D
S3250800260084F870900320BDE8F0872068016821F4D07101602068816821F001018160C4F828
S325080026207480C4F87880EBE72068C06936EA000004D00020B842BDD00020E4E70120F9E7DA
S325080026400148FFF747B900003C000020FEE700000FB4054B10B503A9044A029800F0EEF8AA
S3250800266010BC5DF814FB0000712F0008380000200907090E002804DB00F1E02080F8001471
S32508002680704700F00F0000F1E02080F8141D704702E008C8121F08C1002AFAD17047704716
S325080026A0002001E001C1121F002AFBD1704700002DE9FF5F82B00021DDE90430020DDDF8C6
S325080026C040B0034318D044F61050A2F2FF3242431514119801281FD0A5EB0B00401C5FEAC0
S325080026E0000A4FF000064E4FDFF83891B046504615D5CAF1000413E0119801244AA3012834
S3250800270001D16FEA0B010298119AC0E90031C0E9024206B000F08EB8CBF10000DFE70446B0
S325080027200021404A491842EB0450CDE9001012E0E00707D032463B4640464946FDF770FE18
S325080027408046894632463B4610461946FDF768FE06460F466410002CEAD1DDE90401DDE941
S325080027600023BAF1000F06DAFDF75AFE42464B46FDF756FE05E0FDF7C8FE42464B46FDF735
S32508002780C4FE04460E460022284BFDF745FF03D84FF0FF30014607E00022254B2046314618
S325080027A0FDF78FFDFDF720FF102409E0002C0ADB0A220023FDF70AFD039B30321A55641E0F
S325080027C050EA0102F2D1641C039AC4F111031444119A012A03D0012208430DD10AE0084383
S325080027E004D000204FF0110B119072E7A3EB0B056D1E0DE05B4504DD4FF0000205F10105AE
S3250800280004E003DA4FF00002A5F10105002AECD002981199C0E90231C0E9004579E70000B8
S32508002820000014400000F03F300000000000F0430000E03F30BCBDE8C09F00002DE9FF4F31
S3250800284095B09B468946064600250FE2252877D100242746F84A0121059400E0044316F8BB
S32508002860013F203B01FA03F01042F7D130782A2811D06FF02F033078A0F13002092A16D8AF
S32508002880059A44F0020402EB820203EB42021044761C0590EFE759F8042B0592002A03DA3F
S325080028A0504244F40054059044F00204761C30782E2816D116F8010F44F004042A280DD01D
S325080028C06FF02F023078A0F13003092B09D807EB870302EB4303C718761CF3E759F8047B0F
S325080028E0761C30786C280FD006DC4C2817D068280DD06A2814D104E0742810D07A280FD11A
S325080029000DE044F400140AE044F4801401E044F440147278824202D104F58014761C761C1B
S32508002920307866280BD013DC582877D009DC002875D04528F6D04628F4D047281AD19DE133
S3250800294018E0632835D0642879D0652812D195E1702873D008DC6728F1D069286FD06E28B1
S325080029600DD06F2806D1B5E073282CD0752875D0782874D05A46179990476D1C75E1C4F34F
S325080029800250022809D003280DD0D9F8001004280DD00D6009F1040967E1D9F80010EA1744
S325080029A0C1E90052F6E7D9F800100D80F2E70D70F0E719F8041B8DF8001000208DF801002A
S325080029C0EA46012003E059F804AB4FF0FF3061074FF0000102D40DE008F101018846B94218
S325080029E00FDA8045F8DB1AF808100029F4D108E008F1010188468142FADB1AF80810002994
S32508002A00F6D105985B46A0EB080721463846179A00F097FA284400EB080507E04DE029E170
S32508002A200DE01AF8010B5A4617999047B8F10108F7D25B4621463846179A13E142E00A2262
S32508002A400092C4F302524FF0000A022A08D059F804CB032A4FEAEC710AD00DE029E02AE0C1
S32508002A6009F1070121F00702F2E802C1914609E00FFA8CFC4FEAEC71042A03D14FFA8CFCD5
S32508002A804FEAEC71002907DA0A460021DCF1000C61EB02012D2202E0220504D52B228DF8EC
S32508002AA00420012203E0E20701D02022F7E7904659E00A2102E010220DE010214FF0000A4F
S32508002AC000910BE010224FF0000A44F004040827009203E008224FF0000A0092C4F3025201
S32508002AE0022A05D059F804CB0021032A08D009E009F1070121F00702F2E802C1914605E023
S32508002B001FFA8CFC042A01D10CF0FF0C4FF00008220728D5702806D0009B83F0100353EAC6
S32508002B200A0305D00EE040228DF80420012208E05CEA010206D030228DF804208DF80500FD
S32508002B4002229046009B83F0080353EA0A030AD15CEA010201D1620705D530228DF80420D6
S32508002B604FF001087F1E582804D034A003900EA802900DE036A0F9E753466046009AFDF7EF
S32508002B8025FB84460398825C0298401E029002705CEA0100F0D1029806A9081A00F1200A3A
S32508002BA0600702D524F4803400E00127574502DDA7EB0A0000E0002000EB0A0100900598BB
S32508002BC04144401A0590E00306D45B462146179A059800F0B6F90544002706E001A85A4622
S32508002BE0C05D179990476D1C7F1C4745F6DBE0030CD55B462146179A059800F0A2F90544B4
S32508002C0004E030205A46179990476D1C0099481E00900029F5DC08E0029802995A46007804
S32508002C20491C0291179990476D1CBAF10001AAF1010AF1DC65E10000092801003031323321
S32508002C40343536373839616263646566000000003031323334353637383941424344454628
S32508002C600000000000F05BF90544761C307800287FF4ECAD19B0284600F04EB9620700D4E0
S32508002C80062709F1070222F0070CFCE80223E14603F000485FEA080C02D00FF2702C0DE0AD
S32508002CA05FEA045C02D50FF2682C07E05FEAC47C02D00FF2602C01E0AFF2700C4FF0FF38AE
S32508002CC023F00043CDF850C065280CD006DC452809D046281DD047283DD13DE0662818D0BF
S32508002CE067287ED138E00021112F01DB112000E0781CCDE9000106A90EA8FFF7D9FCDDE941
S32508002D000F010E9A03910021009207F1010A04914DE04FF000400097CDE9011006A90EA89F
S32508002D20FFF7C6FCDDE90F0203920E9B11990022DDF80CA00093049211B9791C00EB010AED
S32508002D40B7EB0A0004D4C0F1FF3007F1010A0490AAEB0700019044E0012F00DA01270021C6
S32508002D60112F01DD112000E03846CDE9000106A90EA8FFF79DFCDDE90F010E9A03910021BA
S32508002D8004910092BA4621070CD40399514500DA8A46BAF1010F05DD009AAAF10101515C99
S32508002DA0302908D0B84202DA10F1040F06DA0121CDE9011015E0AAF10101E9E7002805DCB6
S32508002DC0049901440491AAEB000102E0411C514500DD8A460499401A401C01904FF00040F3
S32508002DE00290200704D40198504501DBCDF8048000208DF84F0002980DF14F07B0F1004F0F
S32508002E0025D02B200E9002984FF0020800280CDA404202902D200E9007E00A210298FDF736
S32508002E201BFA3031029007F8011DB8F10001A8F10108F2DC02980028EFD1791E0E9808700E
S32508002E40307800F0200040F0450007F8020D12A8C01B00F107081498007800B1012000EBB3
S32508002E600A01019801EBE07105984144401A401E0590E00306D45B462146179A059800F0F1
S32508002E8060F805441498007818B15A46179990476D1CE00324D55B462146179A059800F0C4
S32508002EA050F805441CE00498002807DBDDE90301884203DD0098405C179901E01799302098
S32508002EC05A469047049805F10105401C04900198401E019004D12E205A46179990476D1C8A
S32508002EE0BAF10001AAF1010ADDDC05E017F8010B5A46179990476D1CB8F10001A8F10108BD
S32508002F00F4DC5B462146179A0598ABE62D0000002B0000002000000030BCBDE8C08F2DE97E
S32508002F20F041044600251E461746880404D405E039462020B0476D1C641EF9D52846BDE837
S32508002F40F0812DE9F041044600251E469046C80301D5302700E02027880404D505E0414612
S32508002F603846B0476D1C641EF9D52846BDE8F08113B54FF6FF73012269460248FEF7C8FD1C
S32508002F8000981CBD3C00002008B5FDF7AFFEFFF7E5F80748C16C41F00101C164C06C00F035
S32508002FA001000090FEF738FEFEF798FFFCE70000001002400000000000000000010203047C
S32508002FC006070809A0860100400D0300801A060000350C0040420F0080841E0000093D0074
S32508002FE000127A000024F40000366E010048E801006CDC0200000000010203041C300008A1
S32508003000040000203800000090260008543000083C00002004090000A026000800000000C5
S32508003020100000000100000000000000000000000000000000000000000000000100000070
S3190800304000000000000000000000000000093D000000000028
S325080050000845002081520008119F00082B9400080D9F00080964000865CD00080000000058
S32508005020000000000000000000000000A1510008C164000800000000FD51000861C30008B9
S325080050409B5200089B5200089B5200089B5200089B5200089B5200089B5200089B5200089A
S325080050609B5200089B5200089B5200089B5200089B520008516400089B52000861640008DA
S32508005080716400089B5200089B5200089B5200089B5200089B5200089B5200089B52000872
S325080050A09B5200089B5200089B5200089B5200089B52000800000000000000009B52000824
S325080050C09B5200089B5200089B5200089B5200089B52000861CC0008B5CC000811CD000855
S325080050E09B5200089B520008000000000000000000000000000000000000000000000000B8
S32508005100000000009B520008000000009B52000800000000000000006DC400089B52000869
S325080051209B5200089B5200089B5200089B5200089B52000800000000000000000000000098
S325080051409B5200089B5200089B520008000000009B520008816400082D9700089B520008BF
S325080051609B5200089B5200089B520008000000009B5200089B520008000000000000000058
S325080051809B5200089B5200089B520008DFF80CD000F0CCFC0048004719EF000808450020AB
S325080051A02C4B1968086800F05AB880F30988BFF36F8F4FF0000080F31188704700000000C1
S325080051C008480068006880F308884FF0000080F3148862B661B6BFF34F8FBFF36F8F00DF02
S325080051E000BF00BF08ED00E0DFF80C00016841F470010160704700BF88ED00E0EFF30980C5
S32508005200BFF36F8F134B1A681EF0100F08BF20ED108A20E9F04F106009B44FF0500080F3DE
S325080052201188BFF34F8FBFF36F8F0BF025F84FF0000080F3118809BC1968086800F014B8B2
S325080052401EF0100F08BF00F014B880F30988BFF36F8F7047C0050020EFF30580704730C82A
S32508005260B0E8C04FFFF7A1BF30C8B0E8C04FFFF7E7BFB0EC088AB0EC08CAFFF7E6BF0000B1
S325080052800648804706480047FEE7FEE7FEE7FEE7FEE7FEE7FEE7FEE7FEE7FEE71DC400087B
S325080052A08D5100082DE9F05F0546002092469B4688460646814640241BE0284641464746AF
S325080052C0224600F094F953465A46C01A914110D311461846224600F07BF92D1A67EB0108F0
S325080052E04F4622460120002100F072F917EB00094E41201EA4F10104DFDC484631462A4664
S32508005300434600F000B830BCBDE8C09F0649074A0868504343F23902104408604008704790
S325080053200149086070470000200600206D4EC64140EA01039B0703D009E008C9121F08C098
S32508005340042AFAD203E011F8013B00F8013B521EF9D27047D2B201E000F8012B491EFBD23A
S3250800536070470022F6E710B513460A4604461946FFF7F0FF204610BD10B5044604E00B78C4
S3250800538000F8013B03B1491C521EF8D2204610BD421C10F8011B0029FBD1801A704730B598
S325080053A005460020034600E05B1C934205D2EC5CC85C201A01D1002CF6D130BD0FB400B558
S325080053C08DB010A909900B9000914FF0FF300A9000200C9005480690054807906A4609A818
S325080053E00F9900F029F90DB05DF814FB55560008735600082DE9FF5F1D464FF0FF3BD5E932
S32508005400014691465F464FF00008A9697F1C01988847296A824688470028F6D1BAF1FF3F5D
S325080054200CD024F4C064002E19DD600614D5BAF12B0F09D0BAF12D0F0ED103E0584604B01A
S3250800544000F07EB844F48064A9697F1C01988847761E8246002E02DDBAF1300F03D0B9F117
S32508005460000F26D032E0A969761E44F400747F1C019888478246002E05DDBAF1780F06D0D2
S32508005480BAF1580F03D0B9F1000F10D01EE0B9F1000F02D0B9F1100F18D1A969761E24F487
S325080054A000747F1C019888478246102002E0082000E00A20814609E008FB0908A969761EF1
S325080054C044F400747F1C019888478246002E05DD4946504600F09BF80028EDDAE9690198B5
S325080054E08847A00502D46FF00100A8E7E00725D1600613D5600502D5C8F1000000E04046DF
S3250800550029680A1D2A600968220501D5087015E0220701D5088011E008600FE02868011DE3
S3250800552029600068210502D580F8008006E0210702D5A0F8008001E0C0F8008038467EE77E
S3250800554030BCBDE8C09F00F0004230F000400AD0C10D01F56071C0F3160042EA0151C2083B
S3250800556040071143704700200146704701F0004330B421F0004150EA010206D00A0DA2F582
S325080055806072C1F31301002A02DC30BC00207047440F44EAC104C100E01830BC00EBC250B0
S325080055A000F078B830B50B46014600202022012409E021FA02F59D4205D303FA02F5491BAF
S325080055C004FA02F52844151EA2F10102F1DC30BD202A04DB203A00FA02F1002070479140C1
S325080055E0C2F1200320FA03F3194390407047202A04DB203A21FA02F00021704721FA02F35C
S32508005600D040C2F1200291400843194670473A2800D2303820F02002412A01D3A2F137008E
S32508005620884201D34FF0FF3070470000026811441378016018467047D1600449516104495C
S32508005640116200211161114600F09ABA2D560008755B0008426842B1016811F8013B23B119
S32508005660521EC0E90012184670470121C160881E704742685AB1C368016843B983688B423F
S3250800568005D0491E521CC0E90012002070474FF0FF3070470029A8BF7047401C490008BFE8
S325080056A020F00100704710B4B0FA80FC00FA0CF050EA010404BF10BC704749B1CCF12004D4
S325080056C021FA04F411FA0CF118BF012121430843A3EB0C01CB1D4FEA00614FEA102042BF72
S325080056E0002010BC704700EBC35010440029A4BF10BC7047401C490008BF20F0010010BC4F
S3250800570070472DE9FE4F804681EA0300C00F0C46009021F0004123F00045B8EB0200A94143
S3250800572005D24046214690461C460B46024623F00040104347D0270DC7F30A00C3F30A5100
S325080057400290401A019040286BDAC3F3130040F4801B0098924620B10023D2EB030A63EBFD
S325080057600B0B01985946C0F140025046FFF730FF06460D4650465946019A00F0E9F910EBE3
S3250800578008006141002487EA115284EAE7731A4340D0009A62B3019A012A4FEA075215DC2C
S325080057A0001B61EB02014FF0004202EA0752CDE90042001C41F5801132462B4600F088FB74
S325080057C003B000F045B840462146F9E7001B61EB0201001C41F5801300185B412018A2F57C
S325080057E0001747EB030140EAD570B6196D4111E06D084FEA360645EAC0754FEA0752001B76
S3250800580061EB0201001C41F5801149084FEA30000019514132462B4603B000F01CB800F093
S3250800582048BB0098012240000023D0EB020263EBE073009821464FEAE074B8EB000061EB5E
S325080058400401E9E783F000435BE781F0004158E730BCBDE8C08F30BCBDE8C04FFFF7DFBF68
S325080058602DE9FE4F81EA030404F0004421F0004100944FF0000B23F0004350EA01045ED01A
S3250800588052EA03045BD0C3F30A54C1F30A552C44A4F2F3340194A0FB0254C1F3130141F4B5
S325080058A08011C3F3130343F4801301FB024400FB034E840A970A44EA815447EA8357A4FB49
S325080058C0076802958D0A05FB07854FEA932C04FB0C542705029D4FEA065847EA1637B5EBBA
S325080058E008056EEB070C870E920E47EA811742EA8312A7FB0201B6EB0B0164EB00042B0D85
S3250800590043EA0C335E1844EB1C50DA465146E7FB0201C5F313044FEA0B3343EA14534FEA4D
S325080059200432019C43EA0603A4F10C040294009CCDE900B400F0CCFA03B000F003B80020DB
S325080059400146F9E730BCBDE8C08F2DE9F04D81EA030404F0004B21F0004514464FF0000A35
S3250800596023F0004150EA050220D054EA01021DD0C5F30A570246C5F31303C1F31300C1F3BC
S325080059800A5640F4801543F48013A7EB0608101BD64608F2FD3873EB050002D308F10108B6
S325080059A001E092185B41B8F1000F03DA00200146BDE8F08D00204FF48011064684460EE09C
S325080059C0171B73EB050705D3121B63EB050306434CEA010C49084FEA300092185B4150EAFC
S325080059E00107EDD152EA030012D082EA040083EA0501084305D0101BAB4106D2012200237A
S32508005A0006E000224FF0004302E06FF0010253101AEB06004CEB085110EB0A0041EB0B016F
S32508005A20BDE8F04D00F045BA2DE9F04D00231A461B1A8A4103DB00200146BDE8F08DC1F396
S32508005A400A52C1F3130141F480154FF0000BD10702D100186D41521E0027044640F2FF116C
S32508005A60384601EB620A3E468046024600204FF48011FFF7BCFDC2197141BB1846EB01007B
S32508005A80B4EB030C75EB000C04D3E41A65EB000517460E46241908F101006D4180463428FC
S32508005AA0E3DDF91946EB0600091BA84103D24FF0FF32134601E0002213461BEB070046EB8A
S32508005AC00A51BDE8F04D00F0F4B9C1F30A52C1F3130140F2FF3341F480119A4202DA002004
S32508005AE00146704740F233439A42A2F2334202DC5242FFF77CBDFFF76BBD000030B5041E47
S32508005B0071F1000404DB4FF00044404264EB0101141E73F1000405DB1C464FF000435242EA
S32508005B2063EB0403994208BF904230BD064C074D06E0E06840F0010394E8070098471034F3
S32508005B40AC42F6D3FFF726FBB01D0108D01D0108202A06DBCB17203A41FA02F043EAE07389
S32508005B6006E041FA02F3D040C2F120029140084319467047C0B24FF4F05100F035BA000015
S32508005B802DE9F34F8BB04FF0000801F10C000C464FF0010B46460DF1080A01906269012168
S32508005BA001989047051E2DD0252D2CD0216A8847C0B16269012101989047216A884700284F
S32508005BC0F7D1411E62690198904700E0761CA1690B988847216A88470028F7D1E1690B9830
S32508005BE08847DBE7A1690B9888470746A84201D1761CD3E7E1690B9888477F1C02D1B8F162
S32508005C00000F6FD046E1002762693D463946019890472A2804D162690121019890470125F3
S32508005C20DFF884926269012101989047A0F130010A290AD24F45E5DC07EB870100EB410739
S32508005C40303FDFD445F01005ECE7E90601D46FF000476C280AD04C2814D0682815D06A28C0
S32508005C600DD074281CD07A281AD01DE062690121019890476C2802D045F0040514E045F0FE
S32508005C8002050DE045F020050AE06269012101989047682802D045F0080505E045F400653A
S32508005CA06269012101989047C4E9015765283DD019DC58287AD00CDC452837D004DC252892
S32508005CC026D0412831D131E046282FD047282CD12CE05B2877D0612828D063287CD06428B1
S32508005CE023D15AE0D0E06F2848D008DC66281DD067281BD0692821D06E2816D127E0702892
S32508005D0045D0732868D0752847D078280DD14DE0A1690B988847054625283FF469AFE16985
S32508005D200B9888476D1C3FF46AAFB3E023466A466FF001000B99AFF300809EE045F0400049
S32508005D406060A80723464FF0000236D43EE0E8077FF447AF2068011D21600068290501D509
S32508005D6006701BE7290701D5068017E7A90703D5F117C0E9006111E706600FE745F04000B0
S32508005D806060A80723464FF0080216D41EE040F60E0125EA0100606016E045F040006060AC
S32508005DA0A80723464FF00A0207D40FE045F040006060A80708D5234610226FF001000B9948
S32508005DC0AFF3008059E007E0234610226FF001000B99FFF70FFB50E04FF000094F464B4636
S32508005DE0632802D05B2806D040E0E80601D40120A06001273AE062690121019890475E28B6
S32508005E0005D14FF001096269494601989047216939B900210A46534643F82120491C0829F3
S32508005E20FADBB0B3216969B9C11700EBD16253110AEB830122F01F02821A01200B6890406A
S32508005E4003430B6062690121019890475D28E8D1B9F1000F09D00020514651F82020D24301
S32508005E6041F82020401C0828F7DB02AB224600976FF001000B99AFF3008000280CDA401C01
S32508005E8008D1BBF1000F05D04FF0FF300DB000F00DB8FFE74046F9E7E90701D108F101089B
S32508005EA006444FF0000B79E6CCCCCC0C30BCBDE8C08F10B5141E73F1000408DA401C41F1C2
S32508005EC0000192185B411A4301D120F0010010BD2DE9F04D92469B4611B1B1FA81F202E092
S32508005EE0B0FA80F220329046FFF772FB04460F4640EA0A0041EA0B0153465A46084313D07C
S32508005F00114653EA010019D0C8F140025046FFF76EFB05460E46504659464246FFF758FB60
S32508005F20084305D0012004E020463946BDE8F08D0020054346EAE0762C4337430A98630546
S32508005F40E40AA0EB08000022FD0A44EA47540A3002D500200146E9E7010510196941DDE9D9
S32508005F60084500196941BDE8F04DA2E70EB5C10F80EAE0700844CA07002140F233438DE8F0
S32508005F800E000A460B46FFF7A3FF03B000BD0EB540F2334102910021CDE900110A460B46B7
S32508005FA0FFF796FF03B000BD70B5C1F30A5201F000450024C1F3130140F2FF3341F4801157
S32508005FC09A4201DA002070BD40F233439A42A2F2334203DC5242FFF70AFB00E090402C4395
S32508005FE0F1D0404270BD00007F2801D9002208E0064A02EB5002C007127800D1120902F0DA
S325080060000F0201209040084070470000F81C010870B58C1810F8015B15F0070301D110F83E
S32508006020013B2A1106D110F8012B03E010F8016B01F8016B5B1EF9D12B0705D40023521E33
S325080060400DD401F8013BFAE710F8013BCB1A921C03E013F8015B01F8015B521EF9D5A142A4
S32508006060D8D3002070BD000088B0002584480068006840F010008249096808601822814939
S325080060807F4803F003F980480068006840F010007D490968086080227C497B4803F0F6F8BA
S325080060A0EDE04FF0FF3202A9794800680AF01EFC012800D0E3E09DF80800702811D0712842
S325080060C002D072287DD192E09DF809204FF400730DF10A016A4803F03BF9322009F01CFFCA
S325080060E0CBE0674802F064FD6548C06E00684068C0F118006749088000206249654A1288E5
S32508006100885464480088142806DA0A466148018861A008F0EBFA0DE05A48C078594989787B
S32508006120CDE900105748437802785A4801885DA008F0DCFA62480078012806D0022261A17A
S325080061405048FFF72CF900284BD05248008809280CD109225CA14B48FFF721F930B95DA05A
S3250800616008F0C4FA01205F4908703AE0494800880C280FD10C225CA14248FFF710F948B91E
S325080061805DA008F0B3FA0020564908705FA005F0DDFB26E00AF026FE04464948007838B1EC
S325080061A0AC4205D95CA008F0A1FA00204449087004F6B83542480078012808D13548008861
S325080061C000E056E004F0B2FD3D49087008E0314802882C49012004F00BFB3949087000BFC6
S325080061E000BF18222749264803F050F845E0264802F0DEFC2448C06E00684068C0F1800045
S325080062004A49088000202149484A1288885402222CA11E48FFF7C3F848B91C4A4348018840
S3250800622043A008F063FA194805F090FB0DE01748C07816498978CDE90010144843780278FC
S325080062403A4801883EA008F051FA012043490870364802880D49002004F0CAFA18490870D0
S3250800626000203E49087080220849074803F00EF803E03BA008F03AFA00BF00BF00BF10E798
S32508006280E4200020AC060020E4210020C40600208C050020180500202D3E3A2564205B252F
S325080062A0735D0A002D3E3A2564205B253032582530325825303258253032585D0A0000006A
S325080062C01605002041540000636F6E6E6563746564000000424C4520636F6E6E65637465EB
S325080062E0640A000017050020646973636F6E6E656374656400000000424C4520646973635D
S325080063006F6E6E65637465640A00000041542B4C4F574C3A310000003D3E2054696D654F33
S3250800632075743A204E4F524D0A0000001A05002055322D3E3A2564205B25735D0A00000058
S3250800634055322D3E3A2564205B253032582530325825303258253032585D0A0012050020E5
S32508006360496E76616C696420424C455F444154412121210A00000000002414A005F0E6FAC2
S3250800638000BF41F2883008F04EFF641D12488088C0EB0010B4EB800F02D9002405F08AFBBB
S325080063A00EE043F6982008F03EFF0F340A488088C0EB0010B4EB800F02D9002405F07AFBCC
S325080063C0064800780028DCD0EBE7000041542B4C4F574C3A31000000000900201705002075
S325080063E010B500220221074800F070FF642008F01AFF01220221034800F068FF0A2008F038
S3250800640012FF10BD0004004800BFFEE710B509A005F0C4FA4FF4FA6003F0E2FF041E01D01B
S32508006420204610BD082206A10848FEF7B8FF80B2F7E7000041542B43474154543F0A0000C2
S325080064402B43474154543A31000000009407002010B5024800F0F2FB10BD0000BC230020B2
S3250800646010B5024800F0EAFB10BD00002C23002010B5024800F0E2FB10BD0000742300208E
S3250800648010B5024800F0DAFB10BD0000E422002030B590F8444004F01C050124AC40056C9F
S325080064A06C60046863608468102C04D10468A2600468E16003E00468A1600468E26030BDD0
S325080064C0704770471849087F012801D0032811D100BF1649096841F40061144A1160114606
S325080064E0096821F40061116000BF1146096841F400711160022801D0032811D100BF0B497D
S32508006500096841F48051094A11601146096821F48051116000BF1146096841F48061116005
S325080065200021014A117770479C0500200020024000F0010129B10649496941F00401044A2E
S3250800654051610349496941F48031014A5161704700200240094A526922F47E72C3B242EACC
S32508006560C302064B5A611A46526942F002025A611A46526942F480325A6170470020024059
S3250800658010B50849496941F00101064C6161026000BF00BF00BFBFF36F8F00BF00BF00BF52
S325080065A0436010BD00200240F0B50246402314460D460C4E766946F480260A4F7E6100BFEE
S325080065C0EFF31086304672B600BF2E682660241D2D1D5E1EF3B2002BF7D100BF80F3108853
S325080065E000BFF0BD0020024070B5054600F074FE064608E0681C30B100F06EFE801BA84273
S3250800660001D3032070BD1948006900F480300028F0D116480069164900EA0104CCB1154802
S32508006620406820431349486000BF04F0404030B10E48806904F0404108430C49886124F0D8
S32508006640404018B124F040400849086100BF0120D8E70648006900F0010020B100BF01209D
S325080066600249086100BF0020CCE7000000200240FAC302009C05002070B501462D480446B9
S325080066800246400C05460346002038E000EB400601EB4606B6F90260964205DD00EB400627
S325080066A001EB4606B6F9022000EB400601EB4606B6F902609E4205DA00EB400601EB460621
S325080066C0B6F9023000EB400601EB4606B6F90460A64205DD00EB400601EB4606B6F9044029
S325080066E000EB400601EB4606B6F90460AE4205DA00EB400601EB4606B6F90450401C04284D
S32508006700C4DBD01A00EE100AB8EEC00A0A480068D0ED171A80EE211A601B00EE100AB8EEF0
S32508006720C00A05480068D0ED181AC0EE210A31EE200A70BD0180FFFF4405002010B58AB0A7
S325080067400446FFF74DFE13A005F000F9182104A804F0D6FF12A005F0F9F8062213A104A831
S32508006760FEF71DFE28B100202060A08001200AB010BD601D211DE21CA31CCDE90032CDE9A4
S325080067800210631C22460BA10DF11600FEF716FE0020ECE741542B414444523A3F000000E2
S325080067A041542B4C4F574C3A3100000041542B4F4B3A000025325825325825325825325812
S325080067C0253258253258000010B58AB004461AA005F0E4F84FF4FA6003F002FE20B119A05F
S325080067E007F084FF0AB010BD06221CA11D48FEF7D6FD18B11CA007F079FFF3E704A805A950
S3250800680006AA07ABCDE90032CDE9021008AB09AA1AA11448FEF7D2FD06280BD109982070DC
S32508006820089860700798A0700698E070059820710498607100BFD5E741542B43434C4B3F0B
S325080068400A0000004E6257616974466F724F4B2074696D65206F7574000000002B43434CD6
S325080068604B3A000094070020556E657870656374656420726573706F6E7365002B43434C29
S325080068804B3A25642F25642F25642C25643A25643A2564001FB5684600F016F828B96A4620
S325080068A004A1012003F0ECFD03E003A1012003F0E7FD1FBD257300004572726F722067653F
S325080068C07420494D4549000070B5044610212046FEF747FD0DA005F061F84FF4FA6003F028
S325080068E07FFD051E01D0284670BD06220AA10C48FEF755FD10B14FF0FF30F5E70F22084984
S32508006900891D2046FEF738FD0020EDE741542B4347534E3D310A00002B4347534E3A00004C
S325080069209407002070B504460AA005F037F84FF4FA6003F055FD051E01D0284670BD1021AF
S325080069402046FEF70EFD0F2205492046FEF714FD0020F3E741542B43494D490A00000000F2
S325080069609407002070B504460FA005F017F84FF4FA6003F035FD051E01D0284670BD1521A5
S325080069802046FEF7EEFC07220AA10C48FEF707FD10B14FF0FF30F1E714220849C91D2046A9
S325080069A0FEF7EAFC0020E9E741542B4E434349440A0000002B4E434349443A009407002052
S325080069C01CB50FA004F0EAFF4FF4FA6003F008FD20B10DA007F08AFE00201CBD01AB6A4665
S325080069E00FA11248FEF7EAFC022806D110A0009907F07CFE0098C0B2EFE70020EDE7000015
S32508006A0041542B4353510A004E6257616974466F724F4B2074696D65206F7574000000006A
S32508006A202B4353513A25642C256400009407002072737369203D2025640A000000B587B046
S32508006A4016A004F0ABFF4FF4FA6003F0C9FC28B117A007F04BFE002007B000BD0D221AA131
S32508006A601D48FEF79CFC20B11CA007F03FFE0020F2E705A806A906AA06ABCDE90132CDE900
S32508006A80031006A81AA100901348FEF797FC072802D10598C0B2DFE70020DDE741542B4E30
S32508006AA0554553544154533D43454C4C0A0000004E6257616974466F724F4B2074696D6563
S32508006AC0206F7574000000004E554553544154533A43454C4C00000094070020556E657804
S32508006AE070656374656420726573706F6E7365004E554553544154533A43454C4C2C2564FE
S32508006B002C25642C25642C25642C25642C25642C256400001CB5044606226946112003F013
S32508006B20CFF920B10FA007F0E1FD01201CBD9DF800009DF8011040EA012000B220809DF8C3
S32508006B4002009DF8031040EA012000B260809DF804009DF8051040EA012000B2A080002020
S32508006B60E4E700004572726F7220696E204D61675F57726974655F7265670D0A00000000E8
S32508006B800146002291F82500022808D00420C86300BF002081F8240000BF012070470868FC
S32508006BA0006820F00E000B6818600868006820F001000B68186091F8440000F01C03012085
S32508006BC098400B6C5860012081F8250000BF002081F8240000BF1046E0E770B504460025F5
S32508006BE094F82500022803D00420E063012520E02068006820F00E0021680860206800685D
S32508006C0020F001002168086094F8440000F01C0101208840216C4860012084F8250000BFE8
S32508006C20002084F8240000BFA06B10B12046A16B8847284670BD0146C86B704770B504467F
S32508006C40206C05682068066894F8440000F01C01042088402840E0B106F00400C8B120687A
S32508006C60006800F0200028B92068006820F004002168086094F8440000F01C0104208840EF
S32508006C80216C4860206B002856D02046216B884752E094F8440000F01C01022088402840B6
S32508006CA018B306F0020000B32068006800F0200040B92068006820F00A002168086001203B
S32508006CC084F8250094F8440000F01C0102208840216C486000BF002084F8240000BFE06A81
S32508006CE050B32046E16A884726E094F8440000F01C01082088402840F0B106F00800D8B1A0
S32508006D002068006820F00E002168086094F8440000F01C0101208840216C48600120E06307
S32508006D2084F8250000BF002084F8240000BF606B10B12046616B884770BD000010B50146A0
S32508006D4009B9012010BD3E4B086898420BD23D4B0868C01A1423B0FBF3F080004864394881
S32508006D60083808640AE0364B0868C01A1423B0FBF3F080004864324808380864022081F8F2
S32508006D8025000868026847F6F0708243D1E9020318430B6918434B6918438B691843CB6909
S32508006DA018430B6A18430243086802608868B0F5804F3AD0234B083B086C98421BD1D0F862
S32508006DC0A80091F8443003F01C040F23A34098431C4BA033186091F8443003F01C0348688C
S32508006DE09840184B083BD3F8A8301843154B083BC3F8A80019E01248A030006891F844307B
S32508006E0003F01C040F23A34098430D4BA033186091F8443003F01C0348689840084BA03301
S32508006E201B681843064BA03318600020C863012081F82500002081F8240000BF82E70000DB
S32508006E4008040240080002402DE9F04104460D4616461F464FF0000800BF94F82400012808
S32508006E6002D10220BDE8F081012084F8240000BF94F8250001282CD1022084F825000020BF
S32508006E80E0632068006820F00100216808603B46324629462046FFF7FBFA206B30B1206802
S32508006EA0006840F00E00216808600BE02068006820F00400216808602068006840F00A0023
S32508006EC0216808602068006840F001002168086006E000BF002084F8240000BF4FF0020834
S32508006EE04046BFE72DE9F04104460F4600BF3E480078012802D10220BDE8F08101203A49DD
S32508006F00087000BF4CF25030FFF76EFB0646002E63D1354948603548006800F40070B8B189
S32508006F203248006820F40070304908600846006800F4806040B10846006820F4806008606F
S32508006F4003202949087715E001202749087711E02648006800F4806048B12448006820F48E
S32508006F6080602249086002201F49087702E000201D490877206801280ED16068FFF7D8FA40
S32508006F804CF25030FFF730FB06461848406920F00400164948611EE04FF0FF303860A56882
S32508006FA013E028466168FFF7D5FA4CF25030FFF71BFB06460D48406940F2FA3188430B4944
S32508006FC048610EB13D6005E06D1CD4E902010844A842E6D800BFFFF775FA00BF002002492E
S32508006FE0087000BF304687E79C050020002002400348406940F00040014948610020704717
S32508007000002002402DE9F0470446884615461E464FF0000900BF29480078012802D10220CE
S32508007020BDE8F08701202549087000BF4CF25030FFF7DAFA0746002F38D1204948602048DA
S32508007040006800F4806048B11D48006820F480601B49086002201949087702E000201749FB
S3250800706008773CB92A4633464046FFF789FA4FF001090BE0012C01D0022C07D12946404679
S32508007080FFF792FA022C01D14FF480294CF25030FFF7AAFA0746B9F1000F05D00848406948
S325080070A020EA090006494861FFF70CFA00BF00200249087000BF3846B2E700009C05002082
S325080070C00020024000200849496901F0004151B10649054A9160064991601146496901F020
S325080070E0004101B1012070470020024023016745AB89EFCD78B503460022CBE00126964055
S325080071000D6805EA0604002C72D04D68012D08D04D68022D05D04D68112D02D04D68122D58
S3250800712013D1986856000325B540A8435600CD68B54028439860586801259540A8430D79F0
S32508007140C5F30015954028435860D86856000325B540A84356008D68B5402843D8604D6826
S32508007160022D02D04D68122D13D1D60803F1200555F826005507EE0E0F25B540A8435607F5
S32508007180F60E0D69B5402843D60803F1200545F82600186856000325B540A8430D7905F054
S325080071A003055600B540284318604D6805F08055B5F1805F6DD100BF394D2D6E45F001052E
S325080071C0374E356635462D6E05F00105009500BF00BF4FEAB635960855F8260095072E0F4F
S325080071E00F25B540A843B3F1904F02D1002515E04FE02C4DAB4201D101250FE02A4DAB421D
S3250800720001D102250AE0294DAB4201D1032505E0274DAB4201D1042500E007259607360FF1
S32508007220B5402843234D960845F82600224D2868A0434D6805F48035B5F5803F00D120438D
S325080072401D4D28602D1D2868A0434D6805F40035B5F5003F00D12043174D2D1D28602D1DF1
S325080072602868A0434D6805F48015B5F5801F00D12043114D083528602D1D2868A0434D6838
S3250800728005F40015B5F5001F00D120430A4D0C352860521C0D68D540002D7FF42FAF78BD0A
S325080072A0001002400004004800080048000C004800100048080001400004014002461369D4
S325080072C00B400BB1012000E0002070470AB1816100E0816270470000014800687047000042
S325080072E090050020024692F8410020282DD100BF92F84000012801D102207047012082F87A
S32508007300400000BF242082F841001068006820F00100136818601068006820F4805013683E
S325080073201860106800680843136818601068006840F0010013681860202082F8410000BFEB
S32508007340002082F8400000BFD7E70220D5E710B502460B4692F8410020282AD100BF92F835
S325080073604000012801D1022010BD012082F8400000BF242082F841001068006820F001004B
S32508007380146820601068016821F4706141EA0321106801601068006840F0010014682060E7
S325080073A0202082F8410000BF002082F8400000BFDAE70220D8E7000010B504460CB90120D5
S325080073C010BD94F8410028B9002084F84000204600F0F8F9242084F841002068006820F000
S325080073E0010021680860606820F07060216808612068806820F4004021688860E06801284D
S3250800740005D1A06840F400402168886004E0A06840F4044021688860E068022802D18002FF
S32508007420216848602068406813490843216848602068C06820F400402168C860D4E904018E
S325080074400843A16940EA01202168C860D4E907010843216808602068006840F00100216822
S32508007460086000206064202084F841000020206384F8420000BFA3E7008000022DE9FC5F18
S325080074800446894692469B46DDE90C780E9E94F8410020287ED117B1B8F1000F05D14FF419
S325080074A000706064012000F0B9B800BF94F84000012801D10220F6E7012084F8400000BFE7
S325080074C0FFF70AFF054619230122D1032046009502F0A4F808B10120E5E7222084F84100F3
S325080074E0402084F84200002060646762A4F82A8060635B46524649462046CDE9006501F070
S32508007500F7FF30B100BF002084F8400000BF0120C9E7608DFF280CD9FF2020853D48009089
S3250800752094F828204FF080734946204602F05CF80BE0608D20853748009094F828204FF05D
S3250800754000734946204602F04FF800BF3346002204212046009502F061F808B10120A2E754
S325080075602068406A616A0870606A401C6062208D401E2085608D401E6085608D48B3208D2B
S3250800758038BB3346002280212046009502F046F818B100E03CE0012085E7608DFF280CD938
S325080075A0FF2020850020009094F828204FF080734946204602F018F80BE0608D20850020AF
S325080075C0009094F828204FF000734946204602F00BF8608D0028B9D12A463146204602F0BF
S325080075E04CF808B101205EE720202168C861206840680949084021684860202084F8410030
S32508007600002084F8420000BF84F8400000BF4AE7022048E70024008000E800FE3CBCBDE89B
S32508007620C09F00002DE9FC5F0446894692469B46DDE90C780E9E94F8410020287DD117B179
S32508007640B8F1000F05D14FF400706064012000F0B5B800BF94F84000012801D10220F6E714
S32508007660012084F8400000BFFFF736FE054619230122D1032046009501F0D0FF08B1012023
S32508007680E5E7212084F84100402084F84200002060646762A4F82A8060635B465246494676
S325080076A02046CDE9006501F061FF30B100BF002084F8400000BF0120C9E7608DFF280CD9E5
S325080076C0FF2020850020009094F828204FF080734946204601F088FF0BE0608D2085002018
S325080076E0009094F828204FF000734946204601F07BFF00BF2A463146204601F0E9FF08B168
S325080077000120A4E7606A007821688862606A401C6062608D401E6085208D401E2085608D45
S3250800772040B3208D30BB3346002280212046009501F074FF10B1012089E73AE0608DFF2895
S325080077400CD9FF2020850020009094F828204FF080734946204601F047FF0BE0608D208513
S325080077600020009094F828204FF000734946204601F03AFF608D0028BCD12A4631462046B7
S3250800778001F07BFF08B1012061E720202168C861206840680849084021684860202084F8A6
S325080077A04100002084F8420000BF84F8400000BF4DE702204BE7000000E800FE3CBCBDE857
S325080077C0C09F000010B586B00446142101A8FDF7C8FD18492068884229D100BF1648C06C6A
S325080077E040F002001449C8640846C06C00F00200009000BF00BFC0200190122002900120F0
S325080078000390032004900420059001A90B48FFF771FC00BF0848806D40F40010064988657B
S325080078200846806D00F40010009000BF00BF06B010BD000000540040001002400004004838
S3250800784003480068034909780844014908607047900500209805002010B50024032000F077
S32508007860C5F8002000F008F808B1012401E000F047F8204610BD000070B588B00446002540
S32508007880002600222146362000F06EF8362000F057F800BF1648806D40F010001449886556
S325080078A00846806D00F01000019000BF00BF02A903A800F0A1FB00F0C7FB05460D48B5FB8C
S325080078C0F0F0461E0C480D49086040F2E7310B48C160466000210161816001F006F820B9B4
S325080078E0064801F03BF808B070BD0120FBE700000010024040420F0000100040582600204F
S3250800790008B500BF0D48006E40F001000B4908660846006E00F00100009000BF00BF00BFAD
S325080079200846806D40F0805088650846806D00F08050009000BF00BF08BD000000100240F1
S325080079400146084600280DDB00BF00BF00F01F0301229A4043099B0003F1E023C3F800212D
S3250800796000BF00BF00BF70472DE9F05F80460D461646002705F09CFA074639462A463346C4
S3250800798001F00700C0F1070ABAF1040F02D94FF0040A01E0C0F1070AD14600F1040ABAF1D5
S325080079A0070F02D24FF0000A01E0A0F1030AD4464FF0010A0AFA09FAAAF1010A0AEA020AF6
S325080079C00AFA0CFA4FF0010B0BFA0CFBABF1010B0BEA030B4AEA0B042146404605F070FAFE
S325080079E000F000B830BCBDE8C09F000000BF00F00702064B19684FF6FF031940044B0B431A
S32508007A0043EA0221014B196000BF70470CED00E00000FA0500BF00BF00BF00BF00BFBFF388
S32508007A204F8F00BF00BF00BF0948006800F4E06008490843001D0649086000BF00BF00BF83
S32508007A40BFF34F8F00BF00BF00BF00BF00BFFDE70CED00E00000FA050246B2F5007F2AD1A8
S32508007A601D48006800F4C060B0F5007F32D01A48006820F4C06040F40070174B1860174816
S32508007A80006832235843164BB0FBF3F0411C00E0491E1148406900F48060B0F5806F01D1B1
S32508007AA00029F5D10C48406900F48060B0F5806F10D1032070470848006800F4C060B0F538
S32508007AC0806F07D00448006820F4C06040F48060014B18600020EDE700700040BC0500208D
S32508007AE040420F000248006800F4C06070470000007000402DE9F84304460025A846208864
S32508007B0000F40060B0F5006F26D1606C68B1B0F5000F03D0B0F5400F0ED10CE0D548C06888
S32508007B2040F48030D349C86008E00021201D03F087FB054602E001E0012500BF00BF55B994
S32508007B40CC488830006820F44000616C0843C949C1F8880000E0A846206800F40030B0F505
S32508007B60003F75D14FF00009C248806D012121EA107078B100BFBF48806D40F08050BD49A4
S32508007B8088650846806D00F08050009000BF00BF4FF00109B848006840F48070B6490860A5
S32508007BA0FFF79AFB074606E0FFF796FBC01B022801D9032505E0B048006800F4807000281A
S32508007BC0F2D000BF7DBBAB489030006800F44076CEB1A06DB04216D0A6489030006820F48B
S32508007BE04076A448D0F8900040F48030A149C1F890000846D0F8900020F48030C1F89000B3
S32508007C000846C0F8906006F00100A8B1FFF764FB074609E0FFF760FBC01B41F288318842A3
S32508007C2002D9032507E016E092489030006800F002000028EED000BF5DB98E4890300068A9
S32508007C4020F44070A16D08438A49C1F8900003E00CE0A84600E0A846B9F1010F05D18548F5
S32508007C60806D20F080508349886500BF207800F0010048B17F488830006820F00300216AAA
S32508007C8008437C49C1F88800207800F00200022809D178488830006820F00C00616A0843E5
S32508007CA07449C1F88800207800F00400042809D170488830006820F03000A16A08436D4902
S32508007CC0C1F88800207800F02000202809D169488830006820F44060E16A08436549C1F809
S32508007CE08800208800F40070B0F5007F09D161488830006820F44020E16B08435D49C1F8B1
S32508007D008800208800F48060B0F5806F09D159488830006820F44010216C08435549C1F88F
S32508007D208800207800F04000402809D151488830006820F44050216B08434E49C1F8880097
S32508007D40207800F08000802809D14A488830006820F44040616B08434649C1F888002088B6
S32508007D6000F48070B0F5807F09D142488830006820F44030A16B08433E49C1F888002068BE
S32508007D8000F40020B0F5002F1FD13A488830006820F04060A16C0843364988310860A06CA7
S32508007DA0B0F1006F06D13348C06840F480103149C8600AE0A06CB0F1806F06D10121201D09
S32508007DC003F03EFA054605B1A846206800F48020B0F5802F1FD127488830006820F04060DC
S32508007DE0E16C0843234988310860E06CB0F1006F06D12048C06840F480101E49C8600AE050
S32508007E00E06CB0F1806F06D10121201D03F018FA054605B1A846208800F48040B0F5804F7E
S32508007E2014D114488830006820F04050216D0843104988310860206DB0F1805F06D10221D9
S32508007E40201D03F0FDF9054605B1A846208800F40040B0F5004F09D106488830006820F0D7
S32508007E608040616D08430349C1F888004046BDE8F883000000100240007000402DE9F0419F
S32508007E8004460D4614B90120BDE8F0815548006800F00700A8420ED25248006820F0070054
S32508007EA02843504908600846006800F00700A84201D00120E8E7207800F00100002840D02F
S32508007EC06068032806D14848006800F00070D8B90120D9E76068022806D14348006800F450
S32508007EE0003088B90120CFE7606830B93E48006800F0020040B90120C6E73B48006800F4F5
S32508007F00806008B90120BFE73748806820F003006168084334498860FFF7DEF9064608E0F7
S32508007F20FFF7DAF9801B41F28831884201D90320AAE72D48806800F00C006168B0EB810F3E
S32508007F40EED1207800F00200022807D12648806820F0F000A16808432349886021480068F9
S32508007F6000F00700A8420ED91E48006820F0070028431C4908600846006800F00700A84277
S32508007F8001D0012080E7207800F00400042807D11548806820F4E060E1680843124988607A
S32508007FA0207800F00800082808D10F48806820F46050216940EAC1000B49886000F068F816
S32508007FC009498968C1F30311084A515C01F01F01C8400749086007480068FFF74DFC074675
S32508007FE0384651E70020024000100240F81A0108BC050020940500200F2202600D4A926870
S3250800800002F0030242600B4A926802F0F0028260084A926802F4E062C260064A926802F4BE
S325080080206052D2080261044A126802F007020A6070470000001002400020024001480068FA
S3250800804070470000BC05002000B5FFF7F7FF05498968C1F30221044A515C01F01F01C840AF
S3250800806000BD000000100240081B010800B5FFF7E5FF05498968C1F3C221044A515C01F066
S325080080801F01C84000BD000000100240081B0108F0B500230020DFF8D4C0DCF808C00CF084
S325080080A00C01DFF8C8C0DCF80CC00CF0030719B10C291ED1012F1CD1DFF8B0C0DCF800C0BA
S325080080C00CF0080CBCF1000F06D1DFF8A0C0DCF894C0CCF3032305E0DFF890C0DCF800C00B
S325080080E0CCF30313DFF888C05CF8233041B9184606E0042901D11F4802E0082900D11E48E9
S325080081000C2932D1DFF864C0DCF80CC00CF00304012C09D0022C02D0032C04D101E0154A31
S3250800812004E0154A02E000BF1A4600BF00BFDFF83CC0DCF80CC0CCF3021C0CF10106DFF844
S325080081402CC0DCF80CC0CCF3062C0CFB02FCBCFBF6F2DFF818C0DCF80CC0CCF3416C0CF138
S32508008160010C4FEA4C05B2FBF5F0F0BD00100240101B01080024F40000127A002DE9F843A0
S32508008180044614B90120BDE8F883F948806800F00C06F748C06800F00307207800F0100055
S325080081A0102877D11EB10C2E76D1012F74D1F048006800F0020018B1A06908B90120E2E75D
S325080081C0EB48216A006800F0080020B1E848006800F0F00005E0E6489430006800F4706027
S325080081E0000981421FD9206A03F0EEF808B10120C9E700BFDE48006840F00800DC490860AE
S325080082000846006820F0F000216A0843D849086000BF0846406820F47F40E16940EA01201E
S32508008220D34948601FE000BFD148006840F00800CF4908600846006820F0F000216A0843E9
S32508008240CB49086000BF0846406820F47F40E16940EA0120C64948602EB9206A03F0B4F8B0
S3250800826008B101208FE7FFF713FFC1498968C1F30311C04A515C01F01F01C840BE49086096
S32508008280BE480068FFF7F8FA8046B8F1000F4ED0404678E74BE0FFE7A06980B3B448006848
S325080082A040F00100B2490860FFF716F8054606E0FFF712F8401B022801D9032063E7AC4827
S325080082C0006800F002000028F2D000BFA848006840F00800A64908600846006820F0F000F0
S325080082E0216A0843A249086000BF0846406820F47F40E16940EA01209D49486017E0FFE7BF
S325080083009B48006820F0010099490860FEF7E4FF054606E0FEF7E0FF401B022801D903204A
S3250800832031E79348006800F002000028F2D1207800F0010000285CD0082E03D00C2E0AD1FC
S32508008340032F08D18A48006800F4003088B3606878BB012017E700BF6068B0F5803F06D18F
S325080083608348006840F48030814908601AE06068B0F5A02F0BD17E48006840F480207C49CD
S3250800838008600846006840F4803008600AE07848006820F48030764908600846006820F49E
S325080083A08020086000BF606890B1FEF795FF054607E01EE0FEF790FF401B642801D90320BE
S325080083C0E1E66B48006800F400300028F2D010E0FEF782FF054606E0FEF77EFF401B6428AF
S325080083E001D90320CFE66248006800F400300028F2D1207800F00200022852D1042E03D0C0
S325080084000C2E14D1022F12D15948006800F4806018B1E06808B90120B5E65548406820F05B
S32508008420FE40217C40EA01605149486039E0E06800B34F48006840F480704D490860FEF75C
S325080084404BFF054606E0FEF747FF401B022801D9032098E64648006800F480600028F2D0A4
S325080084604348406820F0FE40217C40EA01604049486016E03E48006820F480703C4908603F
S32508008480FEF72AFF054606E0FEF726FF401B022801D9032077E63648006800F480600028A4
S325080084A0F2D1207800F00800082836D16069D0B12F489430006840F001002D49C1F8940043
